{"abi":[{"inputs":[],"stateMutability":"nonpayable","type":"constructor","name":"constructor"},{"inputs":[{"internalType":"string","name":"_niv","type":"string"},{"internalType":"string","name":"_accident","type":"string"}],"name":"addAccident","outputs":[],"stateMutability":"nonpayable","type":"function"},{"inputs":[{"internalType":"string","name":"_niv","type":"string"},{"internalType":"string","name":"_report","type":"string"}],"name":"addCarReport","outputs":[],"stateMutability":"nonpayable","type":"function"},{"inputs":[{"internalType":"string","name":"_niv","type":"string"},{"internalType":"string","name":"_infos","type":"string"}],"name":"createNewCar","outputs":[],"stateMutability":"nonpayable","type":"function"},{"inputs":[{"internalType":"string","name":"_niv","type":"string"}],"name":"getAccidentsList","outputs":[{"internalType":"string[]","name":"","type":"string[]"}],"stateMutability":"view","type":"function"},{"inputs":[{"internalType":"address","name":"_of","type":"address"},{"internalType":"enum AutomobileRegistrationSystem.Role","name":"_role","type":"uint8"}],"name":"getAccountRole","outputs":[{"internalType":"bool","name":"","type":"bool"}],"stateMutability":"view","type":"function"},{"inputs":[{"internalType":"string","name":"_niv","type":"string"}],"name":"getCar","outputs":[{"internalType":"contract Car","name":"","type":"address"}],"stateMutability":"view","type":"function"},{"inputs":[{"internalType":"string","name":"_niv","type":"string"}],"name":"getCarAllInfos","outputs":[{"internalType":"string","name":"","type":"string"},{"internalType":"string[]","name":"","type":"string[]"},{"internalType":"string[]","name":"","type":"string[]"},{"internalType":"string[]","name":"","type":"string[]"},{"internalType":"string[]","name":"","type":"string[]"},{"internalType":"bool","name":"","type":"bool"}],"stateMutability":"view","type":"function"},{"inputs":[{"internalType":"string","name":"_niv","type":"string"}],"name":"getCarInfos","outputs":[{"internalType":"string","name":"","type":"string"}],"stateMutability":"view","type":"function"},{"inputs":[{"internalType":"string","name":"_niv","type":"string"}],"name":"getCarOwner","outputs":[{"internalType":"string[]","name":"","type":"string[]"}],"stateMutability":"view","type":"function"},{"inputs":[{"internalType":"string","name":"_niv","type":"string"}],"name":"getCarPreviousTransactions","outputs":[{"internalType":"string[]","name":"","type":"string[]"}],"stateMutability":"view","type":"function"},{"inputs":[{"internalType":"string","name":"_niv","type":"string"}],"name":"getCarReport","outputs":[{"internalType":"string[]","name":"","type":"string[]"}],"stateMutability":"view","type":"function"},{"inputs":[{"internalType":"string","name":"_niv","type":"string"}],"name":"getCarSignalisation","outputs":[{"internalType":"bool","name":"","type":"bool"}],"stateMutability":"view","type":"function"},{"inputs":[{"internalType":"string","name":"_niv","type":"string"},{"internalType":"string","name":"_owner","type":"string"},{"internalType":"string","name":"_transactionInfo","type":"string"}],"name":"setCarOwner","outputs":[],"stateMutability":"nonpayable","type":"function"},{"inputs":[{"internalType":"string","name":"_niv","type":"string"},{"internalType":"bool","name":"_signalisation","type":"bool"}],"name":"setCarSignalisation","outputs":[],"stateMutability":"nonpayable","type":"function"},{"inputs":[{"internalType":"address","name":"_for","type":"address"},{"internalType":"enum AutomobileRegistrationSystem.Role","name":"_role","type":"uint8"},{"internalType":"bool","name":"_roleStatus","type":"bool"}],"name":"setRole","outputs":[],"stateMutability":"nonpayable","type":"function"}],"bytecode":"608060405234801561001057600080fd5b50600080546001600160a01b0319163317905560405161002f90610071565b604051809103906000f08015801561004b573d6000803e3d6000fd5b50600180546001600160a01b0319166001600160a01b039290921691909117905561007e565b6115ba8061112683390190565b6110998061008d6000396000f3fe608060405234801561001057600080fd5b50600436106100f55760003560e01c806375d1210511610097578063b327c70011610066578063b327c7001461021d578063d0f2dd5b14610230578063f6bb6b3714610250578063f901fbb51461026357600080fd5b806375d12105146101c157806390ca8332146101d4578063a2a6d142146101e7578063aad37c991461020a57600080fd5b8063479487e3116100d3578063479487e31461014b5780634974c632146101765780634cca82881461019b5780636f059e73146101ae57600080fd5b80630b8cf8d1146100fa578063398752e01461012357806346aba62a14610136575b600080fd5b61010d610108366004610a33565b610276565b60405161011a9190610b18565b60405180910390f35b61010d610131366004610a33565b6102ec565b610149610144366004610b2b565b610368565b005b61015e610159366004610a33565b610438565b6040516001600160a01b03909116815260200161011a565b610189610184366004610a33565b6104ae565b60405161011a96959493929190610bb3565b61010d6101a9366004610a33565b61053a565b6101496101bc366004610c2a565b610582565b6101496101cf366004610c2a565b6105f3565b61010d6101e2366004610a33565b61065b565b6101fa6101f5366004610cba565b6106a8565b604051901515815260200161011a565b610149610218366004610c2a565b61075f565b6101fa61022b366004610a33565b610799565b61024361023e366004610a33565b610805565b60405161011a9190610cef565b61014961025e366004610d10565b61087a565b610149610271366004610d59565b610935565b606061028182610438565b6001600160a01b031663581003706040518163ffffffff1660e01b8152600401600060405180830381865afa1580156102be573d6000803e3d6000fd5b505050506040513d6000823e601f3d908101601f191682016040526102e69190810190610e8f565b92915050565b606060006102f983610438565b9050806001600160a01b031663e4085d676040518163ffffffff1660e01b8152600401600060405180830381865afa158015610339573d6000803e3d6000fd5b505050506040513d6000823e601f3d908101601f191682016040526103619190810190610e8f565b9392505050565b600061037384610438565b6040516302e01dbb60e21b81529091506001600160a01b03821690630b8076ec906103a2908690600401610cef565b600060405180830381600087803b1580156103bc57600080fd5b505af11580156103d0573d6000803e3d6000fd5b5050604051637a64f11360e01b81526001600160a01b0384169250637a64f1139150610400908590600401610cef565b600060405180830381600087803b15801561041a57600080fd5b505af115801561042e573d6000803e3d6000fd5b5050505050505050565b600154604051634b22dc9160e01b815260009182916001600160a01b0390911690634b22dc919061046d908690600401610cef565b602060405180830381865afa15801561048a573d6000803e3d6000fd5b505050506040513d601f19601f820116820180604052508101906103619190610ec4565b606080606080606060006104c187610438565b6001600160a01b031663d80516a56040518163ffffffff1660e01b8152600401600060405180830381865afa1580156104fe573d6000803e3d6000fd5b505050506040513d6000823e601f3d908101601f191682016040526105269190810190610eec565b949c939b5091995097509550909350915050565b606061054582610438565b6001600160a01b031663b5cd26f86040518163ffffffff1660e01b8152600401600060405180830381865afa1580156102be573d6000803e3d6000fd5b600061058d83610438565b60405163134044a160e01b81529091506001600160a01b0382169063134044a1906105bc908590600401610cef565b600060405180830381600087803b1580156105d657600080fd5b505af11580156105ea573d6000803e3d6000fd5b50505050505050565b600154604051633de4de8f60e01b81526001600160a01b0390911690633de4de8f906106259085908590600401610fcd565b600060405180830381600087803b15801561063f57600080fd5b505af1158015610653573d6000803e3d6000fd5b505050505050565b6060600061066883610438565b9050806001600160a01b031663bd51b8e06040518163ffffffff1660e01b8152600401600060405180830381865afa158015610339573d6000803e3d6000fd5b600080546001600160a01b031633146107085760405162461bcd60e51b815260206004820152601e60248201527f596f75277265206e6f7420746865206f776e65722c2061626f7274696e67000060448201526064015b60405180910390fd5b6001600160a01b03831660009081526002602052604081209083600381111561073357610733610ffb565b600381111561074457610744610ffb565b815260208101919091526040016000205460ff169392505050565b600061076a83610438565b604051632be527f360e11b81529091506001600160a01b038216906357ca4fe6906105bc908590600401610cef565b60006107a482610438565b6001600160a01b031663888dbbc16040518163ffffffff1660e01b8152600401602060405180830381865afa1580156107e1573d6000803e3d6000fd5b505050506040513d601f19601f820116820180604052508101906102e69190611011565b6060600061081283610438565b9050806001600160a01b031663643d6dc06040518163ffffffff1660e01b8152600401600060405180830381865afa158015610852573d6000803e3d6000fd5b505050506040513d6000823e601f3d908101601f19168201604052610361919081019061102e565b6000546001600160a01b031633146108d45760405162461bcd60e51b815260206004820152601e60248201527f596f75277265206e6f7420746865206f776e65722c2061626f7274696e67000060448201526064016106ff565b6001600160a01b0383166000908152600260205260408120829184600381111561090057610900610ffb565b600381111561091157610911610ffb565b81526020810191909152604001600020805460ff1916911515919091179055505050565b61093e82610438565b60405163aba0bc9f60e01b815282151560048201526001600160a01b03919091169063aba0bc9f90602401610625565b634e487b7160e01b600052604160045260246000fd5b604051601f8201601f1916810167ffffffffffffffff811182821017156109ad576109ad61096e565b604052919050565b600067ffffffffffffffff8211156109cf576109cf61096e565b50601f01601f191660200190565b600082601f8301126109ee57600080fd5b8135610a016109fc826109b5565b610984565b818152846020838601011115610a1657600080fd5b816020850160208301376000918101602001919091529392505050565b600060208284031215610a4557600080fd5b813567ffffffffffffffff811115610a5c57600080fd5b610a68848285016109dd565b949350505050565b60005b83811015610a8b578181015183820152602001610a73565b50506000910152565b60008151808452610aac816020860160208601610a70565b601f01601f19169290920160200192915050565b600082825180855260208086019550808260051b84010181860160005b84811015610b0b57601f19868403018952610af9838351610a94565b98840198925090830190600101610add565b5090979650505050505050565b6020815260006103616020830184610ac0565b600080600060608486031215610b4057600080fd5b833567ffffffffffffffff80821115610b5857600080fd5b610b64878388016109dd565b94506020860135915080821115610b7a57600080fd5b610b86878388016109dd565b93506040860135915080821115610b9c57600080fd5b50610ba9868287016109dd565b9150509250925092565b60c081526000610bc660c0830189610a94565b8281036020840152610bd88189610ac0565b90508281036040840152610bec8188610ac0565b90508281036060840152610c008187610ac0565b90508281036080840152610c148186610ac0565b91505082151560a0830152979650505050505050565b60008060408385031215610c3d57600080fd5b823567ffffffffffffffff80821115610c5557600080fd5b610c61868387016109dd565b93506020850135915080821115610c7757600080fd5b50610c84858286016109dd565b9150509250929050565b6001600160a01b0381168114610ca357600080fd5b50565b803560048110610cb557600080fd5b919050565b60008060408385031215610ccd57600080fd5b8235610cd881610c8e565b9150610ce660208401610ca6565b90509250929050565b6020815260006103616020830184610a94565b8015158114610ca357600080fd5b600080600060608486031215610d2557600080fd5b8335610d3081610c8e565b9250610d3e60208501610ca6565b91506040840135610d4e81610d02565b809150509250925092565b60008060408385031215610d6c57600080fd5b823567ffffffffffffffff811115610d8357600080fd5b610d8f858286016109dd565b9250506020830135610da081610d02565b809150509250929050565b600082601f830112610dbc57600080fd5b8151610dca6109fc826109b5565b818152846020838601011115610ddf57600080fd5b610a68826020830160208701610a70565b600082601f830112610e0157600080fd5b8151602067ffffffffffffffff80831115610e1e57610e1e61096e565b8260051b610e2d838201610984565b9384528581018301938381019088861115610e4757600080fd5b84880192505b85831015610e8357825184811115610e655760008081fd5b610e738a87838c0101610dab565b8352509184019190840190610e4d565b98975050505050505050565b600060208284031215610ea157600080fd5b815167ffffffffffffffff811115610eb857600080fd5b610a6884828501610df0565b600060208284031215610ed657600080fd5b815161036181610c8e565b8051610cb581610d02565b60008060008060008060c08789031215610f0557600080fd5b865167ffffffffffffffff80821115610f1d57600080fd5b610f298a838b01610dab565b97506020890151915080821115610f3f57600080fd5b610f4b8a838b01610df0565b96506040890151915080821115610f6157600080fd5b610f6d8a838b01610df0565b95506060890151915080821115610f8357600080fd5b610f8f8a838b01610df0565b94506080890151915080821115610fa557600080fd5b50610fb289828a01610df0565b925050610fc160a08801610ee1565b90509295509295509295565b604081526000610fe06040830185610a94565b8281036020840152610ff28185610a94565b95945050505050565b634e487b7160e01b600052602160045260246000fd5b60006020828403121561102357600080fd5b815161036181610d02565b60006020828403121561104057600080fd5b815167ffffffffffffffff81111561105757600080fd5b610a6884828501610dab56fea2646970667358221220aa846f0c4690c82ba6c3ccda752538bda20813cbec084fdae62dd1a9e906798164736f6c63430008130033608060405234801561001057600080fd5b5061159a806100206000396000f3fe608060405234801561001057600080fd5b50600436106100365760003560e01c80633de4de8f1461003b5780634b22dc9114610050575b600080fd5b61004e6100493660046101f9565b61007f565b005b61006361005e36600461025d565b610118565b6040516001600160a01b03909116815260200160405180910390f35b818160405161008d90610149565b6100989291906102ea565b604051809103906000f0801580156100b4573d6000803e3d6000fd5b50600080546001600160a01b0319166001600160a01b039290921691821790556040516002906100e5908590610318565b90815260405190819003602001902080546001600160a01b03929092166001600160a01b03199092169190911790555050565b600060028260405161012a9190610318565b908152604051908190036020019020546001600160a01b031692915050565b6112308061033583390190565b634e487b7160e01b600052604160045260246000fd5b600082601f83011261017d57600080fd5b813567ffffffffffffffff8082111561019857610198610156565b604051601f8301601f19908116603f011681019082821181831017156101c0576101c0610156565b816040528381528660208588010111156101d957600080fd5b836020870160208301376000602085830101528094505050505092915050565b6000806040838503121561020c57600080fd5b823567ffffffffffffffff8082111561022457600080fd5b6102308683870161016c565b9350602085013591508082111561024657600080fd5b506102538582860161016c565b9150509250929050565b60006020828403121561026f57600080fd5b813567ffffffffffffffff81111561028657600080fd5b6102928482850161016c565b949350505050565b60005b838110156102b557818101518382015260200161029d565b50506000910152565b600081518084526102d681602086016020860161029a565b601f01601f19169290920160200192915050565b6040815260006102fd60408301856102be565b828103602084015261030f81856102be565b95945050505050565b6000825161032a81846020870161029a565b919091019291505056fe60806040523480156200001157600080fd5b50604051620012303803806200123083398101604081905262000034916200012d565b600062000042838262000226565b506008805460ff191660019081179091556200005f828262000226565b505050620002f2565b634e487b7160e01b600052604160045260246000fd5b600082601f8301126200009057600080fd5b81516001600160401b0380821115620000ad57620000ad62000068565b604051601f8301601f19908116603f01168101908282118183101715620000d857620000d862000068565b81604052838152602092508683858801011115620000f557600080fd5b600091505b83821015620001195785820183015181830184015290820190620000fa565b600093810190920192909252949350505050565b600080604083850312156200014157600080fd5b82516001600160401b03808211156200015957600080fd5b62000167868387016200007e565b935060208501519150808211156200017e57600080fd5b506200018d858286016200007e565b9150509250929050565b600181811c90821680620001ac57607f821691505b602082108103620001cd57634e487b7160e01b600052602260045260246000fd5b50919050565b601f8211156200022157600081815260208120601f850160051c81016020861015620001fc5750805b601f850160051c820191505b818110156200021d5782815560010162000208565b5050505b505050565b81516001600160401b0381111562000242576200024262000068565b6200025a8162000253845462000197565b84620001d3565b602080601f831160018114620002925760008415620002795750858301515b600019600386901b1c1916600185901b1785556200021d565b600085815260208120601f198616915b82811015620002c357888601518255948401946001909101908401620002a2565b5085821015620002e25787850151600019600388901b60f8161c191681555b5050505050600190811b01905550565b610f2e80620003026000396000f3fe608060405234801561001057600080fd5b50600436106100b45760003560e01c8063888dbbc111610071578063888dbbc11461013a578063aba0bc9f14610155578063b5cd26f81461017d578063bd51b8e014610185578063d80516a51461018d578063e4085d67146101a757600080fd5b80630b8076ec146100b9578063134044a1146100ce57806357ca4fe6146100e157806358100370146100f4578063643d6dc0146101125780637a64f11314610127575b600080fd5b6100cc6100c7366004610abf565b6101af565b005b6100cc6100dc366004610abf565b6101fd565b6100cc6100ef366004610abf565b610239565b6100fc610275565b6040516101099190610c0e565b60405180910390f35b61011a61034e565b6040516101099190610c28565b6100cc610135366004610abf565b6103e0565b600854610100900460ff166040519015158152602001610109565b6100cc610163366004610c3b565b600880549115156101000261ff0019909216919091179055565b6100fc61042a565b6100fc6104fa565b6101956105ca565b60405161010996959493929190610c5d565b6100fc6109d9565b60026101bb8282610d5d565b50600580546001810182556000919091527f036b6384b5eca791c62761152d0c79bb0604c104a5fb6f4eb0703f3154bb3db0016101f9600282610e1d565b5050565b600480546001810182556000919091527f8a35acfbc15ff81a39ae7d344fd709f28e8600b4aa8c65c6b64bfe7fe36bd19b016101f98282610d5d565b600380546001810182556000919091527fc2575a0e9e593c00f959f8c92f12db2869c3395a3b0502d05e2516446f71f85b016101f98282610d5d565b60606005805480602002602001604051908101604052809291908181526020016000905b828210156103455783829060005260206000200180546102b890610cd4565b80601f01602080910402602001604051908101604052809291908181526020018280546102e490610cd4565b80156103315780601f1061030657610100808354040283529160200191610331565b820191906000526020600020905b81548152906001019060200180831161031457829003601f168201915b505050505081526020019060010190610299565b50505050905090565b60606001805461035d90610cd4565b80601f016020809104026020016040519081016040528092919081815260200182805461038990610cd4565b80156103d65780601f106103ab576101008083540402835291602001916103d6565b820191906000526020600020905b8154815290600101906020018083116103b957829003601f168201915b5050505050905090565b60066103ec8282610d5d565b50600780546001810182556000919091527fa66cc928b5edb82af9bd49922954155ab7b0942694bea4ce44661d9a8736c688016101f9600682610e1d565b60606007805480602002602001604051908101604052809291908181526020016000905b8282101561034557838290600052602060002001805461046d90610cd4565b80601f016020809104026020016040519081016040528092919081815260200182805461049990610cd4565b80156104e65780601f106104bb576101008083540402835291602001916104e6565b820191906000526020600020905b8154815290600101906020018083116104c957829003601f168201915b50505050508152602001906001019061044e565b60606004805480602002602001604051908101604052809291908181526020016000905b8282101561034557838290600052602060002001805461053d90610cd4565b80601f016020809104026020016040519081016040528092919081815260200182805461056990610cd4565b80156105b65780601f1061058b576101008083540402835291602001916105b6565b820191906000526020600020905b81548152906001019060200180831161059957829003601f168201915b50505050508152602001906001019061051e565b6060806060806060600060016004600560036007600860019054906101000a900460ff168580546105fa90610cd4565b80601f016020809104026020016040519081016040528092919081815260200182805461062690610cd4565b80156106735780601f1061064857610100808354040283529160200191610673565b820191906000526020600020905b81548152906001019060200180831161065657829003601f168201915b5050505050955084805480602002602001604051908101604052809291908181526020016000905b828210156107475783829060005260206000200180546106ba90610cd4565b80601f01602080910402602001604051908101604052809291908181526020018280546106e690610cd4565b80156107335780601f1061070857610100808354040283529160200191610733565b820191906000526020600020905b81548152906001019060200180831161071657829003601f168201915b50505050508152602001906001019061069b565b50505050945083805480602002602001604051908101604052809291908181526020016000905b8282101561081a57838290600052602060002001805461078d90610cd4565b80601f01602080910402602001604051908101604052809291908181526020018280546107b990610cd4565b80156108065780601f106107db57610100808354040283529160200191610806565b820191906000526020600020905b8154815290600101906020018083116107e957829003601f168201915b50505050508152602001906001019061076e565b50505050935082805480602002602001604051908101604052809291908181526020016000905b828210156108ed57838290600052602060002001805461086090610cd4565b80601f016020809104026020016040519081016040528092919081815260200182805461088c90610cd4565b80156108d95780601f106108ae576101008083540402835291602001916108d9565b820191906000526020600020905b8154815290600101906020018083116108bc57829003601f168201915b505050505081526020019060010190610841565b50505050925081805480602002602001604051908101604052809291908181526020016000905b828210156109c057838290600052602060002001805461093390610cd4565b80601f016020809104026020016040519081016040528092919081815260200182805461095f90610cd4565b80156109ac5780601f10610981576101008083540402835291602001916109ac565b820191906000526020600020905b81548152906001019060200180831161098f57829003601f168201915b505050505081526020019060010190610914565b50989f979e50959c50939a509850965092945050505050565b60606003805480602002602001604051908101604052809291908181526020016000905b82821015610345578382906000526020600020018054610a1c90610cd4565b80601f0160208091040260200160405190810160405280929190818152602001828054610a4890610cd4565b8015610a955780601f10610a6a57610100808354040283529160200191610a95565b820191906000526020600020905b815481529060010190602001808311610a7857829003601f168201915b5050505050815260200190600101906109fd565b634e487b7160e01b600052604160045260246000fd5b600060208284031215610ad157600080fd5b813567ffffffffffffffff80821115610ae957600080fd5b818401915084601f830112610afd57600080fd5b813581811115610b0f57610b0f610aa9565b604051601f8201601f19908116603f01168101908382118183101715610b3757610b37610aa9565b81604052828152876020848701011115610b5057600080fd5b826020860160208301376000928101602001929092525095945050505050565b6000815180845260005b81811015610b9657602081850181015186830182015201610b7a565b506000602082860101526020601f19601f83011685010191505092915050565b600082825180855260208086019550808260051b84010181860160005b84811015610c0157601f19868403018952610bef838351610b70565b98840198925090830190600101610bd3565b5090979650505050505050565b602081526000610c216020830184610bb6565b9392505050565b602081526000610c216020830184610b70565b600060208284031215610c4d57600080fd5b81358015158114610c2157600080fd5b60c081526000610c7060c0830189610b70565b8281036020840152610c828189610bb6565b90508281036040840152610c968188610bb6565b90508281036060840152610caa8187610bb6565b90508281036080840152610cbe8186610bb6565b91505082151560a0830152979650505050505050565b600181811c90821680610ce857607f821691505b602082108103610d0857634e487b7160e01b600052602260045260246000fd5b50919050565b601f821115610d5857600081815260208120601f850160051c81016020861015610d355750805b601f850160051c820191505b81811015610d5457828155600101610d41565b5050505b505050565b815167ffffffffffffffff811115610d7757610d77610aa9565b610d8b81610d858454610cd4565b84610d0e565b602080601f831160018114610dc05760008415610da85750858301515b600019600386901b1c1916600185901b178555610d54565b600085815260208120601f198616915b82811015610def57888601518255948401946001909101908401610dd0565b5085821015610e0d5787850151600019600388901b60f8161c191681555b5050505050600190811b01905550565b818103610e28575050565b610e328254610cd4565b67ffffffffffffffff811115610e4a57610e4a610aa9565b610e5881610d858454610cd4565b6000601f821160018114610e8c5760008315610e745750848201545b600019600385901b1c1916600184901b178455610ef1565b600085815260209020601f19841690600086815260209020845b83811015610ec65782860154825560019586019590910190602001610ea6565b5085831015610ee45781850154600019600388901b60f8161c191681555b50505060018360011b0184555b505050505056fea26469706673582212203429b3d3d45a9d0d52d255c9a480be003cd45fec11330f4f657e57e1b88bbe0964736f6c63430008130033a2646970667358221220ee492f648d915a74c7527fe6b6529a49b08dd1ae269fa9502429aecdd31ebea764736f6c63430008130033","bytecodeSha1":"f7025c72a74791f6048a123eb3c0f0b8d8af4032","compiler":{"evm_version":"istanbul","optimizer":{"enabled":true,"runs":200},"version":"0.8.19+commit.7dd6d404"},"contractName":"AutomobileRegistrationSystem","language":"Solidity","natspec":{"kind":"dev","methods":{},"version":1},"opcodes":"PUSH1 0x80 PUSH1 0x40 MSTORE CALLVALUE DUP1 ISZERO PUSH2 0x10 JUMPI PUSH1 0x0 DUP1 REVERT JUMPDEST POP PUSH1 0x4 CALLDATASIZE LT PUSH2 0xF5 JUMPI PUSH1 0x0 CALLDATALOAD PUSH1 0xE0 SHR DUP1 PUSH4 0x75D12105 GT PUSH2 0x97 JUMPI DUP1 PUSH4 0xB327C700 GT PUSH2 0x66 JUMPI DUP1 PUSH4 0xB327C700 EQ PUSH2 0x21D JUMPI DUP1 PUSH4 0xD0F2DD5B EQ PUSH2 0x230 JUMPI DUP1 PUSH4 0xF6BB6B37 EQ PUSH2 0x250 JUMPI DUP1 PUSH4 0xF901FBB5 EQ PUSH2 0x263 JUMPI PUSH1 0x0 DUP1 REVERT JUMPDEST DUP1 PUSH4 0x75D12105 EQ PUSH2 0x1C1 JUMPI DUP1 PUSH4 0x90CA8332 EQ PUSH2 0x1D4 JUMPI DUP1 PUSH4 0xA2A6D142 EQ PUSH2 0x1E7 JUMPI DUP1 PUSH4 0xAAD37C99 EQ PUSH2 0x20A JUMPI PUSH1 0x0 DUP1 REVERT JUMPDEST DUP1 PUSH4 0x479487E3 GT PUSH2 0xD3 JUMPI DUP1 PUSH4 0x479487E3 EQ PUSH2 0x14B JUMPI DUP1 PUSH4 0x4974C632 EQ PUSH2 0x176 JUMPI DUP1 PUSH4 0x4CCA8288 EQ PUSH2 0x19B JUMPI DUP1 PUSH4 0x6F059E73 EQ PUSH2 0x1AE JUMPI PUSH1 0x0 DUP1 REVERT JUMPDEST DUP1 PUSH4 0xB8CF8D1 EQ PUSH2 0xFA JUMPI DUP1 PUSH4 0x398752E0 EQ PUSH2 0x123 JUMPI DUP1 PUSH4 0x46ABA62A EQ PUSH2 0x136 JUMPI JUMPDEST PUSH1 0x0 DUP1 REVERT JUMPDEST PUSH2 0x10D PUSH2 0x108 CALLDATASIZE PUSH1 0x4 PUSH2 0xA33 JUMP JUMPDEST PUSH2 0x276 JUMP JUMPDEST PUSH1 0x40 MLOAD PUSH2 0x11A SWAP2 SWAP1 PUSH2 0xB18 JUMP JUMPDEST PUSH1 0x40 MLOAD DUP1 SWAP2 SUB SWAP1 RETURN JUMPDEST PUSH2 0x10D PUSH2 0x131 CALLDATASIZE PUSH1 0x4 PUSH2 0xA33 JUMP JUMPDEST PUSH2 0x2EC JUMP JUMPDEST PUSH2 0x149 PUSH2 0x144 CALLDATASIZE PUSH1 0x4 PUSH2 0xB2B JUMP JUMPDEST PUSH2 0x368 JUMP JUMPDEST STOP JUMPDEST PUSH2 0x15E PUSH2 0x159 CALLDATASIZE PUSH1 0x4 PUSH2 0xA33 JUMP JUMPDEST PUSH2 0x438 JUMP JUMPDEST PUSH1 0x40 MLOAD PUSH1 0x1 PUSH1 0x1 PUSH1 0xA0 SHL SUB SWAP1 SWAP2 AND DUP2 MSTORE PUSH1 0x20 ADD PUSH2 0x11A JUMP JUMPDEST PUSH2 0x189 PUSH2 0x184 CALLDATASIZE PUSH1 0x4 PUSH2 0xA33 JUMP JUMPDEST PUSH2 0x4AE JUMP JUMPDEST PUSH1 0x40 MLOAD PUSH2 0x11A SWAP7 SWAP6 SWAP5 SWAP4 SWAP3 SWAP2 SWAP1 PUSH2 0xBB3 JUMP JUMPDEST PUSH2 0x10D PUSH2 0x1A9 CALLDATASIZE PUSH1 0x4 PUSH2 0xA33 JUMP JUMPDEST PUSH2 0x53A JUMP JUMPDEST PUSH2 0x149 PUSH2 0x1BC CALLDATASIZE PUSH1 0x4 PUSH2 0xC2A JUMP JUMPDEST PUSH2 0x582 JUMP JUMPDEST PUSH2 0x149 PUSH2 0x1CF CALLDATASIZE PUSH1 0x4 PUSH2 0xC2A JUMP JUMPDEST PUSH2 0x5F3 JUMP JUMPDEST PUSH2 0x10D PUSH2 0x1E2 CALLDATASIZE PUSH1 0x4 PUSH2 0xA33 JUMP JUMPDEST PUSH2 0x65B JUMP JUMPDEST PUSH2 0x1FA PUSH2 0x1F5 CALLDATASIZE PUSH1 0x4 PUSH2 0xCBA JUMP JUMPDEST PUSH2 0x6A8 JUMP JUMPDEST PUSH1 0x40 MLOAD SWAP1 ISZERO ISZERO DUP2 MSTORE PUSH1 0x20 ADD PUSH2 0x11A JUMP JUMPDEST PUSH2 0x149 PUSH2 0x218 CALLDATASIZE PUSH1 0x4 PUSH2 0xC2A JUMP JUMPDEST PUSH2 0x75F JUMP JUMPDEST PUSH2 0x1FA PUSH2 0x22B CALLDATASIZE PUSH1 0x4 PUSH2 0xA33 JUMP JUMPDEST PUSH2 0x799 JUMP JUMPDEST PUSH2 0x243 PUSH2 0x23E CALLDATASIZE PUSH1 0x4 PUSH2 0xA33 JUMP JUMPDEST PUSH2 0x805 JUMP JUMPDEST PUSH1 0x40 MLOAD PUSH2 0x11A SWAP2 SWAP1 PUSH2 0xCEF JUMP JUMPDEST PUSH2 0x149 PUSH2 0x25E CALLDATASIZE PUSH1 0x4 PUSH2 0xD10 JUMP JUMPDEST PUSH2 0x87A JUMP JUMPDEST PUSH2 0x149 PUSH2 0x271 CALLDATASIZE PUSH1 0x4 PUSH2 0xD59 JUMP JUMPDEST PUSH2 0x935 JUMP JUMPDEST PUSH1 0x60 PUSH2 0x281 DUP3 PUSH2 0x438 JUMP JUMPDEST PUSH1 0x1 PUSH1 0x1 PUSH1 0xA0 SHL SUB AND PUSH4 0x58100370 PUSH1 0x40 MLOAD DUP2 PUSH4 0xFFFFFFFF AND PUSH1 0xE0 SHL DUP2 MSTORE PUSH1 0x4 ADD PUSH1 0x0 PUSH1 0x40 MLOAD DUP1 DUP4 SUB DUP2 DUP7 GAS STATICCALL ISZERO DUP1 ISZERO PUSH2 0x2BE JUMPI RETURNDATASIZE PUSH1 0x0 DUP1 RETURNDATACOPY RETURNDATASIZE PUSH1 0x0 REVERT JUMPDEST POP POP POP POP PUSH1 0x40 MLOAD RETURNDATASIZE PUSH1 0x0 DUP3 RETURNDATACOPY PUSH1 0x1F RETURNDATASIZE SWAP1 DUP2 ADD PUSH1 0x1F NOT AND DUP3 ADD PUSH1 0x40 MSTORE PUSH2 0x2E6 SWAP2 SWAP1 DUP2 ADD SWAP1 PUSH2 0xE8F JUMP JUMPDEST SWAP3 SWAP2 POP POP JUMP JUMPDEST PUSH1 0x60 PUSH1 0x0 PUSH2 0x2F9 DUP4 PUSH2 0x438 JUMP JUMPDEST SWAP1 POP DUP1 PUSH1 0x1 PUSH1 0x1 PUSH1 0xA0 SHL SUB AND PUSH4 0xE4085D67 PUSH1 0x40 MLOAD DUP2 PUSH4 0xFFFFFFFF AND PUSH1 0xE0 SHL DUP2 MSTORE PUSH1 0x4 ADD PUSH1 0x0 PUSH1 0x40 MLOAD DUP1 DUP4 SUB DUP2 DUP7 GAS STATICCALL ISZERO DUP1 ISZERO PUSH2 0x339 JUMPI RETURNDATASIZE PUSH1 0x0 DUP1 RETURNDATACOPY RETURNDATASIZE PUSH1 0x0 REVERT JUMPDEST POP POP POP POP PUSH1 0x40 MLOAD RETURNDATASIZE PUSH1 0x0 DUP3 RETURNDATACOPY PUSH1 0x1F RETURNDATASIZE SWAP1 DUP2 ADD PUSH1 0x1F NOT AND DUP3 ADD PUSH1 0x40 MSTORE PUSH2 0x361 SWAP2 SWAP1 DUP2 ADD SWAP1 PUSH2 0xE8F JUMP JUMPDEST SWAP4 SWAP3 POP POP POP JUMP JUMPDEST PUSH1 0x0 PUSH2 0x373 DUP5 PUSH2 0x438 JUMP JUMPDEST PUSH1 0x40 MLOAD PUSH4 0x2E01DBB PUSH1 0xE2 SHL DUP2 MSTORE SWAP1 SWAP2 POP PUSH1 0x1 PUSH1 0x1 PUSH1 0xA0 SHL SUB DUP3 AND SWAP1 PUSH4 0xB8076EC SWAP1 PUSH2 0x3A2 SWAP1 DUP7 SWAP1 PUSH1 0x4 ADD PUSH2 0xCEF JUMP JUMPDEST PUSH1 0x0 PUSH1 0x40 MLOAD DUP1 DUP4 SUB DUP2 PUSH1 0x0 DUP8 DUP1 EXTCODESIZE ISZERO DUP1 ISZERO PUSH2 0x3BC JUMPI PUSH1 0x0 DUP1 REVERT JUMPDEST POP GAS CALL ISZERO DUP1 ISZERO PUSH2 0x3D0 JUMPI RETURNDATASIZE PUSH1 0x0 DUP1 RETURNDATACOPY RETURNDATASIZE PUSH1 0x0 REVERT JUMPDEST POP POP PUSH1 0x40 MLOAD PUSH4 0x7A64F113 PUSH1 0xE0 SHL DUP2 MSTORE PUSH1 0x1 PUSH1 0x1 PUSH1 0xA0 SHL SUB DUP5 AND SWAP3 POP PUSH4 0x7A64F113 SWAP2 POP PUSH2 0x400 SWAP1 DUP6 SWAP1 PUSH1 0x4 ADD PUSH2 0xCEF JUMP JUMPDEST PUSH1 0x0 PUSH1 0x40 MLOAD DUP1 DUP4 SUB DUP2 PUSH1 0x0 DUP8 DUP1 EXTCODESIZE ISZERO DUP1 ISZERO PUSH2 0x41A JUMPI PUSH1 0x0 DUP1 REVERT JUMPDEST POP GAS CALL ISZERO DUP1 ISZERO PUSH2 0x42E JUMPI RETURNDATASIZE PUSH1 0x0 DUP1 RETURNDATACOPY RETURNDATASIZE PUSH1 0x0 REVERT JUMPDEST POP POP POP POP POP POP POP POP JUMP JUMPDEST PUSH1 0x1 SLOAD PUSH1 0x40 MLOAD PUSH4 0x4B22DC91 PUSH1 0xE0 SHL DUP2 MSTORE PUSH1 0x0 SWAP2 DUP3 SWAP2 PUSH1 0x1 PUSH1 0x1 PUSH1 0xA0 SHL SUB SWAP1 SWAP2 AND SWAP1 PUSH4 0x4B22DC91 SWAP1 PUSH2 0x46D SWAP1 DUP7 SWAP1 PUSH1 0x4 ADD PUSH2 0xCEF JUMP JUMPDEST PUSH1 0x20 PUSH1 0x40 MLOAD DUP1 DUP4 SUB DUP2 DUP7 GAS STATICCALL ISZERO DUP1 ISZERO PUSH2 0x48A JUMPI RETURNDATASIZE PUSH1 0x0 DUP1 RETURNDATACOPY RETURNDATASIZE PUSH1 0x0 REVERT JUMPDEST POP POP POP POP PUSH1 0x40 MLOAD RETURNDATASIZE PUSH1 0x1F NOT PUSH1 0x1F DUP3 ADD AND DUP3 ADD DUP1 PUSH1 0x40 MSTORE POP DUP2 ADD SWAP1 PUSH2 0x361 SWAP2 SWAP1 PUSH2 0xEC4 JUMP JUMPDEST PUSH1 0x60 DUP1 PUSH1 0x60 DUP1 PUSH1 0x60 PUSH1 0x0 PUSH2 0x4C1 DUP8 PUSH2 0x438 JUMP JUMPDEST PUSH1 0x1 PUSH1 0x1 PUSH1 0xA0 SHL SUB AND PUSH4 0xD80516A5 PUSH1 0x40 MLOAD DUP2 PUSH4 0xFFFFFFFF AND PUSH1 0xE0 SHL DUP2 MSTORE PUSH1 0x4 ADD PUSH1 0x0 PUSH1 0x40 MLOAD DUP1 DUP4 SUB DUP2 DUP7 GAS STATICCALL ISZERO DUP1 ISZERO PUSH2 0x4FE JUMPI RETURNDATASIZE PUSH1 0x0 DUP1 RETURNDATACOPY RETURNDATASIZE PUSH1 0x0 REVERT JUMPDEST POP POP POP POP PUSH1 0x40 MLOAD RETURNDATASIZE PUSH1 0x0 DUP3 RETURNDATACOPY PUSH1 0x1F RETURNDATASIZE SWAP1 DUP2 ADD PUSH1 0x1F NOT AND DUP3 ADD PUSH1 0x40 MSTORE PUSH2 0x526 SWAP2 SWAP1 DUP2 ADD SWAP1 PUSH2 0xEEC JUMP JUMPDEST SWAP5 SWAP13 SWAP4 SWAP12 POP SWAP2 SWAP10 POP SWAP8 POP SWAP6 POP SWAP1 SWAP4 POP SWAP2 POP POP JUMP JUMPDEST PUSH1 0x60 PUSH2 0x545 DUP3 PUSH2 0x438 JUMP JUMPDEST PUSH1 0x1 PUSH1 0x1 PUSH1 0xA0 SHL SUB AND PUSH4 0xB5CD26F8 PUSH1 0x40 MLOAD DUP2 PUSH4 0xFFFFFFFF AND PUSH1 0xE0 SHL DUP2 MSTORE PUSH1 0x4 ADD PUSH1 0x0 PUSH1 0x40 MLOAD DUP1 DUP4 SUB DUP2 DUP7 GAS STATICCALL ISZERO DUP1 ISZERO PUSH2 0x2BE JUMPI RETURNDATASIZE PUSH1 0x0 DUP1 RETURNDATACOPY RETURNDATASIZE PUSH1 0x0 REVERT JUMPDEST PUSH1 0x0 PUSH2 0x58D DUP4 PUSH2 0x438 JUMP JUMPDEST PUSH1 0x40 MLOAD PUSH4 0x134044A1 PUSH1 0xE0 SHL DUP2 MSTORE SWAP1 SWAP2 POP PUSH1 0x1 PUSH1 0x1 PUSH1 0xA0 SHL SUB DUP3 AND SWAP1 PUSH4 0x134044A1 SWAP1 PUSH2 0x5BC SWAP1 DUP6 SWAP1 PUSH1 0x4 ADD PUSH2 0xCEF JUMP JUMPDEST PUSH1 0x0 PUSH1 0x40 MLOAD DUP1 DUP4 SUB DUP2 PUSH1 0x0 DUP8 DUP1 EXTCODESIZE ISZERO DUP1 ISZERO PUSH2 0x5D6 JUMPI PUSH1 0x0 DUP1 REVERT JUMPDEST POP GAS CALL ISZERO DUP1 ISZERO PUSH2 0x5EA JUMPI RETURNDATASIZE PUSH1 0x0 DUP1 RETURNDATACOPY RETURNDATASIZE PUSH1 0x0 REVERT JUMPDEST POP POP POP POP POP POP POP JUMP JUMPDEST PUSH1 0x1 SLOAD PUSH1 0x40 MLOAD PUSH4 0x3DE4DE8F PUSH1 0xE0 SHL DUP2 MSTORE PUSH1 0x1 PUSH1 0x1 PUSH1 0xA0 SHL SUB SWAP1 SWAP2 AND SWAP1 PUSH4 0x3DE4DE8F SWAP1 PUSH2 0x625 SWAP1 DUP6 SWAP1 DUP6 SWAP1 PUSH1 0x4 ADD PUSH2 0xFCD JUMP JUMPDEST PUSH1 0x0 PUSH1 0x40 MLOAD DUP1 DUP4 SUB DUP2 PUSH1 0x0 DUP8 DUP1 EXTCODESIZE ISZERO DUP1 ISZERO PUSH2 0x63F JUMPI PUSH1 0x0 DUP1 REVERT JUMPDEST POP GAS CALL ISZERO DUP1 ISZERO PUSH2 0x653 JUMPI RETURNDATASIZE PUSH1 0x0 DUP1 RETURNDATACOPY RETURNDATASIZE PUSH1 0x0 REVERT JUMPDEST POP POP POP POP POP POP JUMP JUMPDEST PUSH1 0x60 PUSH1 0x0 PUSH2 0x668 DUP4 PUSH2 0x438 JUMP JUMPDEST SWAP1 POP DUP1 PUSH1 0x1 PUSH1 0x1 PUSH1 0xA0 SHL SUB AND PUSH4 0xBD51B8E0 PUSH1 0x40 MLOAD DUP2 PUSH4 0xFFFFFFFF AND PUSH1 0xE0 SHL DUP2 MSTORE PUSH1 0x4 ADD PUSH1 0x0 PUSH1 0x40 MLOAD DUP1 DUP4 SUB DUP2 DUP7 GAS STATICCALL ISZERO DUP1 ISZERO PUSH2 0x339 JUMPI RETURNDATASIZE PUSH1 0x0 DUP1 RETURNDATACOPY RETURNDATASIZE PUSH1 0x0 REVERT JUMPDEST PUSH1 0x0 DUP1 SLOAD PUSH1 0x1 PUSH1 0x1 PUSH1 0xA0 SHL SUB AND CALLER EQ PUSH2 0x708 JUMPI PUSH1 0x40 MLOAD PUSH3 0x461BCD PUSH1 0xE5 SHL DUP2 MSTORE PUSH1 0x20 PUSH1 0x4 DUP3 ADD MSTORE PUSH1 0x1E PUSH1 0x24 DUP3 ADD MSTORE PUSH32 0x596F75277265206E6F7420746865206F776E65722C2061626F7274696E670000 PUSH1 0x44 DUP3 ADD MSTORE PUSH1 0x64 ADD JUMPDEST PUSH1 0x40 MLOAD DUP1 SWAP2 SUB SWAP1 REVERT JUMPDEST PUSH1 0x1 PUSH1 0x1 PUSH1 0xA0 SHL SUB DUP4 AND PUSH1 0x0 SWAP1 DUP2 MSTORE PUSH1 0x2 PUSH1 0x20 MSTORE PUSH1 0x40 DUP2 KECCAK256 SWAP1 DUP4 PUSH1 0x3 DUP2 GT ISZERO PUSH2 0x733 JUMPI PUSH2 0x733 PUSH2 0xFFB JUMP JUMPDEST PUSH1 0x3 DUP2 GT ISZERO PUSH2 0x744 JUMPI PUSH2 0x744 PUSH2 0xFFB JUMP JUMPDEST DUP2 MSTORE PUSH1 0x20 DUP2 ADD SWAP2 SWAP1 SWAP2 MSTORE PUSH1 0x40 ADD PUSH1 0x0 KECCAK256 SLOAD PUSH1 0xFF AND SWAP4 SWAP3 POP POP POP JUMP JUMPDEST PUSH1 0x0 PUSH2 0x76A DUP4 PUSH2 0x438 JUMP JUMPDEST PUSH1 0x40 MLOAD PUSH4 0x2BE527F3 PUSH1 0xE1 SHL DUP2 MSTORE SWAP1 SWAP2 POP PUSH1 0x1 PUSH1 0x1 PUSH1 0xA0 SHL SUB DUP3 AND SWAP1 PUSH4 0x57CA4FE6 SWAP1 PUSH2 0x5BC SWAP1 DUP6 SWAP1 PUSH1 0x4 ADD PUSH2 0xCEF JUMP JUMPDEST PUSH1 0x0 PUSH2 0x7A4 DUP3 PUSH2 0x438 JUMP JUMPDEST PUSH1 0x1 PUSH1 0x1 PUSH1 0xA0 SHL SUB AND PUSH4 0x888DBBC1 PUSH1 0x40 MLOAD DUP2 PUSH4 0xFFFFFFFF AND PUSH1 0xE0 SHL DUP2 MSTORE PUSH1 0x4 ADD PUSH1 0x20 PUSH1 0x40 MLOAD DUP1 DUP4 SUB DUP2 DUP7 GAS STATICCALL ISZERO DUP1 ISZERO PUSH2 0x7E1 JUMPI RETURNDATASIZE PUSH1 0x0 DUP1 RETURNDATACOPY RETURNDATASIZE PUSH1 0x0 REVERT JUMPDEST POP POP POP POP PUSH1 0x40 MLOAD RETURNDATASIZE PUSH1 0x1F NOT PUSH1 0x1F DUP3 ADD AND DUP3 ADD DUP1 PUSH1 0x40 MSTORE POP DUP2 ADD SWAP1 PUSH2 0x2E6 SWAP2 SWAP1 PUSH2 0x1011 JUMP JUMPDEST PUSH1 0x60 PUSH1 0x0 PUSH2 0x812 DUP4 PUSH2 0x438 JUMP JUMPDEST SWAP1 POP DUP1 PUSH1 0x1 PUSH1 0x1 PUSH1 0xA0 SHL SUB AND PUSH4 0x643D6DC0 PUSH1 0x40 MLOAD DUP2 PUSH4 0xFFFFFFFF AND PUSH1 0xE0 SHL DUP2 MSTORE PUSH1 0x4 ADD PUSH1 0x0 PUSH1 0x40 MLOAD DUP1 DUP4 SUB DUP2 DUP7 GAS STATICCALL ISZERO DUP1 ISZERO PUSH2 0x852 JUMPI RETURNDATASIZE PUSH1 0x0 DUP1 RETURNDATACOPY RETURNDATASIZE PUSH1 0x0 REVERT JUMPDEST POP POP POP POP PUSH1 0x40 MLOAD RETURNDATASIZE PUSH1 0x0 DUP3 RETURNDATACOPY PUSH1 0x1F RETURNDATASIZE SWAP1 DUP2 ADD PUSH1 0x1F NOT AND DUP3 ADD PUSH1 0x40 MSTORE PUSH2 0x361 SWAP2 SWAP1 DUP2 ADD SWAP1 PUSH2 0x102E JUMP JUMPDEST PUSH1 0x0 SLOAD PUSH1 0x1 PUSH1 0x1 PUSH1 0xA0 SHL SUB AND CALLER EQ PUSH2 0x8D4 JUMPI PUSH1 0x40 MLOAD PUSH3 0x461BCD PUSH1 0xE5 SHL DUP2 MSTORE PUSH1 0x20 PUSH1 0x4 DUP3 ADD MSTORE PUSH1 0x1E PUSH1 0x24 DUP3 ADD MSTORE PUSH32 0x596F75277265206E6F7420746865206F776E65722C2061626F7274696E670000 PUSH1 0x44 DUP3 ADD MSTORE PUSH1 0x64 ADD PUSH2 0x6FF JUMP JUMPDEST PUSH1 0x1 PUSH1 0x1 PUSH1 0xA0 SHL SUB DUP4 AND PUSH1 0x0 SWAP1 DUP2 MSTORE PUSH1 0x2 PUSH1 0x20 MSTORE PUSH1 0x40 DUP2 KECCAK256 DUP3 SWAP2 DUP5 PUSH1 0x3 DUP2 GT ISZERO PUSH2 0x900 JUMPI PUSH2 0x900 PUSH2 0xFFB JUMP JUMPDEST PUSH1 0x3 DUP2 GT ISZERO PUSH2 0x911 JUMPI PUSH2 0x911 PUSH2 0xFFB JUMP JUMPDEST DUP2 MSTORE PUSH1 0x20 DUP2 ADD SWAP2 SWAP1 SWAP2 MSTORE PUSH1 0x40 ADD PUSH1 0x0 KECCAK256 DUP1 SLOAD PUSH1 0xFF NOT AND SWAP2 ISZERO ISZERO SWAP2 SWAP1 SWAP2 OR SWAP1 SSTORE POP POP POP JUMP JUMPDEST PUSH2 0x93E DUP3 PUSH2 0x438 JUMP JUMPDEST PUSH1 0x40 MLOAD PUSH4 0xABA0BC9F PUSH1 0xE0 SHL DUP2 MSTORE DUP3 ISZERO ISZERO PUSH1 0x4 DUP3 ADD MSTORE PUSH1 0x1 PUSH1 0x1 PUSH1 0xA0 SHL SUB SWAP2 SWAP1 SWAP2 AND SWAP1 PUSH4 0xABA0BC9F SWAP1 PUSH1 0x24 ADD PUSH2 0x625 JUMP JUMPDEST PUSH4 0x4E487B71 PUSH1 0xE0 SHL PUSH1 0x0 MSTORE PUSH1 0x41 PUSH1 0x4 MSTORE PUSH1 0x24 PUSH1 0x0 REVERT JUMPDEST PUSH1 0x40 MLOAD PUSH1 0x1F DUP3 ADD PUSH1 0x1F NOT AND DUP2 ADD PUSH8 0xFFFFFFFFFFFFFFFF DUP2 GT DUP3 DUP3 LT OR ISZERO PUSH2 0x9AD JUMPI PUSH2 0x9AD PUSH2 0x96E JUMP JUMPDEST PUSH1 0x40 MSTORE SWAP2 SWAP1 POP JUMP JUMPDEST PUSH1 0x0 PUSH8 0xFFFFFFFFFFFFFFFF DUP3 GT ISZERO PUSH2 0x9CF JUMPI PUSH2 0x9CF PUSH2 0x96E JUMP JUMPDEST POP PUSH1 0x1F ADD PUSH1 0x1F NOT AND PUSH1 0x20 ADD SWAP1 JUMP JUMPDEST PUSH1 0x0 DUP3 PUSH1 0x1F DUP4 ADD SLT PUSH2 0x9EE JUMPI PUSH1 0x0 DUP1 REVERT JUMPDEST DUP2 CALLDATALOAD PUSH2 0xA01 PUSH2 0x9FC DUP3 PUSH2 0x9B5 JUMP JUMPDEST PUSH2 0x984 JUMP JUMPDEST DUP2 DUP2 MSTORE DUP5 PUSH1 0x20 DUP4 DUP7 ADD ADD GT ISZERO PUSH2 0xA16 JUMPI PUSH1 0x0 DUP1 REVERT JUMPDEST DUP2 PUSH1 0x20 DUP6 ADD PUSH1 0x20 DUP4 ADD CALLDATACOPY PUSH1 0x0 SWAP2 DUP2 ADD PUSH1 0x20 ADD SWAP2 SWAP1 SWAP2 MSTORE SWAP4 SWAP3 POP POP POP JUMP JUMPDEST PUSH1 0x0 PUSH1 0x20 DUP3 DUP5 SUB SLT ISZERO PUSH2 0xA45 JUMPI PUSH1 0x0 DUP1 REVERT JUMPDEST DUP2 CALLDATALOAD PUSH8 0xFFFFFFFFFFFFFFFF DUP2 GT ISZERO PUSH2 0xA5C JUMPI PUSH1 0x0 DUP1 REVERT JUMPDEST PUSH2 0xA68 DUP5 DUP3 DUP6 ADD PUSH2 0x9DD JUMP JUMPDEST SWAP5 SWAP4 POP POP POP POP JUMP JUMPDEST PUSH1 0x0 JUMPDEST DUP4 DUP2 LT ISZERO PUSH2 0xA8B JUMPI DUP2 DUP2 ADD MLOAD DUP4 DUP3 ADD MSTORE PUSH1 0x20 ADD PUSH2 0xA73 JUMP JUMPDEST POP POP PUSH1 0x0 SWAP2 ADD MSTORE JUMP JUMPDEST PUSH1 0x0 DUP2 MLOAD DUP1 DUP5 MSTORE PUSH2 0xAAC DUP2 PUSH1 0x20 DUP7 ADD PUSH1 0x20 DUP7 ADD PUSH2 0xA70 JUMP JUMPDEST PUSH1 0x1F ADD PUSH1 0x1F NOT AND SWAP3 SWAP1 SWAP3 ADD PUSH1 0x20 ADD SWAP3 SWAP2 POP POP JUMP JUMPDEST PUSH1 0x0 DUP3 DUP3 MLOAD DUP1 DUP6 MSTORE PUSH1 0x20 DUP1 DUP7 ADD SWAP6 POP DUP1 DUP3 PUSH1 0x5 SHL DUP5 ADD ADD DUP2 DUP7 ADD PUSH1 0x0 JUMPDEST DUP5 DUP2 LT ISZERO PUSH2 0xB0B JUMPI PUSH1 0x1F NOT DUP7 DUP5 SUB ADD DUP10 MSTORE PUSH2 0xAF9 DUP4 DUP4 MLOAD PUSH2 0xA94 JUMP JUMPDEST SWAP9 DUP5 ADD SWAP9 SWAP3 POP SWAP1 DUP4 ADD SWAP1 PUSH1 0x1 ADD PUSH2 0xADD JUMP JUMPDEST POP SWAP1 SWAP8 SWAP7 POP POP POP POP POP POP POP JUMP JUMPDEST PUSH1 0x20 DUP2 MSTORE PUSH1 0x0 PUSH2 0x361 PUSH1 0x20 DUP4 ADD DUP5 PUSH2 0xAC0 JUMP JUMPDEST PUSH1 0x0 DUP1 PUSH1 0x0 PUSH1 0x60 DUP5 DUP7 SUB SLT ISZERO PUSH2 0xB40 JUMPI PUSH1 0x0 DUP1 REVERT JUMPDEST DUP4 CALLDATALOAD PUSH8 0xFFFFFFFFFFFFFFFF DUP1 DUP3 GT ISZERO PUSH2 0xB58 JUMPI PUSH1 0x0 DUP1 REVERT JUMPDEST PUSH2 0xB64 DUP8 DUP4 DUP9 ADD PUSH2 0x9DD JUMP JUMPDEST SWAP5 POP PUSH1 0x20 DUP7 ADD CALLDATALOAD SWAP2 POP DUP1 DUP3 GT ISZERO PUSH2 0xB7A JUMPI PUSH1 0x0 DUP1 REVERT JUMPDEST PUSH2 0xB86 DUP8 DUP4 DUP9 ADD PUSH2 0x9DD JUMP JUMPDEST SWAP4 POP PUSH1 0x40 DUP7 ADD CALLDATALOAD SWAP2 POP DUP1 DUP3 GT ISZERO PUSH2 0xB9C JUMPI PUSH1 0x0 DUP1 REVERT JUMPDEST POP PUSH2 0xBA9 DUP7 DUP3 DUP8 ADD PUSH2 0x9DD JUMP JUMPDEST SWAP2 POP POP SWAP3 POP SWAP3 POP SWAP3 JUMP JUMPDEST PUSH1 0xC0 DUP2 MSTORE PUSH1 0x0 PUSH2 0xBC6 PUSH1 0xC0 DUP4 ADD DUP10 PUSH2 0xA94 JUMP JUMPDEST DUP3 DUP2 SUB PUSH1 0x20 DUP5 ADD MSTORE PUSH2 0xBD8 DUP2 DUP10 PUSH2 0xAC0 JUMP JUMPDEST SWAP1 POP DUP3 DUP2 SUB PUSH1 0x40 DUP5 ADD MSTORE PUSH2 0xBEC DUP2 DUP9 PUSH2 0xAC0 JUMP JUMPDEST SWAP1 POP DUP3 DUP2 SUB PUSH1 0x60 DUP5 ADD MSTORE PUSH2 0xC00 DUP2 DUP8 PUSH2 0xAC0 JUMP JUMPDEST SWAP1 POP DUP3 DUP2 SUB PUSH1 0x80 DUP5 ADD MSTORE PUSH2 0xC14 DUP2 DUP7 PUSH2 0xAC0 JUMP JUMPDEST SWAP2 POP POP DUP3 ISZERO ISZERO PUSH1 0xA0 DUP4 ADD MSTORE SWAP8 SWAP7 POP POP POP POP POP POP POP JUMP JUMPDEST PUSH1 0x0 DUP1 PUSH1 0x40 DUP4 DUP6 SUB SLT ISZERO PUSH2 0xC3D JUMPI PUSH1 0x0 DUP1 REVERT JUMPDEST DUP3 CALLDATALOAD PUSH8 0xFFFFFFFFFFFFFFFF DUP1 DUP3 GT ISZERO PUSH2 0xC55 JUMPI PUSH1 0x0 DUP1 REVERT JUMPDEST PUSH2 0xC61 DUP7 DUP4 DUP8 ADD PUSH2 0x9DD JUMP JUMPDEST SWAP4 POP PUSH1 0x20 DUP6 ADD CALLDATALOAD SWAP2 POP DUP1 DUP3 GT ISZERO PUSH2 0xC77 JUMPI PUSH1 0x0 DUP1 REVERT JUMPDEST POP PUSH2 0xC84 DUP6 DUP3 DUP7 ADD PUSH2 0x9DD JUMP JUMPDEST SWAP2 POP POP SWAP3 POP SWAP3 SWAP1 POP JUMP JUMPDEST PUSH1 0x1 PUSH1 0x1 PUSH1 0xA0 SHL SUB DUP2 AND DUP2 EQ PUSH2 0xCA3 JUMPI PUSH1 0x0 DUP1 REVERT JUMPDEST POP JUMP JUMPDEST DUP1 CALLDATALOAD PUSH1 0x4 DUP2 LT PUSH2 0xCB5 JUMPI PUSH1 0x0 DUP1 REVERT JUMPDEST SWAP2 SWAP1 POP JUMP JUMPDEST PUSH1 0x0 DUP1 PUSH1 0x40 DUP4 DUP6 SUB SLT ISZERO PUSH2 0xCCD JUMPI PUSH1 0x0 DUP1 REVERT JUMPDEST DUP3 CALLDATALOAD PUSH2 0xCD8 DUP2 PUSH2 0xC8E JUMP JUMPDEST SWAP2 POP PUSH2 0xCE6 PUSH1 0x20 DUP5 ADD PUSH2 0xCA6 JUMP JUMPDEST SWAP1 POP SWAP3 POP SWAP3 SWAP1 POP JUMP JUMPDEST PUSH1 0x20 DUP2 MSTORE PUSH1 0x0 PUSH2 0x361 PUSH1 0x20 DUP4 ADD DUP5 PUSH2 0xA94 JUMP JUMPDEST DUP1 ISZERO ISZERO DUP2 EQ PUSH2 0xCA3 JUMPI PUSH1 0x0 DUP1 REVERT JUMPDEST PUSH1 0x0 DUP1 PUSH1 0x0 PUSH1 0x60 DUP5 DUP7 SUB SLT ISZERO PUSH2 0xD25 JUMPI PUSH1 0x0 DUP1 REVERT JUMPDEST DUP4 CALLDATALOAD PUSH2 0xD30 DUP2 PUSH2 0xC8E JUMP JUMPDEST SWAP3 POP PUSH2 0xD3E PUSH1 0x20 DUP6 ADD PUSH2 0xCA6 JUMP JUMPDEST SWAP2 POP PUSH1 0x40 DUP5 ADD CALLDATALOAD PUSH2 0xD4E DUP2 PUSH2 0xD02 JUMP JUMPDEST DUP1 SWAP2 POP POP SWAP3 POP SWAP3 POP SWAP3 JUMP JUMPDEST PUSH1 0x0 DUP1 PUSH1 0x40 DUP4 DUP6 SUB SLT ISZERO PUSH2 0xD6C JUMPI PUSH1 0x0 DUP1 REVERT JUMPDEST DUP3 CALLDATALOAD PUSH8 0xFFFFFFFFFFFFFFFF DUP2 GT ISZERO PUSH2 0xD83 JUMPI PUSH1 0x0 DUP1 REVERT JUMPDEST PUSH2 0xD8F DUP6 DUP3 DUP7 ADD PUSH2 0x9DD JUMP JUMPDEST SWAP3 POP POP PUSH1 0x20 DUP4 ADD CALLDATALOAD PUSH2 0xDA0 DUP2 PUSH2 0xD02 JUMP JUMPDEST DUP1 SWAP2 POP POP SWAP3 POP SWAP3 SWAP1 POP JUMP JUMPDEST PUSH1 0x0 DUP3 PUSH1 0x1F DUP4 ADD SLT PUSH2 0xDBC JUMPI PUSH1 0x0 DUP1 REVERT JUMPDEST DUP2 MLOAD PUSH2 0xDCA PUSH2 0x9FC DUP3 PUSH2 0x9B5 JUMP JUMPDEST DUP2 DUP2 MSTORE DUP5 PUSH1 0x20 DUP4 DUP7 ADD ADD GT ISZERO PUSH2 0xDDF JUMPI PUSH1 0x0 DUP1 REVERT JUMPDEST PUSH2 0xA68 DUP3 PUSH1 0x20 DUP4 ADD PUSH1 0x20 DUP8 ADD PUSH2 0xA70 JUMP JUMPDEST PUSH1 0x0 DUP3 PUSH1 0x1F DUP4 ADD SLT PUSH2 0xE01 JUMPI PUSH1 0x0 DUP1 REVERT JUMPDEST DUP2 MLOAD PUSH1 0x20 PUSH8 0xFFFFFFFFFFFFFFFF DUP1 DUP4 GT ISZERO PUSH2 0xE1E JUMPI PUSH2 0xE1E PUSH2 0x96E JUMP JUMPDEST DUP3 PUSH1 0x5 SHL PUSH2 0xE2D DUP4 DUP3 ADD PUSH2 0x984 JUMP JUMPDEST SWAP4 DUP5 MSTORE DUP6 DUP2 ADD DUP4 ADD SWAP4 DUP4 DUP2 ADD SWAP1 DUP9 DUP7 GT ISZERO PUSH2 0xE47 JUMPI PUSH1 0x0 DUP1 REVERT JUMPDEST DUP5 DUP9 ADD SWAP3 POP JUMPDEST DUP6 DUP4 LT ISZERO PUSH2 0xE83 JUMPI DUP3 MLOAD DUP5 DUP2 GT ISZERO PUSH2 0xE65 JUMPI PUSH1 0x0 DUP1 DUP2 REVERT JUMPDEST PUSH2 0xE73 DUP11 DUP8 DUP4 DUP13 ADD ADD PUSH2 0xDAB JUMP JUMPDEST DUP4 MSTORE POP SWAP2 DUP5 ADD SWAP2 SWAP1 DUP5 ADD SWAP1 PUSH2 0xE4D JUMP JUMPDEST SWAP9 SWAP8 POP POP POP POP POP POP POP POP JUMP JUMPDEST PUSH1 0x0 PUSH1 0x20 DUP3 DUP5 SUB SLT ISZERO PUSH2 0xEA1 JUMPI PUSH1 0x0 DUP1 REVERT JUMPDEST DUP2 MLOAD PUSH8 0xFFFFFFFFFFFFFFFF DUP2 GT ISZERO PUSH2 0xEB8 JUMPI PUSH1 0x0 DUP1 REVERT JUMPDEST PUSH2 0xA68 DUP5 DUP3 DUP6 ADD PUSH2 0xDF0 JUMP JUMPDEST PUSH1 0x0 PUSH1 0x20 DUP3 DUP5 SUB SLT ISZERO PUSH2 0xED6 JUMPI PUSH1 0x0 DUP1 REVERT JUMPDEST DUP2 MLOAD PUSH2 0x361 DUP2 PUSH2 0xC8E JUMP JUMPDEST DUP1 MLOAD PUSH2 0xCB5 DUP2 PUSH2 0xD02 JUMP JUMPDEST PUSH1 0x0 DUP1 PUSH1 0x0 DUP1 PUSH1 0x0 DUP1 PUSH1 0xC0 DUP8 DUP10 SUB SLT ISZERO PUSH2 0xF05 JUMPI PUSH1 0x0 DUP1 REVERT JUMPDEST DUP7 MLOAD PUSH8 0xFFFFFFFFFFFFFFFF DUP1 DUP3 GT ISZERO PUSH2 0xF1D JUMPI PUSH1 0x0 DUP1 REVERT JUMPDEST PUSH2 0xF29 DUP11 DUP4 DUP12 ADD PUSH2 0xDAB JUMP JUMPDEST SWAP8 POP PUSH1 0x20 DUP10 ADD MLOAD SWAP2 POP DUP1 DUP3 GT ISZERO PUSH2 0xF3F JUMPI PUSH1 0x0 DUP1 REVERT JUMPDEST PUSH2 0xF4B DUP11 DUP4 DUP12 ADD PUSH2 0xDF0 JUMP JUMPDEST SWAP7 POP PUSH1 0x40 DUP10 ADD MLOAD SWAP2 POP DUP1 DUP3 GT ISZERO PUSH2 0xF61 JUMPI PUSH1 0x0 DUP1 REVERT JUMPDEST PUSH2 0xF6D DUP11 DUP4 DUP12 ADD PUSH2 0xDF0 JUMP JUMPDEST SWAP6 POP PUSH1 0x60 DUP10 ADD MLOAD SWAP2 POP DUP1 DUP3 GT ISZERO PUSH2 0xF83 JUMPI PUSH1 0x0 DUP1 REVERT JUMPDEST PUSH2 0xF8F DUP11 DUP4 DUP12 ADD PUSH2 0xDF0 JUMP JUMPDEST SWAP5 POP PUSH1 0x80 DUP10 ADD MLOAD SWAP2 POP DUP1 DUP3 GT ISZERO PUSH2 0xFA5 JUMPI PUSH1 0x0 DUP1 REVERT JUMPDEST POP PUSH2 0xFB2 DUP10 DUP3 DUP11 ADD PUSH2 0xDF0 JUMP JUMPDEST SWAP3 POP POP PUSH2 0xFC1 PUSH1 0xA0 DUP9 ADD PUSH2 0xEE1 JUMP JUMPDEST SWAP1 POP SWAP3 SWAP6 POP SWAP3 SWAP6 POP SWAP3 SWAP6 JUMP JUMPDEST PUSH1 0x40 DUP2 MSTORE PUSH1 0x0 PUSH2 0xFE0 PUSH1 0x40 DUP4 ADD DUP6 PUSH2 0xA94 JUMP JUMPDEST DUP3 DUP2 SUB PUSH1 0x20 DUP5 ADD MSTORE PUSH2 0xFF2 DUP2 DUP6 PUSH2 0xA94 JUMP JUMPDEST SWAP6 SWAP5 POP POP POP POP POP JUMP JUMPDEST PUSH4 0x4E487B71 PUSH1 0xE0 SHL PUSH1 0x0 MSTORE PUSH1 0x21 PUSH1 0x4 MSTORE PUSH1 0x24 PUSH1 0x0 REVERT JUMPDEST PUSH1 0x0 PUSH1 0x20 DUP3 DUP5 SUB SLT ISZERO PUSH2 0x1023 JUMPI PUSH1 0x0 DUP1 REVERT JUMPDEST DUP2 MLOAD PUSH2 0x361 DUP2 PUSH2 0xD02 JUMP JUMPDEST PUSH1 0x0 PUSH1 0x20 DUP3 DUP5 SUB SLT ISZERO PUSH2 0x1040 JUMPI PUSH1 0x0 DUP1 REVERT JUMPDEST DUP2 MLOAD PUSH8 0xFFFFFFFFFFFFFFFF DUP2 GT ISZERO PUSH2 0x1057 JUMPI PUSH1 0x0 DUP1 REVERT JUMPDEST PUSH2 0xA68 DUP5 DUP3 DUP6 ADD PUSH2 0xDAB JUMP INVALID LOG2 PUSH5 0x6970667358 0x22 SLT KECCAK256 0xAA DUP5 PUSH16 0xC4690C82BA6C3CCDA752538BDA20813 0xCB 0xEC ADDMOD 0x4F 0xDA 0xE6 0x2D 0xD1 0xA9 0xE9 MOD PUSH26 0x8164736F6C634300081300330000000000000000000000000000 ","sha1":"565b7828e66111b3f385db15f1d1571c10977d06","source":"//SPDX-License-Identifier: MIT\n\npragma solidity >=0.6.0 <=0.9.0;\n\nimport \"./CarFactory.sol\";\n\ncontract AutomobileRegistrationSystem{\n\n    //List of roles\n    enum Role{\n        Manufacturer, //0\n        State, //1\n        Center, //2\n        Insurance //3\n    }\n\n    modifier isDeployer(){\n        require(systemDeployer == msg.sender, \"You're not the owner, aborting\");\n        _;\n    }\n\n    modifier isManufacturer(bool hasAccess){\n        require(hasAccess, \"Permission denied, you must be a manifactor!\");\n        _;\n    }\n\n    address systemDeployer;\n\n    CarFactory carFactory;\n    //Accounts account;\n\n    mapping(address => mapping(Role => bool)) canAccess; //Instead of creating a mapping for each role, I thought it could be a great idea to create only one mapping of a mapping that sets the role of every address given\n\n    \n    constructor(){\n        systemDeployer = msg.sender;    \n        carFactory = new CarFactory();\n    }\n\n\n    function setRole(address _for, Role _role, bool _roleStatus) public isDeployer{\n        canAccess[_for][_role] = _roleStatus;\n    }\n \n    //Getting the roles of the accounts\n    function getAccountRole(address _of, Role _role) public view isDeployer returns(bool){\n        return canAccess[_of][_role];\n    }\n\n    function createNewCar(string memory _niv, string memory _infos) public /*isManufacturer(canAccess[msg.sender][Role.Manufacturer])*/{\n        carFactory.createCar(_niv, _infos);\n    }\n\n    function getCar(string memory _niv) public view returns(Car){\n        Car car = carFactory.carListMapping(_niv);\n        return car;\n    }\n\n    function setCarOwner(string memory _niv, string memory _owner, string memory _transactionInfo) public{\n        Car car = getCar(_niv);\n        car.setOwner(_owner);\n        car.setTransaction(_transactionInfo);\n    }\n\n    function getCarOwner(string memory _niv) public view returns(string[] memory){\n        return getCar(_niv).getOwnerList();\n    }\n\n    function getCarPreviousTransactions(string memory _niv) public view returns(string[] memory){\n        return getCar(_niv).getPreviousTransactions();\n    }\n\n    function setCarSignalisation(string memory _niv, bool _signalisation) public{\n        getCar(_niv).setSignalisation(_signalisation);\n    }\n\n    function getCarSignalisation(string memory _niv) public view returns(bool){\n        return getCar(_niv).getSignalisation();\n    }\n\n    function addAccident(string memory _niv, string memory _accident) public {\n        Car car = getCar(_niv);\n        car.addAccident(_accident);\n    }\n\n    function getAccidentsList(string memory _niv) public view returns (string[] memory){\n        Car car = getCar(_niv);        \n        return car.accidentsList();\n    }\n\n    function addCarReport(string memory _niv, string memory _report) public{\n        Car car = getCar(_niv);\n        car.addReport(_report);\n    }\n\n    function getCarReport(string memory _niv) public view returns(string[] memory){\n        Car car = getCar(_niv);        \n        return car.getReport();\n    }\n\n    function getCarInfos(string memory _niv) public view returns(string memory){\n        Car car = getCar(_niv);        \n        return car.getInfos();        \n    }\n\n    function getCarAllInfos(string memory _niv) public view returns(string memory, string[] memory, string[] memory, string[] memory, string[] memory, bool){\n        return getCar(_niv).getAllInfos();\n    }\n\n}","sourcePath":"contracts/AutomobileRegistrationSystem.sol","type":"contract","deployment":{"address":"0x3A29a51B509067D5dB5d811D03A9d8246De83491","chainid":"80001","blockHeight":33275871}}