{"abi":[{"inputs":[],"stateMutability":"nonpayable","type":"constructor","name":"constructor"},{"inputs":[{"internalType":"string","name":"_niv","type":"string"},{"internalType":"string","name":"_accident","type":"string"}],"name":"addAccident","outputs":[],"stateMutability":"nonpayable","type":"function"},{"inputs":[{"internalType":"string","name":"_niv","type":"string"},{"internalType":"string","name":"_report","type":"string"}],"name":"addCarReport","outputs":[],"stateMutability":"nonpayable","type":"function"},{"inputs":[{"internalType":"string","name":"_niv","type":"string"},{"internalType":"string","name":"_infos","type":"string"}],"name":"createNewCar","outputs":[],"stateMutability":"nonpayable","type":"function"},{"inputs":[{"internalType":"string","name":"_niv","type":"string"}],"name":"destroyCar","outputs":[],"stateMutability":"nonpayable","type":"function"},{"inputs":[{"internalType":"string","name":"_niv","type":"string"}],"name":"getAccidentsList","outputs":[{"internalType":"string[]","name":"","type":"string[]"}],"stateMutability":"view","type":"function"},{"inputs":[{"internalType":"address","name":"_of","type":"address"},{"internalType":"enum AutomobileRegistrationSystem.Role","name":"_role","type":"uint8"}],"name":"getAccountRole","outputs":[{"internalType":"bool","name":"","type":"bool"}],"stateMutability":"view","type":"function"},{"inputs":[{"internalType":"string","name":"_niv","type":"string"}],"name":"getCar","outputs":[{"internalType":"contract Car","name":"","type":"address"}],"stateMutability":"view","type":"function"},{"inputs":[{"internalType":"string","name":"_niv","type":"string"}],"name":"getCarAllInfos","outputs":[{"internalType":"bool","name":"","type":"bool"},{"internalType":"string","name":"","type":"string"},{"internalType":"string[]","name":"","type":"string[]"},{"internalType":"address[]","name":"","type":"address[]"},{"internalType":"string[]","name":"","type":"string[]"},{"internalType":"string[]","name":"","type":"string[]"},{"internalType":"string[]","name":"","type":"string[]"},{"internalType":"string[]","name":"","type":"string[]"}],"stateMutability":"view","type":"function"},{"inputs":[{"internalType":"string","name":"_niv","type":"string"}],"name":"getCarInfos","outputs":[{"internalType":"string","name":"","type":"string"}],"stateMutability":"view","type":"function"},{"inputs":[{"internalType":"string","name":"_niv","type":"string"}],"name":"getCarOwner","outputs":[{"internalType":"address[]","name":"","type":"address[]"}],"stateMutability":"view","type":"function"},{"inputs":[{"internalType":"string","name":"_niv","type":"string"}],"name":"getCarPreviousTransactions","outputs":[{"internalType":"string[]","name":"","type":"string[]"}],"stateMutability":"view","type":"function"},{"inputs":[{"internalType":"string","name":"_niv","type":"string"}],"name":"getCarReport","outputs":[{"internalType":"string[]","name":"","type":"string[]"}],"stateMutability":"view","type":"function"},{"inputs":[{"internalType":"string","name":"_niv","type":"string"}],"name":"getCarSignalisation","outputs":[{"internalType":"string[]","name":"","type":"string[]"}],"stateMutability":"view","type":"function"},{"inputs":[{"internalType":"string","name":"_niv","type":"string"}],"name":"getStoredAddress","outputs":[{"internalType":"address","name":"","type":"address"}],"stateMutability":"view","type":"function"},{"inputs":[{"internalType":"string","name":"_niv","type":"string"}],"name":"isNivUsed","outputs":[{"internalType":"bool","name":"","type":"bool"}],"stateMutability":"view","type":"function"},{"inputs":[{"internalType":"string","name":"_niv","type":"string"},{"internalType":"address","name":"_owner","type":"address"},{"internalType":"string","name":"_transactionInfo","type":"string"},{"internalType":"string","name":"_matriculation","type":"string"}],"name":"setCarOwner","outputs":[],"stateMutability":"nonpayable","type":"function"},{"inputs":[{"internalType":"string","name":"_niv","type":"string"},{"internalType":"string","name":"_signalisation","type":"string"}],"name":"setCarSignalisation","outputs":[],"stateMutability":"nonpayable","type":"function"},{"inputs":[{"internalType":"address","name":"_for","type":"address"},{"internalType":"enum AutomobileRegistrationSystem.Role","name":"_role","type":"uint8"},{"internalType":"bool","name":"_roleStatus","type":"bool"}],"name":"setRole","outputs":[],"stateMutability":"nonpayable","type":"function"},{"inputs":[{"internalType":"string","name":"_niv","type":"string"},{"internalType":"address","name":"_addingCar","type":"address"}],"name":"storeCarAddress","outputs":[],"stateMutability":"nonpayable","type":"function"}],"bytecode":"608060405234801561001057600080fd5b50600080546001600160a01b0319163317905560405161002f90610071565b604051809103906000f08015801561004b573d6000803e3d6000fd5b50600180546001600160a01b0319166001600160a01b039290921691909117905561007f565b611c2980620022f083390190565b612261806200008f6000396000f3fe608060405234801561001057600080fd5b50600436106101215760003560e01c806375d12105116100ad578063aad37c9911610071578063aad37c9914610291578063b327c700146102a4578063d0f2dd5b146102b7578063d6082a83146102d7578063f6bb6b37146102ea57600080fd5b806375d12105146102325780637b073bb0146102455780637fee984b1461025857806390ca83321461026b578063a2a6d1421461027e57600080fd5b80634974c632116100f45780634974c632146101af5780634cca8288146101d657806358da1e01146101e957806360db168e146101fc5780636f059e731461021f57600080fd5b80630b8cf8d11461012657806320cd00d11461014f578063398752e014610164578063479487e314610184575b600080fd5b610139610134366004611921565b6102fd565b604051610146919061199a565b60405180910390f35b61016261015d3660046119c5565b6103c2565b005b610177610172366004611921565b610406565b6040516101469190611ab9565b610197610192366004611921565b6104c8565b6040516001600160a01b039091168152602001610146565b6101c26101bd366004611921565b610579565b604051610146989796959493929190611acc565b6101776101e4366004611921565b61064d565b6101626101f7366004611921565b610702565b61020f61020a366004611921565b6108d0565b6040519015158152602001610146565b61016261022d366004611b6f565b61098a565b610162610240366004611b6f565b610c1a565b610197610253366004611921565b610d26565b610162610266366004611b6f565b610d57565b610177610279366004611921565b610f1f565b61020f61028c366004611be7565b610fb1565b61016261029f366004611b6f565b611033565b6101776102b2366004611921565b61127c565b6102ca6102c5366004611921565b611309565b6040516101469190611c1c565b6101626102e5366004611c2f565b6113c3565b6101626102f8366004611cda565b6117d1565b60408051602080820190925260009052815190820120606090829060008051602061220c8339815191520161034d5760405162461bcd60e51b815260040161034490611d23565b60405180910390fd5b610356836104c8565b6001600160a01b031663581003706040518163ffffffff1660e01b8152600401600060405180830381865afa158015610393573d6000803e3d6000fd5b505050506040513d6000823e601f3d908101601f191682016040526103bb9190810190611de2565b9392505050565b806003836040516103d39190611e17565b90815260405190819003602001902080546001600160a01b03929092166001600160a01b03199092169190911790555050565b60408051602080820190925260009052815190820120606090829060008051602061220c8339815191520161044d5760405162461bcd60e51b815260040161034490611d23565b6000610458846104c8565b9050806001600160a01b031663e4085d676040518163ffffffff1660e01b8152600401600060405180830381865afa158015610498573d6000803e3d6000fd5b505050506040513d6000823e601f3d908101601f191682016040526104c09190810190611ef8565b949350505050565b60008160405180602001604052806000815250805190602001208180519060200120036105075760405162461bcd60e51b815260040161034490611d23565b600154604051634b22dc9160e01b81526000916001600160a01b031690634b22dc9190610538908790600401611c1c565b602060405180830381865afa158015610555573d6000803e3d6000fd5b505050506040513d601f19601f820116820180604052508101906104c09190611f2d565b600060608060608060608060608860405180602001604052806000815250805190602001208180519060200120036105c35760405162461bcd60e51b815260040161034490611d23565b6105cc8a6104c8565b6001600160a01b031663d80516a56040518163ffffffff1660e01b8152600401600060405180830381865afa158015610609573d6000803e3d6000fd5b505050506040513d6000823e601f3d908101601f191682016040526106319190810190611f55565b9850985098509850985098509850985050919395975091939597565b60408051602080820190925260009052815190820120606090829060008051602061220c833981519152016106945760405162461bcd60e51b815260040161034490611d23565b61069d836104c8565b6001600160a01b031663b5cd26f86040518163ffffffff1660e01b8152600401600060405180830381865afa1580156106da573d6000803e3d6000fd5b505050506040513d6000823e601f3d908101601f191682016040526103bb9190810190611ef8565b60408051602080820190925260009052815190820120819060008051602061220c833981519152016107465760405162461bcd60e51b815260040161034490611d23565b600154604051634b22dc9160e01b815283916001600160a01b031690634b22dc9190610776908490600401611c1c565b602060405180830381865afa158015610793573d6000803e3d6000fd5b505050506040513d601f19601f820116820180604052508101906107b79190611f2d565b6001600160a01b0316635ad70d126040518163ffffffff1660e01b8152600401602060405180830381865afa1580156107f4573d6000803e3d6000fd5b505050506040513d601f19601f820116820180604052508101906108189190612081565b6108345760405162461bcd60e51b81526004016103449061209e565b33600081815260026020908152604080832083805290915281205460ff1661086e5760405162461bcd60e51b8152600401610344906120eb565b610877856104c8565b6001600160a01b031663b3610f376040518163ffffffff1660e01b8152600401600060405180830381600087803b1580156108b157600080fd5b505af11580156108c5573d6000803e3d6000fd5b505050505050505050565b336000818152600260209081526040808320838052909152812054909190829060ff1661090f5760405162461bcd60e51b8152600401610344906120eb565b600154604051637832e6e360e01b81526000916001600160a01b031690637832e6e390610940908890600401611c1c565b602060405180830381865afa15801561095d573d6000803e3d6000fd5b505050506040513d601f19601f820116820180604052508101906109819190612081565b95945050505050565b60408051602080820190925260009052825190830120829060008051602061220c833981519152016109ce5760405162461bcd60e51b815260040161034490611d23565b600154604051634b22dc9160e01b815284916001600160a01b031690634b22dc91906109fe908490600401611c1c565b602060405180830381865afa158015610a1b573d6000803e3d6000fd5b505050506040513d601f19601f82011682018060405250810190610a3f9190611f2d565b6001600160a01b0316635ad70d126040518163ffffffff1660e01b8152600401602060405180830381865afa158015610a7c573d6000803e3d6000fd5b505050506040513d601f19601f82011682018060405250810190610aa09190612081565b610abc5760405162461bcd60e51b81526004016103449061209e565b336000818152600260209081526040808320600380855292529091205460ff16610b335760405162461bcd60e51b815260206004820152602260248201527f5065726d697373696f6e2064656e6965642c20696e737572616e6365206f6e6c604482015261792160f01b6064820152608401610344565b6040805160208082019092526000905285519086012060008051602061220c83398151915201610ba55760405162461bcd60e51b815260206004820152601960248201527f506c656173652070726f76696465206d6f726520696e666f73000000000000006044820152606401610344565b6000610bb0876104c8565b60405163134044a160e01b81529091506001600160a01b0382169063134044a190610bdf908990600401611c1c565b600060405180830381600087803b158015610bf957600080fd5b505af1158015610c0d573d6000803e3d6000fd5b5050505050505050505050565b33600081815260026020908152604080832083805290915281205460ff16610c545760405162461bcd60e51b8152600401610344906120eb565b60408051602080820190925260009052845190850120849060008051602061220c83398151915201610c985760405162461bcd60e51b815260040161034490611d23565b6040805160208082019092526000905284519085012060008051602061220c83398151915201610cda5760405162461bcd60e51b815260040161034490612139565b600154604051633de4de8f60e01b81526001600160a01b0390911690633de4de8f90610d0c908890889060040161217a565b600060405180830381600087803b1580156108b157600080fd5b6000600382604051610d389190611e17565b908152604051908190036020019020546001600160a01b031692915050565b60408051602080820190925260009052825190830120829060008051602061220c83398151915201610d9b5760405162461bcd60e51b815260040161034490611d23565b600154604051634b22dc9160e01b815284916001600160a01b031690634b22dc9190610dcb908490600401611c1c565b602060405180830381865afa158015610de8573d6000803e3d6000fd5b505050506040513d601f19601f82011682018060405250810190610e0c9190611f2d565b6001600160a01b0316635ad70d126040518163ffffffff1660e01b8152600401602060405180830381865afa158015610e49573d6000803e3d6000fd5b505050506040513d601f19601f82011682018060405250810190610e6d9190612081565b610e895760405162461bcd60e51b81526004016103449061209e565b6000546001600160a01b03163314610eb35760405162461bcd60e51b81526004016103449061219f565b610ebc846104c8565b6001600160a01b031663457cf35b846040518263ffffffff1660e01b8152600401610ee79190611c1c565b600060405180830381600087803b158015610f0157600080fd5b505af1158015610f15573d6000803e3d6000fd5b5050505050505050565b60408051602080820190925260009052815190820120606090829060008051602061220c83398151915201610f665760405162461bcd60e51b815260040161034490611d23565b6000610f71846104c8565b9050806001600160a01b031663bd51b8e06040518163ffffffff1660e01b8152600401600060405180830381865afa158015610498573d6000803e3d6000fd5b600080546001600160a01b03163314610fdc5760405162461bcd60e51b81526004016103449061219f565b6001600160a01b038316600090815260026020526040812090836003811115611007576110076120d5565b6003811115611018576110186120d5565b815260208101919091526040016000205460ff169392505050565b60408051602080820190925260009052825190830120829060008051602061220c833981519152016110775760405162461bcd60e51b815260040161034490611d23565b600154604051634b22dc9160e01b815284916001600160a01b031690634b22dc91906110a7908490600401611c1c565b602060405180830381865afa1580156110c4573d6000803e3d6000fd5b505050506040513d601f19601f820116820180604052508101906110e89190611f2d565b6001600160a01b0316635ad70d126040518163ffffffff1660e01b8152600401602060405180830381865afa158015611125573d6000803e3d6000fd5b505050506040513d601f19601f820116820180604052508101906111499190612081565b6111655760405162461bcd60e51b81526004016103449061209e565b3360008181526002602081815260408084208385529091529091205460ff166111d05760405162461bcd60e51b815260206004820152601f60248201527f5065726d697373696f6e2064656e6965642c2063656e746572206f6e6c7921006044820152606401610344565b6040805160208082019092526000905285519086012060008051602061220c833981519152016112425760405162461bcd60e51b815260206004820152601f60248201527f506c656173652070726f76696465206120636f7272656374207265706f7274006044820152606401610344565b600061124d876104c8565b604051632be527f360e11b81529091506001600160a01b038216906357ca4fe690610bdf908990600401611c1c565b60408051602080820190925260009052815190820120606090829060008051602061220c833981519152016112c35760405162461bcd60e51b815260040161034490611d23565b6112cc836104c8565b6001600160a01b031663888dbbc16040518163ffffffff1660e01b8152600401600060405180830381865afa1580156106da573d6000803e3d6000fd5b60408051602080820190925260009052815190820120606090829060008051602061220c833981519152016113505760405162461bcd60e51b815260040161034490611d23565b600061135b846104c8565b9050806001600160a01b031663643d6dc06040518163ffffffff1660e01b8152600401600060405180830381865afa15801561139b573d6000803e3d6000fd5b505050506040513d6000823e601f3d908101601f191682016040526104c091908101906121d6565b60408051602080820190925260009052845190850120849060008051602061220c833981519152016114075760405162461bcd60e51b815260040161034490611d23565b600154604051634b22dc9160e01b815286916001600160a01b031690634b22dc9190611437908490600401611c1c565b602060405180830381865afa158015611454573d6000803e3d6000fd5b505050506040513d601f19601f820116820180604052508101906114789190611f2d565b6001600160a01b0316635ad70d126040518163ffffffff1660e01b8152600401602060405180830381865afa1580156114b5573d6000803e3d6000fd5b505050506040513d601f19601f820116820180604052508101906114d99190612081565b6114f55760405162461bcd60e51b81526004016103449061209e565b336000818152600260209081526040808320600180855292529091205460ff166115725760405162461bcd60e51b815260206004820152602860248201527f596f7520646f6e27742068617665207468652070726576696c65646765732c2060448201526761626f7274696e6760c01b6064820152608401610344565b6001600160a01b0387166115985760405162461bcd60e51b815260040161034490612139565b6040805160208082019092526000905286519087012060008051602061220c8339815191520161161c5760405162461bcd60e51b815260206004820152602960248201527f506c656173652066696c6c20746865207472616e73616374696f6e20696e666f604482015268399039b2b1ba34b7b760b91b6064820152608401610344565b6040805160208082019092526000905285519086012060008051602061220c833981519152016116a05760405162461bcd60e51b815260206004820152602960248201527f546865206d6174726963756c6174696f6e2073656374696f6e2063616e6e6f7460448201526820626520626c616e6b60b81b6064820152608401610344565b60006116ab896104c8565b6040516313af403560e01b81526001600160a01b038a81166004830152919250908216906313af403590602401600060405180830381600087803b1580156116f257600080fd5b505af1158015611706573d6000803e3d6000fd5b5050604051637a64f11360e01b81526001600160a01b0384169250637a64f1139150611736908a90600401611c1c565b600060405180830381600087803b15801561175057600080fd5b505af1158015611764573d6000803e3d6000fd5b5050604051632e8b71d360e01b81526001600160a01b0384169250632e8b71d39150611794908990600401611c1c565b600060405180830381600087803b1580156117ae57600080fd5b505af11580156117c2573d6000803e3d6000fd5b50505050505050505050505050565b6000546001600160a01b031633146117fb5760405162461bcd60e51b81526004016103449061219f565b6001600160a01b03831660009081526002602052604081208291846003811115611827576118276120d5565b6003811115611838576118386120d5565b81526020810191909152604001600020805460ff1916911515919091179055505050565b634e487b7160e01b600052604160045260246000fd5b604051601f8201601f1916810167ffffffffffffffff8111828210171561189b5761189b61185c565b604052919050565b600067ffffffffffffffff8211156118bd576118bd61185c565b50601f01601f191660200190565b600082601f8301126118dc57600080fd5b81356118ef6118ea826118a3565b611872565b81815284602083860101111561190457600080fd5b816020850160208301376000918101602001919091529392505050565b60006020828403121561193357600080fd5b813567ffffffffffffffff81111561194a57600080fd5b6104c0848285016118cb565b600081518084526020808501945080840160005b8381101561198f5781516001600160a01b03168752958201959082019060010161196a565b509495945050505050565b6020815260006103bb6020830184611956565b6001600160a01b03811681146119c257600080fd5b50565b600080604083850312156119d857600080fd5b823567ffffffffffffffff8111156119ef57600080fd5b6119fb858286016118cb565b9250506020830135611a0c816119ad565b809150509250929050565b60005b83811015611a32578181015183820152602001611a1a565b50506000910152565b60008151808452611a53816020860160208601611a17565b601f01601f19169290920160200192915050565b6000815180845260208085019450848260051b860182860160005b85811015611aac578383038952611a9a838351611a3b565b98850198925090840190600101611a82565b5090979650505050505050565b6020815260006103bb6020830184611a67565b60006101008a15158352806020840152611ae88184018b611a3b565b90508281036040840152611afc818a611a67565b90508281036060840152611b108189611956565b90508281036080840152611b248188611a67565b905082810360a0840152611b388187611a67565b905082810360c0840152611b4c8186611a67565b905082810360e0840152611b608185611a67565b9b9a5050505050505050505050565b60008060408385031215611b8257600080fd5b823567ffffffffffffffff80821115611b9a57600080fd5b611ba6868387016118cb565b93506020850135915080821115611bbc57600080fd5b50611bc9858286016118cb565b9150509250929050565b803560048110611be257600080fd5b919050565b60008060408385031215611bfa57600080fd5b8235611c05816119ad565b9150611c1360208401611bd3565b90509250929050565b6020815260006103bb6020830184611a3b565b60008060008060808587031215611c4557600080fd5b843567ffffffffffffffff80821115611c5d57600080fd5b611c69888389016118cb565b955060208701359150611c7b826119ad565b90935060408601359080821115611c9157600080fd5b611c9d888389016118cb565b93506060870135915080821115611cb357600080fd5b50611cc0878288016118cb565b91505092959194509250565b80151581146119c257600080fd5b600080600060608486031215611cef57600080fd5b8335611cfa816119ad565b9250611d0860208501611bd3565b91506040840135611d1881611ccc565b809150509250925092565b602080825260129082015271283632b0b9b29032b73a32b91030902724ab60711b604082015260600190565b600067ffffffffffffffff821115611d6957611d6961185c565b5060051b60200190565b600082601f830112611d8457600080fd5b81516020611d946118ea83611d4f565b82815260059290921b84018101918181019086841115611db357600080fd5b8286015b84811015611dd7578051611dca816119ad565b8352918301918301611db7565b509695505050505050565b600060208284031215611df457600080fd5b815167ffffffffffffffff811115611e0b57600080fd5b6104c084828501611d73565b60008251611e29818460208701611a17565b9190910192915050565b600082601f830112611e4457600080fd5b8151611e526118ea826118a3565b818152846020838601011115611e6757600080fd5b6104c0826020830160208701611a17565b600082601f830112611e8957600080fd5b81516020611e996118ea83611d4f565b82815260059290921b84018101918181019086841115611eb857600080fd5b8286015b84811015611dd757805167ffffffffffffffff811115611edc5760008081fd5b611eea8986838b0101611e33565b845250918301918301611ebc565b600060208284031215611f0a57600080fd5b815167ffffffffffffffff811115611f2157600080fd5b6104c084828501611e78565b600060208284031215611f3f57600080fd5b81516103bb816119ad565b8051611be281611ccc565b600080600080600080600080610100898b031215611f7257600080fd5b611f7b89611f4a565b9750602089015167ffffffffffffffff80821115611f9857600080fd5b611fa48c838d01611e33565b985060408b0151915080821115611fba57600080fd5b611fc68c838d01611e78565b975060608b0151915080821115611fdc57600080fd5b611fe88c838d01611d73565b965060808b0151915080821115611ffe57600080fd5b61200a8c838d01611e78565b955060a08b015191508082111561202057600080fd5b61202c8c838d01611e78565b945060c08b015191508082111561204257600080fd5b61204e8c838d01611e78565b935060e08b015191508082111561206457600080fd5b506120718b828c01611e78565b9150509295985092959890939650565b60006020828403121561209357600080fd5b81516103bb81611ccc565b6020808252601e908201527f546869732063617220646f65736e277420657869737420616e796d6f72650000604082015260600190565b634e487b7160e01b600052602160045260246000fd5b6020808252602e908201527f5065726d697373696f6e2064656e6965642c20796f75206d757374206265206160408201526d206d616e7566616374757265722160901b606082015260800190565b60208082526021908201527f54686520696e666f732073656374696f6e2063616e6e6f7420626520626c616e6040820152606b60f81b606082015260800190565b60408152600061218d6040830185611a3b565b82810360208401526109818185611a3b565b6020808252601e908201527f596f75277265206e6f7420746865206f776e65722c2061626f7274696e670000604082015260600190565b6000602082840312156121e857600080fd5b815167ffffffffffffffff8111156121ff57600080fd5b6104c084828501611e3356fe3a2db9fe7908dcc36d81824d2338fc3f1aff49ac357dd8c4840527fba27a5b90a264697066735822122041118c6d8b22f6fcad15095206122c6dbb0f3480e0061c874aa26451347c79cc64736f6c63430008130033608060405234801561001057600080fd5b50611c09806100206000396000f3fe608060405234801561001057600080fd5b506004361061004c5760003560e01c80633de4de8f146100515780634b22dc911461006657806358da1e01146100965780637832e6e3146100a9575b600080fd5b61006461005f3660046103c7565b6100cc565b005b61007961007436600461042b565b610244565b6040516001600160a01b0390911681526020015b60405180910390f35b6100646100a436600461042b565b610275565b6100bc6100b736600461042b565b6102ec565b604051901515815260200161008d565b6002826040516100dc919061048c565b9081526040519081900360200190205460ff1615610168576040805162461bcd60e51b81526020600482015260248101919091527f506c656173652074727920616e6f74686572204e49562061732074686520707260448201527f6f7669646564206f6e652068617320616c7265616479206265656e2075736564606482015260840160405180910390fd5b818160405161017690610317565b6101819291906104d4565b604051809103906000f08015801561019d573d6000803e3d6000fd5b506000806101000a8154816001600160a01b0302191690836001600160a01b0316021790555060016002836040516101d5919061048c565b908152604051908190036020018120805492151560ff19909316929092179091556000546001600160a01b03169060019061021190859061048c565b90815260405190819003602001902080546001600160a01b03929092166001600160a01b03199092169190911790555050565b6000600182604051610256919061048c565b908152604051908190036020019020546001600160a01b031692915050565b61027e81610244565b600080546001600160a01b0319166001600160a01b039290921691821781556040805163b3610f3760e01b8152905163b3610f379260048084019391929182900301818387803b1580156102d157600080fd5b505af11580156102e5573d6000803e3d6000fd5b5050505050565b60006002826040516102fe919061048c565b9081526040519081900360200190205460ff1692915050565b6116d18061050383390190565b634e487b7160e01b600052604160045260246000fd5b600082601f83011261034b57600080fd5b813567ffffffffffffffff8082111561036657610366610324565b604051601f8301601f19908116603f0116810190828211818310171561038e5761038e610324565b816040528381528660208588010111156103a757600080fd5b836020870160208301376000602085830101528094505050505092915050565b600080604083850312156103da57600080fd5b823567ffffffffffffffff808211156103f257600080fd5b6103fe8683870161033a565b9350602085013591508082111561041457600080fd5b506104218582860161033a565b9150509250929050565b60006020828403121561043d57600080fd5b813567ffffffffffffffff81111561045457600080fd5b6104608482850161033a565b949350505050565b60005b8381101561048357818101518382015260200161046b565b50506000910152565b6000825161049e818460208701610468565b9190910192915050565b600081518084526104c0816020860160208601610468565b601f01601f19169290920160200192915050565b6040815260006104e760408301856104a8565b82810360208401526104f981856104a8565b9594505050505056fe60806040523480156200001157600080fd5b50604051620016d1380380620016d183398101604081905262000034916200012d565b600062000042838262000226565b50600c805460ff191660019081179091556200005f828262000226565b505050620002f2565b634e487b7160e01b600052604160045260246000fd5b600082601f8301126200009057600080fd5b81516001600160401b0380821115620000ad57620000ad62000068565b604051601f8301601f19908116603f01168101908282118183101715620000d857620000d862000068565b81604052838152602092508683858801011115620000f557600080fd5b600091505b83821015620001195785820183015181830184015290820190620000fa565b600093810190920192909252949350505050565b600080604083850312156200014157600080fd5b82516001600160401b03808211156200015957600080fd5b62000167868387016200007e565b935060208501519150808211156200017e57600080fd5b506200018d858286016200007e565b9150509250929050565b600181811c90821680620001ac57607f821691505b602082108103620001cd57634e487b7160e01b600052602260045260246000fd5b50919050565b601f8211156200022157600081815260208120601f850160051c81016020861015620001fc5750805b601f850160051c820191505b818110156200021d5782815560010162000208565b5050505b505050565b81516001600160401b0381111562000242576200024262000068565b6200025a8162000253845462000197565b84620001d3565b602080601f831160018114620002925760008415620002795750858301515b600019600386901b1c1916600185901b1785556200021d565b600085815260208120601f198616915b82811015620002c357888601518255948401946001909101908401620002a2565b5085821015620002e25787850151600019600388901b60f8161c191681555b5050505050600190811b01905550565b6113cf80620003026000396000f3fe608060405234801561001057600080fd5b50600436106100f55760003560e01c8063643d6dc011610097578063b5cd26f811610066578063b5cd26f8146101db578063bd51b8e0146101e3578063d80516a5146101eb578063e4085d671461020757600080fd5b8063643d6dc01461018f5780637a64f113146101a4578063888dbbc1146101b7578063b3610f37146101cc57600080fd5b8063457cf35b116100d3578063457cf35b1461013557806357ca4fe614610148578063581003701461015b5780635ad70d121461017957600080fd5b8063134044a1146100fa57806313af40351461010f5780632e8b71d314610122575b600080fd5b61010d610108366004610e63565b61020f565b005b61010d61011d366004610f14565b61024f565b61010d610130366004610e63565b610321565b61010d610143366004610e63565b6103fd565b61010d610156366004610e63565b610447565b610163610483565b6040516101709190610f88565b60405180910390f35b600c5460ff166040519015158152602001610170565b6101976104e5565b6040516101709190610fe1565b61010d6101b2366004610e63565b61056e565b6101bf6105b8565b6040516101709190611049565b61010d600c805460ff19169055565b6101bf610691565b6101bf610761565b6101f3610831565b60405161017098979695949392919061105c565b6101bf610d7d565b600780546001810182556000919091527fa66cc928b5edb82af9bd49922954155ab7b0942694bea4ce44661d9a8736c6880161024b8282611188565b5050565b600a546001600160a01b038083169116036102c55760405162461bcd60e51b815260206004820152602b60248201527f546865206f6c64206f776e657220616e64206e6577206f6e652063616e27742060448201526a6265207468652073616d6560a81b60648201526084015b60405180910390fd5b600a80546001600160a01b039092166001600160a01b03199283168117909155600b80546001810182556000919091527f0175b7a638427703f0dbe7bb9bbf987a2551717b34e79f33b5b1008d1fa01db9018054909216179055565b60036040516103309190611248565b60405180910390208180519060200120036103b35760405162461bcd60e51b815260206004820152603d60248201527f546865206f6c64206d6174726963756c6174696f6e20616e64206e6577206d6160448201527f74726963756c6174696f6e2063616e2774206265207468652073616d6500000060648201526084016102bc565b60036103bf8282611188565b50600580546001810182556000919091527f036b6384b5eca791c62761152d0c79bb0604c104a5fb6f4eb0703f3154bb3db00161024b6003826112be565b60046104098282611188565b50600880546001810182556000919091527ff3f7a9fe364faab93b216da50a3214154f22a0a2b415b23a84c8169e8b636ee30161024b6004826112be565b600680546001810182556000919091527ff652222313e28459528d920b65115c16c04f3efc82aaedc97be59f3f377c0d3f0161024b8282611188565b6060600b8054806020026020016040519081016040528092919081815260200182805480156104db57602002820191906000526020600020905b81546001600160a01b031681526001909101906020018083116104bd575b5050505050905090565b6060600180546104f4906110ff565b80601f0160208091040260200160405190810160405280929190818152602001828054610520906110ff565b80156104db5780601f10610542576101008083540402835291602001916104db565b820191906000526020600020905b81548152906001019060200180831161055057509395945050505050565b600261057a8282611188565b50600980546001810182556000919091527f6e1540171b6c0c960b71a7020d9f60077f6af931a8bbf590da0223dacf75c7af0161024b6002826112be565b60606008805480602002602001604051908101604052809291908181526020016000905b828210156106885783829060005260206000200180546105fb906110ff565b80601f0160208091040260200160405190810160405280929190818152602001828054610627906110ff565b80156106745780601f1061064957610100808354040283529160200191610674565b820191906000526020600020905b81548152906001019060200180831161065757829003601f168201915b5050505050815260200190600101906105dc565b50505050905090565b60606009805480602002602001604051908101604052809291908181526020016000905b828210156106885783829060005260206000200180546106d4906110ff565b80601f0160208091040260200160405190810160405280929190818152602001828054610700906110ff565b801561074d5780601f106107225761010080835404028352916020019161074d565b820191906000526020600020905b81548152906001019060200180831161073057829003601f168201915b5050505050815260200190600101906106b5565b60606007805480602002602001604051908101604052809291908181526020016000905b828210156106885783829060005260206000200180546107a4906110ff565b80601f01602080910402602001604051908101604052809291908181526020018280546107d0906110ff565b801561081d5780601f106107f25761010080835404028352916020019161081d565b820191906000526020600020905b81548152906001019060200180831161080057829003601f168201915b505050505081526020019060010190610785565b60006060806060806060806060600c60009054906101000a900460ff1660016007600b6005600660096008868054610868906110ff565b80601f0160208091040260200160405190810160405280929190818152602001828054610894906110ff565b80156108e15780601f106108b6576101008083540402835291602001916108e1565b820191906000526020600020905b8154815290600101906020018083116108c457829003601f168201915b5050505050965085805480602002602001604051908101604052809291908181526020016000905b828210156109b5578382906000526020600020018054610928906110ff565b80601f0160208091040260200160405190810160405280929190818152602001828054610954906110ff565b80156109a15780601f10610976576101008083540402835291602001916109a1565b820191906000526020600020905b81548152906001019060200180831161098457829003601f168201915b505050505081526020019060010190610909565b50505050955084805480602002602001604051908101604052809291908181526020018280548015610a1057602002820191906000526020600020905b81546001600160a01b031681526001909101906020018083116109f2575b5050505050945083805480602002602001604051908101604052809291908181526020016000905b82821015610ae4578382906000526020600020018054610a57906110ff565b80601f0160208091040260200160405190810160405280929190818152602001828054610a83906110ff565b8015610ad05780601f10610aa557610100808354040283529160200191610ad0565b820191906000526020600020905b815481529060010190602001808311610ab357829003601f168201915b505050505081526020019060010190610a38565b50505050935082805480602002602001604051908101604052809291908181526020016000905b82821015610bb7578382906000526020600020018054610b2a906110ff565b80601f0160208091040260200160405190810160405280929190818152602001828054610b56906110ff565b8015610ba35780601f10610b7857610100808354040283529160200191610ba3565b820191906000526020600020905b815481529060010190602001808311610b8657829003601f168201915b505050505081526020019060010190610b0b565b50505050925081805480602002602001604051908101604052809291908181526020016000905b82821015610c8a578382906000526020600020018054610bfd906110ff565b80601f0160208091040260200160405190810160405280929190818152602001828054610c29906110ff565b8015610c765780601f10610c4b57610100808354040283529160200191610c76565b820191906000526020600020905b815481529060010190602001808311610c5957829003601f168201915b505050505081526020019060010190610bde565b50505050915080805480602002602001604051908101604052809291908181526020016000905b82821015610d5d578382906000526020600020018054610cd0906110ff565b80601f0160208091040260200160405190810160405280929190818152602001828054610cfc906110ff565b8015610d495780601f10610d1e57610100808354040283529160200191610d49565b820191906000526020600020905b815481529060010190602001808311610d2c57829003601f168201915b505050505081526020019060010190610cb1565b505050509050975097509750975097509750975097509091929394959697565b60606006805480602002602001604051908101604052809291908181526020016000905b82821015610688578382906000526020600020018054610dc0906110ff565b80601f0160208091040260200160405190810160405280929190818152602001828054610dec906110ff565b8015610e395780601f10610e0e57610100808354040283529160200191610e39565b820191906000526020600020905b815481529060010190602001808311610e1c57829003601f168201915b505050505081526020019060010190610da1565b634e487b7160e01b600052604160045260246000fd5b600060208284031215610e7557600080fd5b813567ffffffffffffffff80821115610e8d57600080fd5b818401915084601f830112610ea157600080fd5b813581811115610eb357610eb3610e4d565b604051601f8201601f19908116603f01168101908382118183101715610edb57610edb610e4d565b81604052828152876020848701011115610ef457600080fd5b826020860160208301376000928101602001929092525095945050505050565b600060208284031215610f2657600080fd5b81356001600160a01b0381168114610f3d57600080fd5b9392505050565b600081518084526020808501945080840160005b83811015610f7d5781516001600160a01b031687529582019590820190600101610f58565b509495945050505050565b602081526000610f3d6020830184610f44565b6000815180845260005b81811015610fc157602081850181015186830182015201610fa5565b506000602082860101526020601f19601f83011685010191505092915050565b602081526000610f3d6020830184610f9b565b600081518084526020808501808196508360051b8101915082860160005b8581101561103c57828403895261102a848351610f9b565b98850198935090840190600101611012565b5091979650505050505050565b602081526000610f3d6020830184610ff4565b60006101008a151583528060208401526110788184018b610f9b565b9050828103604084015261108c818a610ff4565b905082810360608401526110a08189610f44565b905082810360808401526110b48188610ff4565b905082810360a08401526110c88187610ff4565b905082810360c08401526110dc8186610ff4565b905082810360e08401526110f08185610ff4565b9b9a5050505050505050505050565b600181811c9082168061111357607f821691505b60208210810361113357634e487b7160e01b600052602260045260246000fd5b50919050565b601f82111561118357600081815260208120601f850160051c810160208610156111605750805b601f850160051c820191505b8181101561117f5782815560010161116c565b5050505b505050565b815167ffffffffffffffff8111156111a2576111a2610e4d565b6111b6816111b084546110ff565b84611139565b602080601f8311600181146111eb57600084156111d35750858301515b600019600386901b1c1916600185901b17855561117f565b600085815260208120601f198616915b8281101561121a578886015182559484019460019091019084016111fb565b50858210156112385787850151600019600388901b60f8161c191681555b5050505050600190811b01905550565b6000808354611256816110ff565b6001828116801561126e5760018114611283576112b2565b60ff19841687528215158302870194506112b2565b8760005260208060002060005b858110156112a95781548a820152908401908201611290565b50505082870194505b50929695505050505050565b8181036112c9575050565b6112d382546110ff565b67ffffffffffffffff8111156112eb576112eb610e4d565b6112f9816111b084546110ff565b6000601f82116001811461132d57600083156113155750848201545b600019600385901b1c1916600184901b178455611392565b600085815260209020601f19841690600086815260209020845b838110156113675782860154825560019586019590910190602001611347565b50858310156113855781850154600019600388901b60f8161c191681555b50505060018360011b0184555b505050505056fea2646970667358221220e1befc03c6370f595356b1a23e6227e20e33450cbc2b8b10276abc1903f388fb64736f6c63430008130033a2646970667358221220e5ef72b586f28890a45d160e92cb6f35c4cafba569cd2344f030446127f4892864736f6c63430008130033","bytecodeSha1":"885211865549e4a9157b3c3fec12224fb6416e25","compiler":{"evm_version":"istanbul","optimizer":{"enabled":true,"runs":200},"version":"0.8.19+commit.7dd6d404"},"contractName":"AutomobileRegistrationSystem","language":"Solidity","natspec":{"kind":"dev","methods":{},"version":1},"opcodes":"PUSH1 0x80 PUSH1 0x40 MSTORE CALLVALUE DUP1 ISZERO PUSH2 0x10 JUMPI PUSH1 0x0 DUP1 REVERT JUMPDEST POP PUSH1 0x4 CALLDATASIZE LT PUSH2 0x121 JUMPI PUSH1 0x0 CALLDATALOAD PUSH1 0xE0 SHR DUP1 PUSH4 0x75D12105 GT PUSH2 0xAD JUMPI DUP1 PUSH4 0xAAD37C99 GT PUSH2 0x71 JUMPI DUP1 PUSH4 0xAAD37C99 EQ PUSH2 0x291 JUMPI DUP1 PUSH4 0xB327C700 EQ PUSH2 0x2A4 JUMPI DUP1 PUSH4 0xD0F2DD5B EQ PUSH2 0x2B7 JUMPI DUP1 PUSH4 0xD6082A83 EQ PUSH2 0x2D7 JUMPI DUP1 PUSH4 0xF6BB6B37 EQ PUSH2 0x2EA JUMPI PUSH1 0x0 DUP1 REVERT JUMPDEST DUP1 PUSH4 0x75D12105 EQ PUSH2 0x232 JUMPI DUP1 PUSH4 0x7B073BB0 EQ PUSH2 0x245 JUMPI DUP1 PUSH4 0x7FEE984B EQ PUSH2 0x258 JUMPI DUP1 PUSH4 0x90CA8332 EQ PUSH2 0x26B JUMPI DUP1 PUSH4 0xA2A6D142 EQ PUSH2 0x27E JUMPI PUSH1 0x0 DUP1 REVERT JUMPDEST DUP1 PUSH4 0x4974C632 GT PUSH2 0xF4 JUMPI DUP1 PUSH4 0x4974C632 EQ PUSH2 0x1AF JUMPI DUP1 PUSH4 0x4CCA8288 EQ PUSH2 0x1D6 JUMPI DUP1 PUSH4 0x58DA1E01 EQ PUSH2 0x1E9 JUMPI DUP1 PUSH4 0x60DB168E EQ PUSH2 0x1FC JUMPI DUP1 PUSH4 0x6F059E73 EQ PUSH2 0x21F JUMPI PUSH1 0x0 DUP1 REVERT JUMPDEST DUP1 PUSH4 0xB8CF8D1 EQ PUSH2 0x126 JUMPI DUP1 PUSH4 0x20CD00D1 EQ PUSH2 0x14F JUMPI DUP1 PUSH4 0x398752E0 EQ PUSH2 0x164 JUMPI DUP1 PUSH4 0x479487E3 EQ PUSH2 0x184 JUMPI JUMPDEST PUSH1 0x0 DUP1 REVERT JUMPDEST PUSH2 0x139 PUSH2 0x134 CALLDATASIZE PUSH1 0x4 PUSH2 0x1921 JUMP JUMPDEST PUSH2 0x2FD JUMP JUMPDEST PUSH1 0x40 MLOAD PUSH2 0x146 SWAP2 SWAP1 PUSH2 0x199A JUMP JUMPDEST PUSH1 0x40 MLOAD DUP1 SWAP2 SUB SWAP1 RETURN JUMPDEST PUSH2 0x162 PUSH2 0x15D CALLDATASIZE PUSH1 0x4 PUSH2 0x19C5 JUMP JUMPDEST PUSH2 0x3C2 JUMP JUMPDEST STOP JUMPDEST PUSH2 0x177 PUSH2 0x172 CALLDATASIZE PUSH1 0x4 PUSH2 0x1921 JUMP JUMPDEST PUSH2 0x406 JUMP JUMPDEST PUSH1 0x40 MLOAD PUSH2 0x146 SWAP2 SWAP1 PUSH2 0x1AB9 JUMP JUMPDEST PUSH2 0x197 PUSH2 0x192 CALLDATASIZE PUSH1 0x4 PUSH2 0x1921 JUMP JUMPDEST PUSH2 0x4C8 JUMP JUMPDEST PUSH1 0x40 MLOAD PUSH1 0x1 PUSH1 0x1 PUSH1 0xA0 SHL SUB SWAP1 SWAP2 AND DUP2 MSTORE PUSH1 0x20 ADD PUSH2 0x146 JUMP JUMPDEST PUSH2 0x1C2 PUSH2 0x1BD CALLDATASIZE PUSH1 0x4 PUSH2 0x1921 JUMP JUMPDEST PUSH2 0x579 JUMP JUMPDEST PUSH1 0x40 MLOAD PUSH2 0x146 SWAP9 SWAP8 SWAP7 SWAP6 SWAP5 SWAP4 SWAP3 SWAP2 SWAP1 PUSH2 0x1ACC JUMP JUMPDEST PUSH2 0x177 PUSH2 0x1E4 CALLDATASIZE PUSH1 0x4 PUSH2 0x1921 JUMP JUMPDEST PUSH2 0x64D JUMP JUMPDEST PUSH2 0x162 PUSH2 0x1F7 CALLDATASIZE PUSH1 0x4 PUSH2 0x1921 JUMP JUMPDEST PUSH2 0x702 JUMP JUMPDEST PUSH2 0x20F PUSH2 0x20A CALLDATASIZE PUSH1 0x4 PUSH2 0x1921 JUMP JUMPDEST PUSH2 0x8D0 JUMP JUMPDEST PUSH1 0x40 MLOAD SWAP1 ISZERO ISZERO DUP2 MSTORE PUSH1 0x20 ADD PUSH2 0x146 JUMP JUMPDEST PUSH2 0x162 PUSH2 0x22D CALLDATASIZE PUSH1 0x4 PUSH2 0x1B6F JUMP JUMPDEST PUSH2 0x98A JUMP JUMPDEST PUSH2 0x162 PUSH2 0x240 CALLDATASIZE PUSH1 0x4 PUSH2 0x1B6F JUMP JUMPDEST PUSH2 0xC1A JUMP JUMPDEST PUSH2 0x197 PUSH2 0x253 CALLDATASIZE PUSH1 0x4 PUSH2 0x1921 JUMP JUMPDEST PUSH2 0xD26 JUMP JUMPDEST PUSH2 0x162 PUSH2 0x266 CALLDATASIZE PUSH1 0x4 PUSH2 0x1B6F JUMP JUMPDEST PUSH2 0xD57 JUMP JUMPDEST PUSH2 0x177 PUSH2 0x279 CALLDATASIZE PUSH1 0x4 PUSH2 0x1921 JUMP JUMPDEST PUSH2 0xF1F JUMP JUMPDEST PUSH2 0x20F PUSH2 0x28C CALLDATASIZE PUSH1 0x4 PUSH2 0x1BE7 JUMP JUMPDEST PUSH2 0xFB1 JUMP JUMPDEST PUSH2 0x162 PUSH2 0x29F CALLDATASIZE PUSH1 0x4 PUSH2 0x1B6F JUMP JUMPDEST PUSH2 0x1033 JUMP JUMPDEST PUSH2 0x177 PUSH2 0x2B2 CALLDATASIZE PUSH1 0x4 PUSH2 0x1921 JUMP JUMPDEST PUSH2 0x127C JUMP JUMPDEST PUSH2 0x2CA PUSH2 0x2C5 CALLDATASIZE PUSH1 0x4 PUSH2 0x1921 JUMP JUMPDEST PUSH2 0x1309 JUMP JUMPDEST PUSH1 0x40 MLOAD PUSH2 0x146 SWAP2 SWAP1 PUSH2 0x1C1C JUMP JUMPDEST PUSH2 0x162 PUSH2 0x2E5 CALLDATASIZE PUSH1 0x4 PUSH2 0x1C2F JUMP JUMPDEST PUSH2 0x13C3 JUMP JUMPDEST PUSH2 0x162 PUSH2 0x2F8 CALLDATASIZE PUSH1 0x4 PUSH2 0x1CDA JUMP JUMPDEST PUSH2 0x17D1 JUMP JUMPDEST PUSH1 0x40 DUP1 MLOAD PUSH1 0x20 DUP1 DUP3 ADD SWAP1 SWAP3 MSTORE PUSH1 0x0 SWAP1 MSTORE DUP2 MLOAD SWAP1 DUP3 ADD KECCAK256 PUSH1 0x60 SWAP1 DUP3 SWAP1 PUSH1 0x0 DUP1 MLOAD PUSH1 0x20 PUSH2 0x220C DUP4 CODECOPY DUP2 MLOAD SWAP2 MSTORE ADD PUSH2 0x34D JUMPI PUSH1 0x40 MLOAD PUSH3 0x461BCD PUSH1 0xE5 SHL DUP2 MSTORE PUSH1 0x4 ADD PUSH2 0x344 SWAP1 PUSH2 0x1D23 JUMP JUMPDEST PUSH1 0x40 MLOAD DUP1 SWAP2 SUB SWAP1 REVERT JUMPDEST PUSH2 0x356 DUP4 PUSH2 0x4C8 JUMP JUMPDEST PUSH1 0x1 PUSH1 0x1 PUSH1 0xA0 SHL SUB AND PUSH4 0x58100370 PUSH1 0x40 MLOAD DUP2 PUSH4 0xFFFFFFFF AND PUSH1 0xE0 SHL DUP2 MSTORE PUSH1 0x4 ADD PUSH1 0x0 PUSH1 0x40 MLOAD DUP1 DUP4 SUB DUP2 DUP7 GAS STATICCALL ISZERO DUP1 ISZERO PUSH2 0x393 JUMPI RETURNDATASIZE PUSH1 0x0 DUP1 RETURNDATACOPY RETURNDATASIZE PUSH1 0x0 REVERT JUMPDEST POP POP POP POP PUSH1 0x40 MLOAD RETURNDATASIZE PUSH1 0x0 DUP3 RETURNDATACOPY PUSH1 0x1F RETURNDATASIZE SWAP1 DUP2 ADD PUSH1 0x1F NOT AND DUP3 ADD PUSH1 0x40 MSTORE PUSH2 0x3BB SWAP2 SWAP1 DUP2 ADD SWAP1 PUSH2 0x1DE2 JUMP JUMPDEST SWAP4 SWAP3 POP POP POP JUMP JUMPDEST DUP1 PUSH1 0x3 DUP4 PUSH1 0x40 MLOAD PUSH2 0x3D3 SWAP2 SWAP1 PUSH2 0x1E17 JUMP JUMPDEST SWAP1 DUP2 MSTORE PUSH1 0x40 MLOAD SWAP1 DUP2 SWAP1 SUB PUSH1 0x20 ADD SWAP1 KECCAK256 DUP1 SLOAD PUSH1 0x1 PUSH1 0x1 PUSH1 0xA0 SHL SUB SWAP3 SWAP1 SWAP3 AND PUSH1 0x1 PUSH1 0x1 PUSH1 0xA0 SHL SUB NOT SWAP1 SWAP3 AND SWAP2 SWAP1 SWAP2 OR SWAP1 SSTORE POP POP JUMP JUMPDEST PUSH1 0x40 DUP1 MLOAD PUSH1 0x20 DUP1 DUP3 ADD SWAP1 SWAP3 MSTORE PUSH1 0x0 SWAP1 MSTORE DUP2 MLOAD SWAP1 DUP3 ADD KECCAK256 PUSH1 0x60 SWAP1 DUP3 SWAP1 PUSH1 0x0 DUP1 MLOAD PUSH1 0x20 PUSH2 0x220C DUP4 CODECOPY DUP2 MLOAD SWAP2 MSTORE ADD PUSH2 0x44D JUMPI PUSH1 0x40 MLOAD PUSH3 0x461BCD PUSH1 0xE5 SHL DUP2 MSTORE PUSH1 0x4 ADD PUSH2 0x344 SWAP1 PUSH2 0x1D23 JUMP JUMPDEST PUSH1 0x0 PUSH2 0x458 DUP5 PUSH2 0x4C8 JUMP JUMPDEST SWAP1 POP DUP1 PUSH1 0x1 PUSH1 0x1 PUSH1 0xA0 SHL SUB AND PUSH4 0xE4085D67 PUSH1 0x40 MLOAD DUP2 PUSH4 0xFFFFFFFF AND PUSH1 0xE0 SHL DUP2 MSTORE PUSH1 0x4 ADD PUSH1 0x0 PUSH1 0x40 MLOAD DUP1 DUP4 SUB DUP2 DUP7 GAS STATICCALL ISZERO DUP1 ISZERO PUSH2 0x498 JUMPI RETURNDATASIZE PUSH1 0x0 DUP1 RETURNDATACOPY RETURNDATASIZE PUSH1 0x0 REVERT JUMPDEST POP POP POP POP PUSH1 0x40 MLOAD RETURNDATASIZE PUSH1 0x0 DUP3 RETURNDATACOPY PUSH1 0x1F RETURNDATASIZE SWAP1 DUP2 ADD PUSH1 0x1F NOT AND DUP3 ADD PUSH1 0x40 MSTORE PUSH2 0x4C0 SWAP2 SWAP1 DUP2 ADD SWAP1 PUSH2 0x1EF8 JUMP JUMPDEST SWAP5 SWAP4 POP POP POP POP JUMP JUMPDEST PUSH1 0x0 DUP2 PUSH1 0x40 MLOAD DUP1 PUSH1 0x20 ADD PUSH1 0x40 MSTORE DUP1 PUSH1 0x0 DUP2 MSTORE POP DUP1 MLOAD SWAP1 PUSH1 0x20 ADD KECCAK256 DUP2 DUP1 MLOAD SWAP1 PUSH1 0x20 ADD KECCAK256 SUB PUSH2 0x507 JUMPI PUSH1 0x40 MLOAD PUSH3 0x461BCD PUSH1 0xE5 SHL DUP2 MSTORE PUSH1 0x4 ADD PUSH2 0x344 SWAP1 PUSH2 0x1D23 JUMP JUMPDEST PUSH1 0x1 SLOAD PUSH1 0x40 MLOAD PUSH4 0x4B22DC91 PUSH1 0xE0 SHL DUP2 MSTORE PUSH1 0x0 SWAP2 PUSH1 0x1 PUSH1 0x1 PUSH1 0xA0 SHL SUB AND SWAP1 PUSH4 0x4B22DC91 SWAP1 PUSH2 0x538 SWAP1 DUP8 SWAP1 PUSH1 0x4 ADD PUSH2 0x1C1C JUMP JUMPDEST PUSH1 0x20 PUSH1 0x40 MLOAD DUP1 DUP4 SUB DUP2 DUP7 GAS STATICCALL ISZERO DUP1 ISZERO PUSH2 0x555 JUMPI RETURNDATASIZE PUSH1 0x0 DUP1 RETURNDATACOPY RETURNDATASIZE PUSH1 0x0 REVERT JUMPDEST POP POP POP POP PUSH1 0x40 MLOAD RETURNDATASIZE PUSH1 0x1F NOT PUSH1 0x1F DUP3 ADD AND DUP3 ADD DUP1 PUSH1 0x40 MSTORE POP DUP2 ADD SWAP1 PUSH2 0x4C0 SWAP2 SWAP1 PUSH2 0x1F2D JUMP JUMPDEST PUSH1 0x0 PUSH1 0x60 DUP1 PUSH1 0x60 DUP1 PUSH1 0x60 DUP1 PUSH1 0x60 DUP9 PUSH1 0x40 MLOAD DUP1 PUSH1 0x20 ADD PUSH1 0x40 MSTORE DUP1 PUSH1 0x0 DUP2 MSTORE POP DUP1 MLOAD SWAP1 PUSH1 0x20 ADD KECCAK256 DUP2 DUP1 MLOAD SWAP1 PUSH1 0x20 ADD KECCAK256 SUB PUSH2 0x5C3 JUMPI PUSH1 0x40 MLOAD PUSH3 0x461BCD PUSH1 0xE5 SHL DUP2 MSTORE PUSH1 0x4 ADD PUSH2 0x344 SWAP1 PUSH2 0x1D23 JUMP JUMPDEST PUSH2 0x5CC DUP11 PUSH2 0x4C8 JUMP JUMPDEST PUSH1 0x1 PUSH1 0x1 PUSH1 0xA0 SHL SUB AND PUSH4 0xD80516A5 PUSH1 0x40 MLOAD DUP2 PUSH4 0xFFFFFFFF AND PUSH1 0xE0 SHL DUP2 MSTORE PUSH1 0x4 ADD PUSH1 0x0 PUSH1 0x40 MLOAD DUP1 DUP4 SUB DUP2 DUP7 GAS STATICCALL ISZERO DUP1 ISZERO PUSH2 0x609 JUMPI RETURNDATASIZE PUSH1 0x0 DUP1 RETURNDATACOPY RETURNDATASIZE PUSH1 0x0 REVERT JUMPDEST POP POP POP POP PUSH1 0x40 MLOAD RETURNDATASIZE PUSH1 0x0 DUP3 RETURNDATACOPY PUSH1 0x1F RETURNDATASIZE SWAP1 DUP2 ADD PUSH1 0x1F NOT AND DUP3 ADD PUSH1 0x40 MSTORE PUSH2 0x631 SWAP2 SWAP1 DUP2 ADD SWAP1 PUSH2 0x1F55 JUMP JUMPDEST SWAP9 POP SWAP9 POP SWAP9 POP SWAP9 POP SWAP9 POP SWAP9 POP SWAP9 POP SWAP9 POP POP SWAP2 SWAP4 SWAP6 SWAP8 POP SWAP2 SWAP4 SWAP6 SWAP8 JUMP JUMPDEST PUSH1 0x40 DUP1 MLOAD PUSH1 0x20 DUP1 DUP3 ADD SWAP1 SWAP3 MSTORE PUSH1 0x0 SWAP1 MSTORE DUP2 MLOAD SWAP1 DUP3 ADD KECCAK256 PUSH1 0x60 SWAP1 DUP3 SWAP1 PUSH1 0x0 DUP1 MLOAD PUSH1 0x20 PUSH2 0x220C DUP4 CODECOPY DUP2 MLOAD SWAP2 MSTORE ADD PUSH2 0x694 JUMPI PUSH1 0x40 MLOAD PUSH3 0x461BCD PUSH1 0xE5 SHL DUP2 MSTORE PUSH1 0x4 ADD PUSH2 0x344 SWAP1 PUSH2 0x1D23 JUMP JUMPDEST PUSH2 0x69D DUP4 PUSH2 0x4C8 JUMP JUMPDEST PUSH1 0x1 PUSH1 0x1 PUSH1 0xA0 SHL SUB AND PUSH4 0xB5CD26F8 PUSH1 0x40 MLOAD DUP2 PUSH4 0xFFFFFFFF AND PUSH1 0xE0 SHL DUP2 MSTORE PUSH1 0x4 ADD PUSH1 0x0 PUSH1 0x40 MLOAD DUP1 DUP4 SUB DUP2 DUP7 GAS STATICCALL ISZERO DUP1 ISZERO PUSH2 0x6DA JUMPI RETURNDATASIZE PUSH1 0x0 DUP1 RETURNDATACOPY RETURNDATASIZE PUSH1 0x0 REVERT JUMPDEST POP POP POP POP PUSH1 0x40 MLOAD RETURNDATASIZE PUSH1 0x0 DUP3 RETURNDATACOPY PUSH1 0x1F RETURNDATASIZE SWAP1 DUP2 ADD PUSH1 0x1F NOT AND DUP3 ADD PUSH1 0x40 MSTORE PUSH2 0x3BB SWAP2 SWAP1 DUP2 ADD SWAP1 PUSH2 0x1EF8 JUMP JUMPDEST PUSH1 0x40 DUP1 MLOAD PUSH1 0x20 DUP1 DUP3 ADD SWAP1 SWAP3 MSTORE PUSH1 0x0 SWAP1 MSTORE DUP2 MLOAD SWAP1 DUP3 ADD KECCAK256 DUP2 SWAP1 PUSH1 0x0 DUP1 MLOAD PUSH1 0x20 PUSH2 0x220C DUP4 CODECOPY DUP2 MLOAD SWAP2 MSTORE ADD PUSH2 0x746 JUMPI PUSH1 0x40 MLOAD PUSH3 0x461BCD PUSH1 0xE5 SHL DUP2 MSTORE PUSH1 0x4 ADD PUSH2 0x344 SWAP1 PUSH2 0x1D23 JUMP JUMPDEST PUSH1 0x1 SLOAD PUSH1 0x40 MLOAD PUSH4 0x4B22DC91 PUSH1 0xE0 SHL DUP2 MSTORE DUP4 SWAP2 PUSH1 0x1 PUSH1 0x1 PUSH1 0xA0 SHL SUB AND SWAP1 PUSH4 0x4B22DC91 SWAP1 PUSH2 0x776 SWAP1 DUP5 SWAP1 PUSH1 0x4 ADD PUSH2 0x1C1C JUMP JUMPDEST PUSH1 0x20 PUSH1 0x40 MLOAD DUP1 DUP4 SUB DUP2 DUP7 GAS STATICCALL ISZERO DUP1 ISZERO PUSH2 0x793 JUMPI RETURNDATASIZE PUSH1 0x0 DUP1 RETURNDATACOPY RETURNDATASIZE PUSH1 0x0 REVERT JUMPDEST POP POP POP POP PUSH1 0x40 MLOAD RETURNDATASIZE PUSH1 0x1F NOT PUSH1 0x1F DUP3 ADD AND DUP3 ADD DUP1 PUSH1 0x40 MSTORE POP DUP2 ADD SWAP1 PUSH2 0x7B7 SWAP2 SWAP1 PUSH2 0x1F2D JUMP JUMPDEST PUSH1 0x1 PUSH1 0x1 PUSH1 0xA0 SHL SUB AND PUSH4 0x5AD70D12 PUSH1 0x40 MLOAD DUP2 PUSH4 0xFFFFFFFF AND PUSH1 0xE0 SHL DUP2 MSTORE PUSH1 0x4 ADD PUSH1 0x20 PUSH1 0x40 MLOAD DUP1 DUP4 SUB DUP2 DUP7 GAS STATICCALL ISZERO DUP1 ISZERO PUSH2 0x7F4 JUMPI RETURNDATASIZE PUSH1 0x0 DUP1 RETURNDATACOPY RETURNDATASIZE PUSH1 0x0 REVERT JUMPDEST POP POP POP POP PUSH1 0x40 MLOAD RETURNDATASIZE PUSH1 0x1F NOT PUSH1 0x1F DUP3 ADD AND DUP3 ADD DUP1 PUSH1 0x40 MSTORE POP DUP2 ADD SWAP1 PUSH2 0x818 SWAP2 SWAP1 PUSH2 0x2081 JUMP JUMPDEST PUSH2 0x834 JUMPI PUSH1 0x40 MLOAD PUSH3 0x461BCD PUSH1 0xE5 SHL DUP2 MSTORE PUSH1 0x4 ADD PUSH2 0x344 SWAP1 PUSH2 0x209E JUMP JUMPDEST CALLER PUSH1 0x0 DUP2 DUP2 MSTORE PUSH1 0x2 PUSH1 0x20 SWAP1 DUP2 MSTORE PUSH1 0x40 DUP1 DUP4 KECCAK256 DUP4 DUP1 MSTORE SWAP1 SWAP2 MSTORE DUP2 KECCAK256 SLOAD PUSH1 0xFF AND PUSH2 0x86E JUMPI PUSH1 0x40 MLOAD PUSH3 0x461BCD PUSH1 0xE5 SHL DUP2 MSTORE PUSH1 0x4 ADD PUSH2 0x344 SWAP1 PUSH2 0x20EB JUMP JUMPDEST PUSH2 0x877 DUP6 PUSH2 0x4C8 JUMP JUMPDEST PUSH1 0x1 PUSH1 0x1 PUSH1 0xA0 SHL SUB AND PUSH4 0xB3610F37 PUSH1 0x40 MLOAD DUP2 PUSH4 0xFFFFFFFF AND PUSH1 0xE0 SHL DUP2 MSTORE PUSH1 0x4 ADD PUSH1 0x0 PUSH1 0x40 MLOAD DUP1 DUP4 SUB DUP2 PUSH1 0x0 DUP8 DUP1 EXTCODESIZE ISZERO DUP1 ISZERO PUSH2 0x8B1 JUMPI PUSH1 0x0 DUP1 REVERT JUMPDEST POP GAS CALL ISZERO DUP1 ISZERO PUSH2 0x8C5 JUMPI RETURNDATASIZE PUSH1 0x0 DUP1 RETURNDATACOPY RETURNDATASIZE PUSH1 0x0 REVERT JUMPDEST POP POP POP POP POP POP POP POP POP JUMP JUMPDEST CALLER PUSH1 0x0 DUP2 DUP2 MSTORE PUSH1 0x2 PUSH1 0x20 SWAP1 DUP2 MSTORE PUSH1 0x40 DUP1 DUP4 KECCAK256 DUP4 DUP1 MSTORE SWAP1 SWAP2 MSTORE DUP2 KECCAK256 SLOAD SWAP1 SWAP2 SWAP1 DUP3 SWAP1 PUSH1 0xFF AND PUSH2 0x90F JUMPI PUSH1 0x40 MLOAD PUSH3 0x461BCD PUSH1 0xE5 SHL DUP2 MSTORE PUSH1 0x4 ADD PUSH2 0x344 SWAP1 PUSH2 0x20EB JUMP JUMPDEST PUSH1 0x1 SLOAD PUSH1 0x40 MLOAD PUSH4 0x7832E6E3 PUSH1 0xE0 SHL DUP2 MSTORE PUSH1 0x0 SWAP2 PUSH1 0x1 PUSH1 0x1 PUSH1 0xA0 SHL SUB AND SWAP1 PUSH4 0x7832E6E3 SWAP1 PUSH2 0x940 SWAP1 DUP9 SWAP1 PUSH1 0x4 ADD PUSH2 0x1C1C JUMP JUMPDEST PUSH1 0x20 PUSH1 0x40 MLOAD DUP1 DUP4 SUB DUP2 DUP7 GAS STATICCALL ISZERO DUP1 ISZERO PUSH2 0x95D JUMPI RETURNDATASIZE PUSH1 0x0 DUP1 RETURNDATACOPY RETURNDATASIZE PUSH1 0x0 REVERT JUMPDEST POP POP POP POP PUSH1 0x40 MLOAD RETURNDATASIZE PUSH1 0x1F NOT PUSH1 0x1F DUP3 ADD AND DUP3 ADD DUP1 PUSH1 0x40 MSTORE POP DUP2 ADD SWAP1 PUSH2 0x981 SWAP2 SWAP1 PUSH2 0x2081 JUMP JUMPDEST SWAP6 SWAP5 POP POP POP POP POP JUMP JUMPDEST PUSH1 0x40 DUP1 MLOAD PUSH1 0x20 DUP1 DUP3 ADD SWAP1 SWAP3 MSTORE PUSH1 0x0 SWAP1 MSTORE DUP3 MLOAD SWAP1 DUP4 ADD KECCAK256 DUP3 SWAP1 PUSH1 0x0 DUP1 MLOAD PUSH1 0x20 PUSH2 0x220C DUP4 CODECOPY DUP2 MLOAD SWAP2 MSTORE ADD PUSH2 0x9CE JUMPI PUSH1 0x40 MLOAD PUSH3 0x461BCD PUSH1 0xE5 SHL DUP2 MSTORE PUSH1 0x4 ADD PUSH2 0x344 SWAP1 PUSH2 0x1D23 JUMP JUMPDEST PUSH1 0x1 SLOAD PUSH1 0x40 MLOAD PUSH4 0x4B22DC91 PUSH1 0xE0 SHL DUP2 MSTORE DUP5 SWAP2 PUSH1 0x1 PUSH1 0x1 PUSH1 0xA0 SHL SUB AND SWAP1 PUSH4 0x4B22DC91 SWAP1 PUSH2 0x9FE SWAP1 DUP5 SWAP1 PUSH1 0x4 ADD PUSH2 0x1C1C JUMP JUMPDEST PUSH1 0x20 PUSH1 0x40 MLOAD DUP1 DUP4 SUB DUP2 DUP7 GAS STATICCALL ISZERO DUP1 ISZERO PUSH2 0xA1B JUMPI RETURNDATASIZE PUSH1 0x0 DUP1 RETURNDATACOPY RETURNDATASIZE PUSH1 0x0 REVERT JUMPDEST POP POP POP POP PUSH1 0x40 MLOAD RETURNDATASIZE PUSH1 0x1F NOT PUSH1 0x1F DUP3 ADD AND DUP3 ADD DUP1 PUSH1 0x40 MSTORE POP DUP2 ADD SWAP1 PUSH2 0xA3F SWAP2 SWAP1 PUSH2 0x1F2D JUMP JUMPDEST PUSH1 0x1 PUSH1 0x1 PUSH1 0xA0 SHL SUB AND PUSH4 0x5AD70D12 PUSH1 0x40 MLOAD DUP2 PUSH4 0xFFFFFFFF AND PUSH1 0xE0 SHL DUP2 MSTORE PUSH1 0x4 ADD PUSH1 0x20 PUSH1 0x40 MLOAD DUP1 DUP4 SUB DUP2 DUP7 GAS STATICCALL ISZERO DUP1 ISZERO PUSH2 0xA7C JUMPI RETURNDATASIZE PUSH1 0x0 DUP1 RETURNDATACOPY RETURNDATASIZE PUSH1 0x0 REVERT JUMPDEST POP POP POP POP PUSH1 0x40 MLOAD RETURNDATASIZE PUSH1 0x1F NOT PUSH1 0x1F DUP3 ADD AND DUP3 ADD DUP1 PUSH1 0x40 MSTORE POP DUP2 ADD SWAP1 PUSH2 0xAA0 SWAP2 SWAP1 PUSH2 0x2081 JUMP JUMPDEST PUSH2 0xABC JUMPI PUSH1 0x40 MLOAD PUSH3 0x461BCD PUSH1 0xE5 SHL DUP2 MSTORE PUSH1 0x4 ADD PUSH2 0x344 SWAP1 PUSH2 0x209E JUMP JUMPDEST CALLER PUSH1 0x0 DUP2 DUP2 MSTORE PUSH1 0x2 PUSH1 0x20 SWAP1 DUP2 MSTORE PUSH1 0x40 DUP1 DUP4 KECCAK256 PUSH1 0x3 DUP1 DUP6 MSTORE SWAP3 MSTORE SWAP1 SWAP2 KECCAK256 SLOAD PUSH1 0xFF AND PUSH2 0xB33 JUMPI PUSH1 0x40 MLOAD PUSH3 0x461BCD PUSH1 0xE5 SHL DUP2 MSTORE PUSH1 0x20 PUSH1 0x4 DUP3 ADD MSTORE PUSH1 0x22 PUSH1 0x24 DUP3 ADD MSTORE PUSH32 0x5065726D697373696F6E2064656E6965642C20696E737572616E6365206F6E6C PUSH1 0x44 DUP3 ADD MSTORE PUSH2 0x7921 PUSH1 0xF0 SHL PUSH1 0x64 DUP3 ADD MSTORE PUSH1 0x84 ADD PUSH2 0x344 JUMP JUMPDEST PUSH1 0x40 DUP1 MLOAD PUSH1 0x20 DUP1 DUP3 ADD SWAP1 SWAP3 MSTORE PUSH1 0x0 SWAP1 MSTORE DUP6 MLOAD SWAP1 DUP7 ADD KECCAK256 PUSH1 0x0 DUP1 MLOAD PUSH1 0x20 PUSH2 0x220C DUP4 CODECOPY DUP2 MLOAD SWAP2 MSTORE ADD PUSH2 0xBA5 JUMPI PUSH1 0x40 MLOAD PUSH3 0x461BCD PUSH1 0xE5 SHL DUP2 MSTORE PUSH1 0x20 PUSH1 0x4 DUP3 ADD MSTORE PUSH1 0x19 PUSH1 0x24 DUP3 ADD MSTORE PUSH32 0x506C656173652070726F76696465206D6F726520696E666F7300000000000000 PUSH1 0x44 DUP3 ADD MSTORE PUSH1 0x64 ADD PUSH2 0x344 JUMP JUMPDEST PUSH1 0x0 PUSH2 0xBB0 DUP8 PUSH2 0x4C8 JUMP JUMPDEST PUSH1 0x40 MLOAD PUSH4 0x134044A1 PUSH1 0xE0 SHL DUP2 MSTORE SWAP1 SWAP2 POP PUSH1 0x1 PUSH1 0x1 PUSH1 0xA0 SHL SUB DUP3 AND SWAP1 PUSH4 0x134044A1 SWAP1 PUSH2 0xBDF SWAP1 DUP10 SWAP1 PUSH1 0x4 ADD PUSH2 0x1C1C JUMP JUMPDEST PUSH1 0x0 PUSH1 0x40 MLOAD DUP1 DUP4 SUB DUP2 PUSH1 0x0 DUP8 DUP1 EXTCODESIZE ISZERO DUP1 ISZERO PUSH2 0xBF9 JUMPI PUSH1 0x0 DUP1 REVERT JUMPDEST POP GAS CALL ISZERO DUP1 ISZERO PUSH2 0xC0D JUMPI RETURNDATASIZE PUSH1 0x0 DUP1 RETURNDATACOPY RETURNDATASIZE PUSH1 0x0 REVERT JUMPDEST POP POP POP POP POP POP POP POP POP POP POP JUMP JUMPDEST CALLER PUSH1 0x0 DUP2 DUP2 MSTORE PUSH1 0x2 PUSH1 0x20 SWAP1 DUP2 MSTORE PUSH1 0x40 DUP1 DUP4 KECCAK256 DUP4 DUP1 MSTORE SWAP1 SWAP2 MSTORE DUP2 KECCAK256 SLOAD PUSH1 0xFF AND PUSH2 0xC54 JUMPI PUSH1 0x40 MLOAD PUSH3 0x461BCD PUSH1 0xE5 SHL DUP2 MSTORE PUSH1 0x4 ADD PUSH2 0x344 SWAP1 PUSH2 0x20EB JUMP JUMPDEST PUSH1 0x40 DUP1 MLOAD PUSH1 0x20 DUP1 DUP3 ADD SWAP1 SWAP3 MSTORE PUSH1 0x0 SWAP1 MSTORE DUP5 MLOAD SWAP1 DUP6 ADD KECCAK256 DUP5 SWAP1 PUSH1 0x0 DUP1 MLOAD PUSH1 0x20 PUSH2 0x220C DUP4 CODECOPY DUP2 MLOAD SWAP2 MSTORE ADD PUSH2 0xC98 JUMPI PUSH1 0x40 MLOAD PUSH3 0x461BCD PUSH1 0xE5 SHL DUP2 MSTORE PUSH1 0x4 ADD PUSH2 0x344 SWAP1 PUSH2 0x1D23 JUMP JUMPDEST PUSH1 0x40 DUP1 MLOAD PUSH1 0x20 DUP1 DUP3 ADD SWAP1 SWAP3 MSTORE PUSH1 0x0 SWAP1 MSTORE DUP5 MLOAD SWAP1 DUP6 ADD KECCAK256 PUSH1 0x0 DUP1 MLOAD PUSH1 0x20 PUSH2 0x220C DUP4 CODECOPY DUP2 MLOAD SWAP2 MSTORE ADD PUSH2 0xCDA JUMPI PUSH1 0x40 MLOAD PUSH3 0x461BCD PUSH1 0xE5 SHL DUP2 MSTORE PUSH1 0x4 ADD PUSH2 0x344 SWAP1 PUSH2 0x2139 JUMP JUMPDEST PUSH1 0x1 SLOAD PUSH1 0x40 MLOAD PUSH4 0x3DE4DE8F PUSH1 0xE0 SHL DUP2 MSTORE PUSH1 0x1 PUSH1 0x1 PUSH1 0xA0 SHL SUB SWAP1 SWAP2 AND SWAP1 PUSH4 0x3DE4DE8F SWAP1 PUSH2 0xD0C SWAP1 DUP9 SWAP1 DUP9 SWAP1 PUSH1 0x4 ADD PUSH2 0x217A JUMP JUMPDEST PUSH1 0x0 PUSH1 0x40 MLOAD DUP1 DUP4 SUB DUP2 PUSH1 0x0 DUP8 DUP1 EXTCODESIZE ISZERO DUP1 ISZERO PUSH2 0x8B1 JUMPI PUSH1 0x0 DUP1 REVERT JUMPDEST PUSH1 0x0 PUSH1 0x3 DUP3 PUSH1 0x40 MLOAD PUSH2 0xD38 SWAP2 SWAP1 PUSH2 0x1E17 JUMP JUMPDEST SWAP1 DUP2 MSTORE PUSH1 0x40 MLOAD SWAP1 DUP2 SWAP1 SUB PUSH1 0x20 ADD SWAP1 KECCAK256 SLOAD PUSH1 0x1 PUSH1 0x1 PUSH1 0xA0 SHL SUB AND SWAP3 SWAP2 POP POP JUMP JUMPDEST PUSH1 0x40 DUP1 MLOAD PUSH1 0x20 DUP1 DUP3 ADD SWAP1 SWAP3 MSTORE PUSH1 0x0 SWAP1 MSTORE DUP3 MLOAD SWAP1 DUP4 ADD KECCAK256 DUP3 SWAP1 PUSH1 0x0 DUP1 MLOAD PUSH1 0x20 PUSH2 0x220C DUP4 CODECOPY DUP2 MLOAD SWAP2 MSTORE ADD PUSH2 0xD9B JUMPI PUSH1 0x40 MLOAD PUSH3 0x461BCD PUSH1 0xE5 SHL DUP2 MSTORE PUSH1 0x4 ADD PUSH2 0x344 SWAP1 PUSH2 0x1D23 JUMP JUMPDEST PUSH1 0x1 SLOAD PUSH1 0x40 MLOAD PUSH4 0x4B22DC91 PUSH1 0xE0 SHL DUP2 MSTORE DUP5 SWAP2 PUSH1 0x1 PUSH1 0x1 PUSH1 0xA0 SHL SUB AND SWAP1 PUSH4 0x4B22DC91 SWAP1 PUSH2 0xDCB SWAP1 DUP5 SWAP1 PUSH1 0x4 ADD PUSH2 0x1C1C JUMP JUMPDEST PUSH1 0x20 PUSH1 0x40 MLOAD DUP1 DUP4 SUB DUP2 DUP7 GAS STATICCALL ISZERO DUP1 ISZERO PUSH2 0xDE8 JUMPI RETURNDATASIZE PUSH1 0x0 DUP1 RETURNDATACOPY RETURNDATASIZE PUSH1 0x0 REVERT JUMPDEST POP POP POP POP PUSH1 0x40 MLOAD RETURNDATASIZE PUSH1 0x1F NOT PUSH1 0x1F DUP3 ADD AND DUP3 ADD DUP1 PUSH1 0x40 MSTORE POP DUP2 ADD SWAP1 PUSH2 0xE0C SWAP2 SWAP1 PUSH2 0x1F2D JUMP JUMPDEST PUSH1 0x1 PUSH1 0x1 PUSH1 0xA0 SHL SUB AND PUSH4 0x5AD70D12 PUSH1 0x40 MLOAD DUP2 PUSH4 0xFFFFFFFF AND PUSH1 0xE0 SHL DUP2 MSTORE PUSH1 0x4 ADD PUSH1 0x20 PUSH1 0x40 MLOAD DUP1 DUP4 SUB DUP2 DUP7 GAS STATICCALL ISZERO DUP1 ISZERO PUSH2 0xE49 JUMPI RETURNDATASIZE PUSH1 0x0 DUP1 RETURNDATACOPY RETURNDATASIZE PUSH1 0x0 REVERT JUMPDEST POP POP POP POP PUSH1 0x40 MLOAD RETURNDATASIZE PUSH1 0x1F NOT PUSH1 0x1F DUP3 ADD AND DUP3 ADD DUP1 PUSH1 0x40 MSTORE POP DUP2 ADD SWAP1 PUSH2 0xE6D SWAP2 SWAP1 PUSH2 0x2081 JUMP JUMPDEST PUSH2 0xE89 JUMPI PUSH1 0x40 MLOAD PUSH3 0x461BCD PUSH1 0xE5 SHL DUP2 MSTORE PUSH1 0x4 ADD PUSH2 0x344 SWAP1 PUSH2 0x209E JUMP JUMPDEST PUSH1 0x0 SLOAD PUSH1 0x1 PUSH1 0x1 PUSH1 0xA0 SHL SUB AND CALLER EQ PUSH2 0xEB3 JUMPI PUSH1 0x40 MLOAD PUSH3 0x461BCD PUSH1 0xE5 SHL DUP2 MSTORE PUSH1 0x4 ADD PUSH2 0x344 SWAP1 PUSH2 0x219F JUMP JUMPDEST PUSH2 0xEBC DUP5 PUSH2 0x4C8 JUMP JUMPDEST PUSH1 0x1 PUSH1 0x1 PUSH1 0xA0 SHL SUB AND PUSH4 0x457CF35B DUP5 PUSH1 0x40 MLOAD DUP3 PUSH4 0xFFFFFFFF AND PUSH1 0xE0 SHL DUP2 MSTORE PUSH1 0x4 ADD PUSH2 0xEE7 SWAP2 SWAP1 PUSH2 0x1C1C JUMP JUMPDEST PUSH1 0x0 PUSH1 0x40 MLOAD DUP1 DUP4 SUB DUP2 PUSH1 0x0 DUP8 DUP1 EXTCODESIZE ISZERO DUP1 ISZERO PUSH2 0xF01 JUMPI PUSH1 0x0 DUP1 REVERT JUMPDEST POP GAS CALL ISZERO DUP1 ISZERO PUSH2 0xF15 JUMPI RETURNDATASIZE PUSH1 0x0 DUP1 RETURNDATACOPY RETURNDATASIZE PUSH1 0x0 REVERT JUMPDEST POP POP POP POP POP POP POP POP JUMP JUMPDEST PUSH1 0x40 DUP1 MLOAD PUSH1 0x20 DUP1 DUP3 ADD SWAP1 SWAP3 MSTORE PUSH1 0x0 SWAP1 MSTORE DUP2 MLOAD SWAP1 DUP3 ADD KECCAK256 PUSH1 0x60 SWAP1 DUP3 SWAP1 PUSH1 0x0 DUP1 MLOAD PUSH1 0x20 PUSH2 0x220C DUP4 CODECOPY DUP2 MLOAD SWAP2 MSTORE ADD PUSH2 0xF66 JUMPI PUSH1 0x40 MLOAD PUSH3 0x461BCD PUSH1 0xE5 SHL DUP2 MSTORE PUSH1 0x4 ADD PUSH2 0x344 SWAP1 PUSH2 0x1D23 JUMP JUMPDEST PUSH1 0x0 PUSH2 0xF71 DUP5 PUSH2 0x4C8 JUMP JUMPDEST SWAP1 POP DUP1 PUSH1 0x1 PUSH1 0x1 PUSH1 0xA0 SHL SUB AND PUSH4 0xBD51B8E0 PUSH1 0x40 MLOAD DUP2 PUSH4 0xFFFFFFFF AND PUSH1 0xE0 SHL DUP2 MSTORE PUSH1 0x4 ADD PUSH1 0x0 PUSH1 0x40 MLOAD DUP1 DUP4 SUB DUP2 DUP7 GAS STATICCALL ISZERO DUP1 ISZERO PUSH2 0x498 JUMPI RETURNDATASIZE PUSH1 0x0 DUP1 RETURNDATACOPY RETURNDATASIZE PUSH1 0x0 REVERT JUMPDEST PUSH1 0x0 DUP1 SLOAD PUSH1 0x1 PUSH1 0x1 PUSH1 0xA0 SHL SUB AND CALLER EQ PUSH2 0xFDC JUMPI PUSH1 0x40 MLOAD PUSH3 0x461BCD PUSH1 0xE5 SHL DUP2 MSTORE PUSH1 0x4 ADD PUSH2 0x344 SWAP1 PUSH2 0x219F JUMP JUMPDEST PUSH1 0x1 PUSH1 0x1 PUSH1 0xA0 SHL SUB DUP4 AND PUSH1 0x0 SWAP1 DUP2 MSTORE PUSH1 0x2 PUSH1 0x20 MSTORE PUSH1 0x40 DUP2 KECCAK256 SWAP1 DUP4 PUSH1 0x3 DUP2 GT ISZERO PUSH2 0x1007 JUMPI PUSH2 0x1007 PUSH2 0x20D5 JUMP JUMPDEST PUSH1 0x3 DUP2 GT ISZERO PUSH2 0x1018 JUMPI PUSH2 0x1018 PUSH2 0x20D5 JUMP JUMPDEST DUP2 MSTORE PUSH1 0x20 DUP2 ADD SWAP2 SWAP1 SWAP2 MSTORE PUSH1 0x40 ADD PUSH1 0x0 KECCAK256 SLOAD PUSH1 0xFF AND SWAP4 SWAP3 POP POP POP JUMP JUMPDEST PUSH1 0x40 DUP1 MLOAD PUSH1 0x20 DUP1 DUP3 ADD SWAP1 SWAP3 MSTORE PUSH1 0x0 SWAP1 MSTORE DUP3 MLOAD SWAP1 DUP4 ADD KECCAK256 DUP3 SWAP1 PUSH1 0x0 DUP1 MLOAD PUSH1 0x20 PUSH2 0x220C DUP4 CODECOPY DUP2 MLOAD SWAP2 MSTORE ADD PUSH2 0x1077 JUMPI PUSH1 0x40 MLOAD PUSH3 0x461BCD PUSH1 0xE5 SHL DUP2 MSTORE PUSH1 0x4 ADD PUSH2 0x344 SWAP1 PUSH2 0x1D23 JUMP JUMPDEST PUSH1 0x1 SLOAD PUSH1 0x40 MLOAD PUSH4 0x4B22DC91 PUSH1 0xE0 SHL DUP2 MSTORE DUP5 SWAP2 PUSH1 0x1 PUSH1 0x1 PUSH1 0xA0 SHL SUB AND SWAP1 PUSH4 0x4B22DC91 SWAP1 PUSH2 0x10A7 SWAP1 DUP5 SWAP1 PUSH1 0x4 ADD PUSH2 0x1C1C JUMP JUMPDEST PUSH1 0x20 PUSH1 0x40 MLOAD DUP1 DUP4 SUB DUP2 DUP7 GAS STATICCALL ISZERO DUP1 ISZERO PUSH2 0x10C4 JUMPI RETURNDATASIZE PUSH1 0x0 DUP1 RETURNDATACOPY RETURNDATASIZE PUSH1 0x0 REVERT JUMPDEST POP POP POP POP PUSH1 0x40 MLOAD RETURNDATASIZE PUSH1 0x1F NOT PUSH1 0x1F DUP3 ADD AND DUP3 ADD DUP1 PUSH1 0x40 MSTORE POP DUP2 ADD SWAP1 PUSH2 0x10E8 SWAP2 SWAP1 PUSH2 0x1F2D JUMP JUMPDEST PUSH1 0x1 PUSH1 0x1 PUSH1 0xA0 SHL SUB AND PUSH4 0x5AD70D12 PUSH1 0x40 MLOAD DUP2 PUSH4 0xFFFFFFFF AND PUSH1 0xE0 SHL DUP2 MSTORE PUSH1 0x4 ADD PUSH1 0x20 PUSH1 0x40 MLOAD DUP1 DUP4 SUB DUP2 DUP7 GAS STATICCALL ISZERO DUP1 ISZERO PUSH2 0x1125 JUMPI RETURNDATASIZE PUSH1 0x0 DUP1 RETURNDATACOPY RETURNDATASIZE PUSH1 0x0 REVERT JUMPDEST POP POP POP POP PUSH1 0x40 MLOAD RETURNDATASIZE PUSH1 0x1F NOT PUSH1 0x1F DUP3 ADD AND DUP3 ADD DUP1 PUSH1 0x40 MSTORE POP DUP2 ADD SWAP1 PUSH2 0x1149 SWAP2 SWAP1 PUSH2 0x2081 JUMP JUMPDEST PUSH2 0x1165 JUMPI PUSH1 0x40 MLOAD PUSH3 0x461BCD PUSH1 0xE5 SHL DUP2 MSTORE PUSH1 0x4 ADD PUSH2 0x344 SWAP1 PUSH2 0x209E JUMP JUMPDEST CALLER PUSH1 0x0 DUP2 DUP2 MSTORE PUSH1 0x2 PUSH1 0x20 DUP2 DUP2 MSTORE PUSH1 0x40 DUP1 DUP5 KECCAK256 DUP4 DUP6 MSTORE SWAP1 SWAP2 MSTORE SWAP1 SWAP2 KECCAK256 SLOAD PUSH1 0xFF AND PUSH2 0x11D0 JUMPI PUSH1 0x40 MLOAD PUSH3 0x461BCD PUSH1 0xE5 SHL DUP2 MSTORE PUSH1 0x20 PUSH1 0x4 DUP3 ADD MSTORE PUSH1 0x1F PUSH1 0x24 DUP3 ADD MSTORE PUSH32 0x5065726D697373696F6E2064656E6965642C2063656E746572206F6E6C792100 PUSH1 0x44 DUP3 ADD MSTORE PUSH1 0x64 ADD PUSH2 0x344 JUMP JUMPDEST PUSH1 0x40 DUP1 MLOAD PUSH1 0x20 DUP1 DUP3 ADD SWAP1 SWAP3 MSTORE PUSH1 0x0 SWAP1 MSTORE DUP6 MLOAD SWAP1 DUP7 ADD KECCAK256 PUSH1 0x0 DUP1 MLOAD PUSH1 0x20 PUSH2 0x220C DUP4 CODECOPY DUP2 MLOAD SWAP2 MSTORE ADD PUSH2 0x1242 JUMPI PUSH1 0x40 MLOAD PUSH3 0x461BCD PUSH1 0xE5 SHL DUP2 MSTORE PUSH1 0x20 PUSH1 0x4 DUP3 ADD MSTORE PUSH1 0x1F PUSH1 0x24 DUP3 ADD MSTORE PUSH32 0x506C656173652070726F76696465206120636F7272656374207265706F727400 PUSH1 0x44 DUP3 ADD MSTORE PUSH1 0x64 ADD PUSH2 0x344 JUMP JUMPDEST PUSH1 0x0 PUSH2 0x124D DUP8 PUSH2 0x4C8 JUMP JUMPDEST PUSH1 0x40 MLOAD PUSH4 0x2BE527F3 PUSH1 0xE1 SHL DUP2 MSTORE SWAP1 SWAP2 POP PUSH1 0x1 PUSH1 0x1 PUSH1 0xA0 SHL SUB DUP3 AND SWAP1 PUSH4 0x57CA4FE6 SWAP1 PUSH2 0xBDF SWAP1 DUP10 SWAP1 PUSH1 0x4 ADD PUSH2 0x1C1C JUMP JUMPDEST PUSH1 0x40 DUP1 MLOAD PUSH1 0x20 DUP1 DUP3 ADD SWAP1 SWAP3 MSTORE PUSH1 0x0 SWAP1 MSTORE DUP2 MLOAD SWAP1 DUP3 ADD KECCAK256 PUSH1 0x60 SWAP1 DUP3 SWAP1 PUSH1 0x0 DUP1 MLOAD PUSH1 0x20 PUSH2 0x220C DUP4 CODECOPY DUP2 MLOAD SWAP2 MSTORE ADD PUSH2 0x12C3 JUMPI PUSH1 0x40 MLOAD PUSH3 0x461BCD PUSH1 0xE5 SHL DUP2 MSTORE PUSH1 0x4 ADD PUSH2 0x344 SWAP1 PUSH2 0x1D23 JUMP JUMPDEST PUSH2 0x12CC DUP4 PUSH2 0x4C8 JUMP JUMPDEST PUSH1 0x1 PUSH1 0x1 PUSH1 0xA0 SHL SUB AND PUSH4 0x888DBBC1 PUSH1 0x40 MLOAD DUP2 PUSH4 0xFFFFFFFF AND PUSH1 0xE0 SHL DUP2 MSTORE PUSH1 0x4 ADD PUSH1 0x0 PUSH1 0x40 MLOAD DUP1 DUP4 SUB DUP2 DUP7 GAS STATICCALL ISZERO DUP1 ISZERO PUSH2 0x6DA JUMPI RETURNDATASIZE PUSH1 0x0 DUP1 RETURNDATACOPY RETURNDATASIZE PUSH1 0x0 REVERT JUMPDEST PUSH1 0x40 DUP1 MLOAD PUSH1 0x20 DUP1 DUP3 ADD SWAP1 SWAP3 MSTORE PUSH1 0x0 SWAP1 MSTORE DUP2 MLOAD SWAP1 DUP3 ADD KECCAK256 PUSH1 0x60 SWAP1 DUP3 SWAP1 PUSH1 0x0 DUP1 MLOAD PUSH1 0x20 PUSH2 0x220C DUP4 CODECOPY DUP2 MLOAD SWAP2 MSTORE ADD PUSH2 0x1350 JUMPI PUSH1 0x40 MLOAD PUSH3 0x461BCD PUSH1 0xE5 SHL DUP2 MSTORE PUSH1 0x4 ADD PUSH2 0x344 SWAP1 PUSH2 0x1D23 JUMP JUMPDEST PUSH1 0x0 PUSH2 0x135B DUP5 PUSH2 0x4C8 JUMP JUMPDEST SWAP1 POP DUP1 PUSH1 0x1 PUSH1 0x1 PUSH1 0xA0 SHL SUB AND PUSH4 0x643D6DC0 PUSH1 0x40 MLOAD DUP2 PUSH4 0xFFFFFFFF AND PUSH1 0xE0 SHL DUP2 MSTORE PUSH1 0x4 ADD PUSH1 0x0 PUSH1 0x40 MLOAD DUP1 DUP4 SUB DUP2 DUP7 GAS STATICCALL ISZERO DUP1 ISZERO PUSH2 0x139B JUMPI RETURNDATASIZE PUSH1 0x0 DUP1 RETURNDATACOPY RETURNDATASIZE PUSH1 0x0 REVERT JUMPDEST POP POP POP POP PUSH1 0x40 MLOAD RETURNDATASIZE PUSH1 0x0 DUP3 RETURNDATACOPY PUSH1 0x1F RETURNDATASIZE SWAP1 DUP2 ADD PUSH1 0x1F NOT AND DUP3 ADD PUSH1 0x40 MSTORE PUSH2 0x4C0 SWAP2 SWAP1 DUP2 ADD SWAP1 PUSH2 0x21D6 JUMP JUMPDEST PUSH1 0x40 DUP1 MLOAD PUSH1 0x20 DUP1 DUP3 ADD SWAP1 SWAP3 MSTORE PUSH1 0x0 SWAP1 MSTORE DUP5 MLOAD SWAP1 DUP6 ADD KECCAK256 DUP5 SWAP1 PUSH1 0x0 DUP1 MLOAD PUSH1 0x20 PUSH2 0x220C DUP4 CODECOPY DUP2 MLOAD SWAP2 MSTORE ADD PUSH2 0x1407 JUMPI PUSH1 0x40 MLOAD PUSH3 0x461BCD PUSH1 0xE5 SHL DUP2 MSTORE PUSH1 0x4 ADD PUSH2 0x344 SWAP1 PUSH2 0x1D23 JUMP JUMPDEST PUSH1 0x1 SLOAD PUSH1 0x40 MLOAD PUSH4 0x4B22DC91 PUSH1 0xE0 SHL DUP2 MSTORE DUP7 SWAP2 PUSH1 0x1 PUSH1 0x1 PUSH1 0xA0 SHL SUB AND SWAP1 PUSH4 0x4B22DC91 SWAP1 PUSH2 0x1437 SWAP1 DUP5 SWAP1 PUSH1 0x4 ADD PUSH2 0x1C1C JUMP JUMPDEST PUSH1 0x20 PUSH1 0x40 MLOAD DUP1 DUP4 SUB DUP2 DUP7 GAS STATICCALL ISZERO DUP1 ISZERO PUSH2 0x1454 JUMPI RETURNDATASIZE PUSH1 0x0 DUP1 RETURNDATACOPY RETURNDATASIZE PUSH1 0x0 REVERT JUMPDEST POP POP POP POP PUSH1 0x40 MLOAD RETURNDATASIZE PUSH1 0x1F NOT PUSH1 0x1F DUP3 ADD AND DUP3 ADD DUP1 PUSH1 0x40 MSTORE POP DUP2 ADD SWAP1 PUSH2 0x1478 SWAP2 SWAP1 PUSH2 0x1F2D JUMP JUMPDEST PUSH1 0x1 PUSH1 0x1 PUSH1 0xA0 SHL SUB AND PUSH4 0x5AD70D12 PUSH1 0x40 MLOAD DUP2 PUSH4 0xFFFFFFFF AND PUSH1 0xE0 SHL DUP2 MSTORE PUSH1 0x4 ADD PUSH1 0x20 PUSH1 0x40 MLOAD DUP1 DUP4 SUB DUP2 DUP7 GAS STATICCALL ISZERO DUP1 ISZERO PUSH2 0x14B5 JUMPI RETURNDATASIZE PUSH1 0x0 DUP1 RETURNDATACOPY RETURNDATASIZE PUSH1 0x0 REVERT JUMPDEST POP POP POP POP PUSH1 0x40 MLOAD RETURNDATASIZE PUSH1 0x1F NOT PUSH1 0x1F DUP3 ADD AND DUP3 ADD DUP1 PUSH1 0x40 MSTORE POP DUP2 ADD SWAP1 PUSH2 0x14D9 SWAP2 SWAP1 PUSH2 0x2081 JUMP JUMPDEST PUSH2 0x14F5 JUMPI PUSH1 0x40 MLOAD PUSH3 0x461BCD PUSH1 0xE5 SHL DUP2 MSTORE PUSH1 0x4 ADD PUSH2 0x344 SWAP1 PUSH2 0x209E JUMP JUMPDEST CALLER PUSH1 0x0 DUP2 DUP2 MSTORE PUSH1 0x2 PUSH1 0x20 SWAP1 DUP2 MSTORE PUSH1 0x40 DUP1 DUP4 KECCAK256 PUSH1 0x1 DUP1 DUP6 MSTORE SWAP3 MSTORE SWAP1 SWAP2 KECCAK256 SLOAD PUSH1 0xFF AND PUSH2 0x1572 JUMPI PUSH1 0x40 MLOAD PUSH3 0x461BCD PUSH1 0xE5 SHL DUP2 MSTORE PUSH1 0x20 PUSH1 0x4 DUP3 ADD MSTORE PUSH1 0x28 PUSH1 0x24 DUP3 ADD MSTORE PUSH32 0x596F7520646F6E27742068617665207468652070726576696C65646765732C20 PUSH1 0x44 DUP3 ADD MSTORE PUSH8 0x61626F7274696E67 PUSH1 0xC0 SHL PUSH1 0x64 DUP3 ADD MSTORE PUSH1 0x84 ADD PUSH2 0x344 JUMP JUMPDEST PUSH1 0x1 PUSH1 0x1 PUSH1 0xA0 SHL SUB DUP8 AND PUSH2 0x1598 JUMPI PUSH1 0x40 MLOAD PUSH3 0x461BCD PUSH1 0xE5 SHL DUP2 MSTORE PUSH1 0x4 ADD PUSH2 0x344 SWAP1 PUSH2 0x2139 JUMP JUMPDEST PUSH1 0x40 DUP1 MLOAD PUSH1 0x20 DUP1 DUP3 ADD SWAP1 SWAP3 MSTORE PUSH1 0x0 SWAP1 MSTORE DUP7 MLOAD SWAP1 DUP8 ADD KECCAK256 PUSH1 0x0 DUP1 MLOAD PUSH1 0x20 PUSH2 0x220C DUP4 CODECOPY DUP2 MLOAD SWAP2 MSTORE ADD PUSH2 0x161C JUMPI PUSH1 0x40 MLOAD PUSH3 0x461BCD PUSH1 0xE5 SHL DUP2 MSTORE PUSH1 0x20 PUSH1 0x4 DUP3 ADD MSTORE PUSH1 0x29 PUSH1 0x24 DUP3 ADD MSTORE PUSH32 0x506C656173652066696C6C20746865207472616E73616374696F6E20696E666F PUSH1 0x44 DUP3 ADD MSTORE PUSH9 0x399039B2B1BA34B7B7 PUSH1 0xB9 SHL PUSH1 0x64 DUP3 ADD MSTORE PUSH1 0x84 ADD PUSH2 0x344 JUMP JUMPDEST PUSH1 0x40 DUP1 MLOAD PUSH1 0x20 DUP1 DUP3 ADD SWAP1 SWAP3 MSTORE PUSH1 0x0 SWAP1 MSTORE DUP6 MLOAD SWAP1 DUP7 ADD KECCAK256 PUSH1 0x0 DUP1 MLOAD PUSH1 0x20 PUSH2 0x220C DUP4 CODECOPY DUP2 MLOAD SWAP2 MSTORE ADD PUSH2 0x16A0 JUMPI PUSH1 0x40 MLOAD PUSH3 0x461BCD PUSH1 0xE5 SHL DUP2 MSTORE PUSH1 0x20 PUSH1 0x4 DUP3 ADD MSTORE PUSH1 0x29 PUSH1 0x24 DUP3 ADD MSTORE PUSH32 0x546865206D6174726963756C6174696F6E2073656374696F6E2063616E6E6F74 PUSH1 0x44 DUP3 ADD MSTORE PUSH9 0x20626520626C616E6B PUSH1 0xB8 SHL PUSH1 0x64 DUP3 ADD MSTORE PUSH1 0x84 ADD PUSH2 0x344 JUMP JUMPDEST PUSH1 0x0 PUSH2 0x16AB DUP10 PUSH2 0x4C8 JUMP JUMPDEST PUSH1 0x40 MLOAD PUSH4 0x13AF4035 PUSH1 0xE0 SHL DUP2 MSTORE PUSH1 0x1 PUSH1 0x1 PUSH1 0xA0 SHL SUB DUP11 DUP2 AND PUSH1 0x4 DUP4 ADD MSTORE SWAP2 SWAP3 POP SWAP1 DUP3 AND SWAP1 PUSH4 0x13AF4035 SWAP1 PUSH1 0x24 ADD PUSH1 0x0 PUSH1 0x40 MLOAD DUP1 DUP4 SUB DUP2 PUSH1 0x0 DUP8 DUP1 EXTCODESIZE ISZERO DUP1 ISZERO PUSH2 0x16F2 JUMPI PUSH1 0x0 DUP1 REVERT JUMPDEST POP GAS CALL ISZERO DUP1 ISZERO PUSH2 0x1706 JUMPI RETURNDATASIZE PUSH1 0x0 DUP1 RETURNDATACOPY RETURNDATASIZE PUSH1 0x0 REVERT JUMPDEST POP POP PUSH1 0x40 MLOAD PUSH4 0x7A64F113 PUSH1 0xE0 SHL DUP2 MSTORE PUSH1 0x1 PUSH1 0x1 PUSH1 0xA0 SHL SUB DUP5 AND SWAP3 POP PUSH4 0x7A64F113 SWAP2 POP PUSH2 0x1736 SWAP1 DUP11 SWAP1 PUSH1 0x4 ADD PUSH2 0x1C1C JUMP JUMPDEST PUSH1 0x0 PUSH1 0x40 MLOAD DUP1 DUP4 SUB DUP2 PUSH1 0x0 DUP8 DUP1 EXTCODESIZE ISZERO DUP1 ISZERO PUSH2 0x1750 JUMPI PUSH1 0x0 DUP1 REVERT JUMPDEST POP GAS CALL ISZERO DUP1 ISZERO PUSH2 0x1764 JUMPI RETURNDATASIZE PUSH1 0x0 DUP1 RETURNDATACOPY RETURNDATASIZE PUSH1 0x0 REVERT JUMPDEST POP POP PUSH1 0x40 MLOAD PUSH4 0x2E8B71D3 PUSH1 0xE0 SHL DUP2 MSTORE PUSH1 0x1 PUSH1 0x1 PUSH1 0xA0 SHL SUB DUP5 AND SWAP3 POP PUSH4 0x2E8B71D3 SWAP2 POP PUSH2 0x1794 SWAP1 DUP10 SWAP1 PUSH1 0x4 ADD PUSH2 0x1C1C JUMP JUMPDEST PUSH1 0x0 PUSH1 0x40 MLOAD DUP1 DUP4 SUB DUP2 PUSH1 0x0 DUP8 DUP1 EXTCODESIZE ISZERO DUP1 ISZERO PUSH2 0x17AE JUMPI PUSH1 0x0 DUP1 REVERT JUMPDEST POP GAS CALL ISZERO DUP1 ISZERO PUSH2 0x17C2 JUMPI RETURNDATASIZE PUSH1 0x0 DUP1 RETURNDATACOPY RETURNDATASIZE PUSH1 0x0 REVERT JUMPDEST POP POP POP POP POP POP POP POP POP POP POP POP POP JUMP JUMPDEST PUSH1 0x0 SLOAD PUSH1 0x1 PUSH1 0x1 PUSH1 0xA0 SHL SUB AND CALLER EQ PUSH2 0x17FB JUMPI PUSH1 0x40 MLOAD PUSH3 0x461BCD PUSH1 0xE5 SHL DUP2 MSTORE PUSH1 0x4 ADD PUSH2 0x344 SWAP1 PUSH2 0x219F JUMP JUMPDEST PUSH1 0x1 PUSH1 0x1 PUSH1 0xA0 SHL SUB DUP4 AND PUSH1 0x0 SWAP1 DUP2 MSTORE PUSH1 0x2 PUSH1 0x20 MSTORE PUSH1 0x40 DUP2 KECCAK256 DUP3 SWAP2 DUP5 PUSH1 0x3 DUP2 GT ISZERO PUSH2 0x1827 JUMPI PUSH2 0x1827 PUSH2 0x20D5 JUMP JUMPDEST PUSH1 0x3 DUP2 GT ISZERO PUSH2 0x1838 JUMPI PUSH2 0x1838 PUSH2 0x20D5 JUMP JUMPDEST DUP2 MSTORE PUSH1 0x20 DUP2 ADD SWAP2 SWAP1 SWAP2 MSTORE PUSH1 0x40 ADD PUSH1 0x0 KECCAK256 DUP1 SLOAD PUSH1 0xFF NOT AND SWAP2 ISZERO ISZERO SWAP2 SWAP1 SWAP2 OR SWAP1 SSTORE POP POP POP JUMP JUMPDEST PUSH4 0x4E487B71 PUSH1 0xE0 SHL PUSH1 0x0 MSTORE PUSH1 0x41 PUSH1 0x4 MSTORE PUSH1 0x24 PUSH1 0x0 REVERT JUMPDEST PUSH1 0x40 MLOAD PUSH1 0x1F DUP3 ADD PUSH1 0x1F NOT AND DUP2 ADD PUSH8 0xFFFFFFFFFFFFFFFF DUP2 GT DUP3 DUP3 LT OR ISZERO PUSH2 0x189B JUMPI PUSH2 0x189B PUSH2 0x185C JUMP JUMPDEST PUSH1 0x40 MSTORE SWAP2 SWAP1 POP JUMP JUMPDEST PUSH1 0x0 PUSH8 0xFFFFFFFFFFFFFFFF DUP3 GT ISZERO PUSH2 0x18BD JUMPI PUSH2 0x18BD PUSH2 0x185C JUMP JUMPDEST POP PUSH1 0x1F ADD PUSH1 0x1F NOT AND PUSH1 0x20 ADD SWAP1 JUMP JUMPDEST PUSH1 0x0 DUP3 PUSH1 0x1F DUP4 ADD SLT PUSH2 0x18DC JUMPI PUSH1 0x0 DUP1 REVERT JUMPDEST DUP2 CALLDATALOAD PUSH2 0x18EF PUSH2 0x18EA DUP3 PUSH2 0x18A3 JUMP JUMPDEST PUSH2 0x1872 JUMP JUMPDEST DUP2 DUP2 MSTORE DUP5 PUSH1 0x20 DUP4 DUP7 ADD ADD GT ISZERO PUSH2 0x1904 JUMPI PUSH1 0x0 DUP1 REVERT JUMPDEST DUP2 PUSH1 0x20 DUP6 ADD PUSH1 0x20 DUP4 ADD CALLDATACOPY PUSH1 0x0 SWAP2 DUP2 ADD PUSH1 0x20 ADD SWAP2 SWAP1 SWAP2 MSTORE SWAP4 SWAP3 POP POP POP JUMP JUMPDEST PUSH1 0x0 PUSH1 0x20 DUP3 DUP5 SUB SLT ISZERO PUSH2 0x1933 JUMPI PUSH1 0x0 DUP1 REVERT JUMPDEST DUP2 CALLDATALOAD PUSH8 0xFFFFFFFFFFFFFFFF DUP2 GT ISZERO PUSH2 0x194A JUMPI PUSH1 0x0 DUP1 REVERT JUMPDEST PUSH2 0x4C0 DUP5 DUP3 DUP6 ADD PUSH2 0x18CB JUMP JUMPDEST PUSH1 0x0 DUP2 MLOAD DUP1 DUP5 MSTORE PUSH1 0x20 DUP1 DUP6 ADD SWAP5 POP DUP1 DUP5 ADD PUSH1 0x0 JUMPDEST DUP4 DUP2 LT ISZERO PUSH2 0x198F JUMPI DUP2 MLOAD PUSH1 0x1 PUSH1 0x1 PUSH1 0xA0 SHL SUB AND DUP8 MSTORE SWAP6 DUP3 ADD SWAP6 SWAP1 DUP3 ADD SWAP1 PUSH1 0x1 ADD PUSH2 0x196A JUMP JUMPDEST POP SWAP5 SWAP6 SWAP5 POP POP POP POP POP JUMP JUMPDEST PUSH1 0x20 DUP2 MSTORE PUSH1 0x0 PUSH2 0x3BB PUSH1 0x20 DUP4 ADD DUP5 PUSH2 0x1956 JUMP JUMPDEST PUSH1 0x1 PUSH1 0x1 PUSH1 0xA0 SHL SUB DUP2 AND DUP2 EQ PUSH2 0x19C2 JUMPI PUSH1 0x0 DUP1 REVERT JUMPDEST POP JUMP JUMPDEST PUSH1 0x0 DUP1 PUSH1 0x40 DUP4 DUP6 SUB SLT ISZERO PUSH2 0x19D8 JUMPI PUSH1 0x0 DUP1 REVERT JUMPDEST DUP3 CALLDATALOAD PUSH8 0xFFFFFFFFFFFFFFFF DUP2 GT ISZERO PUSH2 0x19EF JUMPI PUSH1 0x0 DUP1 REVERT JUMPDEST PUSH2 0x19FB DUP6 DUP3 DUP7 ADD PUSH2 0x18CB JUMP JUMPDEST SWAP3 POP POP PUSH1 0x20 DUP4 ADD CALLDATALOAD PUSH2 0x1A0C DUP2 PUSH2 0x19AD JUMP JUMPDEST DUP1 SWAP2 POP POP SWAP3 POP SWAP3 SWAP1 POP JUMP JUMPDEST PUSH1 0x0 JUMPDEST DUP4 DUP2 LT ISZERO PUSH2 0x1A32 JUMPI DUP2 DUP2 ADD MLOAD DUP4 DUP3 ADD MSTORE PUSH1 0x20 ADD PUSH2 0x1A1A JUMP JUMPDEST POP POP PUSH1 0x0 SWAP2 ADD MSTORE JUMP JUMPDEST PUSH1 0x0 DUP2 MLOAD DUP1 DUP5 MSTORE PUSH2 0x1A53 DUP2 PUSH1 0x20 DUP7 ADD PUSH1 0x20 DUP7 ADD PUSH2 0x1A17 JUMP JUMPDEST PUSH1 0x1F ADD PUSH1 0x1F NOT AND SWAP3 SWAP1 SWAP3 ADD PUSH1 0x20 ADD SWAP3 SWAP2 POP POP JUMP JUMPDEST PUSH1 0x0 DUP2 MLOAD DUP1 DUP5 MSTORE PUSH1 0x20 DUP1 DUP6 ADD SWAP5 POP DUP5 DUP3 PUSH1 0x5 SHL DUP7 ADD DUP3 DUP7 ADD PUSH1 0x0 JUMPDEST DUP6 DUP2 LT ISZERO PUSH2 0x1AAC JUMPI DUP4 DUP4 SUB DUP10 MSTORE PUSH2 0x1A9A DUP4 DUP4 MLOAD PUSH2 0x1A3B JUMP JUMPDEST SWAP9 DUP6 ADD SWAP9 SWAP3 POP SWAP1 DUP5 ADD SWAP1 PUSH1 0x1 ADD PUSH2 0x1A82 JUMP JUMPDEST POP SWAP1 SWAP8 SWAP7 POP POP POP POP POP POP POP JUMP JUMPDEST PUSH1 0x20 DUP2 MSTORE PUSH1 0x0 PUSH2 0x3BB PUSH1 0x20 DUP4 ADD DUP5 PUSH2 0x1A67 JUMP JUMPDEST PUSH1 0x0 PUSH2 0x100 DUP11 ISZERO ISZERO DUP4 MSTORE DUP1 PUSH1 0x20 DUP5 ADD MSTORE PUSH2 0x1AE8 DUP2 DUP5 ADD DUP12 PUSH2 0x1A3B JUMP JUMPDEST SWAP1 POP DUP3 DUP2 SUB PUSH1 0x40 DUP5 ADD MSTORE PUSH2 0x1AFC DUP2 DUP11 PUSH2 0x1A67 JUMP JUMPDEST SWAP1 POP DUP3 DUP2 SUB PUSH1 0x60 DUP5 ADD MSTORE PUSH2 0x1B10 DUP2 DUP10 PUSH2 0x1956 JUMP JUMPDEST SWAP1 POP DUP3 DUP2 SUB PUSH1 0x80 DUP5 ADD MSTORE PUSH2 0x1B24 DUP2 DUP9 PUSH2 0x1A67 JUMP JUMPDEST SWAP1 POP DUP3 DUP2 SUB PUSH1 0xA0 DUP5 ADD MSTORE PUSH2 0x1B38 DUP2 DUP8 PUSH2 0x1A67 JUMP JUMPDEST SWAP1 POP DUP3 DUP2 SUB PUSH1 0xC0 DUP5 ADD MSTORE PUSH2 0x1B4C DUP2 DUP7 PUSH2 0x1A67 JUMP JUMPDEST SWAP1 POP DUP3 DUP2 SUB PUSH1 0xE0 DUP5 ADD MSTORE PUSH2 0x1B60 DUP2 DUP6 PUSH2 0x1A67 JUMP JUMPDEST SWAP12 SWAP11 POP POP POP POP POP POP POP POP POP POP POP JUMP JUMPDEST PUSH1 0x0 DUP1 PUSH1 0x40 DUP4 DUP6 SUB SLT ISZERO PUSH2 0x1B82 JUMPI PUSH1 0x0 DUP1 REVERT JUMPDEST DUP3 CALLDATALOAD PUSH8 0xFFFFFFFFFFFFFFFF DUP1 DUP3 GT ISZERO PUSH2 0x1B9A JUMPI PUSH1 0x0 DUP1 REVERT JUMPDEST PUSH2 0x1BA6 DUP7 DUP4 DUP8 ADD PUSH2 0x18CB JUMP JUMPDEST SWAP4 POP PUSH1 0x20 DUP6 ADD CALLDATALOAD SWAP2 POP DUP1 DUP3 GT ISZERO PUSH2 0x1BBC JUMPI PUSH1 0x0 DUP1 REVERT JUMPDEST POP PUSH2 0x1BC9 DUP6 DUP3 DUP7 ADD PUSH2 0x18CB JUMP JUMPDEST SWAP2 POP POP SWAP3 POP SWAP3 SWAP1 POP JUMP JUMPDEST DUP1 CALLDATALOAD PUSH1 0x4 DUP2 LT PUSH2 0x1BE2 JUMPI PUSH1 0x0 DUP1 REVERT JUMPDEST SWAP2 SWAP1 POP JUMP JUMPDEST PUSH1 0x0 DUP1 PUSH1 0x40 DUP4 DUP6 SUB SLT ISZERO PUSH2 0x1BFA JUMPI PUSH1 0x0 DUP1 REVERT JUMPDEST DUP3 CALLDATALOAD PUSH2 0x1C05 DUP2 PUSH2 0x19AD JUMP JUMPDEST SWAP2 POP PUSH2 0x1C13 PUSH1 0x20 DUP5 ADD PUSH2 0x1BD3 JUMP JUMPDEST SWAP1 POP SWAP3 POP SWAP3 SWAP1 POP JUMP JUMPDEST PUSH1 0x20 DUP2 MSTORE PUSH1 0x0 PUSH2 0x3BB PUSH1 0x20 DUP4 ADD DUP5 PUSH2 0x1A3B JUMP JUMPDEST PUSH1 0x0 DUP1 PUSH1 0x0 DUP1 PUSH1 0x80 DUP6 DUP8 SUB SLT ISZERO PUSH2 0x1C45 JUMPI PUSH1 0x0 DUP1 REVERT JUMPDEST DUP5 CALLDATALOAD PUSH8 0xFFFFFFFFFFFFFFFF DUP1 DUP3 GT ISZERO PUSH2 0x1C5D JUMPI PUSH1 0x0 DUP1 REVERT JUMPDEST PUSH2 0x1C69 DUP9 DUP4 DUP10 ADD PUSH2 0x18CB JUMP JUMPDEST SWAP6 POP PUSH1 0x20 DUP8 ADD CALLDATALOAD SWAP2 POP PUSH2 0x1C7B DUP3 PUSH2 0x19AD JUMP JUMPDEST SWAP1 SWAP4 POP PUSH1 0x40 DUP7 ADD CALLDATALOAD SWAP1 DUP1 DUP3 GT ISZERO PUSH2 0x1C91 JUMPI PUSH1 0x0 DUP1 REVERT JUMPDEST PUSH2 0x1C9D DUP9 DUP4 DUP10 ADD PUSH2 0x18CB JUMP JUMPDEST SWAP4 POP PUSH1 0x60 DUP8 ADD CALLDATALOAD SWAP2 POP DUP1 DUP3 GT ISZERO PUSH2 0x1CB3 JUMPI PUSH1 0x0 DUP1 REVERT JUMPDEST POP PUSH2 0x1CC0 DUP8 DUP3 DUP9 ADD PUSH2 0x18CB JUMP JUMPDEST SWAP2 POP POP SWAP3 SWAP6 SWAP2 SWAP5 POP SWAP3 POP JUMP JUMPDEST DUP1 ISZERO ISZERO DUP2 EQ PUSH2 0x19C2 JUMPI PUSH1 0x0 DUP1 REVERT JUMPDEST PUSH1 0x0 DUP1 PUSH1 0x0 PUSH1 0x60 DUP5 DUP7 SUB SLT ISZERO PUSH2 0x1CEF JUMPI PUSH1 0x0 DUP1 REVERT JUMPDEST DUP4 CALLDATALOAD PUSH2 0x1CFA DUP2 PUSH2 0x19AD JUMP JUMPDEST SWAP3 POP PUSH2 0x1D08 PUSH1 0x20 DUP6 ADD PUSH2 0x1BD3 JUMP JUMPDEST SWAP2 POP PUSH1 0x40 DUP5 ADD CALLDATALOAD PUSH2 0x1D18 DUP2 PUSH2 0x1CCC JUMP JUMPDEST DUP1 SWAP2 POP POP SWAP3 POP SWAP3 POP SWAP3 JUMP JUMPDEST PUSH1 0x20 DUP1 DUP3 MSTORE PUSH1 0x12 SWAP1 DUP3 ADD MSTORE PUSH18 0x283632B0B9B29032B73A32B91030902724AB PUSH1 0x71 SHL PUSH1 0x40 DUP3 ADD MSTORE PUSH1 0x60 ADD SWAP1 JUMP JUMPDEST PUSH1 0x0 PUSH8 0xFFFFFFFFFFFFFFFF DUP3 GT ISZERO PUSH2 0x1D69 JUMPI PUSH2 0x1D69 PUSH2 0x185C JUMP JUMPDEST POP PUSH1 0x5 SHL PUSH1 0x20 ADD SWAP1 JUMP JUMPDEST PUSH1 0x0 DUP3 PUSH1 0x1F DUP4 ADD SLT PUSH2 0x1D84 JUMPI PUSH1 0x0 DUP1 REVERT JUMPDEST DUP2 MLOAD PUSH1 0x20 PUSH2 0x1D94 PUSH2 0x18EA DUP4 PUSH2 0x1D4F JUMP JUMPDEST DUP3 DUP2 MSTORE PUSH1 0x5 SWAP3 SWAP1 SWAP3 SHL DUP5 ADD DUP2 ADD SWAP2 DUP2 DUP2 ADD SWAP1 DUP7 DUP5 GT ISZERO PUSH2 0x1DB3 JUMPI PUSH1 0x0 DUP1 REVERT JUMPDEST DUP3 DUP7 ADD JUMPDEST DUP5 DUP2 LT ISZERO PUSH2 0x1DD7 JUMPI DUP1 MLOAD PUSH2 0x1DCA DUP2 PUSH2 0x19AD JUMP JUMPDEST DUP4 MSTORE SWAP2 DUP4 ADD SWAP2 DUP4 ADD PUSH2 0x1DB7 JUMP JUMPDEST POP SWAP7 SWAP6 POP POP POP POP POP POP JUMP JUMPDEST PUSH1 0x0 PUSH1 0x20 DUP3 DUP5 SUB SLT ISZERO PUSH2 0x1DF4 JUMPI PUSH1 0x0 DUP1 REVERT JUMPDEST DUP2 MLOAD PUSH8 0xFFFFFFFFFFFFFFFF DUP2 GT ISZERO PUSH2 0x1E0B JUMPI PUSH1 0x0 DUP1 REVERT JUMPDEST PUSH2 0x4C0 DUP5 DUP3 DUP6 ADD PUSH2 0x1D73 JUMP JUMPDEST PUSH1 0x0 DUP3 MLOAD PUSH2 0x1E29 DUP2 DUP5 PUSH1 0x20 DUP8 ADD PUSH2 0x1A17 JUMP JUMPDEST SWAP2 SWAP1 SWAP2 ADD SWAP3 SWAP2 POP POP JUMP JUMPDEST PUSH1 0x0 DUP3 PUSH1 0x1F DUP4 ADD SLT PUSH2 0x1E44 JUMPI PUSH1 0x0 DUP1 REVERT JUMPDEST DUP2 MLOAD PUSH2 0x1E52 PUSH2 0x18EA DUP3 PUSH2 0x18A3 JUMP JUMPDEST DUP2 DUP2 MSTORE DUP5 PUSH1 0x20 DUP4 DUP7 ADD ADD GT ISZERO PUSH2 0x1E67 JUMPI PUSH1 0x0 DUP1 REVERT JUMPDEST PUSH2 0x4C0 DUP3 PUSH1 0x20 DUP4 ADD PUSH1 0x20 DUP8 ADD PUSH2 0x1A17 JUMP JUMPDEST PUSH1 0x0 DUP3 PUSH1 0x1F DUP4 ADD SLT PUSH2 0x1E89 JUMPI PUSH1 0x0 DUP1 REVERT JUMPDEST DUP2 MLOAD PUSH1 0x20 PUSH2 0x1E99 PUSH2 0x18EA DUP4 PUSH2 0x1D4F JUMP JUMPDEST DUP3 DUP2 MSTORE PUSH1 0x5 SWAP3 SWAP1 SWAP3 SHL DUP5 ADD DUP2 ADD SWAP2 DUP2 DUP2 ADD SWAP1 DUP7 DUP5 GT ISZERO PUSH2 0x1EB8 JUMPI PUSH1 0x0 DUP1 REVERT JUMPDEST DUP3 DUP7 ADD JUMPDEST DUP5 DUP2 LT ISZERO PUSH2 0x1DD7 JUMPI DUP1 MLOAD PUSH8 0xFFFFFFFFFFFFFFFF DUP2 GT ISZERO PUSH2 0x1EDC JUMPI PUSH1 0x0 DUP1 DUP2 REVERT JUMPDEST PUSH2 0x1EEA DUP10 DUP7 DUP4 DUP12 ADD ADD PUSH2 0x1E33 JUMP JUMPDEST DUP5 MSTORE POP SWAP2 DUP4 ADD SWAP2 DUP4 ADD PUSH2 0x1EBC JUMP JUMPDEST PUSH1 0x0 PUSH1 0x20 DUP3 DUP5 SUB SLT ISZERO PUSH2 0x1F0A JUMPI PUSH1 0x0 DUP1 REVERT JUMPDEST DUP2 MLOAD PUSH8 0xFFFFFFFFFFFFFFFF DUP2 GT ISZERO PUSH2 0x1F21 JUMPI PUSH1 0x0 DUP1 REVERT JUMPDEST PUSH2 0x4C0 DUP5 DUP3 DUP6 ADD PUSH2 0x1E78 JUMP JUMPDEST PUSH1 0x0 PUSH1 0x20 DUP3 DUP5 SUB SLT ISZERO PUSH2 0x1F3F JUMPI PUSH1 0x0 DUP1 REVERT JUMPDEST DUP2 MLOAD PUSH2 0x3BB DUP2 PUSH2 0x19AD JUMP JUMPDEST DUP1 MLOAD PUSH2 0x1BE2 DUP2 PUSH2 0x1CCC JUMP JUMPDEST PUSH1 0x0 DUP1 PUSH1 0x0 DUP1 PUSH1 0x0 DUP1 PUSH1 0x0 DUP1 PUSH2 0x100 DUP10 DUP12 SUB SLT ISZERO PUSH2 0x1F72 JUMPI PUSH1 0x0 DUP1 REVERT JUMPDEST PUSH2 0x1F7B DUP10 PUSH2 0x1F4A JUMP JUMPDEST SWAP8 POP PUSH1 0x20 DUP10 ADD MLOAD PUSH8 0xFFFFFFFFFFFFFFFF DUP1 DUP3 GT ISZERO PUSH2 0x1F98 JUMPI PUSH1 0x0 DUP1 REVERT JUMPDEST PUSH2 0x1FA4 DUP13 DUP4 DUP14 ADD PUSH2 0x1E33 JUMP JUMPDEST SWAP9 POP PUSH1 0x40 DUP12 ADD MLOAD SWAP2 POP DUP1 DUP3 GT ISZERO PUSH2 0x1FBA JUMPI PUSH1 0x0 DUP1 REVERT JUMPDEST PUSH2 0x1FC6 DUP13 DUP4 DUP14 ADD PUSH2 0x1E78 JUMP JUMPDEST SWAP8 POP PUSH1 0x60 DUP12 ADD MLOAD SWAP2 POP DUP1 DUP3 GT ISZERO PUSH2 0x1FDC JUMPI PUSH1 0x0 DUP1 REVERT JUMPDEST PUSH2 0x1FE8 DUP13 DUP4 DUP14 ADD PUSH2 0x1D73 JUMP JUMPDEST SWAP7 POP PUSH1 0x80 DUP12 ADD MLOAD SWAP2 POP DUP1 DUP3 GT ISZERO PUSH2 0x1FFE JUMPI PUSH1 0x0 DUP1 REVERT JUMPDEST PUSH2 0x200A DUP13 DUP4 DUP14 ADD PUSH2 0x1E78 JUMP JUMPDEST SWAP6 POP PUSH1 0xA0 DUP12 ADD MLOAD SWAP2 POP DUP1 DUP3 GT ISZERO PUSH2 0x2020 JUMPI PUSH1 0x0 DUP1 REVERT JUMPDEST PUSH2 0x202C DUP13 DUP4 DUP14 ADD PUSH2 0x1E78 JUMP JUMPDEST SWAP5 POP PUSH1 0xC0 DUP12 ADD MLOAD SWAP2 POP DUP1 DUP3 GT ISZERO PUSH2 0x2042 JUMPI PUSH1 0x0 DUP1 REVERT JUMPDEST PUSH2 0x204E DUP13 DUP4 DUP14 ADD PUSH2 0x1E78 JUMP JUMPDEST SWAP4 POP PUSH1 0xE0 DUP12 ADD MLOAD SWAP2 POP DUP1 DUP3 GT ISZERO PUSH2 0x2064 JUMPI PUSH1 0x0 DUP1 REVERT JUMPDEST POP PUSH2 0x2071 DUP12 DUP3 DUP13 ADD PUSH2 0x1E78 JUMP JUMPDEST SWAP2 POP POP SWAP3 SWAP6 SWAP9 POP SWAP3 SWAP6 SWAP9 SWAP1 SWAP4 SWAP7 POP JUMP JUMPDEST PUSH1 0x0 PUSH1 0x20 DUP3 DUP5 SUB SLT ISZERO PUSH2 0x2093 JUMPI PUSH1 0x0 DUP1 REVERT JUMPDEST DUP2 MLOAD PUSH2 0x3BB DUP2 PUSH2 0x1CCC JUMP JUMPDEST PUSH1 0x20 DUP1 DUP3 MSTORE PUSH1 0x1E SWAP1 DUP3 ADD MSTORE PUSH32 0x546869732063617220646F65736E277420657869737420616E796D6F72650000 PUSH1 0x40 DUP3 ADD MSTORE PUSH1 0x60 ADD SWAP1 JUMP JUMPDEST PUSH4 0x4E487B71 PUSH1 0xE0 SHL PUSH1 0x0 MSTORE PUSH1 0x21 PUSH1 0x4 MSTORE PUSH1 0x24 PUSH1 0x0 REVERT JUMPDEST PUSH1 0x20 DUP1 DUP3 MSTORE PUSH1 0x2E SWAP1 DUP3 ADD MSTORE PUSH32 0x5065726D697373696F6E2064656E6965642C20796F75206D7573742062652061 PUSH1 0x40 DUP3 ADD MSTORE PUSH14 0x206D616E75666163747572657221 PUSH1 0x90 SHL PUSH1 0x60 DUP3 ADD MSTORE PUSH1 0x80 ADD SWAP1 JUMP JUMPDEST PUSH1 0x20 DUP1 DUP3 MSTORE PUSH1 0x21 SWAP1 DUP3 ADD MSTORE PUSH32 0x54686520696E666F732073656374696F6E2063616E6E6F7420626520626C616E PUSH1 0x40 DUP3 ADD MSTORE PUSH1 0x6B PUSH1 0xF8 SHL PUSH1 0x60 DUP3 ADD MSTORE PUSH1 0x80 ADD SWAP1 JUMP JUMPDEST PUSH1 0x40 DUP2 MSTORE PUSH1 0x0 PUSH2 0x218D PUSH1 0x40 DUP4 ADD DUP6 PUSH2 0x1A3B JUMP JUMPDEST DUP3 DUP2 SUB PUSH1 0x20 DUP5 ADD MSTORE PUSH2 0x981 DUP2 DUP6 PUSH2 0x1A3B JUMP JUMPDEST PUSH1 0x20 DUP1 DUP3 MSTORE PUSH1 0x1E SWAP1 DUP3 ADD MSTORE PUSH32 0x596F75277265206E6F7420746865206F776E65722C2061626F7274696E670000 PUSH1 0x40 DUP3 ADD MSTORE PUSH1 0x60 ADD SWAP1 JUMP JUMPDEST PUSH1 0x0 PUSH1 0x20 DUP3 DUP5 SUB SLT ISZERO PUSH2 0x21E8 JUMPI PUSH1 0x0 DUP1 REVERT JUMPDEST DUP2 MLOAD PUSH8 0xFFFFFFFFFFFFFFFF DUP2 GT ISZERO PUSH2 0x21FF JUMPI PUSH1 0x0 DUP1 REVERT JUMPDEST PUSH2 0x4C0 DUP5 DUP3 DUP6 ADD PUSH2 0x1E33 JUMP INVALID GASPRICE 0x2D 0xB9 INVALID PUSH26 0x8DCC36D81824D2338FC3F1AFF49AC357DD8C4840527FBA27A5B SWAP1 LOG2 PUSH5 0x6970667358 0x22 SLT KECCAK256 COINBASE GT DUP13 PUSH14 0x8B22F6FCAD15095206122C6DBB0F CALLVALUE DUP1 0xE0 MOD SHR DUP8 0x4A LOG2 PUSH5 0x51347C79CC PUSH5 0x736F6C6343 STOP ADDMOD SGT STOP CALLER ","sha1":"723e9f525d83fe7b3b45515d687f136b910aff6f","source":"//SPDX-License-Identifier: MIT\n\npragma solidity >=0.6.0 <=0.9.0;\n\nimport \"./CarFactory.sol\";\n\ncontract AutomobileRegistrationSystem{\n\n    //List of roles\n    enum Role{\n        Manufacturer, //0\n        State, //1\n        Center, //2\n        Insurance //3\n    }\n\n    modifier isDeployer(){\n        require(msg.sender == systemDeployer, \"You're not the owner, aborting\");\n        _;\n    }\n\n    modifier isManufacturer(address _of, Role _role){ //Create or delete the car\n        require(canAccess[_of][_role], \"Permission denied, you must be a manufacturer!\");\n        _;\n    }\n\n    modifier isState(address _of, Role _role){ //Set owner (old and new) + Transaction infos\n        require(canAccess[_of][_role], \"You don't have the previledges, aborting\");\n        _;\n    }\n\n    modifier isCenter(address _of, Role _role){ //Create reports\n        require(canAccess[_of][_role], \"Permission denied, center only!\"); \n        _;\n    }\n\n    modifier isInsurance(address _of, Role _role){ //Save accidents\n        require(canAccess[_of][_role], \"Permission denied, insurance only!\"); \n        _;\n    }\n\n    modifier doesExist(string memory _niv){\n        require(carFactory.carListMapping(_niv).doesExist(), \"This car doesn't exist anymore\");\n        _;\n    }\n\n    modifier isNotBlank(string memory _niv){\n        require(keccak256(bytes(_niv)) != keccak256(bytes(\"\")), \"Please enter a NIV\");\n        _;\n    }\n\n\n    address systemDeployer;\n\n    CarFactory carFactory;\n\n    mapping(address => mapping(Role => bool)) canAccess; //Instead of creating a mapping for each role, I thought it could be a great idea to create only one mapping of a mapping that sets the role of every address given\n\n    mapping(string => address) createCarAddress;\n    \n    constructor(){\n        systemDeployer = msg.sender;    \n        carFactory = new CarFactory();\n    }\n\n\n    function setRole(address _for, Role _role, bool _roleStatus) public isDeployer{\n        canAccess[_for][_role] = _roleStatus;\n    }\n\n    //Getting the roles of the accounts\n    function getAccountRole(address _of, Role _role) public view isDeployer returns(bool){\n        return canAccess[_of][_role];\n    }\n\n    function isNivUsed(string memory _niv) public view isManufacturer(msg.sender, Role.Manufacturer) returns(bool){\n        bool avaibility = carFactory.getNivAvaibility(_niv);\n        return avaibility;\n    }\n\n    function createNewCar(string memory _niv, string memory _infos) public isManufacturer(msg.sender, Role.Manufacturer) isNotBlank(_niv){\n        require(keccak256(bytes(_infos)) != keccak256(bytes(\"\")), \"The infos section cannot be blank\");\n        carFactory.createCar(_niv, _infos);\n    }\n\n    function storeCarAddress(string memory _niv, address _addingCar) public{\n        createCarAddress[_niv] = _addingCar;\n    }\n\n    function getStoredAddress(string memory _niv) public view returns(address){\n        return createCarAddress[_niv];\n    }\n\n    function getCar(string memory _niv) public view isNotBlank(_niv) returns(Car){\n        Car car = carFactory.carListMapping(_niv);\n        return car;\n    }\n\n    function setCarOwner(string memory _niv, address _owner, string memory _transactionInfo, string memory _matriculation) public isNotBlank(_niv) doesExist(_niv) isState(msg.sender, Role.State){\n        require(_owner != address(0), \"The infos section cannot be blank\");\n        require(keccak256(bytes(_transactionInfo)) != keccak256(bytes(\"\")), \"Please fill the transaction infos section\");\n        require(keccak256(bytes(_matriculation)) != keccak256(bytes(\"\")), \"The matriculation section cannot be blank\");\n\n        Car car = getCar(_niv);\n        car.setOwner(_owner);\n        car.setTransaction(_transactionInfo);\n        car.setMatriculation(_matriculation);\n    }\n\n    function getCarOwner(string memory _niv) public view isNotBlank(_niv) returns(address[] memory){\n        return getCar(_niv).getOwnerList();\n    }\n\n    function getCarPreviousTransactions(string memory _niv) public view isNotBlank(_niv) returns(string[] memory){\n        return getCar(_niv).getPreviousTransactions();\n    }\n\n    function setCarSignalisation(string memory _niv, string memory _signalisation) public isNotBlank(_niv) doesExist(_niv) isDeployer{\n        getCar(_niv).setSignalisation(_signalisation);\n    }\n\n    function getCarSignalisation(string memory _niv) public view isNotBlank(_niv) returns(string[] memory){\n        return getCar(_niv).getSignalisation();\n    }\n\n    function addAccident(string memory _niv, string memory _accident) public isNotBlank(_niv) doesExist(_niv) isInsurance(msg.sender, Role.Insurance){\n        require(keccak256(bytes(_accident)) != keccak256(bytes(\"\")), \"Please provide more infos\");\n        Car car = getCar(_niv);\n        car.addAccident(_accident);\n    }\n\n    function getAccidentsList(string memory _niv) public view isNotBlank(_niv) returns (string[] memory){\n        Car car = getCar(_niv);        \n        return car.accidentsList();\n    }\n\n    function addCarReport(string memory _niv, string memory _report) public isNotBlank(_niv) doesExist(_niv) isCenter(msg.sender, Role.Center){\n        require(keccak256(bytes(_report)) != keccak256(bytes(\"\")), \"Please provide a correct report\");\n        Car car = getCar(_niv);\n        car.addReport(_report);\n    }\n\n    function getCarReport(string memory _niv) public view isNotBlank(_niv) returns(string[] memory){\n        Car car = getCar(_niv);        \n        return car.getReport();\n    }\n\n    function getCarInfos(string memory _niv) public view isNotBlank(_niv) returns(string memory){\n        Car car = getCar(_niv);        \n        return car.getInfos();        \n    }\n\n    function getCarAllInfos(string memory _niv) public view isNotBlank(_niv) returns(bool, string memory, string[] memory, address[] memory, string[] memory, string[] memory, string[] memory, string[] memory){\n        return getCar(_niv).getAllInfos();\n    }\n\n    function destroyCar(string memory _niv) public isNotBlank(_niv) doesExist(_niv) isManufacturer(msg.sender, Role.Manufacturer){\n        return getCar(_niv).destroyCar();\n    }\n\n}","sourcePath":"contracts/AutomobileRegistrationSystem.sol","type":"contract","deployment":{"address":"0x9fe61FD52ca5D0053F3116E931fAaBE15A463054","chainid":"80001","blockHeight":33293489}}