{"abi":[{"inputs":[],"stateMutability":"nonpayable","type":"constructor","name":"constructor"},{"inputs":[{"internalType":"string","name":"_niv","type":"string"},{"internalType":"string","name":"_accident","type":"string"}],"name":"addAccident","outputs":[],"stateMutability":"nonpayable","type":"function"},{"inputs":[{"internalType":"string","name":"_niv","type":"string"},{"internalType":"string","name":"_report","type":"string"}],"name":"addCarReport","outputs":[],"stateMutability":"nonpayable","type":"function"},{"inputs":[{"internalType":"string","name":"_niv","type":"string"},{"internalType":"string","name":"_infos","type":"string"}],"name":"createNewCar","outputs":[],"stateMutability":"nonpayable","type":"function"},{"inputs":[{"internalType":"string","name":"_niv","type":"string"}],"name":"destroyCar","outputs":[],"stateMutability":"nonpayable","type":"function"},{"inputs":[{"internalType":"string","name":"_niv","type":"string"}],"name":"getAccidentsList","outputs":[{"internalType":"string[]","name":"","type":"string[]"}],"stateMutability":"view","type":"function"},{"inputs":[{"internalType":"address","name":"_of","type":"address"},{"internalType":"enum AutomobileRegistrationSystem.Role","name":"_role","type":"uint8"}],"name":"getAccountRole","outputs":[{"internalType":"bool","name":"","type":"bool"}],"stateMutability":"view","type":"function"},{"inputs":[{"internalType":"string","name":"_niv","type":"string"}],"name":"getCar","outputs":[{"internalType":"contract Car","name":"","type":"address"}],"stateMutability":"view","type":"function"},{"inputs":[{"internalType":"string","name":"_niv","type":"string"}],"name":"getCarAllInfos","outputs":[{"internalType":"bool","name":"","type":"bool"},{"internalType":"string","name":"","type":"string"},{"internalType":"string[]","name":"","type":"string[]"},{"internalType":"address[]","name":"","type":"address[]"},{"internalType":"string[]","name":"","type":"string[]"},{"internalType":"string[]","name":"","type":"string[]"},{"internalType":"string[]","name":"","type":"string[]"},{"internalType":"string[]","name":"","type":"string[]"}],"stateMutability":"view","type":"function"},{"inputs":[{"internalType":"string","name":"_niv","type":"string"}],"name":"getCarInfos","outputs":[{"internalType":"string","name":"","type":"string"}],"stateMutability":"view","type":"function"},{"inputs":[{"internalType":"string","name":"_niv","type":"string"}],"name":"getCarOwner","outputs":[{"internalType":"address[]","name":"","type":"address[]"}],"stateMutability":"view","type":"function"},{"inputs":[{"internalType":"string","name":"_niv","type":"string"}],"name":"getCarPreviousTransactions","outputs":[{"internalType":"string[]","name":"","type":"string[]"}],"stateMutability":"view","type":"function"},{"inputs":[{"internalType":"string","name":"_niv","type":"string"}],"name":"getCarReport","outputs":[{"internalType":"string[]","name":"","type":"string[]"}],"stateMutability":"view","type":"function"},{"inputs":[{"internalType":"string","name":"_niv","type":"string"}],"name":"getCarSignalisation","outputs":[{"internalType":"string[]","name":"","type":"string[]"}],"stateMutability":"view","type":"function"},{"inputs":[{"internalType":"string","name":"_niv","type":"string"}],"name":"isNivUsed","outputs":[{"internalType":"bool","name":"","type":"bool"}],"stateMutability":"view","type":"function"},{"inputs":[{"internalType":"string","name":"_niv","type":"string"},{"internalType":"address","name":"_owner","type":"address"},{"internalType":"string","name":"_transactionInfo","type":"string"},{"internalType":"string","name":"_matriculation","type":"string"}],"name":"setCarOwner","outputs":[],"stateMutability":"nonpayable","type":"function"},{"inputs":[{"internalType":"string","name":"_niv","type":"string"},{"internalType":"string","name":"_signalisation","type":"string"}],"name":"setCarSignalisation","outputs":[],"stateMutability":"nonpayable","type":"function"},{"inputs":[{"internalType":"address","name":"_for","type":"address"},{"internalType":"enum AutomobileRegistrationSystem.Role","name":"_role","type":"uint8"},{"internalType":"bool","name":"_roleStatus","type":"bool"}],"name":"setRole","outputs":[],"stateMutability":"nonpayable","type":"function"}],"bytecode":"608060405234801561001057600080fd5b50600080546001600160a01b0319163317905560405161002f90610071565b604051809103906000f08015801561004b573d6000803e3d6000fd5b50600180546001600160a01b0319166001600160a01b039290921691909117905561007f565b611c2980620021d783390190565b612148806200008f6000396000f3fe608060405234801561001057600080fd5b506004361061010b5760003560e01c806375d12105116100a2578063aad37c9911610071578063aad37c9914610255578063b327c70014610268578063d0f2dd5b1461027b578063d6082a831461029b578063f6bb6b37146102ae57600080fd5b806375d12105146102095780637fee984b1461021c57806390ca83321461022f578063a2a6d1421461024257600080fd5b80634cca8288116100de5780634cca8288146101ab57806358da1e01146101be57806360db168e146101d35780636f059e73146101f657600080fd5b80630b8cf8d114610110578063398752e014610139578063479487e3146101595780634974c63214610184575b600080fd5b61012361011e366004611870565b6102c1565b60405161013091906118e9565b60405180910390f35b61014c610147366004611870565b610386565b60405161013091906119a4565b61016c610167366004611870565b610448565b6040516001600160a01b039091168152602001610130565b610197610192366004611870565b6104f9565b6040516101309897969594939291906119b7565b61014c6101b9366004611870565b6105cd565b6101d16101cc366004611870565b610682565b005b6101e66101e1366004611870565b610850565b6040519015158152602001610130565b6101d1610204366004611a5a565b61090a565b6101d1610217366004611a5a565b610b9a565b6101d161022a366004611a5a565b610ca6565b61014c61023d366004611870565b610e6e565b6101e6610250366004611aea565b610f00565b6101d1610263366004611a5a565b610f82565b61014c610276366004611870565b6111cb565b61028e610289366004611870565b611258565b6040516101309190611b1f565b6101d16102a9366004611b32565b611312565b6101d16102bc366004611bdd565b611720565b6040805160208082019092526000905281519082012060609082906000805160206120f3833981519152016103115760405162461bcd60e51b815260040161030890611c26565b60405180910390fd5b61031a83610448565b6001600160a01b031663581003706040518163ffffffff1660e01b8152600401600060405180830381865afa158015610357573d6000803e3d6000fd5b505050506040513d6000823e601f3d908101601f1916820160405261037f9190810190611ce5565b9392505050565b6040805160208082019092526000905281519082012060609082906000805160206120f3833981519152016103cd5760405162461bcd60e51b815260040161030890611c26565b60006103d884610448565b9050806001600160a01b031663e4085d676040518163ffffffff1660e01b8152600401600060405180830381865afa158015610418573d6000803e3d6000fd5b505050506040513d6000823e601f3d908101601f191682016040526104409190810190611ddf565b949350505050565b60008160405180602001604052806000815250805190602001208180519060200120036104875760405162461bcd60e51b815260040161030890611c26565b600154604051634b22dc9160e01b81526000916001600160a01b031690634b22dc91906104b8908790600401611b1f565b602060405180830381865afa1580156104d5573d6000803e3d6000fd5b505050506040513d601f19601f820116820180604052508101906104409190611e14565b600060608060608060608060608860405180602001604052806000815250805190602001208180519060200120036105435760405162461bcd60e51b815260040161030890611c26565b61054c8a610448565b6001600160a01b031663d80516a56040518163ffffffff1660e01b8152600401600060405180830381865afa158015610589573d6000803e3d6000fd5b505050506040513d6000823e601f3d908101601f191682016040526105b19190810190611e3c565b9850985098509850985098509850985050919395975091939597565b6040805160208082019092526000905281519082012060609082906000805160206120f3833981519152016106145760405162461bcd60e51b815260040161030890611c26565b61061d83610448565b6001600160a01b031663b5cd26f86040518163ffffffff1660e01b8152600401600060405180830381865afa15801561065a573d6000803e3d6000fd5b505050506040513d6000823e601f3d908101601f1916820160405261037f9190810190611ddf565b6040805160208082019092526000905281519082012081906000805160206120f3833981519152016106c65760405162461bcd60e51b815260040161030890611c26565b600154604051634b22dc9160e01b815283916001600160a01b031690634b22dc91906106f6908490600401611b1f565b602060405180830381865afa158015610713573d6000803e3d6000fd5b505050506040513d601f19601f820116820180604052508101906107379190611e14565b6001600160a01b0316635ad70d126040518163ffffffff1660e01b8152600401602060405180830381865afa158015610774573d6000803e3d6000fd5b505050506040513d601f19601f820116820180604052508101906107989190611f68565b6107b45760405162461bcd60e51b815260040161030890611f85565b33600081815260026020908152604080832083805290915281205460ff166107ee5760405162461bcd60e51b815260040161030890611fd2565b6107f785610448565b6001600160a01b031663b3610f376040518163ffffffff1660e01b8152600401600060405180830381600087803b15801561083157600080fd5b505af1158015610845573d6000803e3d6000fd5b505050505050505050565b336000818152600260209081526040808320838052909152812054909190829060ff1661088f5760405162461bcd60e51b815260040161030890611fd2565b600154604051637832e6e360e01b81526000916001600160a01b031690637832e6e3906108c0908890600401611b1f565b602060405180830381865afa1580156108dd573d6000803e3d6000fd5b505050506040513d601f19601f820116820180604052508101906109019190611f68565b95945050505050565b6040805160208082019092526000905282519083012082906000805160206120f38339815191520161094e5760405162461bcd60e51b815260040161030890611c26565b600154604051634b22dc9160e01b815284916001600160a01b031690634b22dc919061097e908490600401611b1f565b602060405180830381865afa15801561099b573d6000803e3d6000fd5b505050506040513d601f19601f820116820180604052508101906109bf9190611e14565b6001600160a01b0316635ad70d126040518163ffffffff1660e01b8152600401602060405180830381865afa1580156109fc573d6000803e3d6000fd5b505050506040513d601f19601f82011682018060405250810190610a209190611f68565b610a3c5760405162461bcd60e51b815260040161030890611f85565b336000818152600260209081526040808320600380855292529091205460ff16610ab35760405162461bcd60e51b815260206004820152602260248201527f5065726d697373696f6e2064656e6965642c20696e737572616e6365206f6e6c604482015261792160f01b6064820152608401610308565b604080516020808201909252600090528551908601206000805160206120f383398151915201610b255760405162461bcd60e51b815260206004820152601960248201527f506c656173652070726f76696465206d6f726520696e666f73000000000000006044820152606401610308565b6000610b3087610448565b60405163134044a160e01b81529091506001600160a01b0382169063134044a190610b5f908990600401611b1f565b600060405180830381600087803b158015610b7957600080fd5b505af1158015610b8d573d6000803e3d6000fd5b5050505050505050505050565b33600081815260026020908152604080832083805290915281205460ff16610bd45760405162461bcd60e51b815260040161030890611fd2565b6040805160208082019092526000905284519085012084906000805160206120f383398151915201610c185760405162461bcd60e51b815260040161030890611c26565b604080516020808201909252600090528451908501206000805160206120f383398151915201610c5a5760405162461bcd60e51b815260040161030890612020565b600154604051633de4de8f60e01b81526001600160a01b0390911690633de4de8f90610c8c9088908890600401612061565b600060405180830381600087803b15801561083157600080fd5b6040805160208082019092526000905282519083012082906000805160206120f383398151915201610cea5760405162461bcd60e51b815260040161030890611c26565b600154604051634b22dc9160e01b815284916001600160a01b031690634b22dc9190610d1a908490600401611b1f565b602060405180830381865afa158015610d37573d6000803e3d6000fd5b505050506040513d601f19601f82011682018060405250810190610d5b9190611e14565b6001600160a01b0316635ad70d126040518163ffffffff1660e01b8152600401602060405180830381865afa158015610d98573d6000803e3d6000fd5b505050506040513d601f19601f82011682018060405250810190610dbc9190611f68565b610dd85760405162461bcd60e51b815260040161030890611f85565b6000546001600160a01b03163314610e025760405162461bcd60e51b815260040161030890612086565b610e0b84610448565b6001600160a01b031663457cf35b846040518263ffffffff1660e01b8152600401610e369190611b1f565b600060405180830381600087803b158015610e5057600080fd5b505af1158015610e64573d6000803e3d6000fd5b5050505050505050565b6040805160208082019092526000905281519082012060609082906000805160206120f383398151915201610eb55760405162461bcd60e51b815260040161030890611c26565b6000610ec084610448565b9050806001600160a01b031663bd51b8e06040518163ffffffff1660e01b8152600401600060405180830381865afa158015610418573d6000803e3d6000fd5b600080546001600160a01b03163314610f2b5760405162461bcd60e51b815260040161030890612086565b6001600160a01b038316600090815260026020526040812090836003811115610f5657610f56611fbc565b6003811115610f6757610f67611fbc565b815260208101919091526040016000205460ff169392505050565b6040805160208082019092526000905282519083012082906000805160206120f383398151915201610fc65760405162461bcd60e51b815260040161030890611c26565b600154604051634b22dc9160e01b815284916001600160a01b031690634b22dc9190610ff6908490600401611b1f565b602060405180830381865afa158015611013573d6000803e3d6000fd5b505050506040513d601f19601f820116820180604052508101906110379190611e14565b6001600160a01b0316635ad70d126040518163ffffffff1660e01b8152600401602060405180830381865afa158015611074573d6000803e3d6000fd5b505050506040513d601f19601f820116820180604052508101906110989190611f68565b6110b45760405162461bcd60e51b815260040161030890611f85565b3360008181526002602081815260408084208385529091529091205460ff1661111f5760405162461bcd60e51b815260206004820152601f60248201527f5065726d697373696f6e2064656e6965642c2063656e746572206f6e6c7921006044820152606401610308565b604080516020808201909252600090528551908601206000805160206120f3833981519152016111915760405162461bcd60e51b815260206004820152601f60248201527f506c656173652070726f76696465206120636f7272656374207265706f7274006044820152606401610308565b600061119c87610448565b604051632be527f360e11b81529091506001600160a01b038216906357ca4fe690610b5f908990600401611b1f565b6040805160208082019092526000905281519082012060609082906000805160206120f3833981519152016112125760405162461bcd60e51b815260040161030890611c26565b61121b83610448565b6001600160a01b031663888dbbc16040518163ffffffff1660e01b8152600401600060405180830381865afa15801561065a573d6000803e3d6000fd5b6040805160208082019092526000905281519082012060609082906000805160206120f38339815191520161129f5760405162461bcd60e51b815260040161030890611c26565b60006112aa84610448565b9050806001600160a01b031663643d6dc06040518163ffffffff1660e01b8152600401600060405180830381865afa1580156112ea573d6000803e3d6000fd5b505050506040513d6000823e601f3d908101601f1916820160405261044091908101906120bd565b6040805160208082019092526000905284519085012084906000805160206120f3833981519152016113565760405162461bcd60e51b815260040161030890611c26565b600154604051634b22dc9160e01b815286916001600160a01b031690634b22dc9190611386908490600401611b1f565b602060405180830381865afa1580156113a3573d6000803e3d6000fd5b505050506040513d601f19601f820116820180604052508101906113c79190611e14565b6001600160a01b0316635ad70d126040518163ffffffff1660e01b8152600401602060405180830381865afa158015611404573d6000803e3d6000fd5b505050506040513d601f19601f820116820180604052508101906114289190611f68565b6114445760405162461bcd60e51b815260040161030890611f85565b336000818152600260209081526040808320600180855292529091205460ff166114c15760405162461bcd60e51b815260206004820152602860248201527f596f7520646f6e27742068617665207468652070726576696c65646765732c2060448201526761626f7274696e6760c01b6064820152608401610308565b6001600160a01b0387166114e75760405162461bcd60e51b815260040161030890612020565b604080516020808201909252600090528651908701206000805160206120f38339815191520161156b5760405162461bcd60e51b815260206004820152602960248201527f506c656173652066696c6c20746865207472616e73616374696f6e20696e666f604482015268399039b2b1ba34b7b760b91b6064820152608401610308565b604080516020808201909252600090528551908601206000805160206120f3833981519152016115ef5760405162461bcd60e51b815260206004820152602960248201527f546865206d6174726963756c6174696f6e2073656374696f6e2063616e6e6f7460448201526820626520626c616e6b60b81b6064820152608401610308565b60006115fa89610448565b6040516313af403560e01b81526001600160a01b038a81166004830152919250908216906313af403590602401600060405180830381600087803b15801561164157600080fd5b505af1158015611655573d6000803e3d6000fd5b5050604051637a64f11360e01b81526001600160a01b0384169250637a64f1139150611685908a90600401611b1f565b600060405180830381600087803b15801561169f57600080fd5b505af11580156116b3573d6000803e3d6000fd5b5050604051632e8b71d360e01b81526001600160a01b0384169250632e8b71d391506116e3908990600401611b1f565b600060405180830381600087803b1580156116fd57600080fd5b505af1158015611711573d6000803e3d6000fd5b50505050505050505050505050565b6000546001600160a01b0316331461174a5760405162461bcd60e51b815260040161030890612086565b6001600160a01b0383166000908152600260205260408120829184600381111561177657611776611fbc565b600381111561178757611787611fbc565b81526020810191909152604001600020805460ff1916911515919091179055505050565b634e487b7160e01b600052604160045260246000fd5b604051601f8201601f1916810167ffffffffffffffff811182821017156117ea576117ea6117ab565b604052919050565b600067ffffffffffffffff82111561180c5761180c6117ab565b50601f01601f191660200190565b600082601f83011261182b57600080fd5b813561183e611839826117f2565b6117c1565b81815284602083860101111561185357600080fd5b816020850160208301376000918101602001919091529392505050565b60006020828403121561188257600080fd5b813567ffffffffffffffff81111561189957600080fd5b6104408482850161181a565b600081518084526020808501945080840160005b838110156118de5781516001600160a01b0316875295820195908201906001016118b9565b509495945050505050565b60208152600061037f60208301846118a5565b60005b838110156119175781810151838201526020016118ff565b50506000910152565b600081518084526119388160208601602086016118fc565b601f01601f19169290920160200192915050565b600082825180855260208086019550808260051b84010181860160005b8481101561199757601f19868403018952611985838351611920565b98840198925090830190600101611969565b5090979650505050505050565b60208152600061037f602083018461194c565b60006101008a151583528060208401526119d38184018b611920565b905082810360408401526119e7818a61194c565b905082810360608401526119fb81896118a5565b90508281036080840152611a0f818861194c565b905082810360a0840152611a23818761194c565b905082810360c0840152611a37818661194c565b905082810360e0840152611a4b818561194c565b9b9a5050505050505050505050565b60008060408385031215611a6d57600080fd5b823567ffffffffffffffff80821115611a8557600080fd5b611a918683870161181a565b93506020850135915080821115611aa757600080fd5b50611ab48582860161181a565b9150509250929050565b6001600160a01b0381168114611ad357600080fd5b50565b803560048110611ae557600080fd5b919050565b60008060408385031215611afd57600080fd5b8235611b0881611abe565b9150611b1660208401611ad6565b90509250929050565b60208152600061037f6020830184611920565b60008060008060808587031215611b4857600080fd5b843567ffffffffffffffff80821115611b6057600080fd5b611b6c8883890161181a565b955060208701359150611b7e82611abe565b90935060408601359080821115611b9457600080fd5b611ba08883890161181a565b93506060870135915080821115611bb657600080fd5b50611bc38782880161181a565b91505092959194509250565b8015158114611ad357600080fd5b600080600060608486031215611bf257600080fd5b8335611bfd81611abe565b9250611c0b60208501611ad6565b91506040840135611c1b81611bcf565b809150509250925092565b602080825260129082015271283632b0b9b29032b73a32b91030902724ab60711b604082015260600190565b600067ffffffffffffffff821115611c6c57611c6c6117ab565b5060051b60200190565b600082601f830112611c8757600080fd5b81516020611c9761183983611c52565b82815260059290921b84018101918181019086841115611cb657600080fd5b8286015b84811015611cda578051611ccd81611abe565b8352918301918301611cba565b509695505050505050565b600060208284031215611cf757600080fd5b815167ffffffffffffffff811115611d0e57600080fd5b61044084828501611c76565b600082601f830112611d2b57600080fd5b8151611d39611839826117f2565b818152846020838601011115611d4e57600080fd5b6104408260208301602087016118fc565b600082601f830112611d7057600080fd5b81516020611d8061183983611c52565b82815260059290921b84018101918181019086841115611d9f57600080fd5b8286015b84811015611cda57805167ffffffffffffffff811115611dc35760008081fd5b611dd18986838b0101611d1a565b845250918301918301611da3565b600060208284031215611df157600080fd5b815167ffffffffffffffff811115611e0857600080fd5b61044084828501611d5f565b600060208284031215611e2657600080fd5b815161037f81611abe565b8051611ae581611bcf565b600080600080600080600080610100898b031215611e5957600080fd5b611e6289611e31565b9750602089015167ffffffffffffffff80821115611e7f57600080fd5b611e8b8c838d01611d1a565b985060408b0151915080821115611ea157600080fd5b611ead8c838d01611d5f565b975060608b0151915080821115611ec357600080fd5b611ecf8c838d01611c76565b965060808b0151915080821115611ee557600080fd5b611ef18c838d01611d5f565b955060a08b0151915080821115611f0757600080fd5b611f138c838d01611d5f565b945060c08b0151915080821115611f2957600080fd5b611f358c838d01611d5f565b935060e08b0151915080821115611f4b57600080fd5b50611f588b828c01611d5f565b9150509295985092959890939650565b600060208284031215611f7a57600080fd5b815161037f81611bcf565b6020808252601e908201527f546869732063617220646f65736e277420657869737420616e796d6f72650000604082015260600190565b634e487b7160e01b600052602160045260246000fd5b6020808252602e908201527f5065726d697373696f6e2064656e6965642c20796f75206d757374206265206160408201526d206d616e7566616374757265722160901b606082015260800190565b60208082526021908201527f54686520696e666f732073656374696f6e2063616e6e6f7420626520626c616e6040820152606b60f81b606082015260800190565b6040815260006120746040830185611920565b82810360208401526109018185611920565b6020808252601e908201527f596f75277265206e6f7420746865206f776e65722c2061626f7274696e670000604082015260600190565b6000602082840312156120cf57600080fd5b815167ffffffffffffffff8111156120e657600080fd5b61044084828501611d1a56fe3a2db9fe7908dcc36d81824d2338fc3f1aff49ac357dd8c4840527fba27a5b90a26469706673582212201bcd8603bf4d3af881fe4c2b4539ce838fd6884f9cc4936b6fce404d511ba58964736f6c63430008130033608060405234801561001057600080fd5b50611c09806100206000396000f3fe608060405234801561001057600080fd5b506004361061004c5760003560e01c80633de4de8f146100515780634b22dc911461006657806358da1e01146100965780637832e6e3146100a9575b600080fd5b61006461005f3660046103c7565b6100cc565b005b61007961007436600461042b565b610244565b6040516001600160a01b0390911681526020015b60405180910390f35b6100646100a436600461042b565b610275565b6100bc6100b736600461042b565b6102ec565b604051901515815260200161008d565b6002826040516100dc919061048c565b9081526040519081900360200190205460ff1615610168576040805162461bcd60e51b81526020600482015260248101919091527f506c656173652074727920616e6f74686572204e49562061732074686520707260448201527f6f7669646564206f6e652068617320616c7265616479206265656e2075736564606482015260840160405180910390fd5b818160405161017690610317565b6101819291906104d4565b604051809103906000f08015801561019d573d6000803e3d6000fd5b506000806101000a8154816001600160a01b0302191690836001600160a01b0316021790555060016002836040516101d5919061048c565b908152604051908190036020018120805492151560ff19909316929092179091556000546001600160a01b03169060019061021190859061048c565b90815260405190819003602001902080546001600160a01b03929092166001600160a01b03199092169190911790555050565b6000600182604051610256919061048c565b908152604051908190036020019020546001600160a01b031692915050565b61027e81610244565b600080546001600160a01b0319166001600160a01b039290921691821781556040805163b3610f3760e01b8152905163b3610f379260048084019391929182900301818387803b1580156102d157600080fd5b505af11580156102e5573d6000803e3d6000fd5b5050505050565b60006002826040516102fe919061048c565b9081526040519081900360200190205460ff1692915050565b6116d18061050383390190565b634e487b7160e01b600052604160045260246000fd5b600082601f83011261034b57600080fd5b813567ffffffffffffffff8082111561036657610366610324565b604051601f8301601f19908116603f0116810190828211818310171561038e5761038e610324565b816040528381528660208588010111156103a757600080fd5b836020870160208301376000602085830101528094505050505092915050565b600080604083850312156103da57600080fd5b823567ffffffffffffffff808211156103f257600080fd5b6103fe8683870161033a565b9350602085013591508082111561041457600080fd5b506104218582860161033a565b9150509250929050565b60006020828403121561043d57600080fd5b813567ffffffffffffffff81111561045457600080fd5b6104608482850161033a565b949350505050565b60005b8381101561048357818101518382015260200161046b565b50506000910152565b6000825161049e818460208701610468565b9190910192915050565b600081518084526104c0816020860160208601610468565b601f01601f19169290920160200192915050565b6040815260006104e760408301856104a8565b82810360208401526104f981856104a8565b9594505050505056fe60806040523480156200001157600080fd5b50604051620016d1380380620016d183398101604081905262000034916200012d565b600062000042838262000226565b50600c805460ff191660019081179091556200005f828262000226565b505050620002f2565b634e487b7160e01b600052604160045260246000fd5b600082601f8301126200009057600080fd5b81516001600160401b0380821115620000ad57620000ad62000068565b604051601f8301601f19908116603f01168101908282118183101715620000d857620000d862000068565b81604052838152602092508683858801011115620000f557600080fd5b600091505b83821015620001195785820183015181830184015290820190620000fa565b600093810190920192909252949350505050565b600080604083850312156200014157600080fd5b82516001600160401b03808211156200015957600080fd5b62000167868387016200007e565b935060208501519150808211156200017e57600080fd5b506200018d858286016200007e565b9150509250929050565b600181811c90821680620001ac57607f821691505b602082108103620001cd57634e487b7160e01b600052602260045260246000fd5b50919050565b601f8211156200022157600081815260208120601f850160051c81016020861015620001fc5750805b601f850160051c820191505b818110156200021d5782815560010162000208565b5050505b505050565b81516001600160401b0381111562000242576200024262000068565b6200025a8162000253845462000197565b84620001d3565b602080601f831160018114620002925760008415620002795750858301515b600019600386901b1c1916600185901b1785556200021d565b600085815260208120601f198616915b82811015620002c357888601518255948401946001909101908401620002a2565b5085821015620002e25787850151600019600388901b60f8161c191681555b5050505050600190811b01905550565b6113cf80620003026000396000f3fe608060405234801561001057600080fd5b50600436106100f55760003560e01c8063643d6dc011610097578063b5cd26f811610066578063b5cd26f8146101db578063bd51b8e0146101e3578063d80516a5146101eb578063e4085d671461020757600080fd5b8063643d6dc01461018f5780637a64f113146101a4578063888dbbc1146101b7578063b3610f37146101cc57600080fd5b8063457cf35b116100d3578063457cf35b1461013557806357ca4fe614610148578063581003701461015b5780635ad70d121461017957600080fd5b8063134044a1146100fa57806313af40351461010f5780632e8b71d314610122575b600080fd5b61010d610108366004610e63565b61020f565b005b61010d61011d366004610f14565b61024f565b61010d610130366004610e63565b610321565b61010d610143366004610e63565b6103fd565b61010d610156366004610e63565b610447565b610163610483565b6040516101709190610f88565b60405180910390f35b600c5460ff166040519015158152602001610170565b6101976104e5565b6040516101709190610fe1565b61010d6101b2366004610e63565b61056e565b6101bf6105b8565b6040516101709190611049565b61010d600c805460ff19169055565b6101bf610691565b6101bf610761565b6101f3610831565b60405161017098979695949392919061105c565b6101bf610d7d565b600780546001810182556000919091527fa66cc928b5edb82af9bd49922954155ab7b0942694bea4ce44661d9a8736c6880161024b8282611188565b5050565b600a546001600160a01b038083169116036102c55760405162461bcd60e51b815260206004820152602b60248201527f546865206f6c64206f776e657220616e64206e6577206f6e652063616e27742060448201526a6265207468652073616d6560a81b60648201526084015b60405180910390fd5b600a80546001600160a01b039092166001600160a01b03199283168117909155600b80546001810182556000919091527f0175b7a638427703f0dbe7bb9bbf987a2551717b34e79f33b5b1008d1fa01db9018054909216179055565b60036040516103309190611248565b60405180910390208180519060200120036103b35760405162461bcd60e51b815260206004820152603d60248201527f546865206f6c64206d6174726963756c6174696f6e20616e64206e6577206d6160448201527f74726963756c6174696f6e2063616e2774206265207468652073616d6500000060648201526084016102bc565b60036103bf8282611188565b50600580546001810182556000919091527f036b6384b5eca791c62761152d0c79bb0604c104a5fb6f4eb0703f3154bb3db00161024b6003826112be565b60046104098282611188565b50600880546001810182556000919091527ff3f7a9fe364faab93b216da50a3214154f22a0a2b415b23a84c8169e8b636ee30161024b6004826112be565b600680546001810182556000919091527ff652222313e28459528d920b65115c16c04f3efc82aaedc97be59f3f377c0d3f0161024b8282611188565b6060600b8054806020026020016040519081016040528092919081815260200182805480156104db57602002820191906000526020600020905b81546001600160a01b031681526001909101906020018083116104bd575b5050505050905090565b6060600180546104f4906110ff565b80601f0160208091040260200160405190810160405280929190818152602001828054610520906110ff565b80156104db5780601f10610542576101008083540402835291602001916104db565b820191906000526020600020905b81548152906001019060200180831161055057509395945050505050565b600261057a8282611188565b50600980546001810182556000919091527f6e1540171b6c0c960b71a7020d9f60077f6af931a8bbf590da0223dacf75c7af0161024b6002826112be565b60606008805480602002602001604051908101604052809291908181526020016000905b828210156106885783829060005260206000200180546105fb906110ff565b80601f0160208091040260200160405190810160405280929190818152602001828054610627906110ff565b80156106745780601f1061064957610100808354040283529160200191610674565b820191906000526020600020905b81548152906001019060200180831161065757829003601f168201915b5050505050815260200190600101906105dc565b50505050905090565b60606009805480602002602001604051908101604052809291908181526020016000905b828210156106885783829060005260206000200180546106d4906110ff565b80601f0160208091040260200160405190810160405280929190818152602001828054610700906110ff565b801561074d5780601f106107225761010080835404028352916020019161074d565b820191906000526020600020905b81548152906001019060200180831161073057829003601f168201915b5050505050815260200190600101906106b5565b60606007805480602002602001604051908101604052809291908181526020016000905b828210156106885783829060005260206000200180546107a4906110ff565b80601f01602080910402602001604051908101604052809291908181526020018280546107d0906110ff565b801561081d5780601f106107f25761010080835404028352916020019161081d565b820191906000526020600020905b81548152906001019060200180831161080057829003601f168201915b505050505081526020019060010190610785565b60006060806060806060806060600c60009054906101000a900460ff1660016007600b6005600660096008868054610868906110ff565b80601f0160208091040260200160405190810160405280929190818152602001828054610894906110ff565b80156108e15780601f106108b6576101008083540402835291602001916108e1565b820191906000526020600020905b8154815290600101906020018083116108c457829003601f168201915b5050505050965085805480602002602001604051908101604052809291908181526020016000905b828210156109b5578382906000526020600020018054610928906110ff565b80601f0160208091040260200160405190810160405280929190818152602001828054610954906110ff565b80156109a15780601f10610976576101008083540402835291602001916109a1565b820191906000526020600020905b81548152906001019060200180831161098457829003601f168201915b505050505081526020019060010190610909565b50505050955084805480602002602001604051908101604052809291908181526020018280548015610a1057602002820191906000526020600020905b81546001600160a01b031681526001909101906020018083116109f2575b5050505050945083805480602002602001604051908101604052809291908181526020016000905b82821015610ae4578382906000526020600020018054610a57906110ff565b80601f0160208091040260200160405190810160405280929190818152602001828054610a83906110ff565b8015610ad05780601f10610aa557610100808354040283529160200191610ad0565b820191906000526020600020905b815481529060010190602001808311610ab357829003601f168201915b505050505081526020019060010190610a38565b50505050935082805480602002602001604051908101604052809291908181526020016000905b82821015610bb7578382906000526020600020018054610b2a906110ff565b80601f0160208091040260200160405190810160405280929190818152602001828054610b56906110ff565b8015610ba35780601f10610b7857610100808354040283529160200191610ba3565b820191906000526020600020905b815481529060010190602001808311610b8657829003601f168201915b505050505081526020019060010190610b0b565b50505050925081805480602002602001604051908101604052809291908181526020016000905b82821015610c8a578382906000526020600020018054610bfd906110ff565b80601f0160208091040260200160405190810160405280929190818152602001828054610c29906110ff565b8015610c765780601f10610c4b57610100808354040283529160200191610c76565b820191906000526020600020905b815481529060010190602001808311610c5957829003601f168201915b505050505081526020019060010190610bde565b50505050915080805480602002602001604051908101604052809291908181526020016000905b82821015610d5d578382906000526020600020018054610cd0906110ff565b80601f0160208091040260200160405190810160405280929190818152602001828054610cfc906110ff565b8015610d495780601f10610d1e57610100808354040283529160200191610d49565b820191906000526020600020905b815481529060010190602001808311610d2c57829003601f168201915b505050505081526020019060010190610cb1565b505050509050975097509750975097509750975097509091929394959697565b60606006805480602002602001604051908101604052809291908181526020016000905b82821015610688578382906000526020600020018054610dc0906110ff565b80601f0160208091040260200160405190810160405280929190818152602001828054610dec906110ff565b8015610e395780601f10610e0e57610100808354040283529160200191610e39565b820191906000526020600020905b815481529060010190602001808311610e1c57829003601f168201915b505050505081526020019060010190610da1565b634e487b7160e01b600052604160045260246000fd5b600060208284031215610e7557600080fd5b813567ffffffffffffffff80821115610e8d57600080fd5b818401915084601f830112610ea157600080fd5b813581811115610eb357610eb3610e4d565b604051601f8201601f19908116603f01168101908382118183101715610edb57610edb610e4d565b81604052828152876020848701011115610ef457600080fd5b826020860160208301376000928101602001929092525095945050505050565b600060208284031215610f2657600080fd5b81356001600160a01b0381168114610f3d57600080fd5b9392505050565b600081518084526020808501945080840160005b83811015610f7d5781516001600160a01b031687529582019590820190600101610f58565b509495945050505050565b602081526000610f3d6020830184610f44565b6000815180845260005b81811015610fc157602081850181015186830182015201610fa5565b506000602082860101526020601f19601f83011685010191505092915050565b602081526000610f3d6020830184610f9b565b600081518084526020808501808196508360051b8101915082860160005b8581101561103c57828403895261102a848351610f9b565b98850198935090840190600101611012565b5091979650505050505050565b602081526000610f3d6020830184610ff4565b60006101008a151583528060208401526110788184018b610f9b565b9050828103604084015261108c818a610ff4565b905082810360608401526110a08189610f44565b905082810360808401526110b48188610ff4565b905082810360a08401526110c88187610ff4565b905082810360c08401526110dc8186610ff4565b905082810360e08401526110f08185610ff4565b9b9a5050505050505050505050565b600181811c9082168061111357607f821691505b60208210810361113357634e487b7160e01b600052602260045260246000fd5b50919050565b601f82111561118357600081815260208120601f850160051c810160208610156111605750805b601f850160051c820191505b8181101561117f5782815560010161116c565b5050505b505050565b815167ffffffffffffffff8111156111a2576111a2610e4d565b6111b6816111b084546110ff565b84611139565b602080601f8311600181146111eb57600084156111d35750858301515b600019600386901b1c1916600185901b17855561117f565b600085815260208120601f198616915b8281101561121a578886015182559484019460019091019084016111fb565b50858210156112385787850151600019600388901b60f8161c191681555b5050505050600190811b01905550565b6000808354611256816110ff565b6001828116801561126e5760018114611283576112b2565b60ff19841687528215158302870194506112b2565b8760005260208060002060005b858110156112a95781548a820152908401908201611290565b50505082870194505b50929695505050505050565b8181036112c9575050565b6112d382546110ff565b67ffffffffffffffff8111156112eb576112eb610e4d565b6112f9816111b084546110ff565b6000601f82116001811461132d57600083156113155750848201545b600019600385901b1c1916600184901b178455611392565b600085815260209020601f19841690600086815260209020845b838110156113675782860154825560019586019590910190602001611347565b50858310156113855781850154600019600388901b60f8161c191681555b50505060018360011b0184555b505050505056fea2646970667358221220e1befc03c6370f595356b1a23e6227e20e33450cbc2b8b10276abc1903f388fb64736f6c63430008130033a2646970667358221220e5ef72b586f28890a45d160e92cb6f35c4cafba569cd2344f030446127f4892864736f6c63430008130033","bytecodeSha1":"d9c919dc2631d05ace85acc84f82dc40b9ea8778","compiler":{"evm_version":"istanbul","optimizer":{"enabled":true,"runs":200},"version":"0.8.19+commit.7dd6d404"},"contractName":"AutomobileRegistrationSystem","language":"Solidity","natspec":{"kind":"dev","methods":{},"version":1},"opcodes":"PUSH1 0x80 PUSH1 0x40 MSTORE CALLVALUE DUP1 ISZERO PUSH2 0x10 JUMPI PUSH1 0x0 DUP1 REVERT JUMPDEST POP PUSH1 0x4 CALLDATASIZE LT PUSH2 0x10B JUMPI PUSH1 0x0 CALLDATALOAD PUSH1 0xE0 SHR DUP1 PUSH4 0x75D12105 GT PUSH2 0xA2 JUMPI DUP1 PUSH4 0xAAD37C99 GT PUSH2 0x71 JUMPI DUP1 PUSH4 0xAAD37C99 EQ PUSH2 0x255 JUMPI DUP1 PUSH4 0xB327C700 EQ PUSH2 0x268 JUMPI DUP1 PUSH4 0xD0F2DD5B EQ PUSH2 0x27B JUMPI DUP1 PUSH4 0xD6082A83 EQ PUSH2 0x29B JUMPI DUP1 PUSH4 0xF6BB6B37 EQ PUSH2 0x2AE JUMPI PUSH1 0x0 DUP1 REVERT JUMPDEST DUP1 PUSH4 0x75D12105 EQ PUSH2 0x209 JUMPI DUP1 PUSH4 0x7FEE984B EQ PUSH2 0x21C JUMPI DUP1 PUSH4 0x90CA8332 EQ PUSH2 0x22F JUMPI DUP1 PUSH4 0xA2A6D142 EQ PUSH2 0x242 JUMPI PUSH1 0x0 DUP1 REVERT JUMPDEST DUP1 PUSH4 0x4CCA8288 GT PUSH2 0xDE JUMPI DUP1 PUSH4 0x4CCA8288 EQ PUSH2 0x1AB JUMPI DUP1 PUSH4 0x58DA1E01 EQ PUSH2 0x1BE JUMPI DUP1 PUSH4 0x60DB168E EQ PUSH2 0x1D3 JUMPI DUP1 PUSH4 0x6F059E73 EQ PUSH2 0x1F6 JUMPI PUSH1 0x0 DUP1 REVERT JUMPDEST DUP1 PUSH4 0xB8CF8D1 EQ PUSH2 0x110 JUMPI DUP1 PUSH4 0x398752E0 EQ PUSH2 0x139 JUMPI DUP1 PUSH4 0x479487E3 EQ PUSH2 0x159 JUMPI DUP1 PUSH4 0x4974C632 EQ PUSH2 0x184 JUMPI JUMPDEST PUSH1 0x0 DUP1 REVERT JUMPDEST PUSH2 0x123 PUSH2 0x11E CALLDATASIZE PUSH1 0x4 PUSH2 0x1870 JUMP JUMPDEST PUSH2 0x2C1 JUMP JUMPDEST PUSH1 0x40 MLOAD PUSH2 0x130 SWAP2 SWAP1 PUSH2 0x18E9 JUMP JUMPDEST PUSH1 0x40 MLOAD DUP1 SWAP2 SUB SWAP1 RETURN JUMPDEST PUSH2 0x14C PUSH2 0x147 CALLDATASIZE PUSH1 0x4 PUSH2 0x1870 JUMP JUMPDEST PUSH2 0x386 JUMP JUMPDEST PUSH1 0x40 MLOAD PUSH2 0x130 SWAP2 SWAP1 PUSH2 0x19A4 JUMP JUMPDEST PUSH2 0x16C PUSH2 0x167 CALLDATASIZE PUSH1 0x4 PUSH2 0x1870 JUMP JUMPDEST PUSH2 0x448 JUMP JUMPDEST PUSH1 0x40 MLOAD PUSH1 0x1 PUSH1 0x1 PUSH1 0xA0 SHL SUB SWAP1 SWAP2 AND DUP2 MSTORE PUSH1 0x20 ADD PUSH2 0x130 JUMP JUMPDEST PUSH2 0x197 PUSH2 0x192 CALLDATASIZE PUSH1 0x4 PUSH2 0x1870 JUMP JUMPDEST PUSH2 0x4F9 JUMP JUMPDEST PUSH1 0x40 MLOAD PUSH2 0x130 SWAP9 SWAP8 SWAP7 SWAP6 SWAP5 SWAP4 SWAP3 SWAP2 SWAP1 PUSH2 0x19B7 JUMP JUMPDEST PUSH2 0x14C PUSH2 0x1B9 CALLDATASIZE PUSH1 0x4 PUSH2 0x1870 JUMP JUMPDEST PUSH2 0x5CD JUMP JUMPDEST PUSH2 0x1D1 PUSH2 0x1CC CALLDATASIZE PUSH1 0x4 PUSH2 0x1870 JUMP JUMPDEST PUSH2 0x682 JUMP JUMPDEST STOP JUMPDEST PUSH2 0x1E6 PUSH2 0x1E1 CALLDATASIZE PUSH1 0x4 PUSH2 0x1870 JUMP JUMPDEST PUSH2 0x850 JUMP JUMPDEST PUSH1 0x40 MLOAD SWAP1 ISZERO ISZERO DUP2 MSTORE PUSH1 0x20 ADD PUSH2 0x130 JUMP JUMPDEST PUSH2 0x1D1 PUSH2 0x204 CALLDATASIZE PUSH1 0x4 PUSH2 0x1A5A JUMP JUMPDEST PUSH2 0x90A JUMP JUMPDEST PUSH2 0x1D1 PUSH2 0x217 CALLDATASIZE PUSH1 0x4 PUSH2 0x1A5A JUMP JUMPDEST PUSH2 0xB9A JUMP JUMPDEST PUSH2 0x1D1 PUSH2 0x22A CALLDATASIZE PUSH1 0x4 PUSH2 0x1A5A JUMP JUMPDEST PUSH2 0xCA6 JUMP JUMPDEST PUSH2 0x14C PUSH2 0x23D CALLDATASIZE PUSH1 0x4 PUSH2 0x1870 JUMP JUMPDEST PUSH2 0xE6E JUMP JUMPDEST PUSH2 0x1E6 PUSH2 0x250 CALLDATASIZE PUSH1 0x4 PUSH2 0x1AEA JUMP JUMPDEST PUSH2 0xF00 JUMP JUMPDEST PUSH2 0x1D1 PUSH2 0x263 CALLDATASIZE PUSH1 0x4 PUSH2 0x1A5A JUMP JUMPDEST PUSH2 0xF82 JUMP JUMPDEST PUSH2 0x14C PUSH2 0x276 CALLDATASIZE PUSH1 0x4 PUSH2 0x1870 JUMP JUMPDEST PUSH2 0x11CB JUMP JUMPDEST PUSH2 0x28E PUSH2 0x289 CALLDATASIZE PUSH1 0x4 PUSH2 0x1870 JUMP JUMPDEST PUSH2 0x1258 JUMP JUMPDEST PUSH1 0x40 MLOAD PUSH2 0x130 SWAP2 SWAP1 PUSH2 0x1B1F JUMP JUMPDEST PUSH2 0x1D1 PUSH2 0x2A9 CALLDATASIZE PUSH1 0x4 PUSH2 0x1B32 JUMP JUMPDEST PUSH2 0x1312 JUMP JUMPDEST PUSH2 0x1D1 PUSH2 0x2BC CALLDATASIZE PUSH1 0x4 PUSH2 0x1BDD JUMP JUMPDEST PUSH2 0x1720 JUMP JUMPDEST PUSH1 0x40 DUP1 MLOAD PUSH1 0x20 DUP1 DUP3 ADD SWAP1 SWAP3 MSTORE PUSH1 0x0 SWAP1 MSTORE DUP2 MLOAD SWAP1 DUP3 ADD KECCAK256 PUSH1 0x60 SWAP1 DUP3 SWAP1 PUSH1 0x0 DUP1 MLOAD PUSH1 0x20 PUSH2 0x20F3 DUP4 CODECOPY DUP2 MLOAD SWAP2 MSTORE ADD PUSH2 0x311 JUMPI PUSH1 0x40 MLOAD PUSH3 0x461BCD PUSH1 0xE5 SHL DUP2 MSTORE PUSH1 0x4 ADD PUSH2 0x308 SWAP1 PUSH2 0x1C26 JUMP JUMPDEST PUSH1 0x40 MLOAD DUP1 SWAP2 SUB SWAP1 REVERT JUMPDEST PUSH2 0x31A DUP4 PUSH2 0x448 JUMP JUMPDEST PUSH1 0x1 PUSH1 0x1 PUSH1 0xA0 SHL SUB AND PUSH4 0x58100370 PUSH1 0x40 MLOAD DUP2 PUSH4 0xFFFFFFFF AND PUSH1 0xE0 SHL DUP2 MSTORE PUSH1 0x4 ADD PUSH1 0x0 PUSH1 0x40 MLOAD DUP1 DUP4 SUB DUP2 DUP7 GAS STATICCALL ISZERO DUP1 ISZERO PUSH2 0x357 JUMPI RETURNDATASIZE PUSH1 0x0 DUP1 RETURNDATACOPY RETURNDATASIZE PUSH1 0x0 REVERT JUMPDEST POP POP POP POP PUSH1 0x40 MLOAD RETURNDATASIZE PUSH1 0x0 DUP3 RETURNDATACOPY PUSH1 0x1F RETURNDATASIZE SWAP1 DUP2 ADD PUSH1 0x1F NOT AND DUP3 ADD PUSH1 0x40 MSTORE PUSH2 0x37F SWAP2 SWAP1 DUP2 ADD SWAP1 PUSH2 0x1CE5 JUMP JUMPDEST SWAP4 SWAP3 POP POP POP JUMP JUMPDEST PUSH1 0x40 DUP1 MLOAD PUSH1 0x20 DUP1 DUP3 ADD SWAP1 SWAP3 MSTORE PUSH1 0x0 SWAP1 MSTORE DUP2 MLOAD SWAP1 DUP3 ADD KECCAK256 PUSH1 0x60 SWAP1 DUP3 SWAP1 PUSH1 0x0 DUP1 MLOAD PUSH1 0x20 PUSH2 0x20F3 DUP4 CODECOPY DUP2 MLOAD SWAP2 MSTORE ADD PUSH2 0x3CD JUMPI PUSH1 0x40 MLOAD PUSH3 0x461BCD PUSH1 0xE5 SHL DUP2 MSTORE PUSH1 0x4 ADD PUSH2 0x308 SWAP1 PUSH2 0x1C26 JUMP JUMPDEST PUSH1 0x0 PUSH2 0x3D8 DUP5 PUSH2 0x448 JUMP JUMPDEST SWAP1 POP DUP1 PUSH1 0x1 PUSH1 0x1 PUSH1 0xA0 SHL SUB AND PUSH4 0xE4085D67 PUSH1 0x40 MLOAD DUP2 PUSH4 0xFFFFFFFF AND PUSH1 0xE0 SHL DUP2 MSTORE PUSH1 0x4 ADD PUSH1 0x0 PUSH1 0x40 MLOAD DUP1 DUP4 SUB DUP2 DUP7 GAS STATICCALL ISZERO DUP1 ISZERO PUSH2 0x418 JUMPI RETURNDATASIZE PUSH1 0x0 DUP1 RETURNDATACOPY RETURNDATASIZE PUSH1 0x0 REVERT JUMPDEST POP POP POP POP PUSH1 0x40 MLOAD RETURNDATASIZE PUSH1 0x0 DUP3 RETURNDATACOPY PUSH1 0x1F RETURNDATASIZE SWAP1 DUP2 ADD PUSH1 0x1F NOT AND DUP3 ADD PUSH1 0x40 MSTORE PUSH2 0x440 SWAP2 SWAP1 DUP2 ADD SWAP1 PUSH2 0x1DDF JUMP JUMPDEST SWAP5 SWAP4 POP POP POP POP JUMP JUMPDEST PUSH1 0x0 DUP2 PUSH1 0x40 MLOAD DUP1 PUSH1 0x20 ADD PUSH1 0x40 MSTORE DUP1 PUSH1 0x0 DUP2 MSTORE POP DUP1 MLOAD SWAP1 PUSH1 0x20 ADD KECCAK256 DUP2 DUP1 MLOAD SWAP1 PUSH1 0x20 ADD KECCAK256 SUB PUSH2 0x487 JUMPI PUSH1 0x40 MLOAD PUSH3 0x461BCD PUSH1 0xE5 SHL DUP2 MSTORE PUSH1 0x4 ADD PUSH2 0x308 SWAP1 PUSH2 0x1C26 JUMP JUMPDEST PUSH1 0x1 SLOAD PUSH1 0x40 MLOAD PUSH4 0x4B22DC91 PUSH1 0xE0 SHL DUP2 MSTORE PUSH1 0x0 SWAP2 PUSH1 0x1 PUSH1 0x1 PUSH1 0xA0 SHL SUB AND SWAP1 PUSH4 0x4B22DC91 SWAP1 PUSH2 0x4B8 SWAP1 DUP8 SWAP1 PUSH1 0x4 ADD PUSH2 0x1B1F JUMP JUMPDEST PUSH1 0x20 PUSH1 0x40 MLOAD DUP1 DUP4 SUB DUP2 DUP7 GAS STATICCALL ISZERO DUP1 ISZERO PUSH2 0x4D5 JUMPI RETURNDATASIZE PUSH1 0x0 DUP1 RETURNDATACOPY RETURNDATASIZE PUSH1 0x0 REVERT JUMPDEST POP POP POP POP PUSH1 0x40 MLOAD RETURNDATASIZE PUSH1 0x1F NOT PUSH1 0x1F DUP3 ADD AND DUP3 ADD DUP1 PUSH1 0x40 MSTORE POP DUP2 ADD SWAP1 PUSH2 0x440 SWAP2 SWAP1 PUSH2 0x1E14 JUMP JUMPDEST PUSH1 0x0 PUSH1 0x60 DUP1 PUSH1 0x60 DUP1 PUSH1 0x60 DUP1 PUSH1 0x60 DUP9 PUSH1 0x40 MLOAD DUP1 PUSH1 0x20 ADD PUSH1 0x40 MSTORE DUP1 PUSH1 0x0 DUP2 MSTORE POP DUP1 MLOAD SWAP1 PUSH1 0x20 ADD KECCAK256 DUP2 DUP1 MLOAD SWAP1 PUSH1 0x20 ADD KECCAK256 SUB PUSH2 0x543 JUMPI PUSH1 0x40 MLOAD PUSH3 0x461BCD PUSH1 0xE5 SHL DUP2 MSTORE PUSH1 0x4 ADD PUSH2 0x308 SWAP1 PUSH2 0x1C26 JUMP JUMPDEST PUSH2 0x54C DUP11 PUSH2 0x448 JUMP JUMPDEST PUSH1 0x1 PUSH1 0x1 PUSH1 0xA0 SHL SUB AND PUSH4 0xD80516A5 PUSH1 0x40 MLOAD DUP2 PUSH4 0xFFFFFFFF AND PUSH1 0xE0 SHL DUP2 MSTORE PUSH1 0x4 ADD PUSH1 0x0 PUSH1 0x40 MLOAD DUP1 DUP4 SUB DUP2 DUP7 GAS STATICCALL ISZERO DUP1 ISZERO PUSH2 0x589 JUMPI RETURNDATASIZE PUSH1 0x0 DUP1 RETURNDATACOPY RETURNDATASIZE PUSH1 0x0 REVERT JUMPDEST POP POP POP POP PUSH1 0x40 MLOAD RETURNDATASIZE PUSH1 0x0 DUP3 RETURNDATACOPY PUSH1 0x1F RETURNDATASIZE SWAP1 DUP2 ADD PUSH1 0x1F NOT AND DUP3 ADD PUSH1 0x40 MSTORE PUSH2 0x5B1 SWAP2 SWAP1 DUP2 ADD SWAP1 PUSH2 0x1E3C JUMP JUMPDEST SWAP9 POP SWAP9 POP SWAP9 POP SWAP9 POP SWAP9 POP SWAP9 POP SWAP9 POP SWAP9 POP POP SWAP2 SWAP4 SWAP6 SWAP8 POP SWAP2 SWAP4 SWAP6 SWAP8 JUMP JUMPDEST PUSH1 0x40 DUP1 MLOAD PUSH1 0x20 DUP1 DUP3 ADD SWAP1 SWAP3 MSTORE PUSH1 0x0 SWAP1 MSTORE DUP2 MLOAD SWAP1 DUP3 ADD KECCAK256 PUSH1 0x60 SWAP1 DUP3 SWAP1 PUSH1 0x0 DUP1 MLOAD PUSH1 0x20 PUSH2 0x20F3 DUP4 CODECOPY DUP2 MLOAD SWAP2 MSTORE ADD PUSH2 0x614 JUMPI PUSH1 0x40 MLOAD PUSH3 0x461BCD PUSH1 0xE5 SHL DUP2 MSTORE PUSH1 0x4 ADD PUSH2 0x308 SWAP1 PUSH2 0x1C26 JUMP JUMPDEST PUSH2 0x61D DUP4 PUSH2 0x448 JUMP JUMPDEST PUSH1 0x1 PUSH1 0x1 PUSH1 0xA0 SHL SUB AND PUSH4 0xB5CD26F8 PUSH1 0x40 MLOAD DUP2 PUSH4 0xFFFFFFFF AND PUSH1 0xE0 SHL DUP2 MSTORE PUSH1 0x4 ADD PUSH1 0x0 PUSH1 0x40 MLOAD DUP1 DUP4 SUB DUP2 DUP7 GAS STATICCALL ISZERO DUP1 ISZERO PUSH2 0x65A JUMPI RETURNDATASIZE PUSH1 0x0 DUP1 RETURNDATACOPY RETURNDATASIZE PUSH1 0x0 REVERT JUMPDEST POP POP POP POP PUSH1 0x40 MLOAD RETURNDATASIZE PUSH1 0x0 DUP3 RETURNDATACOPY PUSH1 0x1F RETURNDATASIZE SWAP1 DUP2 ADD PUSH1 0x1F NOT AND DUP3 ADD PUSH1 0x40 MSTORE PUSH2 0x37F SWAP2 SWAP1 DUP2 ADD SWAP1 PUSH2 0x1DDF JUMP JUMPDEST PUSH1 0x40 DUP1 MLOAD PUSH1 0x20 DUP1 DUP3 ADD SWAP1 SWAP3 MSTORE PUSH1 0x0 SWAP1 MSTORE DUP2 MLOAD SWAP1 DUP3 ADD KECCAK256 DUP2 SWAP1 PUSH1 0x0 DUP1 MLOAD PUSH1 0x20 PUSH2 0x20F3 DUP4 CODECOPY DUP2 MLOAD SWAP2 MSTORE ADD PUSH2 0x6C6 JUMPI PUSH1 0x40 MLOAD PUSH3 0x461BCD PUSH1 0xE5 SHL DUP2 MSTORE PUSH1 0x4 ADD PUSH2 0x308 SWAP1 PUSH2 0x1C26 JUMP JUMPDEST PUSH1 0x1 SLOAD PUSH1 0x40 MLOAD PUSH4 0x4B22DC91 PUSH1 0xE0 SHL DUP2 MSTORE DUP4 SWAP2 PUSH1 0x1 PUSH1 0x1 PUSH1 0xA0 SHL SUB AND SWAP1 PUSH4 0x4B22DC91 SWAP1 PUSH2 0x6F6 SWAP1 DUP5 SWAP1 PUSH1 0x4 ADD PUSH2 0x1B1F JUMP JUMPDEST PUSH1 0x20 PUSH1 0x40 MLOAD DUP1 DUP4 SUB DUP2 DUP7 GAS STATICCALL ISZERO DUP1 ISZERO PUSH2 0x713 JUMPI RETURNDATASIZE PUSH1 0x0 DUP1 RETURNDATACOPY RETURNDATASIZE PUSH1 0x0 REVERT JUMPDEST POP POP POP POP PUSH1 0x40 MLOAD RETURNDATASIZE PUSH1 0x1F NOT PUSH1 0x1F DUP3 ADD AND DUP3 ADD DUP1 PUSH1 0x40 MSTORE POP DUP2 ADD SWAP1 PUSH2 0x737 SWAP2 SWAP1 PUSH2 0x1E14 JUMP JUMPDEST PUSH1 0x1 PUSH1 0x1 PUSH1 0xA0 SHL SUB AND PUSH4 0x5AD70D12 PUSH1 0x40 MLOAD DUP2 PUSH4 0xFFFFFFFF AND PUSH1 0xE0 SHL DUP2 MSTORE PUSH1 0x4 ADD PUSH1 0x20 PUSH1 0x40 MLOAD DUP1 DUP4 SUB DUP2 DUP7 GAS STATICCALL ISZERO DUP1 ISZERO PUSH2 0x774 JUMPI RETURNDATASIZE PUSH1 0x0 DUP1 RETURNDATACOPY RETURNDATASIZE PUSH1 0x0 REVERT JUMPDEST POP POP POP POP PUSH1 0x40 MLOAD RETURNDATASIZE PUSH1 0x1F NOT PUSH1 0x1F DUP3 ADD AND DUP3 ADD DUP1 PUSH1 0x40 MSTORE POP DUP2 ADD SWAP1 PUSH2 0x798 SWAP2 SWAP1 PUSH2 0x1F68 JUMP JUMPDEST PUSH2 0x7B4 JUMPI PUSH1 0x40 MLOAD PUSH3 0x461BCD PUSH1 0xE5 SHL DUP2 MSTORE PUSH1 0x4 ADD PUSH2 0x308 SWAP1 PUSH2 0x1F85 JUMP JUMPDEST CALLER PUSH1 0x0 DUP2 DUP2 MSTORE PUSH1 0x2 PUSH1 0x20 SWAP1 DUP2 MSTORE PUSH1 0x40 DUP1 DUP4 KECCAK256 DUP4 DUP1 MSTORE SWAP1 SWAP2 MSTORE DUP2 KECCAK256 SLOAD PUSH1 0xFF AND PUSH2 0x7EE JUMPI PUSH1 0x40 MLOAD PUSH3 0x461BCD PUSH1 0xE5 SHL DUP2 MSTORE PUSH1 0x4 ADD PUSH2 0x308 SWAP1 PUSH2 0x1FD2 JUMP JUMPDEST PUSH2 0x7F7 DUP6 PUSH2 0x448 JUMP JUMPDEST PUSH1 0x1 PUSH1 0x1 PUSH1 0xA0 SHL SUB AND PUSH4 0xB3610F37 PUSH1 0x40 MLOAD DUP2 PUSH4 0xFFFFFFFF AND PUSH1 0xE0 SHL DUP2 MSTORE PUSH1 0x4 ADD PUSH1 0x0 PUSH1 0x40 MLOAD DUP1 DUP4 SUB DUP2 PUSH1 0x0 DUP8 DUP1 EXTCODESIZE ISZERO DUP1 ISZERO PUSH2 0x831 JUMPI PUSH1 0x0 DUP1 REVERT JUMPDEST POP GAS CALL ISZERO DUP1 ISZERO PUSH2 0x845 JUMPI RETURNDATASIZE PUSH1 0x0 DUP1 RETURNDATACOPY RETURNDATASIZE PUSH1 0x0 REVERT JUMPDEST POP POP POP POP POP POP POP POP POP JUMP JUMPDEST CALLER PUSH1 0x0 DUP2 DUP2 MSTORE PUSH1 0x2 PUSH1 0x20 SWAP1 DUP2 MSTORE PUSH1 0x40 DUP1 DUP4 KECCAK256 DUP4 DUP1 MSTORE SWAP1 SWAP2 MSTORE DUP2 KECCAK256 SLOAD SWAP1 SWAP2 SWAP1 DUP3 SWAP1 PUSH1 0xFF AND PUSH2 0x88F JUMPI PUSH1 0x40 MLOAD PUSH3 0x461BCD PUSH1 0xE5 SHL DUP2 MSTORE PUSH1 0x4 ADD PUSH2 0x308 SWAP1 PUSH2 0x1FD2 JUMP JUMPDEST PUSH1 0x1 SLOAD PUSH1 0x40 MLOAD PUSH4 0x7832E6E3 PUSH1 0xE0 SHL DUP2 MSTORE PUSH1 0x0 SWAP2 PUSH1 0x1 PUSH1 0x1 PUSH1 0xA0 SHL SUB AND SWAP1 PUSH4 0x7832E6E3 SWAP1 PUSH2 0x8C0 SWAP1 DUP9 SWAP1 PUSH1 0x4 ADD PUSH2 0x1B1F JUMP JUMPDEST PUSH1 0x20 PUSH1 0x40 MLOAD DUP1 DUP4 SUB DUP2 DUP7 GAS STATICCALL ISZERO DUP1 ISZERO PUSH2 0x8DD JUMPI RETURNDATASIZE PUSH1 0x0 DUP1 RETURNDATACOPY RETURNDATASIZE PUSH1 0x0 REVERT JUMPDEST POP POP POP POP PUSH1 0x40 MLOAD RETURNDATASIZE PUSH1 0x1F NOT PUSH1 0x1F DUP3 ADD AND DUP3 ADD DUP1 PUSH1 0x40 MSTORE POP DUP2 ADD SWAP1 PUSH2 0x901 SWAP2 SWAP1 PUSH2 0x1F68 JUMP JUMPDEST SWAP6 SWAP5 POP POP POP POP POP JUMP JUMPDEST PUSH1 0x40 DUP1 MLOAD PUSH1 0x20 DUP1 DUP3 ADD SWAP1 SWAP3 MSTORE PUSH1 0x0 SWAP1 MSTORE DUP3 MLOAD SWAP1 DUP4 ADD KECCAK256 DUP3 SWAP1 PUSH1 0x0 DUP1 MLOAD PUSH1 0x20 PUSH2 0x20F3 DUP4 CODECOPY DUP2 MLOAD SWAP2 MSTORE ADD PUSH2 0x94E JUMPI PUSH1 0x40 MLOAD PUSH3 0x461BCD PUSH1 0xE5 SHL DUP2 MSTORE PUSH1 0x4 ADD PUSH2 0x308 SWAP1 PUSH2 0x1C26 JUMP JUMPDEST PUSH1 0x1 SLOAD PUSH1 0x40 MLOAD PUSH4 0x4B22DC91 PUSH1 0xE0 SHL DUP2 MSTORE DUP5 SWAP2 PUSH1 0x1 PUSH1 0x1 PUSH1 0xA0 SHL SUB AND SWAP1 PUSH4 0x4B22DC91 SWAP1 PUSH2 0x97E SWAP1 DUP5 SWAP1 PUSH1 0x4 ADD PUSH2 0x1B1F JUMP JUMPDEST PUSH1 0x20 PUSH1 0x40 MLOAD DUP1 DUP4 SUB DUP2 DUP7 GAS STATICCALL ISZERO DUP1 ISZERO PUSH2 0x99B JUMPI RETURNDATASIZE PUSH1 0x0 DUP1 RETURNDATACOPY RETURNDATASIZE PUSH1 0x0 REVERT JUMPDEST POP POP POP POP PUSH1 0x40 MLOAD RETURNDATASIZE PUSH1 0x1F NOT PUSH1 0x1F DUP3 ADD AND DUP3 ADD DUP1 PUSH1 0x40 MSTORE POP DUP2 ADD SWAP1 PUSH2 0x9BF SWAP2 SWAP1 PUSH2 0x1E14 JUMP JUMPDEST PUSH1 0x1 PUSH1 0x1 PUSH1 0xA0 SHL SUB AND PUSH4 0x5AD70D12 PUSH1 0x40 MLOAD DUP2 PUSH4 0xFFFFFFFF AND PUSH1 0xE0 SHL DUP2 MSTORE PUSH1 0x4 ADD PUSH1 0x20 PUSH1 0x40 MLOAD DUP1 DUP4 SUB DUP2 DUP7 GAS STATICCALL ISZERO DUP1 ISZERO PUSH2 0x9FC JUMPI RETURNDATASIZE PUSH1 0x0 DUP1 RETURNDATACOPY RETURNDATASIZE PUSH1 0x0 REVERT JUMPDEST POP POP POP POP PUSH1 0x40 MLOAD RETURNDATASIZE PUSH1 0x1F NOT PUSH1 0x1F DUP3 ADD AND DUP3 ADD DUP1 PUSH1 0x40 MSTORE POP DUP2 ADD SWAP1 PUSH2 0xA20 SWAP2 SWAP1 PUSH2 0x1F68 JUMP JUMPDEST PUSH2 0xA3C JUMPI PUSH1 0x40 MLOAD PUSH3 0x461BCD PUSH1 0xE5 SHL DUP2 MSTORE PUSH1 0x4 ADD PUSH2 0x308 SWAP1 PUSH2 0x1F85 JUMP JUMPDEST CALLER PUSH1 0x0 DUP2 DUP2 MSTORE PUSH1 0x2 PUSH1 0x20 SWAP1 DUP2 MSTORE PUSH1 0x40 DUP1 DUP4 KECCAK256 PUSH1 0x3 DUP1 DUP6 MSTORE SWAP3 MSTORE SWAP1 SWAP2 KECCAK256 SLOAD PUSH1 0xFF AND PUSH2 0xAB3 JUMPI PUSH1 0x40 MLOAD PUSH3 0x461BCD PUSH1 0xE5 SHL DUP2 MSTORE PUSH1 0x20 PUSH1 0x4 DUP3 ADD MSTORE PUSH1 0x22 PUSH1 0x24 DUP3 ADD MSTORE PUSH32 0x5065726D697373696F6E2064656E6965642C20696E737572616E6365206F6E6C PUSH1 0x44 DUP3 ADD MSTORE PUSH2 0x7921 PUSH1 0xF0 SHL PUSH1 0x64 DUP3 ADD MSTORE PUSH1 0x84 ADD PUSH2 0x308 JUMP JUMPDEST PUSH1 0x40 DUP1 MLOAD PUSH1 0x20 DUP1 DUP3 ADD SWAP1 SWAP3 MSTORE PUSH1 0x0 SWAP1 MSTORE DUP6 MLOAD SWAP1 DUP7 ADD KECCAK256 PUSH1 0x0 DUP1 MLOAD PUSH1 0x20 PUSH2 0x20F3 DUP4 CODECOPY DUP2 MLOAD SWAP2 MSTORE ADD PUSH2 0xB25 JUMPI PUSH1 0x40 MLOAD PUSH3 0x461BCD PUSH1 0xE5 SHL DUP2 MSTORE PUSH1 0x20 PUSH1 0x4 DUP3 ADD MSTORE PUSH1 0x19 PUSH1 0x24 DUP3 ADD MSTORE PUSH32 0x506C656173652070726F76696465206D6F726520696E666F7300000000000000 PUSH1 0x44 DUP3 ADD MSTORE PUSH1 0x64 ADD PUSH2 0x308 JUMP JUMPDEST PUSH1 0x0 PUSH2 0xB30 DUP8 PUSH2 0x448 JUMP JUMPDEST PUSH1 0x40 MLOAD PUSH4 0x134044A1 PUSH1 0xE0 SHL DUP2 MSTORE SWAP1 SWAP2 POP PUSH1 0x1 PUSH1 0x1 PUSH1 0xA0 SHL SUB DUP3 AND SWAP1 PUSH4 0x134044A1 SWAP1 PUSH2 0xB5F SWAP1 DUP10 SWAP1 PUSH1 0x4 ADD PUSH2 0x1B1F JUMP JUMPDEST PUSH1 0x0 PUSH1 0x40 MLOAD DUP1 DUP4 SUB DUP2 PUSH1 0x0 DUP8 DUP1 EXTCODESIZE ISZERO DUP1 ISZERO PUSH2 0xB79 JUMPI PUSH1 0x0 DUP1 REVERT JUMPDEST POP GAS CALL ISZERO DUP1 ISZERO PUSH2 0xB8D JUMPI RETURNDATASIZE PUSH1 0x0 DUP1 RETURNDATACOPY RETURNDATASIZE PUSH1 0x0 REVERT JUMPDEST POP POP POP POP POP POP POP POP POP POP POP JUMP JUMPDEST CALLER PUSH1 0x0 DUP2 DUP2 MSTORE PUSH1 0x2 PUSH1 0x20 SWAP1 DUP2 MSTORE PUSH1 0x40 DUP1 DUP4 KECCAK256 DUP4 DUP1 MSTORE SWAP1 SWAP2 MSTORE DUP2 KECCAK256 SLOAD PUSH1 0xFF AND PUSH2 0xBD4 JUMPI PUSH1 0x40 MLOAD PUSH3 0x461BCD PUSH1 0xE5 SHL DUP2 MSTORE PUSH1 0x4 ADD PUSH2 0x308 SWAP1 PUSH2 0x1FD2 JUMP JUMPDEST PUSH1 0x40 DUP1 MLOAD PUSH1 0x20 DUP1 DUP3 ADD SWAP1 SWAP3 MSTORE PUSH1 0x0 SWAP1 MSTORE DUP5 MLOAD SWAP1 DUP6 ADD KECCAK256 DUP5 SWAP1 PUSH1 0x0 DUP1 MLOAD PUSH1 0x20 PUSH2 0x20F3 DUP4 CODECOPY DUP2 MLOAD SWAP2 MSTORE ADD PUSH2 0xC18 JUMPI PUSH1 0x40 MLOAD PUSH3 0x461BCD PUSH1 0xE5 SHL DUP2 MSTORE PUSH1 0x4 ADD PUSH2 0x308 SWAP1 PUSH2 0x1C26 JUMP JUMPDEST PUSH1 0x40 DUP1 MLOAD PUSH1 0x20 DUP1 DUP3 ADD SWAP1 SWAP3 MSTORE PUSH1 0x0 SWAP1 MSTORE DUP5 MLOAD SWAP1 DUP6 ADD KECCAK256 PUSH1 0x0 DUP1 MLOAD PUSH1 0x20 PUSH2 0x20F3 DUP4 CODECOPY DUP2 MLOAD SWAP2 MSTORE ADD PUSH2 0xC5A JUMPI PUSH1 0x40 MLOAD PUSH3 0x461BCD PUSH1 0xE5 SHL DUP2 MSTORE PUSH1 0x4 ADD PUSH2 0x308 SWAP1 PUSH2 0x2020 JUMP JUMPDEST PUSH1 0x1 SLOAD PUSH1 0x40 MLOAD PUSH4 0x3DE4DE8F PUSH1 0xE0 SHL DUP2 MSTORE PUSH1 0x1 PUSH1 0x1 PUSH1 0xA0 SHL SUB SWAP1 SWAP2 AND SWAP1 PUSH4 0x3DE4DE8F SWAP1 PUSH2 0xC8C SWAP1 DUP9 SWAP1 DUP9 SWAP1 PUSH1 0x4 ADD PUSH2 0x2061 JUMP JUMPDEST PUSH1 0x0 PUSH1 0x40 MLOAD DUP1 DUP4 SUB DUP2 PUSH1 0x0 DUP8 DUP1 EXTCODESIZE ISZERO DUP1 ISZERO PUSH2 0x831 JUMPI PUSH1 0x0 DUP1 REVERT JUMPDEST PUSH1 0x40 DUP1 MLOAD PUSH1 0x20 DUP1 DUP3 ADD SWAP1 SWAP3 MSTORE PUSH1 0x0 SWAP1 MSTORE DUP3 MLOAD SWAP1 DUP4 ADD KECCAK256 DUP3 SWAP1 PUSH1 0x0 DUP1 MLOAD PUSH1 0x20 PUSH2 0x20F3 DUP4 CODECOPY DUP2 MLOAD SWAP2 MSTORE ADD PUSH2 0xCEA JUMPI PUSH1 0x40 MLOAD PUSH3 0x461BCD PUSH1 0xE5 SHL DUP2 MSTORE PUSH1 0x4 ADD PUSH2 0x308 SWAP1 PUSH2 0x1C26 JUMP JUMPDEST PUSH1 0x1 SLOAD PUSH1 0x40 MLOAD PUSH4 0x4B22DC91 PUSH1 0xE0 SHL DUP2 MSTORE DUP5 SWAP2 PUSH1 0x1 PUSH1 0x1 PUSH1 0xA0 SHL SUB AND SWAP1 PUSH4 0x4B22DC91 SWAP1 PUSH2 0xD1A SWAP1 DUP5 SWAP1 PUSH1 0x4 ADD PUSH2 0x1B1F JUMP JUMPDEST PUSH1 0x20 PUSH1 0x40 MLOAD DUP1 DUP4 SUB DUP2 DUP7 GAS STATICCALL ISZERO DUP1 ISZERO PUSH2 0xD37 JUMPI RETURNDATASIZE PUSH1 0x0 DUP1 RETURNDATACOPY RETURNDATASIZE PUSH1 0x0 REVERT JUMPDEST POP POP POP POP PUSH1 0x40 MLOAD RETURNDATASIZE PUSH1 0x1F NOT PUSH1 0x1F DUP3 ADD AND DUP3 ADD DUP1 PUSH1 0x40 MSTORE POP DUP2 ADD SWAP1 PUSH2 0xD5B SWAP2 SWAP1 PUSH2 0x1E14 JUMP JUMPDEST PUSH1 0x1 PUSH1 0x1 PUSH1 0xA0 SHL SUB AND PUSH4 0x5AD70D12 PUSH1 0x40 MLOAD DUP2 PUSH4 0xFFFFFFFF AND PUSH1 0xE0 SHL DUP2 MSTORE PUSH1 0x4 ADD PUSH1 0x20 PUSH1 0x40 MLOAD DUP1 DUP4 SUB DUP2 DUP7 GAS STATICCALL ISZERO DUP1 ISZERO PUSH2 0xD98 JUMPI RETURNDATASIZE PUSH1 0x0 DUP1 RETURNDATACOPY RETURNDATASIZE PUSH1 0x0 REVERT JUMPDEST POP POP POP POP PUSH1 0x40 MLOAD RETURNDATASIZE PUSH1 0x1F NOT PUSH1 0x1F DUP3 ADD AND DUP3 ADD DUP1 PUSH1 0x40 MSTORE POP DUP2 ADD SWAP1 PUSH2 0xDBC SWAP2 SWAP1 PUSH2 0x1F68 JUMP JUMPDEST PUSH2 0xDD8 JUMPI PUSH1 0x40 MLOAD PUSH3 0x461BCD PUSH1 0xE5 SHL DUP2 MSTORE PUSH1 0x4 ADD PUSH2 0x308 SWAP1 PUSH2 0x1F85 JUMP JUMPDEST PUSH1 0x0 SLOAD PUSH1 0x1 PUSH1 0x1 PUSH1 0xA0 SHL SUB AND CALLER EQ PUSH2 0xE02 JUMPI PUSH1 0x40 MLOAD PUSH3 0x461BCD PUSH1 0xE5 SHL DUP2 MSTORE PUSH1 0x4 ADD PUSH2 0x308 SWAP1 PUSH2 0x2086 JUMP JUMPDEST PUSH2 0xE0B DUP5 PUSH2 0x448 JUMP JUMPDEST PUSH1 0x1 PUSH1 0x1 PUSH1 0xA0 SHL SUB AND PUSH4 0x457CF35B DUP5 PUSH1 0x40 MLOAD DUP3 PUSH4 0xFFFFFFFF AND PUSH1 0xE0 SHL DUP2 MSTORE PUSH1 0x4 ADD PUSH2 0xE36 SWAP2 SWAP1 PUSH2 0x1B1F JUMP JUMPDEST PUSH1 0x0 PUSH1 0x40 MLOAD DUP1 DUP4 SUB DUP2 PUSH1 0x0 DUP8 DUP1 EXTCODESIZE ISZERO DUP1 ISZERO PUSH2 0xE50 JUMPI PUSH1 0x0 DUP1 REVERT JUMPDEST POP GAS CALL ISZERO DUP1 ISZERO PUSH2 0xE64 JUMPI RETURNDATASIZE PUSH1 0x0 DUP1 RETURNDATACOPY RETURNDATASIZE PUSH1 0x0 REVERT JUMPDEST POP POP POP POP POP POP POP POP JUMP JUMPDEST PUSH1 0x40 DUP1 MLOAD PUSH1 0x20 DUP1 DUP3 ADD SWAP1 SWAP3 MSTORE PUSH1 0x0 SWAP1 MSTORE DUP2 MLOAD SWAP1 DUP3 ADD KECCAK256 PUSH1 0x60 SWAP1 DUP3 SWAP1 PUSH1 0x0 DUP1 MLOAD PUSH1 0x20 PUSH2 0x20F3 DUP4 CODECOPY DUP2 MLOAD SWAP2 MSTORE ADD PUSH2 0xEB5 JUMPI PUSH1 0x40 MLOAD PUSH3 0x461BCD PUSH1 0xE5 SHL DUP2 MSTORE PUSH1 0x4 ADD PUSH2 0x308 SWAP1 PUSH2 0x1C26 JUMP JUMPDEST PUSH1 0x0 PUSH2 0xEC0 DUP5 PUSH2 0x448 JUMP JUMPDEST SWAP1 POP DUP1 PUSH1 0x1 PUSH1 0x1 PUSH1 0xA0 SHL SUB AND PUSH4 0xBD51B8E0 PUSH1 0x40 MLOAD DUP2 PUSH4 0xFFFFFFFF AND PUSH1 0xE0 SHL DUP2 MSTORE PUSH1 0x4 ADD PUSH1 0x0 PUSH1 0x40 MLOAD DUP1 DUP4 SUB DUP2 DUP7 GAS STATICCALL ISZERO DUP1 ISZERO PUSH2 0x418 JUMPI RETURNDATASIZE PUSH1 0x0 DUP1 RETURNDATACOPY RETURNDATASIZE PUSH1 0x0 REVERT JUMPDEST PUSH1 0x0 DUP1 SLOAD PUSH1 0x1 PUSH1 0x1 PUSH1 0xA0 SHL SUB AND CALLER EQ PUSH2 0xF2B JUMPI PUSH1 0x40 MLOAD PUSH3 0x461BCD PUSH1 0xE5 SHL DUP2 MSTORE PUSH1 0x4 ADD PUSH2 0x308 SWAP1 PUSH2 0x2086 JUMP JUMPDEST PUSH1 0x1 PUSH1 0x1 PUSH1 0xA0 SHL SUB DUP4 AND PUSH1 0x0 SWAP1 DUP2 MSTORE PUSH1 0x2 PUSH1 0x20 MSTORE PUSH1 0x40 DUP2 KECCAK256 SWAP1 DUP4 PUSH1 0x3 DUP2 GT ISZERO PUSH2 0xF56 JUMPI PUSH2 0xF56 PUSH2 0x1FBC JUMP JUMPDEST PUSH1 0x3 DUP2 GT ISZERO PUSH2 0xF67 JUMPI PUSH2 0xF67 PUSH2 0x1FBC JUMP JUMPDEST DUP2 MSTORE PUSH1 0x20 DUP2 ADD SWAP2 SWAP1 SWAP2 MSTORE PUSH1 0x40 ADD PUSH1 0x0 KECCAK256 SLOAD PUSH1 0xFF AND SWAP4 SWAP3 POP POP POP JUMP JUMPDEST PUSH1 0x40 DUP1 MLOAD PUSH1 0x20 DUP1 DUP3 ADD SWAP1 SWAP3 MSTORE PUSH1 0x0 SWAP1 MSTORE DUP3 MLOAD SWAP1 DUP4 ADD KECCAK256 DUP3 SWAP1 PUSH1 0x0 DUP1 MLOAD PUSH1 0x20 PUSH2 0x20F3 DUP4 CODECOPY DUP2 MLOAD SWAP2 MSTORE ADD PUSH2 0xFC6 JUMPI PUSH1 0x40 MLOAD PUSH3 0x461BCD PUSH1 0xE5 SHL DUP2 MSTORE PUSH1 0x4 ADD PUSH2 0x308 SWAP1 PUSH2 0x1C26 JUMP JUMPDEST PUSH1 0x1 SLOAD PUSH1 0x40 MLOAD PUSH4 0x4B22DC91 PUSH1 0xE0 SHL DUP2 MSTORE DUP5 SWAP2 PUSH1 0x1 PUSH1 0x1 PUSH1 0xA0 SHL SUB AND SWAP1 PUSH4 0x4B22DC91 SWAP1 PUSH2 0xFF6 SWAP1 DUP5 SWAP1 PUSH1 0x4 ADD PUSH2 0x1B1F JUMP JUMPDEST PUSH1 0x20 PUSH1 0x40 MLOAD DUP1 DUP4 SUB DUP2 DUP7 GAS STATICCALL ISZERO DUP1 ISZERO PUSH2 0x1013 JUMPI RETURNDATASIZE PUSH1 0x0 DUP1 RETURNDATACOPY RETURNDATASIZE PUSH1 0x0 REVERT JUMPDEST POP POP POP POP PUSH1 0x40 MLOAD RETURNDATASIZE PUSH1 0x1F NOT PUSH1 0x1F DUP3 ADD AND DUP3 ADD DUP1 PUSH1 0x40 MSTORE POP DUP2 ADD SWAP1 PUSH2 0x1037 SWAP2 SWAP1 PUSH2 0x1E14 JUMP JUMPDEST PUSH1 0x1 PUSH1 0x1 PUSH1 0xA0 SHL SUB AND PUSH4 0x5AD70D12 PUSH1 0x40 MLOAD DUP2 PUSH4 0xFFFFFFFF AND PUSH1 0xE0 SHL DUP2 MSTORE PUSH1 0x4 ADD PUSH1 0x20 PUSH1 0x40 MLOAD DUP1 DUP4 SUB DUP2 DUP7 GAS STATICCALL ISZERO DUP1 ISZERO PUSH2 0x1074 JUMPI RETURNDATASIZE PUSH1 0x0 DUP1 RETURNDATACOPY RETURNDATASIZE PUSH1 0x0 REVERT JUMPDEST POP POP POP POP PUSH1 0x40 MLOAD RETURNDATASIZE PUSH1 0x1F NOT PUSH1 0x1F DUP3 ADD AND DUP3 ADD DUP1 PUSH1 0x40 MSTORE POP DUP2 ADD SWAP1 PUSH2 0x1098 SWAP2 SWAP1 PUSH2 0x1F68 JUMP JUMPDEST PUSH2 0x10B4 JUMPI PUSH1 0x40 MLOAD PUSH3 0x461BCD PUSH1 0xE5 SHL DUP2 MSTORE PUSH1 0x4 ADD PUSH2 0x308 SWAP1 PUSH2 0x1F85 JUMP JUMPDEST CALLER PUSH1 0x0 DUP2 DUP2 MSTORE PUSH1 0x2 PUSH1 0x20 DUP2 DUP2 MSTORE PUSH1 0x40 DUP1 DUP5 KECCAK256 DUP4 DUP6 MSTORE SWAP1 SWAP2 MSTORE SWAP1 SWAP2 KECCAK256 SLOAD PUSH1 0xFF AND PUSH2 0x111F JUMPI PUSH1 0x40 MLOAD PUSH3 0x461BCD PUSH1 0xE5 SHL DUP2 MSTORE PUSH1 0x20 PUSH1 0x4 DUP3 ADD MSTORE PUSH1 0x1F PUSH1 0x24 DUP3 ADD MSTORE PUSH32 0x5065726D697373696F6E2064656E6965642C2063656E746572206F6E6C792100 PUSH1 0x44 DUP3 ADD MSTORE PUSH1 0x64 ADD PUSH2 0x308 JUMP JUMPDEST PUSH1 0x40 DUP1 MLOAD PUSH1 0x20 DUP1 DUP3 ADD SWAP1 SWAP3 MSTORE PUSH1 0x0 SWAP1 MSTORE DUP6 MLOAD SWAP1 DUP7 ADD KECCAK256 PUSH1 0x0 DUP1 MLOAD PUSH1 0x20 PUSH2 0x20F3 DUP4 CODECOPY DUP2 MLOAD SWAP2 MSTORE ADD PUSH2 0x1191 JUMPI PUSH1 0x40 MLOAD PUSH3 0x461BCD PUSH1 0xE5 SHL DUP2 MSTORE PUSH1 0x20 PUSH1 0x4 DUP3 ADD MSTORE PUSH1 0x1F PUSH1 0x24 DUP3 ADD MSTORE PUSH32 0x506C656173652070726F76696465206120636F7272656374207265706F727400 PUSH1 0x44 DUP3 ADD MSTORE PUSH1 0x64 ADD PUSH2 0x308 JUMP JUMPDEST PUSH1 0x0 PUSH2 0x119C DUP8 PUSH2 0x448 JUMP JUMPDEST PUSH1 0x40 MLOAD PUSH4 0x2BE527F3 PUSH1 0xE1 SHL DUP2 MSTORE SWAP1 SWAP2 POP PUSH1 0x1 PUSH1 0x1 PUSH1 0xA0 SHL SUB DUP3 AND SWAP1 PUSH4 0x57CA4FE6 SWAP1 PUSH2 0xB5F SWAP1 DUP10 SWAP1 PUSH1 0x4 ADD PUSH2 0x1B1F JUMP JUMPDEST PUSH1 0x40 DUP1 MLOAD PUSH1 0x20 DUP1 DUP3 ADD SWAP1 SWAP3 MSTORE PUSH1 0x0 SWAP1 MSTORE DUP2 MLOAD SWAP1 DUP3 ADD KECCAK256 PUSH1 0x60 SWAP1 DUP3 SWAP1 PUSH1 0x0 DUP1 MLOAD PUSH1 0x20 PUSH2 0x20F3 DUP4 CODECOPY DUP2 MLOAD SWAP2 MSTORE ADD PUSH2 0x1212 JUMPI PUSH1 0x40 MLOAD PUSH3 0x461BCD PUSH1 0xE5 SHL DUP2 MSTORE PUSH1 0x4 ADD PUSH2 0x308 SWAP1 PUSH2 0x1C26 JUMP JUMPDEST PUSH2 0x121B DUP4 PUSH2 0x448 JUMP JUMPDEST PUSH1 0x1 PUSH1 0x1 PUSH1 0xA0 SHL SUB AND PUSH4 0x888DBBC1 PUSH1 0x40 MLOAD DUP2 PUSH4 0xFFFFFFFF AND PUSH1 0xE0 SHL DUP2 MSTORE PUSH1 0x4 ADD PUSH1 0x0 PUSH1 0x40 MLOAD DUP1 DUP4 SUB DUP2 DUP7 GAS STATICCALL ISZERO DUP1 ISZERO PUSH2 0x65A JUMPI RETURNDATASIZE PUSH1 0x0 DUP1 RETURNDATACOPY RETURNDATASIZE PUSH1 0x0 REVERT JUMPDEST PUSH1 0x40 DUP1 MLOAD PUSH1 0x20 DUP1 DUP3 ADD SWAP1 SWAP3 MSTORE PUSH1 0x0 SWAP1 MSTORE DUP2 MLOAD SWAP1 DUP3 ADD KECCAK256 PUSH1 0x60 SWAP1 DUP3 SWAP1 PUSH1 0x0 DUP1 MLOAD PUSH1 0x20 PUSH2 0x20F3 DUP4 CODECOPY DUP2 MLOAD SWAP2 MSTORE ADD PUSH2 0x129F JUMPI PUSH1 0x40 MLOAD PUSH3 0x461BCD PUSH1 0xE5 SHL DUP2 MSTORE PUSH1 0x4 ADD PUSH2 0x308 SWAP1 PUSH2 0x1C26 JUMP JUMPDEST PUSH1 0x0 PUSH2 0x12AA DUP5 PUSH2 0x448 JUMP JUMPDEST SWAP1 POP DUP1 PUSH1 0x1 PUSH1 0x1 PUSH1 0xA0 SHL SUB AND PUSH4 0x643D6DC0 PUSH1 0x40 MLOAD DUP2 PUSH4 0xFFFFFFFF AND PUSH1 0xE0 SHL DUP2 MSTORE PUSH1 0x4 ADD PUSH1 0x0 PUSH1 0x40 MLOAD DUP1 DUP4 SUB DUP2 DUP7 GAS STATICCALL ISZERO DUP1 ISZERO PUSH2 0x12EA JUMPI RETURNDATASIZE PUSH1 0x0 DUP1 RETURNDATACOPY RETURNDATASIZE PUSH1 0x0 REVERT JUMPDEST POP POP POP POP PUSH1 0x40 MLOAD RETURNDATASIZE PUSH1 0x0 DUP3 RETURNDATACOPY PUSH1 0x1F RETURNDATASIZE SWAP1 DUP2 ADD PUSH1 0x1F NOT AND DUP3 ADD PUSH1 0x40 MSTORE PUSH2 0x440 SWAP2 SWAP1 DUP2 ADD SWAP1 PUSH2 0x20BD JUMP JUMPDEST PUSH1 0x40 DUP1 MLOAD PUSH1 0x20 DUP1 DUP3 ADD SWAP1 SWAP3 MSTORE PUSH1 0x0 SWAP1 MSTORE DUP5 MLOAD SWAP1 DUP6 ADD KECCAK256 DUP5 SWAP1 PUSH1 0x0 DUP1 MLOAD PUSH1 0x20 PUSH2 0x20F3 DUP4 CODECOPY DUP2 MLOAD SWAP2 MSTORE ADD PUSH2 0x1356 JUMPI PUSH1 0x40 MLOAD PUSH3 0x461BCD PUSH1 0xE5 SHL DUP2 MSTORE PUSH1 0x4 ADD PUSH2 0x308 SWAP1 PUSH2 0x1C26 JUMP JUMPDEST PUSH1 0x1 SLOAD PUSH1 0x40 MLOAD PUSH4 0x4B22DC91 PUSH1 0xE0 SHL DUP2 MSTORE DUP7 SWAP2 PUSH1 0x1 PUSH1 0x1 PUSH1 0xA0 SHL SUB AND SWAP1 PUSH4 0x4B22DC91 SWAP1 PUSH2 0x1386 SWAP1 DUP5 SWAP1 PUSH1 0x4 ADD PUSH2 0x1B1F JUMP JUMPDEST PUSH1 0x20 PUSH1 0x40 MLOAD DUP1 DUP4 SUB DUP2 DUP7 GAS STATICCALL ISZERO DUP1 ISZERO PUSH2 0x13A3 JUMPI RETURNDATASIZE PUSH1 0x0 DUP1 RETURNDATACOPY RETURNDATASIZE PUSH1 0x0 REVERT JUMPDEST POP POP POP POP PUSH1 0x40 MLOAD RETURNDATASIZE PUSH1 0x1F NOT PUSH1 0x1F DUP3 ADD AND DUP3 ADD DUP1 PUSH1 0x40 MSTORE POP DUP2 ADD SWAP1 PUSH2 0x13C7 SWAP2 SWAP1 PUSH2 0x1E14 JUMP JUMPDEST PUSH1 0x1 PUSH1 0x1 PUSH1 0xA0 SHL SUB AND PUSH4 0x5AD70D12 PUSH1 0x40 MLOAD DUP2 PUSH4 0xFFFFFFFF AND PUSH1 0xE0 SHL DUP2 MSTORE PUSH1 0x4 ADD PUSH1 0x20 PUSH1 0x40 MLOAD DUP1 DUP4 SUB DUP2 DUP7 GAS STATICCALL ISZERO DUP1 ISZERO PUSH2 0x1404 JUMPI RETURNDATASIZE PUSH1 0x0 DUP1 RETURNDATACOPY RETURNDATASIZE PUSH1 0x0 REVERT JUMPDEST POP POP POP POP PUSH1 0x40 MLOAD RETURNDATASIZE PUSH1 0x1F NOT PUSH1 0x1F DUP3 ADD AND DUP3 ADD DUP1 PUSH1 0x40 MSTORE POP DUP2 ADD SWAP1 PUSH2 0x1428 SWAP2 SWAP1 PUSH2 0x1F68 JUMP JUMPDEST PUSH2 0x1444 JUMPI PUSH1 0x40 MLOAD PUSH3 0x461BCD PUSH1 0xE5 SHL DUP2 MSTORE PUSH1 0x4 ADD PUSH2 0x308 SWAP1 PUSH2 0x1F85 JUMP JUMPDEST CALLER PUSH1 0x0 DUP2 DUP2 MSTORE PUSH1 0x2 PUSH1 0x20 SWAP1 DUP2 MSTORE PUSH1 0x40 DUP1 DUP4 KECCAK256 PUSH1 0x1 DUP1 DUP6 MSTORE SWAP3 MSTORE SWAP1 SWAP2 KECCAK256 SLOAD PUSH1 0xFF AND PUSH2 0x14C1 JUMPI PUSH1 0x40 MLOAD PUSH3 0x461BCD PUSH1 0xE5 SHL DUP2 MSTORE PUSH1 0x20 PUSH1 0x4 DUP3 ADD MSTORE PUSH1 0x28 PUSH1 0x24 DUP3 ADD MSTORE PUSH32 0x596F7520646F6E27742068617665207468652070726576696C65646765732C20 PUSH1 0x44 DUP3 ADD MSTORE PUSH8 0x61626F7274696E67 PUSH1 0xC0 SHL PUSH1 0x64 DUP3 ADD MSTORE PUSH1 0x84 ADD PUSH2 0x308 JUMP JUMPDEST PUSH1 0x1 PUSH1 0x1 PUSH1 0xA0 SHL SUB DUP8 AND PUSH2 0x14E7 JUMPI PUSH1 0x40 MLOAD PUSH3 0x461BCD PUSH1 0xE5 SHL DUP2 MSTORE PUSH1 0x4 ADD PUSH2 0x308 SWAP1 PUSH2 0x2020 JUMP JUMPDEST PUSH1 0x40 DUP1 MLOAD PUSH1 0x20 DUP1 DUP3 ADD SWAP1 SWAP3 MSTORE PUSH1 0x0 SWAP1 MSTORE DUP7 MLOAD SWAP1 DUP8 ADD KECCAK256 PUSH1 0x0 DUP1 MLOAD PUSH1 0x20 PUSH2 0x20F3 DUP4 CODECOPY DUP2 MLOAD SWAP2 MSTORE ADD PUSH2 0x156B JUMPI PUSH1 0x40 MLOAD PUSH3 0x461BCD PUSH1 0xE5 SHL DUP2 MSTORE PUSH1 0x20 PUSH1 0x4 DUP3 ADD MSTORE PUSH1 0x29 PUSH1 0x24 DUP3 ADD MSTORE PUSH32 0x506C656173652066696C6C20746865207472616E73616374696F6E20696E666F PUSH1 0x44 DUP3 ADD MSTORE PUSH9 0x399039B2B1BA34B7B7 PUSH1 0xB9 SHL PUSH1 0x64 DUP3 ADD MSTORE PUSH1 0x84 ADD PUSH2 0x308 JUMP JUMPDEST PUSH1 0x40 DUP1 MLOAD PUSH1 0x20 DUP1 DUP3 ADD SWAP1 SWAP3 MSTORE PUSH1 0x0 SWAP1 MSTORE DUP6 MLOAD SWAP1 DUP7 ADD KECCAK256 PUSH1 0x0 DUP1 MLOAD PUSH1 0x20 PUSH2 0x20F3 DUP4 CODECOPY DUP2 MLOAD SWAP2 MSTORE ADD PUSH2 0x15EF JUMPI PUSH1 0x40 MLOAD PUSH3 0x461BCD PUSH1 0xE5 SHL DUP2 MSTORE PUSH1 0x20 PUSH1 0x4 DUP3 ADD MSTORE PUSH1 0x29 PUSH1 0x24 DUP3 ADD MSTORE PUSH32 0x546865206D6174726963756C6174696F6E2073656374696F6E2063616E6E6F74 PUSH1 0x44 DUP3 ADD MSTORE PUSH9 0x20626520626C616E6B PUSH1 0xB8 SHL PUSH1 0x64 DUP3 ADD MSTORE PUSH1 0x84 ADD PUSH2 0x308 JUMP JUMPDEST PUSH1 0x0 PUSH2 0x15FA DUP10 PUSH2 0x448 JUMP JUMPDEST PUSH1 0x40 MLOAD PUSH4 0x13AF4035 PUSH1 0xE0 SHL DUP2 MSTORE PUSH1 0x1 PUSH1 0x1 PUSH1 0xA0 SHL SUB DUP11 DUP2 AND PUSH1 0x4 DUP4 ADD MSTORE SWAP2 SWAP3 POP SWAP1 DUP3 AND SWAP1 PUSH4 0x13AF4035 SWAP1 PUSH1 0x24 ADD PUSH1 0x0 PUSH1 0x40 MLOAD DUP1 DUP4 SUB DUP2 PUSH1 0x0 DUP8 DUP1 EXTCODESIZE ISZERO DUP1 ISZERO PUSH2 0x1641 JUMPI PUSH1 0x0 DUP1 REVERT JUMPDEST POP GAS CALL ISZERO DUP1 ISZERO PUSH2 0x1655 JUMPI RETURNDATASIZE PUSH1 0x0 DUP1 RETURNDATACOPY RETURNDATASIZE PUSH1 0x0 REVERT JUMPDEST POP POP PUSH1 0x40 MLOAD PUSH4 0x7A64F113 PUSH1 0xE0 SHL DUP2 MSTORE PUSH1 0x1 PUSH1 0x1 PUSH1 0xA0 SHL SUB DUP5 AND SWAP3 POP PUSH4 0x7A64F113 SWAP2 POP PUSH2 0x1685 SWAP1 DUP11 SWAP1 PUSH1 0x4 ADD PUSH2 0x1B1F JUMP JUMPDEST PUSH1 0x0 PUSH1 0x40 MLOAD DUP1 DUP4 SUB DUP2 PUSH1 0x0 DUP8 DUP1 EXTCODESIZE ISZERO DUP1 ISZERO PUSH2 0x169F JUMPI PUSH1 0x0 DUP1 REVERT JUMPDEST POP GAS CALL ISZERO DUP1 ISZERO PUSH2 0x16B3 JUMPI RETURNDATASIZE PUSH1 0x0 DUP1 RETURNDATACOPY RETURNDATASIZE PUSH1 0x0 REVERT JUMPDEST POP POP PUSH1 0x40 MLOAD PUSH4 0x2E8B71D3 PUSH1 0xE0 SHL DUP2 MSTORE PUSH1 0x1 PUSH1 0x1 PUSH1 0xA0 SHL SUB DUP5 AND SWAP3 POP PUSH4 0x2E8B71D3 SWAP2 POP PUSH2 0x16E3 SWAP1 DUP10 SWAP1 PUSH1 0x4 ADD PUSH2 0x1B1F JUMP JUMPDEST PUSH1 0x0 PUSH1 0x40 MLOAD DUP1 DUP4 SUB DUP2 PUSH1 0x0 DUP8 DUP1 EXTCODESIZE ISZERO DUP1 ISZERO PUSH2 0x16FD JUMPI PUSH1 0x0 DUP1 REVERT JUMPDEST POP GAS CALL ISZERO DUP1 ISZERO PUSH2 0x1711 JUMPI RETURNDATASIZE PUSH1 0x0 DUP1 RETURNDATACOPY RETURNDATASIZE PUSH1 0x0 REVERT JUMPDEST POP POP POP POP POP POP POP POP POP POP POP POP POP JUMP JUMPDEST PUSH1 0x0 SLOAD PUSH1 0x1 PUSH1 0x1 PUSH1 0xA0 SHL SUB AND CALLER EQ PUSH2 0x174A JUMPI PUSH1 0x40 MLOAD PUSH3 0x461BCD PUSH1 0xE5 SHL DUP2 MSTORE PUSH1 0x4 ADD PUSH2 0x308 SWAP1 PUSH2 0x2086 JUMP JUMPDEST PUSH1 0x1 PUSH1 0x1 PUSH1 0xA0 SHL SUB DUP4 AND PUSH1 0x0 SWAP1 DUP2 MSTORE PUSH1 0x2 PUSH1 0x20 MSTORE PUSH1 0x40 DUP2 KECCAK256 DUP3 SWAP2 DUP5 PUSH1 0x3 DUP2 GT ISZERO PUSH2 0x1776 JUMPI PUSH2 0x1776 PUSH2 0x1FBC JUMP JUMPDEST PUSH1 0x3 DUP2 GT ISZERO PUSH2 0x1787 JUMPI PUSH2 0x1787 PUSH2 0x1FBC JUMP JUMPDEST DUP2 MSTORE PUSH1 0x20 DUP2 ADD SWAP2 SWAP1 SWAP2 MSTORE PUSH1 0x40 ADD PUSH1 0x0 KECCAK256 DUP1 SLOAD PUSH1 0xFF NOT AND SWAP2 ISZERO ISZERO SWAP2 SWAP1 SWAP2 OR SWAP1 SSTORE POP POP POP JUMP JUMPDEST PUSH4 0x4E487B71 PUSH1 0xE0 SHL PUSH1 0x0 MSTORE PUSH1 0x41 PUSH1 0x4 MSTORE PUSH1 0x24 PUSH1 0x0 REVERT JUMPDEST PUSH1 0x40 MLOAD PUSH1 0x1F DUP3 ADD PUSH1 0x1F NOT AND DUP2 ADD PUSH8 0xFFFFFFFFFFFFFFFF DUP2 GT DUP3 DUP3 LT OR ISZERO PUSH2 0x17EA JUMPI PUSH2 0x17EA PUSH2 0x17AB JUMP JUMPDEST PUSH1 0x40 MSTORE SWAP2 SWAP1 POP JUMP JUMPDEST PUSH1 0x0 PUSH8 0xFFFFFFFFFFFFFFFF DUP3 GT ISZERO PUSH2 0x180C JUMPI PUSH2 0x180C PUSH2 0x17AB JUMP JUMPDEST POP PUSH1 0x1F ADD PUSH1 0x1F NOT AND PUSH1 0x20 ADD SWAP1 JUMP JUMPDEST PUSH1 0x0 DUP3 PUSH1 0x1F DUP4 ADD SLT PUSH2 0x182B JUMPI PUSH1 0x0 DUP1 REVERT JUMPDEST DUP2 CALLDATALOAD PUSH2 0x183E PUSH2 0x1839 DUP3 PUSH2 0x17F2 JUMP JUMPDEST PUSH2 0x17C1 JUMP JUMPDEST DUP2 DUP2 MSTORE DUP5 PUSH1 0x20 DUP4 DUP7 ADD ADD GT ISZERO PUSH2 0x1853 JUMPI PUSH1 0x0 DUP1 REVERT JUMPDEST DUP2 PUSH1 0x20 DUP6 ADD PUSH1 0x20 DUP4 ADD CALLDATACOPY PUSH1 0x0 SWAP2 DUP2 ADD PUSH1 0x20 ADD SWAP2 SWAP1 SWAP2 MSTORE SWAP4 SWAP3 POP POP POP JUMP JUMPDEST PUSH1 0x0 PUSH1 0x20 DUP3 DUP5 SUB SLT ISZERO PUSH2 0x1882 JUMPI PUSH1 0x0 DUP1 REVERT JUMPDEST DUP2 CALLDATALOAD PUSH8 0xFFFFFFFFFFFFFFFF DUP2 GT ISZERO PUSH2 0x1899 JUMPI PUSH1 0x0 DUP1 REVERT JUMPDEST PUSH2 0x440 DUP5 DUP3 DUP6 ADD PUSH2 0x181A JUMP JUMPDEST PUSH1 0x0 DUP2 MLOAD DUP1 DUP5 MSTORE PUSH1 0x20 DUP1 DUP6 ADD SWAP5 POP DUP1 DUP5 ADD PUSH1 0x0 JUMPDEST DUP4 DUP2 LT ISZERO PUSH2 0x18DE JUMPI DUP2 MLOAD PUSH1 0x1 PUSH1 0x1 PUSH1 0xA0 SHL SUB AND DUP8 MSTORE SWAP6 DUP3 ADD SWAP6 SWAP1 DUP3 ADD SWAP1 PUSH1 0x1 ADD PUSH2 0x18B9 JUMP JUMPDEST POP SWAP5 SWAP6 SWAP5 POP POP POP POP POP JUMP JUMPDEST PUSH1 0x20 DUP2 MSTORE PUSH1 0x0 PUSH2 0x37F PUSH1 0x20 DUP4 ADD DUP5 PUSH2 0x18A5 JUMP JUMPDEST PUSH1 0x0 JUMPDEST DUP4 DUP2 LT ISZERO PUSH2 0x1917 JUMPI DUP2 DUP2 ADD MLOAD DUP4 DUP3 ADD MSTORE PUSH1 0x20 ADD PUSH2 0x18FF JUMP JUMPDEST POP POP PUSH1 0x0 SWAP2 ADD MSTORE JUMP JUMPDEST PUSH1 0x0 DUP2 MLOAD DUP1 DUP5 MSTORE PUSH2 0x1938 DUP2 PUSH1 0x20 DUP7 ADD PUSH1 0x20 DUP7 ADD PUSH2 0x18FC JUMP JUMPDEST PUSH1 0x1F ADD PUSH1 0x1F NOT AND SWAP3 SWAP1 SWAP3 ADD PUSH1 0x20 ADD SWAP3 SWAP2 POP POP JUMP JUMPDEST PUSH1 0x0 DUP3 DUP3 MLOAD DUP1 DUP6 MSTORE PUSH1 0x20 DUP1 DUP7 ADD SWAP6 POP DUP1 DUP3 PUSH1 0x5 SHL DUP5 ADD ADD DUP2 DUP7 ADD PUSH1 0x0 JUMPDEST DUP5 DUP2 LT ISZERO PUSH2 0x1997 JUMPI PUSH1 0x1F NOT DUP7 DUP5 SUB ADD DUP10 MSTORE PUSH2 0x1985 DUP4 DUP4 MLOAD PUSH2 0x1920 JUMP JUMPDEST SWAP9 DUP5 ADD SWAP9 SWAP3 POP SWAP1 DUP4 ADD SWAP1 PUSH1 0x1 ADD PUSH2 0x1969 JUMP JUMPDEST POP SWAP1 SWAP8 SWAP7 POP POP POP POP POP POP POP JUMP JUMPDEST PUSH1 0x20 DUP2 MSTORE PUSH1 0x0 PUSH2 0x37F PUSH1 0x20 DUP4 ADD DUP5 PUSH2 0x194C JUMP JUMPDEST PUSH1 0x0 PUSH2 0x100 DUP11 ISZERO ISZERO DUP4 MSTORE DUP1 PUSH1 0x20 DUP5 ADD MSTORE PUSH2 0x19D3 DUP2 DUP5 ADD DUP12 PUSH2 0x1920 JUMP JUMPDEST SWAP1 POP DUP3 DUP2 SUB PUSH1 0x40 DUP5 ADD MSTORE PUSH2 0x19E7 DUP2 DUP11 PUSH2 0x194C JUMP JUMPDEST SWAP1 POP DUP3 DUP2 SUB PUSH1 0x60 DUP5 ADD MSTORE PUSH2 0x19FB DUP2 DUP10 PUSH2 0x18A5 JUMP JUMPDEST SWAP1 POP DUP3 DUP2 SUB PUSH1 0x80 DUP5 ADD MSTORE PUSH2 0x1A0F DUP2 DUP9 PUSH2 0x194C JUMP JUMPDEST SWAP1 POP DUP3 DUP2 SUB PUSH1 0xA0 DUP5 ADD MSTORE PUSH2 0x1A23 DUP2 DUP8 PUSH2 0x194C JUMP JUMPDEST SWAP1 POP DUP3 DUP2 SUB PUSH1 0xC0 DUP5 ADD MSTORE PUSH2 0x1A37 DUP2 DUP7 PUSH2 0x194C JUMP JUMPDEST SWAP1 POP DUP3 DUP2 SUB PUSH1 0xE0 DUP5 ADD MSTORE PUSH2 0x1A4B DUP2 DUP6 PUSH2 0x194C JUMP JUMPDEST SWAP12 SWAP11 POP POP POP POP POP POP POP POP POP POP POP JUMP JUMPDEST PUSH1 0x0 DUP1 PUSH1 0x40 DUP4 DUP6 SUB SLT ISZERO PUSH2 0x1A6D JUMPI PUSH1 0x0 DUP1 REVERT JUMPDEST DUP3 CALLDATALOAD PUSH8 0xFFFFFFFFFFFFFFFF DUP1 DUP3 GT ISZERO PUSH2 0x1A85 JUMPI PUSH1 0x0 DUP1 REVERT JUMPDEST PUSH2 0x1A91 DUP7 DUP4 DUP8 ADD PUSH2 0x181A JUMP JUMPDEST SWAP4 POP PUSH1 0x20 DUP6 ADD CALLDATALOAD SWAP2 POP DUP1 DUP3 GT ISZERO PUSH2 0x1AA7 JUMPI PUSH1 0x0 DUP1 REVERT JUMPDEST POP PUSH2 0x1AB4 DUP6 DUP3 DUP7 ADD PUSH2 0x181A JUMP JUMPDEST SWAP2 POP POP SWAP3 POP SWAP3 SWAP1 POP JUMP JUMPDEST PUSH1 0x1 PUSH1 0x1 PUSH1 0xA0 SHL SUB DUP2 AND DUP2 EQ PUSH2 0x1AD3 JUMPI PUSH1 0x0 DUP1 REVERT JUMPDEST POP JUMP JUMPDEST DUP1 CALLDATALOAD PUSH1 0x4 DUP2 LT PUSH2 0x1AE5 JUMPI PUSH1 0x0 DUP1 REVERT JUMPDEST SWAP2 SWAP1 POP JUMP JUMPDEST PUSH1 0x0 DUP1 PUSH1 0x40 DUP4 DUP6 SUB SLT ISZERO PUSH2 0x1AFD JUMPI PUSH1 0x0 DUP1 REVERT JUMPDEST DUP3 CALLDATALOAD PUSH2 0x1B08 DUP2 PUSH2 0x1ABE JUMP JUMPDEST SWAP2 POP PUSH2 0x1B16 PUSH1 0x20 DUP5 ADD PUSH2 0x1AD6 JUMP JUMPDEST SWAP1 POP SWAP3 POP SWAP3 SWAP1 POP JUMP JUMPDEST PUSH1 0x20 DUP2 MSTORE PUSH1 0x0 PUSH2 0x37F PUSH1 0x20 DUP4 ADD DUP5 PUSH2 0x1920 JUMP JUMPDEST PUSH1 0x0 DUP1 PUSH1 0x0 DUP1 PUSH1 0x80 DUP6 DUP8 SUB SLT ISZERO PUSH2 0x1B48 JUMPI PUSH1 0x0 DUP1 REVERT JUMPDEST DUP5 CALLDATALOAD PUSH8 0xFFFFFFFFFFFFFFFF DUP1 DUP3 GT ISZERO PUSH2 0x1B60 JUMPI PUSH1 0x0 DUP1 REVERT JUMPDEST PUSH2 0x1B6C DUP9 DUP4 DUP10 ADD PUSH2 0x181A JUMP JUMPDEST SWAP6 POP PUSH1 0x20 DUP8 ADD CALLDATALOAD SWAP2 POP PUSH2 0x1B7E DUP3 PUSH2 0x1ABE JUMP JUMPDEST SWAP1 SWAP4 POP PUSH1 0x40 DUP7 ADD CALLDATALOAD SWAP1 DUP1 DUP3 GT ISZERO PUSH2 0x1B94 JUMPI PUSH1 0x0 DUP1 REVERT JUMPDEST PUSH2 0x1BA0 DUP9 DUP4 DUP10 ADD PUSH2 0x181A JUMP JUMPDEST SWAP4 POP PUSH1 0x60 DUP8 ADD CALLDATALOAD SWAP2 POP DUP1 DUP3 GT ISZERO PUSH2 0x1BB6 JUMPI PUSH1 0x0 DUP1 REVERT JUMPDEST POP PUSH2 0x1BC3 DUP8 DUP3 DUP9 ADD PUSH2 0x181A JUMP JUMPDEST SWAP2 POP POP SWAP3 SWAP6 SWAP2 SWAP5 POP SWAP3 POP JUMP JUMPDEST DUP1 ISZERO ISZERO DUP2 EQ PUSH2 0x1AD3 JUMPI PUSH1 0x0 DUP1 REVERT JUMPDEST PUSH1 0x0 DUP1 PUSH1 0x0 PUSH1 0x60 DUP5 DUP7 SUB SLT ISZERO PUSH2 0x1BF2 JUMPI PUSH1 0x0 DUP1 REVERT JUMPDEST DUP4 CALLDATALOAD PUSH2 0x1BFD DUP2 PUSH2 0x1ABE JUMP JUMPDEST SWAP3 POP PUSH2 0x1C0B PUSH1 0x20 DUP6 ADD PUSH2 0x1AD6 JUMP JUMPDEST SWAP2 POP PUSH1 0x40 DUP5 ADD CALLDATALOAD PUSH2 0x1C1B DUP2 PUSH2 0x1BCF JUMP JUMPDEST DUP1 SWAP2 POP POP SWAP3 POP SWAP3 POP SWAP3 JUMP JUMPDEST PUSH1 0x20 DUP1 DUP3 MSTORE PUSH1 0x12 SWAP1 DUP3 ADD MSTORE PUSH18 0x283632B0B9B29032B73A32B91030902724AB PUSH1 0x71 SHL PUSH1 0x40 DUP3 ADD MSTORE PUSH1 0x60 ADD SWAP1 JUMP JUMPDEST PUSH1 0x0 PUSH8 0xFFFFFFFFFFFFFFFF DUP3 GT ISZERO PUSH2 0x1C6C JUMPI PUSH2 0x1C6C PUSH2 0x17AB JUMP JUMPDEST POP PUSH1 0x5 SHL PUSH1 0x20 ADD SWAP1 JUMP JUMPDEST PUSH1 0x0 DUP3 PUSH1 0x1F DUP4 ADD SLT PUSH2 0x1C87 JUMPI PUSH1 0x0 DUP1 REVERT JUMPDEST DUP2 MLOAD PUSH1 0x20 PUSH2 0x1C97 PUSH2 0x1839 DUP4 PUSH2 0x1C52 JUMP JUMPDEST DUP3 DUP2 MSTORE PUSH1 0x5 SWAP3 SWAP1 SWAP3 SHL DUP5 ADD DUP2 ADD SWAP2 DUP2 DUP2 ADD SWAP1 DUP7 DUP5 GT ISZERO PUSH2 0x1CB6 JUMPI PUSH1 0x0 DUP1 REVERT JUMPDEST DUP3 DUP7 ADD JUMPDEST DUP5 DUP2 LT ISZERO PUSH2 0x1CDA JUMPI DUP1 MLOAD PUSH2 0x1CCD DUP2 PUSH2 0x1ABE JUMP JUMPDEST DUP4 MSTORE SWAP2 DUP4 ADD SWAP2 DUP4 ADD PUSH2 0x1CBA JUMP JUMPDEST POP SWAP7 SWAP6 POP POP POP POP POP POP JUMP JUMPDEST PUSH1 0x0 PUSH1 0x20 DUP3 DUP5 SUB SLT ISZERO PUSH2 0x1CF7 JUMPI PUSH1 0x0 DUP1 REVERT JUMPDEST DUP2 MLOAD PUSH8 0xFFFFFFFFFFFFFFFF DUP2 GT ISZERO PUSH2 0x1D0E JUMPI PUSH1 0x0 DUP1 REVERT JUMPDEST PUSH2 0x440 DUP5 DUP3 DUP6 ADD PUSH2 0x1C76 JUMP JUMPDEST PUSH1 0x0 DUP3 PUSH1 0x1F DUP4 ADD SLT PUSH2 0x1D2B JUMPI PUSH1 0x0 DUP1 REVERT JUMPDEST DUP2 MLOAD PUSH2 0x1D39 PUSH2 0x1839 DUP3 PUSH2 0x17F2 JUMP JUMPDEST DUP2 DUP2 MSTORE DUP5 PUSH1 0x20 DUP4 DUP7 ADD ADD GT ISZERO PUSH2 0x1D4E JUMPI PUSH1 0x0 DUP1 REVERT JUMPDEST PUSH2 0x440 DUP3 PUSH1 0x20 DUP4 ADD PUSH1 0x20 DUP8 ADD PUSH2 0x18FC JUMP JUMPDEST PUSH1 0x0 DUP3 PUSH1 0x1F DUP4 ADD SLT PUSH2 0x1D70 JUMPI PUSH1 0x0 DUP1 REVERT JUMPDEST DUP2 MLOAD PUSH1 0x20 PUSH2 0x1D80 PUSH2 0x1839 DUP4 PUSH2 0x1C52 JUMP JUMPDEST DUP3 DUP2 MSTORE PUSH1 0x5 SWAP3 SWAP1 SWAP3 SHL DUP5 ADD DUP2 ADD SWAP2 DUP2 DUP2 ADD SWAP1 DUP7 DUP5 GT ISZERO PUSH2 0x1D9F JUMPI PUSH1 0x0 DUP1 REVERT JUMPDEST DUP3 DUP7 ADD JUMPDEST DUP5 DUP2 LT ISZERO PUSH2 0x1CDA JUMPI DUP1 MLOAD PUSH8 0xFFFFFFFFFFFFFFFF DUP2 GT ISZERO PUSH2 0x1DC3 JUMPI PUSH1 0x0 DUP1 DUP2 REVERT JUMPDEST PUSH2 0x1DD1 DUP10 DUP7 DUP4 DUP12 ADD ADD PUSH2 0x1D1A JUMP JUMPDEST DUP5 MSTORE POP SWAP2 DUP4 ADD SWAP2 DUP4 ADD PUSH2 0x1DA3 JUMP JUMPDEST PUSH1 0x0 PUSH1 0x20 DUP3 DUP5 SUB SLT ISZERO PUSH2 0x1DF1 JUMPI PUSH1 0x0 DUP1 REVERT JUMPDEST DUP2 MLOAD PUSH8 0xFFFFFFFFFFFFFFFF DUP2 GT ISZERO PUSH2 0x1E08 JUMPI PUSH1 0x0 DUP1 REVERT JUMPDEST PUSH2 0x440 DUP5 DUP3 DUP6 ADD PUSH2 0x1D5F JUMP JUMPDEST PUSH1 0x0 PUSH1 0x20 DUP3 DUP5 SUB SLT ISZERO PUSH2 0x1E26 JUMPI PUSH1 0x0 DUP1 REVERT JUMPDEST DUP2 MLOAD PUSH2 0x37F DUP2 PUSH2 0x1ABE JUMP JUMPDEST DUP1 MLOAD PUSH2 0x1AE5 DUP2 PUSH2 0x1BCF JUMP JUMPDEST PUSH1 0x0 DUP1 PUSH1 0x0 DUP1 PUSH1 0x0 DUP1 PUSH1 0x0 DUP1 PUSH2 0x100 DUP10 DUP12 SUB SLT ISZERO PUSH2 0x1E59 JUMPI PUSH1 0x0 DUP1 REVERT JUMPDEST PUSH2 0x1E62 DUP10 PUSH2 0x1E31 JUMP JUMPDEST SWAP8 POP PUSH1 0x20 DUP10 ADD MLOAD PUSH8 0xFFFFFFFFFFFFFFFF DUP1 DUP3 GT ISZERO PUSH2 0x1E7F JUMPI PUSH1 0x0 DUP1 REVERT JUMPDEST PUSH2 0x1E8B DUP13 DUP4 DUP14 ADD PUSH2 0x1D1A JUMP JUMPDEST SWAP9 POP PUSH1 0x40 DUP12 ADD MLOAD SWAP2 POP DUP1 DUP3 GT ISZERO PUSH2 0x1EA1 JUMPI PUSH1 0x0 DUP1 REVERT JUMPDEST PUSH2 0x1EAD DUP13 DUP4 DUP14 ADD PUSH2 0x1D5F JUMP JUMPDEST SWAP8 POP PUSH1 0x60 DUP12 ADD MLOAD SWAP2 POP DUP1 DUP3 GT ISZERO PUSH2 0x1EC3 JUMPI PUSH1 0x0 DUP1 REVERT JUMPDEST PUSH2 0x1ECF DUP13 DUP4 DUP14 ADD PUSH2 0x1C76 JUMP JUMPDEST SWAP7 POP PUSH1 0x80 DUP12 ADD MLOAD SWAP2 POP DUP1 DUP3 GT ISZERO PUSH2 0x1EE5 JUMPI PUSH1 0x0 DUP1 REVERT JUMPDEST PUSH2 0x1EF1 DUP13 DUP4 DUP14 ADD PUSH2 0x1D5F JUMP JUMPDEST SWAP6 POP PUSH1 0xA0 DUP12 ADD MLOAD SWAP2 POP DUP1 DUP3 GT ISZERO PUSH2 0x1F07 JUMPI PUSH1 0x0 DUP1 REVERT JUMPDEST PUSH2 0x1F13 DUP13 DUP4 DUP14 ADD PUSH2 0x1D5F JUMP JUMPDEST SWAP5 POP PUSH1 0xC0 DUP12 ADD MLOAD SWAP2 POP DUP1 DUP3 GT ISZERO PUSH2 0x1F29 JUMPI PUSH1 0x0 DUP1 REVERT JUMPDEST PUSH2 0x1F35 DUP13 DUP4 DUP14 ADD PUSH2 0x1D5F JUMP JUMPDEST SWAP4 POP PUSH1 0xE0 DUP12 ADD MLOAD SWAP2 POP DUP1 DUP3 GT ISZERO PUSH2 0x1F4B JUMPI PUSH1 0x0 DUP1 REVERT JUMPDEST POP PUSH2 0x1F58 DUP12 DUP3 DUP13 ADD PUSH2 0x1D5F JUMP JUMPDEST SWAP2 POP POP SWAP3 SWAP6 SWAP9 POP SWAP3 SWAP6 SWAP9 SWAP1 SWAP4 SWAP7 POP JUMP JUMPDEST PUSH1 0x0 PUSH1 0x20 DUP3 DUP5 SUB SLT ISZERO PUSH2 0x1F7A JUMPI PUSH1 0x0 DUP1 REVERT JUMPDEST DUP2 MLOAD PUSH2 0x37F DUP2 PUSH2 0x1BCF JUMP JUMPDEST PUSH1 0x20 DUP1 DUP3 MSTORE PUSH1 0x1E SWAP1 DUP3 ADD MSTORE PUSH32 0x546869732063617220646F65736E277420657869737420616E796D6F72650000 PUSH1 0x40 DUP3 ADD MSTORE PUSH1 0x60 ADD SWAP1 JUMP JUMPDEST PUSH4 0x4E487B71 PUSH1 0xE0 SHL PUSH1 0x0 MSTORE PUSH1 0x21 PUSH1 0x4 MSTORE PUSH1 0x24 PUSH1 0x0 REVERT JUMPDEST PUSH1 0x20 DUP1 DUP3 MSTORE PUSH1 0x2E SWAP1 DUP3 ADD MSTORE PUSH32 0x5065726D697373696F6E2064656E6965642C20796F75206D7573742062652061 PUSH1 0x40 DUP3 ADD MSTORE PUSH14 0x206D616E75666163747572657221 PUSH1 0x90 SHL PUSH1 0x60 DUP3 ADD MSTORE PUSH1 0x80 ADD SWAP1 JUMP JUMPDEST PUSH1 0x20 DUP1 DUP3 MSTORE PUSH1 0x21 SWAP1 DUP3 ADD MSTORE PUSH32 0x54686520696E666F732073656374696F6E2063616E6E6F7420626520626C616E PUSH1 0x40 DUP3 ADD MSTORE PUSH1 0x6B PUSH1 0xF8 SHL PUSH1 0x60 DUP3 ADD MSTORE PUSH1 0x80 ADD SWAP1 JUMP JUMPDEST PUSH1 0x40 DUP2 MSTORE PUSH1 0x0 PUSH2 0x2074 PUSH1 0x40 DUP4 ADD DUP6 PUSH2 0x1920 JUMP JUMPDEST DUP3 DUP2 SUB PUSH1 0x20 DUP5 ADD MSTORE PUSH2 0x901 DUP2 DUP6 PUSH2 0x1920 JUMP JUMPDEST PUSH1 0x20 DUP1 DUP3 MSTORE PUSH1 0x1E SWAP1 DUP3 ADD MSTORE PUSH32 0x596F75277265206E6F7420746865206F776E65722C2061626F7274696E670000 PUSH1 0x40 DUP3 ADD MSTORE PUSH1 0x60 ADD SWAP1 JUMP JUMPDEST PUSH1 0x0 PUSH1 0x20 DUP3 DUP5 SUB SLT ISZERO PUSH2 0x20CF JUMPI PUSH1 0x0 DUP1 REVERT JUMPDEST DUP2 MLOAD PUSH8 0xFFFFFFFFFFFFFFFF DUP2 GT ISZERO PUSH2 0x20E6 JUMPI PUSH1 0x0 DUP1 REVERT JUMPDEST PUSH2 0x440 DUP5 DUP3 DUP6 ADD PUSH2 0x1D1A JUMP INVALID GASPRICE 0x2D 0xB9 INVALID PUSH26 0x8DCC36D81824D2338FC3F1AFF49AC357DD8C4840527FBA27A5B SWAP1 LOG2 PUSH5 0x6970667358 0x22 SLT KECCAK256 SHL 0xCD DUP7 SUB 0xBF 0x4D GASPRICE 0xF8 DUP2 INVALID 0x4C 0x2B GASLIMIT CODECOPY 0xCE DUP4 DUP16 0xD6 DUP9 0x4F SWAP13 0xC4 SWAP4 PUSH12 0x6FCE404D511BA58964736F6C PUSH4 0x43000813 STOP CALLER ","sha1":"f9f9ef35c46b376e3e123afc5552bfe11514eb4c","source":"//SPDX-License-Identifier: MIT\n\npragma solidity >=0.6.0 <=0.9.0;\n\nimport \"./CarFactory.sol\";\n\ncontract AutomobileRegistrationSystem{\n\n    //List of roles\n    enum Role{\n        Manufacturer, //0\n        State, //1\n        Center, //2\n        Insurance //3\n    }\n\n    modifier isDeployer(){\n        require(msg.sender == systemDeployer, \"You're not the owner, aborting\");\n        _;\n    }\n\n    modifier isManufacturer(address _of, Role _role){ //Create or delete the car\n        require(canAccess[_of][_role], \"Permission denied, you must be a manufacturer!\");\n        _;\n    }\n\n    modifier isState(address _of, Role _role){ //Set owner (old and new) + Transaction infos\n        require(canAccess[_of][_role], \"You don't have the previledges, aborting\");\n        _;\n    }\n\n    modifier isCenter(address _of, Role _role){ //Create reports\n        require(canAccess[_of][_role], \"Permission denied, center only!\"); \n        _;\n    }\n\n    modifier isInsurance(address _of, Role _role){ //Save accidents\n        require(canAccess[_of][_role], \"Permission denied, insurance only!\"); \n        _;\n    }\n\n    modifier doesExist(string memory _niv){\n        require(carFactory.carListMapping(_niv).doesExist(), \"This car doesn't exist anymore\");\n        _;\n    }\n\n    modifier isNotBlank(string memory _niv){\n        require(keccak256(bytes(_niv)) != keccak256(bytes(\"\")), \"Please enter a NIV\");\n        _;\n    }\n\n\n    address systemDeployer;\n\n    CarFactory carFactory;\n\n    mapping(address => mapping(Role => bool)) canAccess; //Instead of creating a mapping for each role, I thought it could be a great idea to create only one mapping of a mapping that sets the role of every address given\n\n    \n    constructor(){\n        systemDeployer = msg.sender;    \n        carFactory = new CarFactory();\n    }\n\n\n    function setRole(address _for, Role _role, bool _roleStatus) public isDeployer{\n        canAccess[_for][_role] = _roleStatus;\n    }\n\n    //Getting the roles of the accounts\n    function getAccountRole(address _of, Role _role) public view isDeployer returns(bool){\n        return canAccess[_of][_role];\n    }\n\n    function isNivUsed(string memory _niv) public view isManufacturer(msg.sender, Role.Manufacturer) returns(bool){\n        bool avaibility = carFactory.getNivAvaibility(_niv);\n        return avaibility;\n    }\n\n    function createNewCar(string memory _niv, string memory _infos) public isManufacturer(msg.sender, Role.Manufacturer) isNotBlank(_niv){\n        require(keccak256(bytes(_infos)) != keccak256(bytes(\"\")), \"The infos section cannot be blank\");\n        carFactory.createCar(_niv, _infos);\n    }\n\n    function getCar(string memory _niv) public view isNotBlank(_niv) returns(Car){\n        Car car = carFactory.carListMapping(_niv);\n        return car;\n    }\n\n    function setCarOwner(string memory _niv, address _owner, string memory _transactionInfo, string memory _matriculation) public isNotBlank(_niv) doesExist(_niv) isState(msg.sender, Role.State){\n        require(_owner != address(0), \"The infos section cannot be blank\");\n        require(keccak256(bytes(_transactionInfo)) != keccak256(bytes(\"\")), \"Please fill the transaction infos section\");\n        require(keccak256(bytes(_matriculation)) != keccak256(bytes(\"\")), \"The matriculation section cannot be blank\");\n\n        Car car = getCar(_niv);\n        car.setOwner(_owner);\n        car.setTransaction(_transactionInfo);\n        car.setMatriculation(_matriculation);\n    }\n\n    function getCarOwner(string memory _niv) public view isNotBlank(_niv) returns(address[] memory){\n        return getCar(_niv).getOwnerList();\n    }\n\n    function getCarPreviousTransactions(string memory _niv) public view isNotBlank(_niv) returns(string[] memory){\n        return getCar(_niv).getPreviousTransactions();\n    }\n\n    function setCarSignalisation(string memory _niv, string memory _signalisation) public isNotBlank(_niv) doesExist(_niv) isDeployer{\n        getCar(_niv).setSignalisation(_signalisation);\n    }\n\n    function getCarSignalisation(string memory _niv) public view isNotBlank(_niv) returns(string[] memory){\n        return getCar(_niv).getSignalisation();\n    }\n\n    function addAccident(string memory _niv, string memory _accident) public isNotBlank(_niv) doesExist(_niv) isInsurance(msg.sender, Role.Insurance){\n        require(keccak256(bytes(_accident)) != keccak256(bytes(\"\")), \"Please provide more infos\");\n        Car car = getCar(_niv);\n        car.addAccident(_accident);\n    }\n\n    function getAccidentsList(string memory _niv) public view isNotBlank(_niv) returns (string[] memory){\n        Car car = getCar(_niv);        \n        return car.accidentsList();\n    }\n\n    function addCarReport(string memory _niv, string memory _report) public isNotBlank(_niv) doesExist(_niv) isCenter(msg.sender, Role.Center){\n        require(keccak256(bytes(_report)) != keccak256(bytes(\"\")), \"Please provide a correct report\");\n        Car car = getCar(_niv);\n        car.addReport(_report);\n    }\n\n    function getCarReport(string memory _niv) public view isNotBlank(_niv) returns(string[] memory){\n        Car car = getCar(_niv);        \n        return car.getReport();\n    }\n\n    function getCarInfos(string memory _niv) public view isNotBlank(_niv) returns(string memory){\n        Car car = getCar(_niv);        \n        return car.getInfos();        \n    }\n\n    function getCarAllInfos(string memory _niv) public view isNotBlank(_niv) returns(bool, string memory, string[] memory, address[] memory, string[] memory, string[] memory, string[] memory, string[] memory){\n        return getCar(_niv).getAllInfos();\n    }\n\n    function destroyCar(string memory _niv) public isNotBlank(_niv) doesExist(_niv) isManufacturer(msg.sender, Role.Manufacturer){\n        return getCar(_niv).destroyCar();\n    }\n\n}","sourcePath":"contracts/AutomobileRegistrationSystem.sol","type":"contract","deployment":{"address":"0xb7F75945Fa65D79393E181Ea169a73F4f00090e6","chainid":"80001","blockHeight":33292504}}