{"abi":[{"inputs":[],"stateMutability":"nonpayable","type":"constructor","name":"constructor"},{"inputs":[{"internalType":"string","name":"_niv","type":"string"},{"internalType":"string","name":"_accident","type":"string"}],"name":"addAccident","outputs":[],"stateMutability":"nonpayable","type":"function"},{"inputs":[{"internalType":"string","name":"_niv","type":"string"},{"internalType":"string","name":"_report","type":"string"}],"name":"addCarReport","outputs":[],"stateMutability":"nonpayable","type":"function"},{"inputs":[{"internalType":"string","name":"_niv","type":"string"},{"internalType":"string","name":"_infos","type":"string"}],"name":"createNewCar","outputs":[],"stateMutability":"nonpayable","type":"function"},{"inputs":[{"internalType":"string","name":"_niv","type":"string"}],"name":"destroyCar","outputs":[],"stateMutability":"nonpayable","type":"function"},{"inputs":[{"internalType":"string","name":"_niv","type":"string"}],"name":"getAccidentsList","outputs":[{"internalType":"string[]","name":"","type":"string[]"}],"stateMutability":"view","type":"function"},{"inputs":[{"internalType":"address","name":"_of","type":"address"},{"internalType":"enum AutomobileRegistrationSystem.Role","name":"_role","type":"uint8"}],"name":"getAccountRole","outputs":[{"internalType":"bool","name":"","type":"bool"}],"stateMutability":"view","type":"function"},{"inputs":[{"internalType":"string","name":"_niv","type":"string"}],"name":"getCarInfos","outputs":[{"internalType":"string","name":"","type":"string"}],"stateMutability":"view","type":"function"},{"inputs":[{"internalType":"string","name":"_niv","type":"string"}],"name":"getCarOwner","outputs":[{"internalType":"address[]","name":"","type":"address[]"}],"stateMutability":"view","type":"function"},{"inputs":[{"internalType":"string","name":"_niv","type":"string"}],"name":"getCarPreviousTransactions","outputs":[{"internalType":"string[]","name":"","type":"string[]"}],"stateMutability":"view","type":"function"},{"inputs":[{"internalType":"string","name":"_niv","type":"string"}],"name":"getCarReport","outputs":[{"internalType":"string[]","name":"","type":"string[]"}],"stateMutability":"view","type":"function"},{"inputs":[{"internalType":"string","name":"_niv","type":"string"}],"name":"getCarSignalisation","outputs":[{"internalType":"string[]","name":"","type":"string[]"}],"stateMutability":"view","type":"function"},{"inputs":[{"internalType":"string","name":"_niv","type":"string"}],"name":"isNivUsed","outputs":[{"internalType":"bool","name":"","type":"bool"}],"stateMutability":"view","type":"function"},{"inputs":[{"internalType":"string","name":"_niv","type":"string"},{"internalType":"address","name":"_owner","type":"address"},{"internalType":"string","name":"_transactionInfo","type":"string"},{"internalType":"string","name":"_matriculation","type":"string"}],"name":"setCarOwner","outputs":[],"stateMutability":"nonpayable","type":"function"},{"inputs":[{"internalType":"string","name":"_niv","type":"string"},{"internalType":"string","name":"_signalisation","type":"string"}],"name":"setCarSignalisation","outputs":[],"stateMutability":"nonpayable","type":"function"},{"inputs":[{"internalType":"address","name":"_for","type":"address"},{"internalType":"enum AutomobileRegistrationSystem.Role","name":"_role","type":"uint8"},{"internalType":"bool","name":"_roleStatus","type":"bool"}],"name":"setRole","outputs":[],"stateMutability":"nonpayable","type":"function"}],"bytecode":"608060405234801561001057600080fd5b50600080546001600160a01b0319163317905560405161002f90610071565b604051809103906000f08015801561004b573d6000803e3d6000fd5b50600180546001600160a01b0319166001600160a01b039290921691909117905561007e565b61160380611c3b83390190565b611bae8061008d6000396000f3fe608060405234801561001057600080fd5b50600436106100f55760003560e01c80637fee984b11610097578063b327c70011610066578063b327c70014610200578063d0f2dd5b14610213578063d6082a8314610233578063f6bb6b371461024657600080fd5b80637fee984b146101b457806390ca8332146101c7578063a2a6d142146101da578063aad37c99146101ed57600080fd5b806358da1e01116100d357806358da1e011461015657806360db168e1461016b5780636f059e731461018e57806375d12105146101a157600080fd5b80630b8cf8d1146100fa578063398752e0146101235780634cca828814610143575b600080fd5b61010d61010836600461154d565b610259565b60405161011a9190611582565b60405180910390f35b61013661013136600461154d565b61031e565b60405161011a919061161f565b61013661015136600461154d565b6103e0565b61016961016436600461154d565b610495565b005b61017e61017936600461154d565b610627565b604051901515815260200161011a565b61016961019c366004611681565b61069d565b6101696101af366004611681565b6108b4565b6101696101c2366004611681565b610986565b6101366101d536600461154d565b610b24565b61017e6101e8366004611711565b610bb6565b6101696101fb366004611681565b610c68565b61013661020e36600461154d565b610e46565b61022661022136600461154d565b610ed3565b60405161011a9190611746565b610169610241366004611759565b610f8d565b610169610254366004611804565b61131c565b604080516020808201909252600090528151908201206060908290600080516020611b59833981519152016102a95760405162461bcd60e51b81526004016102a09061184d565b60405180910390fd5b6102b2836113d7565b6001600160a01b031663581003706040518163ffffffff1660e01b8152600401600060405180830381865afa1580156102ef573d6000803e3d6000fd5b505050506040513d6000823e601f3d908101601f19168201604052610317919081019061189d565b9392505050565b604080516020808201909252600090528151908201206060908290600080516020611b59833981519152016103655760405162461bcd60e51b81526004016102a09061184d565b6000610370846113d7565b9050806001600160a01b031663e4085d676040518163ffffffff1660e01b8152600401600060405180830381865afa1580156103b0573d6000803e3d6000fd5b505050506040513d6000823e601f3d908101601f191682016040526103d8919081019061197c565b949350505050565b604080516020808201909252600090528151908201206060908290600080516020611b59833981519152016104275760405162461bcd60e51b81526004016102a09061184d565b610430836113d7565b6001600160a01b031663b5cd26f86040518163ffffffff1660e01b8152600401600060405180830381865afa15801561046d573d6000803e3d6000fd5b505050506040513d6000823e601f3d908101601f19168201604052610317919081019061197c565b604080516020808201909252600090528151908201208190600080516020611b59833981519152016104d95760405162461bcd60e51b81526004016102a09061184d565b600154604051634b22dc9160e01b815283916001600160a01b031690634b22dc9190610509908490600401611746565b602060405180830381865afa158015610526573d6000803e3d6000fd5b505050506040513d601f19601f8201168201806040525081019061054a9190611a2d565b6001600160a01b0316635ad70d126040518163ffffffff1660e01b8152600401602060405180830381865afa158015610587573d6000803e3d6000fd5b505050506040513d601f19601f820116820180604052508101906105ab9190611a4a565b6105c75760405162461bcd60e51b81526004016102a090611a67565b6105d0836113d7565b6001600160a01b031663b3610f376040518163ffffffff1660e01b8152600401600060405180830381600087803b15801561060a57600080fd5b505af115801561061e573d6000803e3d6000fd5b50505050505050565b600154604051637832e6e360e01b815260009182916001600160a01b0390911690637832e6e39061065c908690600401611746565b602060405180830381865afa158015610679573d6000803e3d6000fd5b505050506040513d601f19601f820116820180604052508101906103179190611a4a565b604080516020808201909252600090528251908301208290600080516020611b59833981519152016106e15760405162461bcd60e51b81526004016102a09061184d565b600154604051634b22dc9160e01b815284916001600160a01b031690634b22dc9190610711908490600401611746565b602060405180830381865afa15801561072e573d6000803e3d6000fd5b505050506040513d601f19601f820116820180604052508101906107529190611a2d565b6001600160a01b0316635ad70d126040518163ffffffff1660e01b8152600401602060405180830381865afa15801561078f573d6000803e3d6000fd5b505050506040513d601f19601f820116820180604052508101906107b39190611a4a565b6107cf5760405162461bcd60e51b81526004016102a090611a67565b60408051602080820190925260009052835190840120600080516020611b59833981519152016108415760405162461bcd60e51b815260206004820152601960248201527f506c656173652070726f76696465206d6f726520696e666f730000000000000060448201526064016102a0565b600061084c856113d7565b60405163134044a160e01b81529091506001600160a01b0382169063134044a19061087b908790600401611746565b600060405180830381600087803b15801561089557600080fd5b505af11580156108a9573d6000803e3d6000fd5b505050505050505050565b604080516020808201909252600090528251908301208290600080516020611b59833981519152016108f85760405162461bcd60e51b81526004016102a09061184d565b60408051602080820190925260009052825190830120600080516020611b598339815191520161093a5760405162461bcd60e51b81526004016102a090611a9e565b600154604051633de4de8f60e01b81526001600160a01b0390911690633de4de8f9061096c9086908690600401611adf565b600060405180830381600087803b15801561060a57600080fd5b604080516020808201909252600090528251908301208290600080516020611b59833981519152016109ca5760405162461bcd60e51b81526004016102a09061184d565b600154604051634b22dc9160e01b815284916001600160a01b031690634b22dc91906109fa908490600401611746565b602060405180830381865afa158015610a17573d6000803e3d6000fd5b505050506040513d601f19601f82011682018060405250810190610a3b9190611a2d565b6001600160a01b0316635ad70d126040518163ffffffff1660e01b8152600401602060405180830381865afa158015610a78573d6000803e3d6000fd5b505050506040513d601f19601f82011682018060405250810190610a9c9190611a4a565b610ab85760405162461bcd60e51b81526004016102a090611a67565b610ac1846113d7565b6001600160a01b031663457cf35b846040518263ffffffff1660e01b8152600401610aec9190611746565b600060405180830381600087803b158015610b0657600080fd5b505af1158015610b1a573d6000803e3d6000fd5b5050505050505050565b604080516020808201909252600090528151908201206060908290600080516020611b5983398151915201610b6b5760405162461bcd60e51b81526004016102a09061184d565b6000610b76846113d7565b9050806001600160a01b031663bd51b8e06040518163ffffffff1660e01b8152600401600060405180830381865afa1580156103b0573d6000803e3d6000fd5b600080546001600160a01b03163314610c115760405162461bcd60e51b815260206004820152601e60248201527f596f75277265206e6f7420746865206f776e65722c2061626f7274696e67000060448201526064016102a0565b6001600160a01b038316600090815260026020526040812090836003811115610c3c57610c3c611b0d565b6003811115610c4d57610c4d611b0d565b815260208101919091526040016000205460ff169392505050565b604080516020808201909252600090528251908301208290600080516020611b5983398151915201610cac5760405162461bcd60e51b81526004016102a09061184d565b600154604051634b22dc9160e01b815284916001600160a01b031690634b22dc9190610cdc908490600401611746565b602060405180830381865afa158015610cf9573d6000803e3d6000fd5b505050506040513d601f19601f82011682018060405250810190610d1d9190611a2d565b6001600160a01b0316635ad70d126040518163ffffffff1660e01b8152600401602060405180830381865afa158015610d5a573d6000803e3d6000fd5b505050506040513d601f19601f82011682018060405250810190610d7e9190611a4a565b610d9a5760405162461bcd60e51b81526004016102a090611a67565b60408051602080820190925260009052835190840120600080516020611b5983398151915201610e0c5760405162461bcd60e51b815260206004820152601f60248201527f506c656173652070726f76696465206120636f7272656374207265706f72740060448201526064016102a0565b6000610e17856113d7565b604051632be527f360e11b81529091506001600160a01b038216906357ca4fe69061087b908790600401611746565b604080516020808201909252600090528151908201206060908290600080516020611b5983398151915201610e8d5760405162461bcd60e51b81526004016102a09061184d565b610e96836113d7565b6001600160a01b031663888dbbc16040518163ffffffff1660e01b8152600401600060405180830381865afa15801561046d573d6000803e3d6000fd5b604080516020808201909252600090528151908201206060908290600080516020611b5983398151915201610f1a5760405162461bcd60e51b81526004016102a09061184d565b6000610f25846113d7565b9050806001600160a01b031663643d6dc06040518163ffffffff1660e01b8152600401600060405180830381865afa158015610f65573d6000803e3d6000fd5b505050506040513d6000823e601f3d908101601f191682016040526103d89190810190611b23565b604080516020808201909252600090528451908501208490600080516020611b5983398151915201610fd15760405162461bcd60e51b81526004016102a09061184d565b600154604051634b22dc9160e01b815286916001600160a01b031690634b22dc9190611001908490600401611746565b602060405180830381865afa15801561101e573d6000803e3d6000fd5b505050506040513d601f19601f820116820180604052508101906110429190611a2d565b6001600160a01b0316635ad70d126040518163ffffffff1660e01b8152600401602060405180830381865afa15801561107f573d6000803e3d6000fd5b505050506040513d601f19601f820116820180604052508101906110a39190611a4a565b6110bf5760405162461bcd60e51b81526004016102a090611a67565b6001600160a01b0385166110e55760405162461bcd60e51b81526004016102a090611a9e565b60408051602080820190925260009052845190850120600080516020611b59833981519152016111695760405162461bcd60e51b815260206004820152602960248201527f506c656173652066696c6c20746865207472616e73616374696f6e20696e666f604482015268399039b2b1ba34b7b760b91b60648201526084016102a0565b60408051602080820190925260009052835190840120600080516020611b59833981519152016111ed5760405162461bcd60e51b815260206004820152602960248201527f546865206d6174726963756c6174696f6e2073656374696f6e2063616e6e6f7460448201526820626520626c616e6b60b81b60648201526084016102a0565b60006111f8876113d7565b6040516313af403560e01b81526001600160a01b038881166004830152919250908216906313af403590602401600060405180830381600087803b15801561123f57600080fd5b505af1158015611253573d6000803e3d6000fd5b5050604051637a64f11360e01b81526001600160a01b0384169250637a64f1139150611283908890600401611746565b600060405180830381600087803b15801561129d57600080fd5b505af11580156112b1573d6000803e3d6000fd5b5050604051632e8b71d360e01b81526001600160a01b0384169250632e8b71d391506112e1908790600401611746565b600060405180830381600087803b1580156112fb57600080fd5b505af115801561130f573d6000803e3d6000fd5b5050505050505050505050565b6000546001600160a01b031633146113765760405162461bcd60e51b815260206004820152601e60248201527f596f75277265206e6f7420746865206f776e65722c2061626f7274696e67000060448201526064016102a0565b6001600160a01b038316600090815260026020526040812082918460038111156113a2576113a2611b0d565b60038111156113b3576113b3611b0d565b81526020810191909152604001600020805460ff1916911515919091179055505050565b60008160405180602001604052806000815250805190602001208180519060200120036114165760405162461bcd60e51b81526004016102a09061184d565b600154604051634b22dc9160e01b81526000916001600160a01b031690634b22dc9190611447908790600401611746565b602060405180830381865afa158015611464573d6000803e3d6000fd5b505050506040513d601f19601f820116820180604052508101906103d89190611a2d565b634e487b7160e01b600052604160045260246000fd5b604051601f8201601f1916810167ffffffffffffffff811182821017156114c7576114c7611488565b604052919050565b600067ffffffffffffffff8211156114e9576114e9611488565b50601f01601f191660200190565b600082601f83011261150857600080fd5b813561151b611516826114cf565b61149e565b81815284602083860101111561153057600080fd5b816020850160208301376000918101602001919091529392505050565b60006020828403121561155f57600080fd5b813567ffffffffffffffff81111561157657600080fd5b6103d8848285016114f7565b6020808252825182820181905260009190848201906040850190845b818110156115c35783516001600160a01b03168352928401929184019160010161159e565b50909695505050505050565b60005b838110156115ea5781810151838201526020016115d2565b50506000910152565b6000815180845261160b8160208601602086016115cf565b601f01601f19169290920160200192915050565b6000602080830181845280855180835260408601915060408160051b870101925083870160005b8281101561167457603f198886030184526116628583516115f3565b94509285019290850190600101611646565b5092979650505050505050565b6000806040838503121561169457600080fd5b823567ffffffffffffffff808211156116ac57600080fd5b6116b8868387016114f7565b935060208501359150808211156116ce57600080fd5b506116db858286016114f7565b9150509250929050565b6001600160a01b03811681146116fa57600080fd5b50565b80356004811061170c57600080fd5b919050565b6000806040838503121561172457600080fd5b823561172f816116e5565b915061173d602084016116fd565b90509250929050565b60208152600061031760208301846115f3565b6000806000806080858703121561176f57600080fd5b843567ffffffffffffffff8082111561178757600080fd5b611793888389016114f7565b9550602087013591506117a5826116e5565b909350604086013590808211156117bb57600080fd5b6117c7888389016114f7565b935060608701359150808211156117dd57600080fd5b506117ea878288016114f7565b91505092959194509250565b80151581146116fa57600080fd5b60008060006060848603121561181957600080fd5b8335611824816116e5565b9250611832602085016116fd565b91506040840135611842816117f6565b809150509250925092565b602080825260129082015271283632b0b9b29032b73a32b91030902724ab60711b604082015260600190565b600067ffffffffffffffff82111561189357611893611488565b5060051b60200190565b600060208083850312156118b057600080fd5b825167ffffffffffffffff8111156118c757600080fd5b8301601f810185136118d857600080fd5b80516118e661151682611879565b81815260059190911b8201830190838101908783111561190557600080fd5b928401925b8284101561192c57835161191d816116e5565b8252928401929084019061190a565b979650505050505050565b600082601f83011261194857600080fd5b8151611956611516826114cf565b81815284602083860101111561196b57600080fd5b6103d88260208301602087016115cf565b6000602080838503121561198f57600080fd5b825167ffffffffffffffff808211156119a757600080fd5b818501915085601f8301126119bb57600080fd5b81516119c961151682611879565b81815260059190911b830184019084810190888311156119e857600080fd5b8585015b83811015611a2057805185811115611a045760008081fd5b611a128b89838a0101611937565b8452509186019186016119ec565b5098975050505050505050565b600060208284031215611a3f57600080fd5b8151610317816116e5565b600060208284031215611a5c57600080fd5b8151610317816117f6565b6020808252601e908201527f546869732063617220646f65736e277420657869737420616e796d6f72650000604082015260600190565b60208082526021908201527f54686520696e666f732073656374696f6e2063616e6e6f7420626520626c616e6040820152606b60f81b606082015260800190565b604081526000611af260408301856115f3565b8281036020840152611b0481856115f3565b95945050505050565b634e487b7160e01b600052602160045260246000fd5b600060208284031215611b3557600080fd5b815167ffffffffffffffff811115611b4c57600080fd5b6103d88482850161193756fe3a2db9fe7908dcc36d81824d2338fc3f1aff49ac357dd8c4840527fba27a5b90a26469706673582212204874fecb97b721d2a6f8a1b5870fb6b8650d2d589f42b44b9aaf866da166c2bf64736f6c63430008130033608060405234801561001057600080fd5b506115e3806100206000396000f3fe608060405234801561001057600080fd5b506004361061004c5760003560e01c80633de4de8f146100515780634b22dc911461006657806358da1e01146100965780637832e6e3146100a9575b600080fd5b61006461005f3660046103c7565b6100cc565b005b61007961007436600461042b565b610244565b6040516001600160a01b0390911681526020015b60405180910390f35b6100646100a436600461042b565b610275565b6100bc6100b736600461042b565b6102ec565b604051901515815260200161008d565b6002826040516100dc919061048c565b9081526040519081900360200190205460ff1615610168576040805162461bcd60e51b81526020600482015260248101919091527f506c656173652074727920616e6f74686572204e49562061732074686520707260448201527f6f7669646564206f6e652068617320616c7265616479206265656e2075736564606482015260840160405180910390fd5b818160405161017690610317565b6101819291906104d4565b604051809103906000f08015801561019d573d6000803e3d6000fd5b506000806101000a8154816001600160a01b0302191690836001600160a01b0316021790555060016002836040516101d5919061048c565b908152604051908190036020018120805492151560ff19909316929092179091556000546001600160a01b03169060019061021190859061048c565b90815260405190819003602001902080546001600160a01b03929092166001600160a01b03199092169190911790555050565b6000600182604051610256919061048c565b908152604051908190036020019020546001600160a01b031692915050565b61027e81610244565b600080546001600160a01b0319166001600160a01b039290921691821781556040805163b3610f3760e01b8152905163b3610f379260048084019391929182900301818387803b1580156102d157600080fd5b505af11580156102e5573d6000803e3d6000fd5b5050505050565b60006002826040516102fe919061048c565b9081526040519081900360200190205460ff1692915050565b6110ab8061050383390190565b634e487b7160e01b600052604160045260246000fd5b600082601f83011261034b57600080fd5b813567ffffffffffffffff8082111561036657610366610324565b604051601f8301601f19908116603f0116810190828211818310171561038e5761038e610324565b816040528381528660208588010111156103a757600080fd5b836020870160208301376000602085830101528094505050505092915050565b600080604083850312156103da57600080fd5b823567ffffffffffffffff808211156103f257600080fd5b6103fe8683870161033a565b9350602085013591508082111561041457600080fd5b506104218582860161033a565b9150509250929050565b60006020828403121561043d57600080fd5b813567ffffffffffffffff81111561045457600080fd5b6104608482850161033a565b949350505050565b60005b8381101561048357818101518382015260200161046b565b50506000910152565b6000825161049e818460208701610468565b9190910192915050565b600081518084526104c0816020860160208601610468565b601f01601f19169290920160200192915050565b6040815260006104e760408301856104a8565b82810360208401526104f981856104a8565b9594505050505056fe60806040523480156200001157600080fd5b50604051620010ab380380620010ab83398101604081905262000034916200012d565b600062000042838262000226565b50600c805460ff191660019081179091556200005f828262000226565b505050620002f2565b634e487b7160e01b600052604160045260246000fd5b600082601f8301126200009057600080fd5b81516001600160401b0380821115620000ad57620000ad62000068565b604051601f8301601f19908116603f01168101908282118183101715620000d857620000d862000068565b81604052838152602092508683858801011115620000f557600080fd5b600091505b83821015620001195785820183015181830184015290820190620000fa565b600093810190920192909252949350505050565b600080604083850312156200014157600080fd5b82516001600160401b03808211156200015957600080fd5b62000167868387016200007e565b935060208501519150808211156200017e57600080fd5b506200018d858286016200007e565b9150509250929050565b600181811c90821680620001ac57607f821691505b602082108103620001cd57634e487b7160e01b600052602260045260246000fd5b50919050565b601f8211156200022157600081815260208120601f850160051c81016020861015620001fc5750805b601f850160051c820191505b818110156200021d5782815560010162000208565b5050505b505050565b81516001600160401b0381111562000242576200024262000068565b6200025a8162000253845462000197565b84620001d3565b602080601f831160018114620002925760008415620002795750858301515b600019600386901b1c1916600185901b1785556200021d565b600085815260208120601f198616915b82811015620002c357888601518255948401946001909101908401620002a2565b5085821015620002e25787850151600019600388901b60f8161c191681555b5050505050600190811b01905550565b610da980620003026000396000f3fe608060405234801561001057600080fd5b50600436106100ea5760003560e01c8063643d6dc01161008c578063b3610f3711610066578063b3610f37146101c1578063b5cd26f8146101d0578063bd51b8e0146101d8578063e4085d67146101e057600080fd5b8063643d6dc0146101845780637a64f11314610199578063888dbbc1146101ac57600080fd5b8063457cf35b116100c8578063457cf35b1461012a57806357ca4fe61461013d57806358100370146101505780635ad70d121461016e57600080fd5b8063134044a1146100ef57806313af4035146101045780632e8b71d314610117575b600080fd5b6101026100fd3660046108f0565b6101e8565b005b6101026101123660046109a1565b610228565b6101026101253660046108f0565b6102fa565b6101026101383660046108f0565b6103d6565b61010261014b3660046108f0565b610420565b61015861045c565b60405161016591906109d1565b60405180910390f35b600c5460ff166040519015158152602001610165565b61018c6104be565b6040516101659190610a64565b6101026101a73660046108f0565b610547565b6101b4610591565b6040516101659190610a77565b610102600c805460ff19169055565b6101b461066a565b6101b461073a565b6101b461080a565b600680546001810182556000919091527ff652222313e28459528d920b65115c16c04f3efc82aaedc97be59f3f377c0d3f016102248282610b62565b5050565b6002546001600160a01b0380831691160361029e5760405162461bcd60e51b815260206004820152602b60248201527f546865206f6c64206f776e657220616e64206e6577206f6e652063616e27742060448201526a6265207468652073616d6560a81b60648201526084015b60405180910390fd5b600280546001600160a01b039092166001600160a01b03199283168117909155600780546001810182556000919091527fa66cc928b5edb82af9bd49922954155ab7b0942694bea4ce44661d9a8736c688018054909216179055565b60036040516103099190610c22565b604051809103902081805190602001200361038c5760405162461bcd60e51b815260206004820152603d60248201527f546865206f6c64206d6174726963756c6174696f6e20616e64206e6577206d6160448201527f74726963756c6174696f6e2063616e2774206265207468652073616d650000006064820152608401610295565b60036103988282610b62565b50600480546001810182556000919091527f8a35acfbc15ff81a39ae7d344fd709f28e8600b4aa8c65c6b64bfe7fe36bd19b01610224600382610c98565b60086103e28282610b62565b50600980546001810182556000919091527f6e1540171b6c0c960b71a7020d9f60077f6af931a8bbf590da0223dacf75c7af01610224600882610c98565b600580546001810182556000919091527f036b6384b5eca791c62761152d0c79bb0604c104a5fb6f4eb0703f3154bb3db0016102248282610b62565b606060078054806020026020016040519081016040528092919081815260200182805480156104b457602002820191906000526020600020905b81546001600160a01b03168152600190910190602001808311610496575b5050505050905090565b6060600180546104cd90610ad9565b80601f01602080910402602001604051908101604052809291908181526020018280546104f990610ad9565b80156104b45780601f1061051b576101008083540402835291602001916104b4565b820191906000526020600020905b81548152906001019060200180831161052957509395945050505050565b600a6105538282610b62565b50600b80546001810182556000919091527f0175b7a638427703f0dbe7bb9bbf987a2551717b34e79f33b5b1008d1fa01db901610224600a82610c98565b60606009805480602002602001604051908101604052809291908181526020016000905b828210156106615783829060005260206000200180546105d490610ad9565b80601f016020809104026020016040519081016040528092919081815260200182805461060090610ad9565b801561064d5780601f106106225761010080835404028352916020019161064d565b820191906000526020600020905b81548152906001019060200180831161063057829003601f168201915b5050505050815260200190600101906105b5565b50505050905090565b6060600b805480602002602001604051908101604052809291908181526020016000905b828210156106615783829060005260206000200180546106ad90610ad9565b80601f01602080910402602001604051908101604052809291908181526020018280546106d990610ad9565b80156107265780601f106106fb57610100808354040283529160200191610726565b820191906000526020600020905b81548152906001019060200180831161070957829003601f168201915b50505050508152602001906001019061068e565b60606006805480602002602001604051908101604052809291908181526020016000905b8282101561066157838290600052602060002001805461077d90610ad9565b80601f01602080910402602001604051908101604052809291908181526020018280546107a990610ad9565b80156107f65780601f106107cb576101008083540402835291602001916107f6565b820191906000526020600020905b8154815290600101906020018083116107d957829003601f168201915b50505050508152602001906001019061075e565b60606005805480602002602001604051908101604052809291908181526020016000905b8282101561066157838290600052602060002001805461084d90610ad9565b80601f016020809104026020016040519081016040528092919081815260200182805461087990610ad9565b80156108c65780601f1061089b576101008083540402835291602001916108c6565b820191906000526020600020905b8154815290600101906020018083116108a957829003601f168201915b50505050508152602001906001019061082e565b634e487b7160e01b600052604160045260246000fd5b60006020828403121561090257600080fd5b813567ffffffffffffffff8082111561091a57600080fd5b818401915084601f83011261092e57600080fd5b813581811115610940576109406108da565b604051601f8201601f19908116603f01168101908382118183101715610968576109686108da565b8160405282815287602084870101111561098157600080fd5b826020860160208301376000928101602001929092525095945050505050565b6000602082840312156109b357600080fd5b81356001600160a01b03811681146109ca57600080fd5b9392505050565b6020808252825182820181905260009190848201906040850190845b81811015610a125783516001600160a01b0316835292840192918401916001016109ed565b50909695505050505050565b6000815180845260005b81811015610a4457602081850181015186830182015201610a28565b506000602082860101526020601f19601f83011685010191505092915050565b6020815260006109ca6020830184610a1e565b6000602080830181845280855180835260408601915060408160051b870101925083870160005b82811015610acc57603f19888603018452610aba858351610a1e565b94509285019290850190600101610a9e565b5092979650505050505050565b600181811c90821680610aed57607f821691505b602082108103610b0d57634e487b7160e01b600052602260045260246000fd5b50919050565b601f821115610b5d57600081815260208120601f850160051c81016020861015610b3a5750805b601f850160051c820191505b81811015610b5957828155600101610b46565b5050505b505050565b815167ffffffffffffffff811115610b7c57610b7c6108da565b610b9081610b8a8454610ad9565b84610b13565b602080601f831160018114610bc55760008415610bad5750858301515b600019600386901b1c1916600185901b178555610b59565b600085815260208120601f198616915b82811015610bf457888601518255948401946001909101908401610bd5565b5085821015610c125787850151600019600388901b60f8161c191681555b5050505050600190811b01905550565b6000808354610c3081610ad9565b60018281168015610c485760018114610c5d57610c8c565b60ff1984168752821515830287019450610c8c565b8760005260208060002060005b85811015610c835781548a820152908401908201610c6a565b50505082870194505b50929695505050505050565b818103610ca3575050565b610cad8254610ad9565b67ffffffffffffffff811115610cc557610cc56108da565b610cd381610b8a8454610ad9565b6000601f821160018114610d075760008315610cef5750848201545b600019600385901b1c1916600184901b178455610d6c565b600085815260209020601f19841690600086815260209020845b83811015610d415782860154825560019586019590910190602001610d21565b5085831015610d5f5781850154600019600388901b60f8161c191681555b50505060018360011b0184555b505050505056fea264697066735822122077bce2b8b4422b920831157c272fe55c622e19b9dd276383bdb92d530198a42e64736f6c63430008130033a2646970667358221220a0801111be8e6f1f7ba6e3ff29ce8a0ea2379fc93a30817e0b151adc1e6e841f64736f6c63430008130033","bytecodeSha1":"94ec1faeb5351e6510279fabe7fde94f3a9f8661","compiler":{"evm_version":"istanbul","optimizer":{"enabled":true,"runs":200},"version":"0.8.19+commit.7dd6d404"},"contractName":"AutomobileRegistrationSystem","language":"Solidity","natspec":{"kind":"dev","methods":{},"version":1},"opcodes":"PUSH1 0x80 PUSH1 0x40 MSTORE CALLVALUE DUP1 ISZERO PUSH2 0x10 JUMPI PUSH1 0x0 DUP1 REVERT JUMPDEST POP PUSH1 0x4 CALLDATASIZE LT PUSH2 0xF5 JUMPI PUSH1 0x0 CALLDATALOAD PUSH1 0xE0 SHR DUP1 PUSH4 0x7FEE984B GT PUSH2 0x97 JUMPI DUP1 PUSH4 0xB327C700 GT PUSH2 0x66 JUMPI DUP1 PUSH4 0xB327C700 EQ PUSH2 0x200 JUMPI DUP1 PUSH4 0xD0F2DD5B EQ PUSH2 0x213 JUMPI DUP1 PUSH4 0xD6082A83 EQ PUSH2 0x233 JUMPI DUP1 PUSH4 0xF6BB6B37 EQ PUSH2 0x246 JUMPI PUSH1 0x0 DUP1 REVERT JUMPDEST DUP1 PUSH4 0x7FEE984B EQ PUSH2 0x1B4 JUMPI DUP1 PUSH4 0x90CA8332 EQ PUSH2 0x1C7 JUMPI DUP1 PUSH4 0xA2A6D142 EQ PUSH2 0x1DA JUMPI DUP1 PUSH4 0xAAD37C99 EQ PUSH2 0x1ED JUMPI PUSH1 0x0 DUP1 REVERT JUMPDEST DUP1 PUSH4 0x58DA1E01 GT PUSH2 0xD3 JUMPI DUP1 PUSH4 0x58DA1E01 EQ PUSH2 0x156 JUMPI DUP1 PUSH4 0x60DB168E EQ PUSH2 0x16B JUMPI DUP1 PUSH4 0x6F059E73 EQ PUSH2 0x18E JUMPI DUP1 PUSH4 0x75D12105 EQ PUSH2 0x1A1 JUMPI PUSH1 0x0 DUP1 REVERT JUMPDEST DUP1 PUSH4 0xB8CF8D1 EQ PUSH2 0xFA JUMPI DUP1 PUSH4 0x398752E0 EQ PUSH2 0x123 JUMPI DUP1 PUSH4 0x4CCA8288 EQ PUSH2 0x143 JUMPI JUMPDEST PUSH1 0x0 DUP1 REVERT JUMPDEST PUSH2 0x10D PUSH2 0x108 CALLDATASIZE PUSH1 0x4 PUSH2 0x154D JUMP JUMPDEST PUSH2 0x259 JUMP JUMPDEST PUSH1 0x40 MLOAD PUSH2 0x11A SWAP2 SWAP1 PUSH2 0x1582 JUMP JUMPDEST PUSH1 0x40 MLOAD DUP1 SWAP2 SUB SWAP1 RETURN JUMPDEST PUSH2 0x136 PUSH2 0x131 CALLDATASIZE PUSH1 0x4 PUSH2 0x154D JUMP JUMPDEST PUSH2 0x31E JUMP JUMPDEST PUSH1 0x40 MLOAD PUSH2 0x11A SWAP2 SWAP1 PUSH2 0x161F JUMP JUMPDEST PUSH2 0x136 PUSH2 0x151 CALLDATASIZE PUSH1 0x4 PUSH2 0x154D JUMP JUMPDEST PUSH2 0x3E0 JUMP JUMPDEST PUSH2 0x169 PUSH2 0x164 CALLDATASIZE PUSH1 0x4 PUSH2 0x154D JUMP JUMPDEST PUSH2 0x495 JUMP JUMPDEST STOP JUMPDEST PUSH2 0x17E PUSH2 0x179 CALLDATASIZE PUSH1 0x4 PUSH2 0x154D JUMP JUMPDEST PUSH2 0x627 JUMP JUMPDEST PUSH1 0x40 MLOAD SWAP1 ISZERO ISZERO DUP2 MSTORE PUSH1 0x20 ADD PUSH2 0x11A JUMP JUMPDEST PUSH2 0x169 PUSH2 0x19C CALLDATASIZE PUSH1 0x4 PUSH2 0x1681 JUMP JUMPDEST PUSH2 0x69D JUMP JUMPDEST PUSH2 0x169 PUSH2 0x1AF CALLDATASIZE PUSH1 0x4 PUSH2 0x1681 JUMP JUMPDEST PUSH2 0x8B4 JUMP JUMPDEST PUSH2 0x169 PUSH2 0x1C2 CALLDATASIZE PUSH1 0x4 PUSH2 0x1681 JUMP JUMPDEST PUSH2 0x986 JUMP JUMPDEST PUSH2 0x136 PUSH2 0x1D5 CALLDATASIZE PUSH1 0x4 PUSH2 0x154D JUMP JUMPDEST PUSH2 0xB24 JUMP JUMPDEST PUSH2 0x17E PUSH2 0x1E8 CALLDATASIZE PUSH1 0x4 PUSH2 0x1711 JUMP JUMPDEST PUSH2 0xBB6 JUMP JUMPDEST PUSH2 0x169 PUSH2 0x1FB CALLDATASIZE PUSH1 0x4 PUSH2 0x1681 JUMP JUMPDEST PUSH2 0xC68 JUMP JUMPDEST PUSH2 0x136 PUSH2 0x20E CALLDATASIZE PUSH1 0x4 PUSH2 0x154D JUMP JUMPDEST PUSH2 0xE46 JUMP JUMPDEST PUSH2 0x226 PUSH2 0x221 CALLDATASIZE PUSH1 0x4 PUSH2 0x154D JUMP JUMPDEST PUSH2 0xED3 JUMP JUMPDEST PUSH1 0x40 MLOAD PUSH2 0x11A SWAP2 SWAP1 PUSH2 0x1746 JUMP JUMPDEST PUSH2 0x169 PUSH2 0x241 CALLDATASIZE PUSH1 0x4 PUSH2 0x1759 JUMP JUMPDEST PUSH2 0xF8D JUMP JUMPDEST PUSH2 0x169 PUSH2 0x254 CALLDATASIZE PUSH1 0x4 PUSH2 0x1804 JUMP JUMPDEST PUSH2 0x131C JUMP JUMPDEST PUSH1 0x40 DUP1 MLOAD PUSH1 0x20 DUP1 DUP3 ADD SWAP1 SWAP3 MSTORE PUSH1 0x0 SWAP1 MSTORE DUP2 MLOAD SWAP1 DUP3 ADD KECCAK256 PUSH1 0x60 SWAP1 DUP3 SWAP1 PUSH1 0x0 DUP1 MLOAD PUSH1 0x20 PUSH2 0x1B59 DUP4 CODECOPY DUP2 MLOAD SWAP2 MSTORE ADD PUSH2 0x2A9 JUMPI PUSH1 0x40 MLOAD PUSH3 0x461BCD PUSH1 0xE5 SHL DUP2 MSTORE PUSH1 0x4 ADD PUSH2 0x2A0 SWAP1 PUSH2 0x184D JUMP JUMPDEST PUSH1 0x40 MLOAD DUP1 SWAP2 SUB SWAP1 REVERT JUMPDEST PUSH2 0x2B2 DUP4 PUSH2 0x13D7 JUMP JUMPDEST PUSH1 0x1 PUSH1 0x1 PUSH1 0xA0 SHL SUB AND PUSH4 0x58100370 PUSH1 0x40 MLOAD DUP2 PUSH4 0xFFFFFFFF AND PUSH1 0xE0 SHL DUP2 MSTORE PUSH1 0x4 ADD PUSH1 0x0 PUSH1 0x40 MLOAD DUP1 DUP4 SUB DUP2 DUP7 GAS STATICCALL ISZERO DUP1 ISZERO PUSH2 0x2EF JUMPI RETURNDATASIZE PUSH1 0x0 DUP1 RETURNDATACOPY RETURNDATASIZE PUSH1 0x0 REVERT JUMPDEST POP POP POP POP PUSH1 0x40 MLOAD RETURNDATASIZE PUSH1 0x0 DUP3 RETURNDATACOPY PUSH1 0x1F RETURNDATASIZE SWAP1 DUP2 ADD PUSH1 0x1F NOT AND DUP3 ADD PUSH1 0x40 MSTORE PUSH2 0x317 SWAP2 SWAP1 DUP2 ADD SWAP1 PUSH2 0x189D JUMP JUMPDEST SWAP4 SWAP3 POP POP POP JUMP JUMPDEST PUSH1 0x40 DUP1 MLOAD PUSH1 0x20 DUP1 DUP3 ADD SWAP1 SWAP3 MSTORE PUSH1 0x0 SWAP1 MSTORE DUP2 MLOAD SWAP1 DUP3 ADD KECCAK256 PUSH1 0x60 SWAP1 DUP3 SWAP1 PUSH1 0x0 DUP1 MLOAD PUSH1 0x20 PUSH2 0x1B59 DUP4 CODECOPY DUP2 MLOAD SWAP2 MSTORE ADD PUSH2 0x365 JUMPI PUSH1 0x40 MLOAD PUSH3 0x461BCD PUSH1 0xE5 SHL DUP2 MSTORE PUSH1 0x4 ADD PUSH2 0x2A0 SWAP1 PUSH2 0x184D JUMP JUMPDEST PUSH1 0x0 PUSH2 0x370 DUP5 PUSH2 0x13D7 JUMP JUMPDEST SWAP1 POP DUP1 PUSH1 0x1 PUSH1 0x1 PUSH1 0xA0 SHL SUB AND PUSH4 0xE4085D67 PUSH1 0x40 MLOAD DUP2 PUSH4 0xFFFFFFFF AND PUSH1 0xE0 SHL DUP2 MSTORE PUSH1 0x4 ADD PUSH1 0x0 PUSH1 0x40 MLOAD DUP1 DUP4 SUB DUP2 DUP7 GAS STATICCALL ISZERO DUP1 ISZERO PUSH2 0x3B0 JUMPI RETURNDATASIZE PUSH1 0x0 DUP1 RETURNDATACOPY RETURNDATASIZE PUSH1 0x0 REVERT JUMPDEST POP POP POP POP PUSH1 0x40 MLOAD RETURNDATASIZE PUSH1 0x0 DUP3 RETURNDATACOPY PUSH1 0x1F RETURNDATASIZE SWAP1 DUP2 ADD PUSH1 0x1F NOT AND DUP3 ADD PUSH1 0x40 MSTORE PUSH2 0x3D8 SWAP2 SWAP1 DUP2 ADD SWAP1 PUSH2 0x197C JUMP JUMPDEST SWAP5 SWAP4 POP POP POP POP JUMP JUMPDEST PUSH1 0x40 DUP1 MLOAD PUSH1 0x20 DUP1 DUP3 ADD SWAP1 SWAP3 MSTORE PUSH1 0x0 SWAP1 MSTORE DUP2 MLOAD SWAP1 DUP3 ADD KECCAK256 PUSH1 0x60 SWAP1 DUP3 SWAP1 PUSH1 0x0 DUP1 MLOAD PUSH1 0x20 PUSH2 0x1B59 DUP4 CODECOPY DUP2 MLOAD SWAP2 MSTORE ADD PUSH2 0x427 JUMPI PUSH1 0x40 MLOAD PUSH3 0x461BCD PUSH1 0xE5 SHL DUP2 MSTORE PUSH1 0x4 ADD PUSH2 0x2A0 SWAP1 PUSH2 0x184D JUMP JUMPDEST PUSH2 0x430 DUP4 PUSH2 0x13D7 JUMP JUMPDEST PUSH1 0x1 PUSH1 0x1 PUSH1 0xA0 SHL SUB AND PUSH4 0xB5CD26F8 PUSH1 0x40 MLOAD DUP2 PUSH4 0xFFFFFFFF AND PUSH1 0xE0 SHL DUP2 MSTORE PUSH1 0x4 ADD PUSH1 0x0 PUSH1 0x40 MLOAD DUP1 DUP4 SUB DUP2 DUP7 GAS STATICCALL ISZERO DUP1 ISZERO PUSH2 0x46D JUMPI RETURNDATASIZE PUSH1 0x0 DUP1 RETURNDATACOPY RETURNDATASIZE PUSH1 0x0 REVERT JUMPDEST POP POP POP POP PUSH1 0x40 MLOAD RETURNDATASIZE PUSH1 0x0 DUP3 RETURNDATACOPY PUSH1 0x1F RETURNDATASIZE SWAP1 DUP2 ADD PUSH1 0x1F NOT AND DUP3 ADD PUSH1 0x40 MSTORE PUSH2 0x317 SWAP2 SWAP1 DUP2 ADD SWAP1 PUSH2 0x197C JUMP JUMPDEST PUSH1 0x40 DUP1 MLOAD PUSH1 0x20 DUP1 DUP3 ADD SWAP1 SWAP3 MSTORE PUSH1 0x0 SWAP1 MSTORE DUP2 MLOAD SWAP1 DUP3 ADD KECCAK256 DUP2 SWAP1 PUSH1 0x0 DUP1 MLOAD PUSH1 0x20 PUSH2 0x1B59 DUP4 CODECOPY DUP2 MLOAD SWAP2 MSTORE ADD PUSH2 0x4D9 JUMPI PUSH1 0x40 MLOAD PUSH3 0x461BCD PUSH1 0xE5 SHL DUP2 MSTORE PUSH1 0x4 ADD PUSH2 0x2A0 SWAP1 PUSH2 0x184D JUMP JUMPDEST PUSH1 0x1 SLOAD PUSH1 0x40 MLOAD PUSH4 0x4B22DC91 PUSH1 0xE0 SHL DUP2 MSTORE DUP4 SWAP2 PUSH1 0x1 PUSH1 0x1 PUSH1 0xA0 SHL SUB AND SWAP1 PUSH4 0x4B22DC91 SWAP1 PUSH2 0x509 SWAP1 DUP5 SWAP1 PUSH1 0x4 ADD PUSH2 0x1746 JUMP JUMPDEST PUSH1 0x20 PUSH1 0x40 MLOAD DUP1 DUP4 SUB DUP2 DUP7 GAS STATICCALL ISZERO DUP1 ISZERO PUSH2 0x526 JUMPI RETURNDATASIZE PUSH1 0x0 DUP1 RETURNDATACOPY RETURNDATASIZE PUSH1 0x0 REVERT JUMPDEST POP POP POP POP PUSH1 0x40 MLOAD RETURNDATASIZE PUSH1 0x1F NOT PUSH1 0x1F DUP3 ADD AND DUP3 ADD DUP1 PUSH1 0x40 MSTORE POP DUP2 ADD SWAP1 PUSH2 0x54A SWAP2 SWAP1 PUSH2 0x1A2D JUMP JUMPDEST PUSH1 0x1 PUSH1 0x1 PUSH1 0xA0 SHL SUB AND PUSH4 0x5AD70D12 PUSH1 0x40 MLOAD DUP2 PUSH4 0xFFFFFFFF AND PUSH1 0xE0 SHL DUP2 MSTORE PUSH1 0x4 ADD PUSH1 0x20 PUSH1 0x40 MLOAD DUP1 DUP4 SUB DUP2 DUP7 GAS STATICCALL ISZERO DUP1 ISZERO PUSH2 0x587 JUMPI RETURNDATASIZE PUSH1 0x0 DUP1 RETURNDATACOPY RETURNDATASIZE PUSH1 0x0 REVERT JUMPDEST POP POP POP POP PUSH1 0x40 MLOAD RETURNDATASIZE PUSH1 0x1F NOT PUSH1 0x1F DUP3 ADD AND DUP3 ADD DUP1 PUSH1 0x40 MSTORE POP DUP2 ADD SWAP1 PUSH2 0x5AB SWAP2 SWAP1 PUSH2 0x1A4A JUMP JUMPDEST PUSH2 0x5C7 JUMPI PUSH1 0x40 MLOAD PUSH3 0x461BCD PUSH1 0xE5 SHL DUP2 MSTORE PUSH1 0x4 ADD PUSH2 0x2A0 SWAP1 PUSH2 0x1A67 JUMP JUMPDEST PUSH2 0x5D0 DUP4 PUSH2 0x13D7 JUMP JUMPDEST PUSH1 0x1 PUSH1 0x1 PUSH1 0xA0 SHL SUB AND PUSH4 0xB3610F37 PUSH1 0x40 MLOAD DUP2 PUSH4 0xFFFFFFFF AND PUSH1 0xE0 SHL DUP2 MSTORE PUSH1 0x4 ADD PUSH1 0x0 PUSH1 0x40 MLOAD DUP1 DUP4 SUB DUP2 PUSH1 0x0 DUP8 DUP1 EXTCODESIZE ISZERO DUP1 ISZERO PUSH2 0x60A JUMPI PUSH1 0x0 DUP1 REVERT JUMPDEST POP GAS CALL ISZERO DUP1 ISZERO PUSH2 0x61E JUMPI RETURNDATASIZE PUSH1 0x0 DUP1 RETURNDATACOPY RETURNDATASIZE PUSH1 0x0 REVERT JUMPDEST POP POP POP POP POP POP POP JUMP JUMPDEST PUSH1 0x1 SLOAD PUSH1 0x40 MLOAD PUSH4 0x7832E6E3 PUSH1 0xE0 SHL DUP2 MSTORE PUSH1 0x0 SWAP2 DUP3 SWAP2 PUSH1 0x1 PUSH1 0x1 PUSH1 0xA0 SHL SUB SWAP1 SWAP2 AND SWAP1 PUSH4 0x7832E6E3 SWAP1 PUSH2 0x65C SWAP1 DUP7 SWAP1 PUSH1 0x4 ADD PUSH2 0x1746 JUMP JUMPDEST PUSH1 0x20 PUSH1 0x40 MLOAD DUP1 DUP4 SUB DUP2 DUP7 GAS STATICCALL ISZERO DUP1 ISZERO PUSH2 0x679 JUMPI RETURNDATASIZE PUSH1 0x0 DUP1 RETURNDATACOPY RETURNDATASIZE PUSH1 0x0 REVERT JUMPDEST POP POP POP POP PUSH1 0x40 MLOAD RETURNDATASIZE PUSH1 0x1F NOT PUSH1 0x1F DUP3 ADD AND DUP3 ADD DUP1 PUSH1 0x40 MSTORE POP DUP2 ADD SWAP1 PUSH2 0x317 SWAP2 SWAP1 PUSH2 0x1A4A JUMP JUMPDEST PUSH1 0x40 DUP1 MLOAD PUSH1 0x20 DUP1 DUP3 ADD SWAP1 SWAP3 MSTORE PUSH1 0x0 SWAP1 MSTORE DUP3 MLOAD SWAP1 DUP4 ADD KECCAK256 DUP3 SWAP1 PUSH1 0x0 DUP1 MLOAD PUSH1 0x20 PUSH2 0x1B59 DUP4 CODECOPY DUP2 MLOAD SWAP2 MSTORE ADD PUSH2 0x6E1 JUMPI PUSH1 0x40 MLOAD PUSH3 0x461BCD PUSH1 0xE5 SHL DUP2 MSTORE PUSH1 0x4 ADD PUSH2 0x2A0 SWAP1 PUSH2 0x184D JUMP JUMPDEST PUSH1 0x1 SLOAD PUSH1 0x40 MLOAD PUSH4 0x4B22DC91 PUSH1 0xE0 SHL DUP2 MSTORE DUP5 SWAP2 PUSH1 0x1 PUSH1 0x1 PUSH1 0xA0 SHL SUB AND SWAP1 PUSH4 0x4B22DC91 SWAP1 PUSH2 0x711 SWAP1 DUP5 SWAP1 PUSH1 0x4 ADD PUSH2 0x1746 JUMP JUMPDEST PUSH1 0x20 PUSH1 0x40 MLOAD DUP1 DUP4 SUB DUP2 DUP7 GAS STATICCALL ISZERO DUP1 ISZERO PUSH2 0x72E JUMPI RETURNDATASIZE PUSH1 0x0 DUP1 RETURNDATACOPY RETURNDATASIZE PUSH1 0x0 REVERT JUMPDEST POP POP POP POP PUSH1 0x40 MLOAD RETURNDATASIZE PUSH1 0x1F NOT PUSH1 0x1F DUP3 ADD AND DUP3 ADD DUP1 PUSH1 0x40 MSTORE POP DUP2 ADD SWAP1 PUSH2 0x752 SWAP2 SWAP1 PUSH2 0x1A2D JUMP JUMPDEST PUSH1 0x1 PUSH1 0x1 PUSH1 0xA0 SHL SUB AND PUSH4 0x5AD70D12 PUSH1 0x40 MLOAD DUP2 PUSH4 0xFFFFFFFF AND PUSH1 0xE0 SHL DUP2 MSTORE PUSH1 0x4 ADD PUSH1 0x20 PUSH1 0x40 MLOAD DUP1 DUP4 SUB DUP2 DUP7 GAS STATICCALL ISZERO DUP1 ISZERO PUSH2 0x78F JUMPI RETURNDATASIZE PUSH1 0x0 DUP1 RETURNDATACOPY RETURNDATASIZE PUSH1 0x0 REVERT JUMPDEST POP POP POP POP PUSH1 0x40 MLOAD RETURNDATASIZE PUSH1 0x1F NOT PUSH1 0x1F DUP3 ADD AND DUP3 ADD DUP1 PUSH1 0x40 MSTORE POP DUP2 ADD SWAP1 PUSH2 0x7B3 SWAP2 SWAP1 PUSH2 0x1A4A JUMP JUMPDEST PUSH2 0x7CF JUMPI PUSH1 0x40 MLOAD PUSH3 0x461BCD PUSH1 0xE5 SHL DUP2 MSTORE PUSH1 0x4 ADD PUSH2 0x2A0 SWAP1 PUSH2 0x1A67 JUMP JUMPDEST PUSH1 0x40 DUP1 MLOAD PUSH1 0x20 DUP1 DUP3 ADD SWAP1 SWAP3 MSTORE PUSH1 0x0 SWAP1 MSTORE DUP4 MLOAD SWAP1 DUP5 ADD KECCAK256 PUSH1 0x0 DUP1 MLOAD PUSH1 0x20 PUSH2 0x1B59 DUP4 CODECOPY DUP2 MLOAD SWAP2 MSTORE ADD PUSH2 0x841 JUMPI PUSH1 0x40 MLOAD PUSH3 0x461BCD PUSH1 0xE5 SHL DUP2 MSTORE PUSH1 0x20 PUSH1 0x4 DUP3 ADD MSTORE PUSH1 0x19 PUSH1 0x24 DUP3 ADD MSTORE PUSH32 0x506C656173652070726F76696465206D6F726520696E666F7300000000000000 PUSH1 0x44 DUP3 ADD MSTORE PUSH1 0x64 ADD PUSH2 0x2A0 JUMP JUMPDEST PUSH1 0x0 PUSH2 0x84C DUP6 PUSH2 0x13D7 JUMP JUMPDEST PUSH1 0x40 MLOAD PUSH4 0x134044A1 PUSH1 0xE0 SHL DUP2 MSTORE SWAP1 SWAP2 POP PUSH1 0x1 PUSH1 0x1 PUSH1 0xA0 SHL SUB DUP3 AND SWAP1 PUSH4 0x134044A1 SWAP1 PUSH2 0x87B SWAP1 DUP8 SWAP1 PUSH1 0x4 ADD PUSH2 0x1746 JUMP JUMPDEST PUSH1 0x0 PUSH1 0x40 MLOAD DUP1 DUP4 SUB DUP2 PUSH1 0x0 DUP8 DUP1 EXTCODESIZE ISZERO DUP1 ISZERO PUSH2 0x895 JUMPI PUSH1 0x0 DUP1 REVERT JUMPDEST POP GAS CALL ISZERO DUP1 ISZERO PUSH2 0x8A9 JUMPI RETURNDATASIZE PUSH1 0x0 DUP1 RETURNDATACOPY RETURNDATASIZE PUSH1 0x0 REVERT JUMPDEST POP POP POP POP POP POP POP POP POP JUMP JUMPDEST PUSH1 0x40 DUP1 MLOAD PUSH1 0x20 DUP1 DUP3 ADD SWAP1 SWAP3 MSTORE PUSH1 0x0 SWAP1 MSTORE DUP3 MLOAD SWAP1 DUP4 ADD KECCAK256 DUP3 SWAP1 PUSH1 0x0 DUP1 MLOAD PUSH1 0x20 PUSH2 0x1B59 DUP4 CODECOPY DUP2 MLOAD SWAP2 MSTORE ADD PUSH2 0x8F8 JUMPI PUSH1 0x40 MLOAD PUSH3 0x461BCD PUSH1 0xE5 SHL DUP2 MSTORE PUSH1 0x4 ADD PUSH2 0x2A0 SWAP1 PUSH2 0x184D JUMP JUMPDEST PUSH1 0x40 DUP1 MLOAD PUSH1 0x20 DUP1 DUP3 ADD SWAP1 SWAP3 MSTORE PUSH1 0x0 SWAP1 MSTORE DUP3 MLOAD SWAP1 DUP4 ADD KECCAK256 PUSH1 0x0 DUP1 MLOAD PUSH1 0x20 PUSH2 0x1B59 DUP4 CODECOPY DUP2 MLOAD SWAP2 MSTORE ADD PUSH2 0x93A JUMPI PUSH1 0x40 MLOAD PUSH3 0x461BCD PUSH1 0xE5 SHL DUP2 MSTORE PUSH1 0x4 ADD PUSH2 0x2A0 SWAP1 PUSH2 0x1A9E JUMP JUMPDEST PUSH1 0x1 SLOAD PUSH1 0x40 MLOAD PUSH4 0x3DE4DE8F PUSH1 0xE0 SHL DUP2 MSTORE PUSH1 0x1 PUSH1 0x1 PUSH1 0xA0 SHL SUB SWAP1 SWAP2 AND SWAP1 PUSH4 0x3DE4DE8F SWAP1 PUSH2 0x96C SWAP1 DUP7 SWAP1 DUP7 SWAP1 PUSH1 0x4 ADD PUSH2 0x1ADF JUMP JUMPDEST PUSH1 0x0 PUSH1 0x40 MLOAD DUP1 DUP4 SUB DUP2 PUSH1 0x0 DUP8 DUP1 EXTCODESIZE ISZERO DUP1 ISZERO PUSH2 0x60A JUMPI PUSH1 0x0 DUP1 REVERT JUMPDEST PUSH1 0x40 DUP1 MLOAD PUSH1 0x20 DUP1 DUP3 ADD SWAP1 SWAP3 MSTORE PUSH1 0x0 SWAP1 MSTORE DUP3 MLOAD SWAP1 DUP4 ADD KECCAK256 DUP3 SWAP1 PUSH1 0x0 DUP1 MLOAD PUSH1 0x20 PUSH2 0x1B59 DUP4 CODECOPY DUP2 MLOAD SWAP2 MSTORE ADD PUSH2 0x9CA JUMPI PUSH1 0x40 MLOAD PUSH3 0x461BCD PUSH1 0xE5 SHL DUP2 MSTORE PUSH1 0x4 ADD PUSH2 0x2A0 SWAP1 PUSH2 0x184D JUMP JUMPDEST PUSH1 0x1 SLOAD PUSH1 0x40 MLOAD PUSH4 0x4B22DC91 PUSH1 0xE0 SHL DUP2 MSTORE DUP5 SWAP2 PUSH1 0x1 PUSH1 0x1 PUSH1 0xA0 SHL SUB AND SWAP1 PUSH4 0x4B22DC91 SWAP1 PUSH2 0x9FA SWAP1 DUP5 SWAP1 PUSH1 0x4 ADD PUSH2 0x1746 JUMP JUMPDEST PUSH1 0x20 PUSH1 0x40 MLOAD DUP1 DUP4 SUB DUP2 DUP7 GAS STATICCALL ISZERO DUP1 ISZERO PUSH2 0xA17 JUMPI RETURNDATASIZE PUSH1 0x0 DUP1 RETURNDATACOPY RETURNDATASIZE PUSH1 0x0 REVERT JUMPDEST POP POP POP POP PUSH1 0x40 MLOAD RETURNDATASIZE PUSH1 0x1F NOT PUSH1 0x1F DUP3 ADD AND DUP3 ADD DUP1 PUSH1 0x40 MSTORE POP DUP2 ADD SWAP1 PUSH2 0xA3B SWAP2 SWAP1 PUSH2 0x1A2D JUMP JUMPDEST PUSH1 0x1 PUSH1 0x1 PUSH1 0xA0 SHL SUB AND PUSH4 0x5AD70D12 PUSH1 0x40 MLOAD DUP2 PUSH4 0xFFFFFFFF AND PUSH1 0xE0 SHL DUP2 MSTORE PUSH1 0x4 ADD PUSH1 0x20 PUSH1 0x40 MLOAD DUP1 DUP4 SUB DUP2 DUP7 GAS STATICCALL ISZERO DUP1 ISZERO PUSH2 0xA78 JUMPI RETURNDATASIZE PUSH1 0x0 DUP1 RETURNDATACOPY RETURNDATASIZE PUSH1 0x0 REVERT JUMPDEST POP POP POP POP PUSH1 0x40 MLOAD RETURNDATASIZE PUSH1 0x1F NOT PUSH1 0x1F DUP3 ADD AND DUP3 ADD DUP1 PUSH1 0x40 MSTORE POP DUP2 ADD SWAP1 PUSH2 0xA9C SWAP2 SWAP1 PUSH2 0x1A4A JUMP JUMPDEST PUSH2 0xAB8 JUMPI PUSH1 0x40 MLOAD PUSH3 0x461BCD PUSH1 0xE5 SHL DUP2 MSTORE PUSH1 0x4 ADD PUSH2 0x2A0 SWAP1 PUSH2 0x1A67 JUMP JUMPDEST PUSH2 0xAC1 DUP5 PUSH2 0x13D7 JUMP JUMPDEST PUSH1 0x1 PUSH1 0x1 PUSH1 0xA0 SHL SUB AND PUSH4 0x457CF35B DUP5 PUSH1 0x40 MLOAD DUP3 PUSH4 0xFFFFFFFF AND PUSH1 0xE0 SHL DUP2 MSTORE PUSH1 0x4 ADD PUSH2 0xAEC SWAP2 SWAP1 PUSH2 0x1746 JUMP JUMPDEST PUSH1 0x0 PUSH1 0x40 MLOAD DUP1 DUP4 SUB DUP2 PUSH1 0x0 DUP8 DUP1 EXTCODESIZE ISZERO DUP1 ISZERO PUSH2 0xB06 JUMPI PUSH1 0x0 DUP1 REVERT JUMPDEST POP GAS CALL ISZERO DUP1 ISZERO PUSH2 0xB1A JUMPI RETURNDATASIZE PUSH1 0x0 DUP1 RETURNDATACOPY RETURNDATASIZE PUSH1 0x0 REVERT JUMPDEST POP POP POP POP POP POP POP POP JUMP JUMPDEST PUSH1 0x40 DUP1 MLOAD PUSH1 0x20 DUP1 DUP3 ADD SWAP1 SWAP3 MSTORE PUSH1 0x0 SWAP1 MSTORE DUP2 MLOAD SWAP1 DUP3 ADD KECCAK256 PUSH1 0x60 SWAP1 DUP3 SWAP1 PUSH1 0x0 DUP1 MLOAD PUSH1 0x20 PUSH2 0x1B59 DUP4 CODECOPY DUP2 MLOAD SWAP2 MSTORE ADD PUSH2 0xB6B JUMPI PUSH1 0x40 MLOAD PUSH3 0x461BCD PUSH1 0xE5 SHL DUP2 MSTORE PUSH1 0x4 ADD PUSH2 0x2A0 SWAP1 PUSH2 0x184D JUMP JUMPDEST PUSH1 0x0 PUSH2 0xB76 DUP5 PUSH2 0x13D7 JUMP JUMPDEST SWAP1 POP DUP1 PUSH1 0x1 PUSH1 0x1 PUSH1 0xA0 SHL SUB AND PUSH4 0xBD51B8E0 PUSH1 0x40 MLOAD DUP2 PUSH4 0xFFFFFFFF AND PUSH1 0xE0 SHL DUP2 MSTORE PUSH1 0x4 ADD PUSH1 0x0 PUSH1 0x40 MLOAD DUP1 DUP4 SUB DUP2 DUP7 GAS STATICCALL ISZERO DUP1 ISZERO PUSH2 0x3B0 JUMPI RETURNDATASIZE PUSH1 0x0 DUP1 RETURNDATACOPY RETURNDATASIZE PUSH1 0x0 REVERT JUMPDEST PUSH1 0x0 DUP1 SLOAD PUSH1 0x1 PUSH1 0x1 PUSH1 0xA0 SHL SUB AND CALLER EQ PUSH2 0xC11 JUMPI PUSH1 0x40 MLOAD PUSH3 0x461BCD PUSH1 0xE5 SHL DUP2 MSTORE PUSH1 0x20 PUSH1 0x4 DUP3 ADD MSTORE PUSH1 0x1E PUSH1 0x24 DUP3 ADD MSTORE PUSH32 0x596F75277265206E6F7420746865206F776E65722C2061626F7274696E670000 PUSH1 0x44 DUP3 ADD MSTORE PUSH1 0x64 ADD PUSH2 0x2A0 JUMP JUMPDEST PUSH1 0x1 PUSH1 0x1 PUSH1 0xA0 SHL SUB DUP4 AND PUSH1 0x0 SWAP1 DUP2 MSTORE PUSH1 0x2 PUSH1 0x20 MSTORE PUSH1 0x40 DUP2 KECCAK256 SWAP1 DUP4 PUSH1 0x3 DUP2 GT ISZERO PUSH2 0xC3C JUMPI PUSH2 0xC3C PUSH2 0x1B0D JUMP JUMPDEST PUSH1 0x3 DUP2 GT ISZERO PUSH2 0xC4D JUMPI PUSH2 0xC4D PUSH2 0x1B0D JUMP JUMPDEST DUP2 MSTORE PUSH1 0x20 DUP2 ADD SWAP2 SWAP1 SWAP2 MSTORE PUSH1 0x40 ADD PUSH1 0x0 KECCAK256 SLOAD PUSH1 0xFF AND SWAP4 SWAP3 POP POP POP JUMP JUMPDEST PUSH1 0x40 DUP1 MLOAD PUSH1 0x20 DUP1 DUP3 ADD SWAP1 SWAP3 MSTORE PUSH1 0x0 SWAP1 MSTORE DUP3 MLOAD SWAP1 DUP4 ADD KECCAK256 DUP3 SWAP1 PUSH1 0x0 DUP1 MLOAD PUSH1 0x20 PUSH2 0x1B59 DUP4 CODECOPY DUP2 MLOAD SWAP2 MSTORE ADD PUSH2 0xCAC JUMPI PUSH1 0x40 MLOAD PUSH3 0x461BCD PUSH1 0xE5 SHL DUP2 MSTORE PUSH1 0x4 ADD PUSH2 0x2A0 SWAP1 PUSH2 0x184D JUMP JUMPDEST PUSH1 0x1 SLOAD PUSH1 0x40 MLOAD PUSH4 0x4B22DC91 PUSH1 0xE0 SHL DUP2 MSTORE DUP5 SWAP2 PUSH1 0x1 PUSH1 0x1 PUSH1 0xA0 SHL SUB AND SWAP1 PUSH4 0x4B22DC91 SWAP1 PUSH2 0xCDC SWAP1 DUP5 SWAP1 PUSH1 0x4 ADD PUSH2 0x1746 JUMP JUMPDEST PUSH1 0x20 PUSH1 0x40 MLOAD DUP1 DUP4 SUB DUP2 DUP7 GAS STATICCALL ISZERO DUP1 ISZERO PUSH2 0xCF9 JUMPI RETURNDATASIZE PUSH1 0x0 DUP1 RETURNDATACOPY RETURNDATASIZE PUSH1 0x0 REVERT JUMPDEST POP POP POP POP PUSH1 0x40 MLOAD RETURNDATASIZE PUSH1 0x1F NOT PUSH1 0x1F DUP3 ADD AND DUP3 ADD DUP1 PUSH1 0x40 MSTORE POP DUP2 ADD SWAP1 PUSH2 0xD1D SWAP2 SWAP1 PUSH2 0x1A2D JUMP JUMPDEST PUSH1 0x1 PUSH1 0x1 PUSH1 0xA0 SHL SUB AND PUSH4 0x5AD70D12 PUSH1 0x40 MLOAD DUP2 PUSH4 0xFFFFFFFF AND PUSH1 0xE0 SHL DUP2 MSTORE PUSH1 0x4 ADD PUSH1 0x20 PUSH1 0x40 MLOAD DUP1 DUP4 SUB DUP2 DUP7 GAS STATICCALL ISZERO DUP1 ISZERO PUSH2 0xD5A JUMPI RETURNDATASIZE PUSH1 0x0 DUP1 RETURNDATACOPY RETURNDATASIZE PUSH1 0x0 REVERT JUMPDEST POP POP POP POP PUSH1 0x40 MLOAD RETURNDATASIZE PUSH1 0x1F NOT PUSH1 0x1F DUP3 ADD AND DUP3 ADD DUP1 PUSH1 0x40 MSTORE POP DUP2 ADD SWAP1 PUSH2 0xD7E SWAP2 SWAP1 PUSH2 0x1A4A JUMP JUMPDEST PUSH2 0xD9A JUMPI PUSH1 0x40 MLOAD PUSH3 0x461BCD PUSH1 0xE5 SHL DUP2 MSTORE PUSH1 0x4 ADD PUSH2 0x2A0 SWAP1 PUSH2 0x1A67 JUMP JUMPDEST PUSH1 0x40 DUP1 MLOAD PUSH1 0x20 DUP1 DUP3 ADD SWAP1 SWAP3 MSTORE PUSH1 0x0 SWAP1 MSTORE DUP4 MLOAD SWAP1 DUP5 ADD KECCAK256 PUSH1 0x0 DUP1 MLOAD PUSH1 0x20 PUSH2 0x1B59 DUP4 CODECOPY DUP2 MLOAD SWAP2 MSTORE ADD PUSH2 0xE0C JUMPI PUSH1 0x40 MLOAD PUSH3 0x461BCD PUSH1 0xE5 SHL DUP2 MSTORE PUSH1 0x20 PUSH1 0x4 DUP3 ADD MSTORE PUSH1 0x1F PUSH1 0x24 DUP3 ADD MSTORE PUSH32 0x506C656173652070726F76696465206120636F7272656374207265706F727400 PUSH1 0x44 DUP3 ADD MSTORE PUSH1 0x64 ADD PUSH2 0x2A0 JUMP JUMPDEST PUSH1 0x0 PUSH2 0xE17 DUP6 PUSH2 0x13D7 JUMP JUMPDEST PUSH1 0x40 MLOAD PUSH4 0x2BE527F3 PUSH1 0xE1 SHL DUP2 MSTORE SWAP1 SWAP2 POP PUSH1 0x1 PUSH1 0x1 PUSH1 0xA0 SHL SUB DUP3 AND SWAP1 PUSH4 0x57CA4FE6 SWAP1 PUSH2 0x87B SWAP1 DUP8 SWAP1 PUSH1 0x4 ADD PUSH2 0x1746 JUMP JUMPDEST PUSH1 0x40 DUP1 MLOAD PUSH1 0x20 DUP1 DUP3 ADD SWAP1 SWAP3 MSTORE PUSH1 0x0 SWAP1 MSTORE DUP2 MLOAD SWAP1 DUP3 ADD KECCAK256 PUSH1 0x60 SWAP1 DUP3 SWAP1 PUSH1 0x0 DUP1 MLOAD PUSH1 0x20 PUSH2 0x1B59 DUP4 CODECOPY DUP2 MLOAD SWAP2 MSTORE ADD PUSH2 0xE8D JUMPI PUSH1 0x40 MLOAD PUSH3 0x461BCD PUSH1 0xE5 SHL DUP2 MSTORE PUSH1 0x4 ADD PUSH2 0x2A0 SWAP1 PUSH2 0x184D JUMP JUMPDEST PUSH2 0xE96 DUP4 PUSH2 0x13D7 JUMP JUMPDEST PUSH1 0x1 PUSH1 0x1 PUSH1 0xA0 SHL SUB AND PUSH4 0x888DBBC1 PUSH1 0x40 MLOAD DUP2 PUSH4 0xFFFFFFFF AND PUSH1 0xE0 SHL DUP2 MSTORE PUSH1 0x4 ADD PUSH1 0x0 PUSH1 0x40 MLOAD DUP1 DUP4 SUB DUP2 DUP7 GAS STATICCALL ISZERO DUP1 ISZERO PUSH2 0x46D JUMPI RETURNDATASIZE PUSH1 0x0 DUP1 RETURNDATACOPY RETURNDATASIZE PUSH1 0x0 REVERT JUMPDEST PUSH1 0x40 DUP1 MLOAD PUSH1 0x20 DUP1 DUP3 ADD SWAP1 SWAP3 MSTORE PUSH1 0x0 SWAP1 MSTORE DUP2 MLOAD SWAP1 DUP3 ADD KECCAK256 PUSH1 0x60 SWAP1 DUP3 SWAP1 PUSH1 0x0 DUP1 MLOAD PUSH1 0x20 PUSH2 0x1B59 DUP4 CODECOPY DUP2 MLOAD SWAP2 MSTORE ADD PUSH2 0xF1A JUMPI PUSH1 0x40 MLOAD PUSH3 0x461BCD PUSH1 0xE5 SHL DUP2 MSTORE PUSH1 0x4 ADD PUSH2 0x2A0 SWAP1 PUSH2 0x184D JUMP JUMPDEST PUSH1 0x0 PUSH2 0xF25 DUP5 PUSH2 0x13D7 JUMP JUMPDEST SWAP1 POP DUP1 PUSH1 0x1 PUSH1 0x1 PUSH1 0xA0 SHL SUB AND PUSH4 0x643D6DC0 PUSH1 0x40 MLOAD DUP2 PUSH4 0xFFFFFFFF AND PUSH1 0xE0 SHL DUP2 MSTORE PUSH1 0x4 ADD PUSH1 0x0 PUSH1 0x40 MLOAD DUP1 DUP4 SUB DUP2 DUP7 GAS STATICCALL ISZERO DUP1 ISZERO PUSH2 0xF65 JUMPI RETURNDATASIZE PUSH1 0x0 DUP1 RETURNDATACOPY RETURNDATASIZE PUSH1 0x0 REVERT JUMPDEST POP POP POP POP PUSH1 0x40 MLOAD RETURNDATASIZE PUSH1 0x0 DUP3 RETURNDATACOPY PUSH1 0x1F RETURNDATASIZE SWAP1 DUP2 ADD PUSH1 0x1F NOT AND DUP3 ADD PUSH1 0x40 MSTORE PUSH2 0x3D8 SWAP2 SWAP1 DUP2 ADD SWAP1 PUSH2 0x1B23 JUMP JUMPDEST PUSH1 0x40 DUP1 MLOAD PUSH1 0x20 DUP1 DUP3 ADD SWAP1 SWAP3 MSTORE PUSH1 0x0 SWAP1 MSTORE DUP5 MLOAD SWAP1 DUP6 ADD KECCAK256 DUP5 SWAP1 PUSH1 0x0 DUP1 MLOAD PUSH1 0x20 PUSH2 0x1B59 DUP4 CODECOPY DUP2 MLOAD SWAP2 MSTORE ADD PUSH2 0xFD1 JUMPI PUSH1 0x40 MLOAD PUSH3 0x461BCD PUSH1 0xE5 SHL DUP2 MSTORE PUSH1 0x4 ADD PUSH2 0x2A0 SWAP1 PUSH2 0x184D JUMP JUMPDEST PUSH1 0x1 SLOAD PUSH1 0x40 MLOAD PUSH4 0x4B22DC91 PUSH1 0xE0 SHL DUP2 MSTORE DUP7 SWAP2 PUSH1 0x1 PUSH1 0x1 PUSH1 0xA0 SHL SUB AND SWAP1 PUSH4 0x4B22DC91 SWAP1 PUSH2 0x1001 SWAP1 DUP5 SWAP1 PUSH1 0x4 ADD PUSH2 0x1746 JUMP JUMPDEST PUSH1 0x20 PUSH1 0x40 MLOAD DUP1 DUP4 SUB DUP2 DUP7 GAS STATICCALL ISZERO DUP1 ISZERO PUSH2 0x101E JUMPI RETURNDATASIZE PUSH1 0x0 DUP1 RETURNDATACOPY RETURNDATASIZE PUSH1 0x0 REVERT JUMPDEST POP POP POP POP PUSH1 0x40 MLOAD RETURNDATASIZE PUSH1 0x1F NOT PUSH1 0x1F DUP3 ADD AND DUP3 ADD DUP1 PUSH1 0x40 MSTORE POP DUP2 ADD SWAP1 PUSH2 0x1042 SWAP2 SWAP1 PUSH2 0x1A2D JUMP JUMPDEST PUSH1 0x1 PUSH1 0x1 PUSH1 0xA0 SHL SUB AND PUSH4 0x5AD70D12 PUSH1 0x40 MLOAD DUP2 PUSH4 0xFFFFFFFF AND PUSH1 0xE0 SHL DUP2 MSTORE PUSH1 0x4 ADD PUSH1 0x20 PUSH1 0x40 MLOAD DUP1 DUP4 SUB DUP2 DUP7 GAS STATICCALL ISZERO DUP1 ISZERO PUSH2 0x107F JUMPI RETURNDATASIZE PUSH1 0x0 DUP1 RETURNDATACOPY RETURNDATASIZE PUSH1 0x0 REVERT JUMPDEST POP POP POP POP PUSH1 0x40 MLOAD RETURNDATASIZE PUSH1 0x1F NOT PUSH1 0x1F DUP3 ADD AND DUP3 ADD DUP1 PUSH1 0x40 MSTORE POP DUP2 ADD SWAP1 PUSH2 0x10A3 SWAP2 SWAP1 PUSH2 0x1A4A JUMP JUMPDEST PUSH2 0x10BF JUMPI PUSH1 0x40 MLOAD PUSH3 0x461BCD PUSH1 0xE5 SHL DUP2 MSTORE PUSH1 0x4 ADD PUSH2 0x2A0 SWAP1 PUSH2 0x1A67 JUMP JUMPDEST PUSH1 0x1 PUSH1 0x1 PUSH1 0xA0 SHL SUB DUP6 AND PUSH2 0x10E5 JUMPI PUSH1 0x40 MLOAD PUSH3 0x461BCD PUSH1 0xE5 SHL DUP2 MSTORE PUSH1 0x4 ADD PUSH2 0x2A0 SWAP1 PUSH2 0x1A9E JUMP JUMPDEST PUSH1 0x40 DUP1 MLOAD PUSH1 0x20 DUP1 DUP3 ADD SWAP1 SWAP3 MSTORE PUSH1 0x0 SWAP1 MSTORE DUP5 MLOAD SWAP1 DUP6 ADD KECCAK256 PUSH1 0x0 DUP1 MLOAD PUSH1 0x20 PUSH2 0x1B59 DUP4 CODECOPY DUP2 MLOAD SWAP2 MSTORE ADD PUSH2 0x1169 JUMPI PUSH1 0x40 MLOAD PUSH3 0x461BCD PUSH1 0xE5 SHL DUP2 MSTORE PUSH1 0x20 PUSH1 0x4 DUP3 ADD MSTORE PUSH1 0x29 PUSH1 0x24 DUP3 ADD MSTORE PUSH32 0x506C656173652066696C6C20746865207472616E73616374696F6E20696E666F PUSH1 0x44 DUP3 ADD MSTORE PUSH9 0x399039B2B1BA34B7B7 PUSH1 0xB9 SHL PUSH1 0x64 DUP3 ADD MSTORE PUSH1 0x84 ADD PUSH2 0x2A0 JUMP JUMPDEST PUSH1 0x40 DUP1 MLOAD PUSH1 0x20 DUP1 DUP3 ADD SWAP1 SWAP3 MSTORE PUSH1 0x0 SWAP1 MSTORE DUP4 MLOAD SWAP1 DUP5 ADD KECCAK256 PUSH1 0x0 DUP1 MLOAD PUSH1 0x20 PUSH2 0x1B59 DUP4 CODECOPY DUP2 MLOAD SWAP2 MSTORE ADD PUSH2 0x11ED JUMPI PUSH1 0x40 MLOAD PUSH3 0x461BCD PUSH1 0xE5 SHL DUP2 MSTORE PUSH1 0x20 PUSH1 0x4 DUP3 ADD MSTORE PUSH1 0x29 PUSH1 0x24 DUP3 ADD MSTORE PUSH32 0x546865206D6174726963756C6174696F6E2073656374696F6E2063616E6E6F74 PUSH1 0x44 DUP3 ADD MSTORE PUSH9 0x20626520626C616E6B PUSH1 0xB8 SHL PUSH1 0x64 DUP3 ADD MSTORE PUSH1 0x84 ADD PUSH2 0x2A0 JUMP JUMPDEST PUSH1 0x0 PUSH2 0x11F8 DUP8 PUSH2 0x13D7 JUMP JUMPDEST PUSH1 0x40 MLOAD PUSH4 0x13AF4035 PUSH1 0xE0 SHL DUP2 MSTORE PUSH1 0x1 PUSH1 0x1 PUSH1 0xA0 SHL SUB DUP9 DUP2 AND PUSH1 0x4 DUP4 ADD MSTORE SWAP2 SWAP3 POP SWAP1 DUP3 AND SWAP1 PUSH4 0x13AF4035 SWAP1 PUSH1 0x24 ADD PUSH1 0x0 PUSH1 0x40 MLOAD DUP1 DUP4 SUB DUP2 PUSH1 0x0 DUP8 DUP1 EXTCODESIZE ISZERO DUP1 ISZERO PUSH2 0x123F JUMPI PUSH1 0x0 DUP1 REVERT JUMPDEST POP GAS CALL ISZERO DUP1 ISZERO PUSH2 0x1253 JUMPI RETURNDATASIZE PUSH1 0x0 DUP1 RETURNDATACOPY RETURNDATASIZE PUSH1 0x0 REVERT JUMPDEST POP POP PUSH1 0x40 MLOAD PUSH4 0x7A64F113 PUSH1 0xE0 SHL DUP2 MSTORE PUSH1 0x1 PUSH1 0x1 PUSH1 0xA0 SHL SUB DUP5 AND SWAP3 POP PUSH4 0x7A64F113 SWAP2 POP PUSH2 0x1283 SWAP1 DUP9 SWAP1 PUSH1 0x4 ADD PUSH2 0x1746 JUMP JUMPDEST PUSH1 0x0 PUSH1 0x40 MLOAD DUP1 DUP4 SUB DUP2 PUSH1 0x0 DUP8 DUP1 EXTCODESIZE ISZERO DUP1 ISZERO PUSH2 0x129D JUMPI PUSH1 0x0 DUP1 REVERT JUMPDEST POP GAS CALL ISZERO DUP1 ISZERO PUSH2 0x12B1 JUMPI RETURNDATASIZE PUSH1 0x0 DUP1 RETURNDATACOPY RETURNDATASIZE PUSH1 0x0 REVERT JUMPDEST POP POP PUSH1 0x40 MLOAD PUSH4 0x2E8B71D3 PUSH1 0xE0 SHL DUP2 MSTORE PUSH1 0x1 PUSH1 0x1 PUSH1 0xA0 SHL SUB DUP5 AND SWAP3 POP PUSH4 0x2E8B71D3 SWAP2 POP PUSH2 0x12E1 SWAP1 DUP8 SWAP1 PUSH1 0x4 ADD PUSH2 0x1746 JUMP JUMPDEST PUSH1 0x0 PUSH1 0x40 MLOAD DUP1 DUP4 SUB DUP2 PUSH1 0x0 DUP8 DUP1 EXTCODESIZE ISZERO DUP1 ISZERO PUSH2 0x12FB JUMPI PUSH1 0x0 DUP1 REVERT JUMPDEST POP GAS CALL ISZERO DUP1 ISZERO PUSH2 0x130F JUMPI RETURNDATASIZE PUSH1 0x0 DUP1 RETURNDATACOPY RETURNDATASIZE PUSH1 0x0 REVERT JUMPDEST POP POP POP POP POP POP POP POP POP POP POP JUMP JUMPDEST PUSH1 0x0 SLOAD PUSH1 0x1 PUSH1 0x1 PUSH1 0xA0 SHL SUB AND CALLER EQ PUSH2 0x1376 JUMPI PUSH1 0x40 MLOAD PUSH3 0x461BCD PUSH1 0xE5 SHL DUP2 MSTORE PUSH1 0x20 PUSH1 0x4 DUP3 ADD MSTORE PUSH1 0x1E PUSH1 0x24 DUP3 ADD MSTORE PUSH32 0x596F75277265206E6F7420746865206F776E65722C2061626F7274696E670000 PUSH1 0x44 DUP3 ADD MSTORE PUSH1 0x64 ADD PUSH2 0x2A0 JUMP JUMPDEST PUSH1 0x1 PUSH1 0x1 PUSH1 0xA0 SHL SUB DUP4 AND PUSH1 0x0 SWAP1 DUP2 MSTORE PUSH1 0x2 PUSH1 0x20 MSTORE PUSH1 0x40 DUP2 KECCAK256 DUP3 SWAP2 DUP5 PUSH1 0x3 DUP2 GT ISZERO PUSH2 0x13A2 JUMPI PUSH2 0x13A2 PUSH2 0x1B0D JUMP JUMPDEST PUSH1 0x3 DUP2 GT ISZERO PUSH2 0x13B3 JUMPI PUSH2 0x13B3 PUSH2 0x1B0D JUMP JUMPDEST DUP2 MSTORE PUSH1 0x20 DUP2 ADD SWAP2 SWAP1 SWAP2 MSTORE PUSH1 0x40 ADD PUSH1 0x0 KECCAK256 DUP1 SLOAD PUSH1 0xFF NOT AND SWAP2 ISZERO ISZERO SWAP2 SWAP1 SWAP2 OR SWAP1 SSTORE POP POP POP JUMP JUMPDEST PUSH1 0x0 DUP2 PUSH1 0x40 MLOAD DUP1 PUSH1 0x20 ADD PUSH1 0x40 MSTORE DUP1 PUSH1 0x0 DUP2 MSTORE POP DUP1 MLOAD SWAP1 PUSH1 0x20 ADD KECCAK256 DUP2 DUP1 MLOAD SWAP1 PUSH1 0x20 ADD KECCAK256 SUB PUSH2 0x1416 JUMPI PUSH1 0x40 MLOAD PUSH3 0x461BCD PUSH1 0xE5 SHL DUP2 MSTORE PUSH1 0x4 ADD PUSH2 0x2A0 SWAP1 PUSH2 0x184D JUMP JUMPDEST PUSH1 0x1 SLOAD PUSH1 0x40 MLOAD PUSH4 0x4B22DC91 PUSH1 0xE0 SHL DUP2 MSTORE PUSH1 0x0 SWAP2 PUSH1 0x1 PUSH1 0x1 PUSH1 0xA0 SHL SUB AND SWAP1 PUSH4 0x4B22DC91 SWAP1 PUSH2 0x1447 SWAP1 DUP8 SWAP1 PUSH1 0x4 ADD PUSH2 0x1746 JUMP JUMPDEST PUSH1 0x20 PUSH1 0x40 MLOAD DUP1 DUP4 SUB DUP2 DUP7 GAS STATICCALL ISZERO DUP1 ISZERO PUSH2 0x1464 JUMPI RETURNDATASIZE PUSH1 0x0 DUP1 RETURNDATACOPY RETURNDATASIZE PUSH1 0x0 REVERT JUMPDEST POP POP POP POP PUSH1 0x40 MLOAD RETURNDATASIZE PUSH1 0x1F NOT PUSH1 0x1F DUP3 ADD AND DUP3 ADD DUP1 PUSH1 0x40 MSTORE POP DUP2 ADD SWAP1 PUSH2 0x3D8 SWAP2 SWAP1 PUSH2 0x1A2D JUMP JUMPDEST PUSH4 0x4E487B71 PUSH1 0xE0 SHL PUSH1 0x0 MSTORE PUSH1 0x41 PUSH1 0x4 MSTORE PUSH1 0x24 PUSH1 0x0 REVERT JUMPDEST PUSH1 0x40 MLOAD PUSH1 0x1F DUP3 ADD PUSH1 0x1F NOT AND DUP2 ADD PUSH8 0xFFFFFFFFFFFFFFFF DUP2 GT DUP3 DUP3 LT OR ISZERO PUSH2 0x14C7 JUMPI PUSH2 0x14C7 PUSH2 0x1488 JUMP JUMPDEST PUSH1 0x40 MSTORE SWAP2 SWAP1 POP JUMP JUMPDEST PUSH1 0x0 PUSH8 0xFFFFFFFFFFFFFFFF DUP3 GT ISZERO PUSH2 0x14E9 JUMPI PUSH2 0x14E9 PUSH2 0x1488 JUMP JUMPDEST POP PUSH1 0x1F ADD PUSH1 0x1F NOT AND PUSH1 0x20 ADD SWAP1 JUMP JUMPDEST PUSH1 0x0 DUP3 PUSH1 0x1F DUP4 ADD SLT PUSH2 0x1508 JUMPI PUSH1 0x0 DUP1 REVERT JUMPDEST DUP2 CALLDATALOAD PUSH2 0x151B PUSH2 0x1516 DUP3 PUSH2 0x14CF JUMP JUMPDEST PUSH2 0x149E JUMP JUMPDEST DUP2 DUP2 MSTORE DUP5 PUSH1 0x20 DUP4 DUP7 ADD ADD GT ISZERO PUSH2 0x1530 JUMPI PUSH1 0x0 DUP1 REVERT JUMPDEST DUP2 PUSH1 0x20 DUP6 ADD PUSH1 0x20 DUP4 ADD CALLDATACOPY PUSH1 0x0 SWAP2 DUP2 ADD PUSH1 0x20 ADD SWAP2 SWAP1 SWAP2 MSTORE SWAP4 SWAP3 POP POP POP JUMP JUMPDEST PUSH1 0x0 PUSH1 0x20 DUP3 DUP5 SUB SLT ISZERO PUSH2 0x155F JUMPI PUSH1 0x0 DUP1 REVERT JUMPDEST DUP2 CALLDATALOAD PUSH8 0xFFFFFFFFFFFFFFFF DUP2 GT ISZERO PUSH2 0x1576 JUMPI PUSH1 0x0 DUP1 REVERT JUMPDEST PUSH2 0x3D8 DUP5 DUP3 DUP6 ADD PUSH2 0x14F7 JUMP JUMPDEST PUSH1 0x20 DUP1 DUP3 MSTORE DUP3 MLOAD DUP3 DUP3 ADD DUP2 SWAP1 MSTORE PUSH1 0x0 SWAP2 SWAP1 DUP5 DUP3 ADD SWAP1 PUSH1 0x40 DUP6 ADD SWAP1 DUP5 JUMPDEST DUP2 DUP2 LT ISZERO PUSH2 0x15C3 JUMPI DUP4 MLOAD PUSH1 0x1 PUSH1 0x1 PUSH1 0xA0 SHL SUB AND DUP4 MSTORE SWAP3 DUP5 ADD SWAP3 SWAP2 DUP5 ADD SWAP2 PUSH1 0x1 ADD PUSH2 0x159E JUMP JUMPDEST POP SWAP1 SWAP7 SWAP6 POP POP POP POP POP POP JUMP JUMPDEST PUSH1 0x0 JUMPDEST DUP4 DUP2 LT ISZERO PUSH2 0x15EA JUMPI DUP2 DUP2 ADD MLOAD DUP4 DUP3 ADD MSTORE PUSH1 0x20 ADD PUSH2 0x15D2 JUMP JUMPDEST POP POP PUSH1 0x0 SWAP2 ADD MSTORE JUMP JUMPDEST PUSH1 0x0 DUP2 MLOAD DUP1 DUP5 MSTORE PUSH2 0x160B DUP2 PUSH1 0x20 DUP7 ADD PUSH1 0x20 DUP7 ADD PUSH2 0x15CF JUMP JUMPDEST PUSH1 0x1F ADD PUSH1 0x1F NOT AND SWAP3 SWAP1 SWAP3 ADD PUSH1 0x20 ADD SWAP3 SWAP2 POP POP JUMP JUMPDEST PUSH1 0x0 PUSH1 0x20 DUP1 DUP4 ADD DUP2 DUP5 MSTORE DUP1 DUP6 MLOAD DUP1 DUP4 MSTORE PUSH1 0x40 DUP7 ADD SWAP2 POP PUSH1 0x40 DUP2 PUSH1 0x5 SHL DUP8 ADD ADD SWAP3 POP DUP4 DUP8 ADD PUSH1 0x0 JUMPDEST DUP3 DUP2 LT ISZERO PUSH2 0x1674 JUMPI PUSH1 0x3F NOT DUP9 DUP7 SUB ADD DUP5 MSTORE PUSH2 0x1662 DUP6 DUP4 MLOAD PUSH2 0x15F3 JUMP JUMPDEST SWAP5 POP SWAP3 DUP6 ADD SWAP3 SWAP1 DUP6 ADD SWAP1 PUSH1 0x1 ADD PUSH2 0x1646 JUMP JUMPDEST POP SWAP3 SWAP8 SWAP7 POP POP POP POP POP POP POP JUMP JUMPDEST PUSH1 0x0 DUP1 PUSH1 0x40 DUP4 DUP6 SUB SLT ISZERO PUSH2 0x1694 JUMPI PUSH1 0x0 DUP1 REVERT JUMPDEST DUP3 CALLDATALOAD PUSH8 0xFFFFFFFFFFFFFFFF DUP1 DUP3 GT ISZERO PUSH2 0x16AC JUMPI PUSH1 0x0 DUP1 REVERT JUMPDEST PUSH2 0x16B8 DUP7 DUP4 DUP8 ADD PUSH2 0x14F7 JUMP JUMPDEST SWAP4 POP PUSH1 0x20 DUP6 ADD CALLDATALOAD SWAP2 POP DUP1 DUP3 GT ISZERO PUSH2 0x16CE JUMPI PUSH1 0x0 DUP1 REVERT JUMPDEST POP PUSH2 0x16DB DUP6 DUP3 DUP7 ADD PUSH2 0x14F7 JUMP JUMPDEST SWAP2 POP POP SWAP3 POP SWAP3 SWAP1 POP JUMP JUMPDEST PUSH1 0x1 PUSH1 0x1 PUSH1 0xA0 SHL SUB DUP2 AND DUP2 EQ PUSH2 0x16FA JUMPI PUSH1 0x0 DUP1 REVERT JUMPDEST POP JUMP JUMPDEST DUP1 CALLDATALOAD PUSH1 0x4 DUP2 LT PUSH2 0x170C JUMPI PUSH1 0x0 DUP1 REVERT JUMPDEST SWAP2 SWAP1 POP JUMP JUMPDEST PUSH1 0x0 DUP1 PUSH1 0x40 DUP4 DUP6 SUB SLT ISZERO PUSH2 0x1724 JUMPI PUSH1 0x0 DUP1 REVERT JUMPDEST DUP3 CALLDATALOAD PUSH2 0x172F DUP2 PUSH2 0x16E5 JUMP JUMPDEST SWAP2 POP PUSH2 0x173D PUSH1 0x20 DUP5 ADD PUSH2 0x16FD JUMP JUMPDEST SWAP1 POP SWAP3 POP SWAP3 SWAP1 POP JUMP JUMPDEST PUSH1 0x20 DUP2 MSTORE PUSH1 0x0 PUSH2 0x317 PUSH1 0x20 DUP4 ADD DUP5 PUSH2 0x15F3 JUMP JUMPDEST PUSH1 0x0 DUP1 PUSH1 0x0 DUP1 PUSH1 0x80 DUP6 DUP8 SUB SLT ISZERO PUSH2 0x176F JUMPI PUSH1 0x0 DUP1 REVERT JUMPDEST DUP5 CALLDATALOAD PUSH8 0xFFFFFFFFFFFFFFFF DUP1 DUP3 GT ISZERO PUSH2 0x1787 JUMPI PUSH1 0x0 DUP1 REVERT JUMPDEST PUSH2 0x1793 DUP9 DUP4 DUP10 ADD PUSH2 0x14F7 JUMP JUMPDEST SWAP6 POP PUSH1 0x20 DUP8 ADD CALLDATALOAD SWAP2 POP PUSH2 0x17A5 DUP3 PUSH2 0x16E5 JUMP JUMPDEST SWAP1 SWAP4 POP PUSH1 0x40 DUP7 ADD CALLDATALOAD SWAP1 DUP1 DUP3 GT ISZERO PUSH2 0x17BB JUMPI PUSH1 0x0 DUP1 REVERT JUMPDEST PUSH2 0x17C7 DUP9 DUP4 DUP10 ADD PUSH2 0x14F7 JUMP JUMPDEST SWAP4 POP PUSH1 0x60 DUP8 ADD CALLDATALOAD SWAP2 POP DUP1 DUP3 GT ISZERO PUSH2 0x17DD JUMPI PUSH1 0x0 DUP1 REVERT JUMPDEST POP PUSH2 0x17EA DUP8 DUP3 DUP9 ADD PUSH2 0x14F7 JUMP JUMPDEST SWAP2 POP POP SWAP3 SWAP6 SWAP2 SWAP5 POP SWAP3 POP JUMP JUMPDEST DUP1 ISZERO ISZERO DUP2 EQ PUSH2 0x16FA JUMPI PUSH1 0x0 DUP1 REVERT JUMPDEST PUSH1 0x0 DUP1 PUSH1 0x0 PUSH1 0x60 DUP5 DUP7 SUB SLT ISZERO PUSH2 0x1819 JUMPI PUSH1 0x0 DUP1 REVERT JUMPDEST DUP4 CALLDATALOAD PUSH2 0x1824 DUP2 PUSH2 0x16E5 JUMP JUMPDEST SWAP3 POP PUSH2 0x1832 PUSH1 0x20 DUP6 ADD PUSH2 0x16FD JUMP JUMPDEST SWAP2 POP PUSH1 0x40 DUP5 ADD CALLDATALOAD PUSH2 0x1842 DUP2 PUSH2 0x17F6 JUMP JUMPDEST DUP1 SWAP2 POP POP SWAP3 POP SWAP3 POP SWAP3 JUMP JUMPDEST PUSH1 0x20 DUP1 DUP3 MSTORE PUSH1 0x12 SWAP1 DUP3 ADD MSTORE PUSH18 0x283632B0B9B29032B73A32B91030902724AB PUSH1 0x71 SHL PUSH1 0x40 DUP3 ADD MSTORE PUSH1 0x60 ADD SWAP1 JUMP JUMPDEST PUSH1 0x0 PUSH8 0xFFFFFFFFFFFFFFFF DUP3 GT ISZERO PUSH2 0x1893 JUMPI PUSH2 0x1893 PUSH2 0x1488 JUMP JUMPDEST POP PUSH1 0x5 SHL PUSH1 0x20 ADD SWAP1 JUMP JUMPDEST PUSH1 0x0 PUSH1 0x20 DUP1 DUP4 DUP6 SUB SLT ISZERO PUSH2 0x18B0 JUMPI PUSH1 0x0 DUP1 REVERT JUMPDEST DUP3 MLOAD PUSH8 0xFFFFFFFFFFFFFFFF DUP2 GT ISZERO PUSH2 0x18C7 JUMPI PUSH1 0x0 DUP1 REVERT JUMPDEST DUP4 ADD PUSH1 0x1F DUP2 ADD DUP6 SGT PUSH2 0x18D8 JUMPI PUSH1 0x0 DUP1 REVERT JUMPDEST DUP1 MLOAD PUSH2 0x18E6 PUSH2 0x1516 DUP3 PUSH2 0x1879 JUMP JUMPDEST DUP2 DUP2 MSTORE PUSH1 0x5 SWAP2 SWAP1 SWAP2 SHL DUP3 ADD DUP4 ADD SWAP1 DUP4 DUP2 ADD SWAP1 DUP8 DUP4 GT ISZERO PUSH2 0x1905 JUMPI PUSH1 0x0 DUP1 REVERT JUMPDEST SWAP3 DUP5 ADD SWAP3 JUMPDEST DUP3 DUP5 LT ISZERO PUSH2 0x192C JUMPI DUP4 MLOAD PUSH2 0x191D DUP2 PUSH2 0x16E5 JUMP JUMPDEST DUP3 MSTORE SWAP3 DUP5 ADD SWAP3 SWAP1 DUP5 ADD SWAP1 PUSH2 0x190A JUMP JUMPDEST SWAP8 SWAP7 POP POP POP POP POP POP POP JUMP JUMPDEST PUSH1 0x0 DUP3 PUSH1 0x1F DUP4 ADD SLT PUSH2 0x1948 JUMPI PUSH1 0x0 DUP1 REVERT JUMPDEST DUP2 MLOAD PUSH2 0x1956 PUSH2 0x1516 DUP3 PUSH2 0x14CF JUMP JUMPDEST DUP2 DUP2 MSTORE DUP5 PUSH1 0x20 DUP4 DUP7 ADD ADD GT ISZERO PUSH2 0x196B JUMPI PUSH1 0x0 DUP1 REVERT JUMPDEST PUSH2 0x3D8 DUP3 PUSH1 0x20 DUP4 ADD PUSH1 0x20 DUP8 ADD PUSH2 0x15CF JUMP JUMPDEST PUSH1 0x0 PUSH1 0x20 DUP1 DUP4 DUP6 SUB SLT ISZERO PUSH2 0x198F JUMPI PUSH1 0x0 DUP1 REVERT JUMPDEST DUP3 MLOAD PUSH8 0xFFFFFFFFFFFFFFFF DUP1 DUP3 GT ISZERO PUSH2 0x19A7 JUMPI PUSH1 0x0 DUP1 REVERT JUMPDEST DUP2 DUP6 ADD SWAP2 POP DUP6 PUSH1 0x1F DUP4 ADD SLT PUSH2 0x19BB JUMPI PUSH1 0x0 DUP1 REVERT JUMPDEST DUP2 MLOAD PUSH2 0x19C9 PUSH2 0x1516 DUP3 PUSH2 0x1879 JUMP JUMPDEST DUP2 DUP2 MSTORE PUSH1 0x5 SWAP2 SWAP1 SWAP2 SHL DUP4 ADD DUP5 ADD SWAP1 DUP5 DUP2 ADD SWAP1 DUP9 DUP4 GT ISZERO PUSH2 0x19E8 JUMPI PUSH1 0x0 DUP1 REVERT JUMPDEST DUP6 DUP6 ADD JUMPDEST DUP4 DUP2 LT ISZERO PUSH2 0x1A20 JUMPI DUP1 MLOAD DUP6 DUP2 GT ISZERO PUSH2 0x1A04 JUMPI PUSH1 0x0 DUP1 DUP2 REVERT JUMPDEST PUSH2 0x1A12 DUP12 DUP10 DUP4 DUP11 ADD ADD PUSH2 0x1937 JUMP JUMPDEST DUP5 MSTORE POP SWAP2 DUP7 ADD SWAP2 DUP7 ADD PUSH2 0x19EC JUMP JUMPDEST POP SWAP9 SWAP8 POP POP POP POP POP POP POP POP JUMP JUMPDEST PUSH1 0x0 PUSH1 0x20 DUP3 DUP5 SUB SLT ISZERO PUSH2 0x1A3F JUMPI PUSH1 0x0 DUP1 REVERT JUMPDEST DUP2 MLOAD PUSH2 0x317 DUP2 PUSH2 0x16E5 JUMP JUMPDEST PUSH1 0x0 PUSH1 0x20 DUP3 DUP5 SUB SLT ISZERO PUSH2 0x1A5C JUMPI PUSH1 0x0 DUP1 REVERT JUMPDEST DUP2 MLOAD PUSH2 0x317 DUP2 PUSH2 0x17F6 JUMP JUMPDEST PUSH1 0x20 DUP1 DUP3 MSTORE PUSH1 0x1E SWAP1 DUP3 ADD MSTORE PUSH32 0x546869732063617220646F65736E277420657869737420616E796D6F72650000 PUSH1 0x40 DUP3 ADD MSTORE PUSH1 0x60 ADD SWAP1 JUMP JUMPDEST PUSH1 0x20 DUP1 DUP3 MSTORE PUSH1 0x21 SWAP1 DUP3 ADD MSTORE PUSH32 0x54686520696E666F732073656374696F6E2063616E6E6F7420626520626C616E PUSH1 0x40 DUP3 ADD MSTORE PUSH1 0x6B PUSH1 0xF8 SHL PUSH1 0x60 DUP3 ADD MSTORE PUSH1 0x80 ADD SWAP1 JUMP JUMPDEST PUSH1 0x40 DUP2 MSTORE PUSH1 0x0 PUSH2 0x1AF2 PUSH1 0x40 DUP4 ADD DUP6 PUSH2 0x15F3 JUMP JUMPDEST DUP3 DUP2 SUB PUSH1 0x20 DUP5 ADD MSTORE PUSH2 0x1B04 DUP2 DUP6 PUSH2 0x15F3 JUMP JUMPDEST SWAP6 SWAP5 POP POP POP POP POP JUMP JUMPDEST PUSH4 0x4E487B71 PUSH1 0xE0 SHL PUSH1 0x0 MSTORE PUSH1 0x21 PUSH1 0x4 MSTORE PUSH1 0x24 PUSH1 0x0 REVERT JUMPDEST PUSH1 0x0 PUSH1 0x20 DUP3 DUP5 SUB SLT ISZERO PUSH2 0x1B35 JUMPI PUSH1 0x0 DUP1 REVERT JUMPDEST DUP2 MLOAD PUSH8 0xFFFFFFFFFFFFFFFF DUP2 GT ISZERO PUSH2 0x1B4C JUMPI PUSH1 0x0 DUP1 REVERT JUMPDEST PUSH2 0x3D8 DUP5 DUP3 DUP6 ADD PUSH2 0x1937 JUMP INVALID GASPRICE 0x2D 0xB9 INVALID PUSH26 0x8DCC36D81824D2338FC3F1AFF49AC357DD8C4840527FBA27A5B SWAP1 LOG2 PUSH5 0x6970667358 0x22 SLT KECCAK256 BASEFEE PUSH21 0xFECB97B721D2A6F8A1B5870FB6B8650D2D589F42B4 0x4B SWAP11 0xAF DUP7 PUSH14 0xA166C2BF64736F6C634300081300 CALLER ","sha1":"b3f2d8706b4ec0a6c6ff31e9ac569effc63231e4","source":"//SPDX-License-Identifier: MIT\n\npragma solidity >=0.6.0 <=0.9.0;\n\nimport \"./CarFactory.sol\";\n\ncontract AutomobileRegistrationSystem{\n\n    //List of roles\n    enum Role{\n        Manufacturer, //0\n        State, //1\n        Center, //2\n        Insurance //3\n    }\n\n    modifier isDeployer(){\n        require(msg.sender == systemDeployer, \"You're not the owner, aborting\");\n        _;\n    }\n\n    modifier isManufacturer(address _of, Role _role){ //Create or delete the car\n        require(canAccess[_of][_role], \"Permission denied, you must be a manufacturer!\");\n        _;\n    }\n\n    modifier isState(address _of, Role _role){ //Set owner (old and new) + Transaction infos\n        require(canAccess[_of][_role], \"You don't have the previledges, aborting\");\n        _;\n    }\n\n    modifier isCenter(address _of, Role _role){ //Create reports\n        require(canAccess[_of][_role], \"Permission denied, center only!\"); \n        _;\n    }\n\n    modifier isInsurance(address _of, Role _role){ //Save accidents\n        require(canAccess[_of][_role], \"Permission denied, insurance only!\"); \n        _;\n    }\n\n    modifier doesExist(string memory _niv){\n        require(carFactory.carListMapping(_niv).doesExist(), \"This car doesn't exist anymore\");\n        _;\n    }\n\n    modifier isNotBlank(string memory _niv){\n        require(keccak256(bytes(_niv)) != keccak256(bytes(\"\")), \"Please enter a NIV\");\n        _;\n    }\n\n\n    address systemDeployer;\n\n    CarFactory carFactory;\n\n    mapping(address => mapping(Role => bool)) canAccess; //Instead of creating a mapping for each role, I thought it could be a great idea to create only one mapping of a mapping that sets the role of every address given\n\n    \n    constructor(){\n        systemDeployer = msg.sender;    \n        carFactory = new CarFactory();\n    }\n\n\n    function setRole(address _for, Role _role, bool _roleStatus) public isDeployer{\n        canAccess[_for][_role] = _roleStatus;\n    }\n\n    //Getting the roles of the accounts\n    function getAccountRole(address _of, Role _role) public view isDeployer returns(bool){\n        return canAccess[_of][_role];\n    }\n\n    function isNivUsed(string memory _niv) public view returns(bool) /*isManufacturer(msg.sender, Role.Manufacturer)*/{\n        bool avaibility = carFactory.getNivAvaibility(_niv);\n        return avaibility;\n    }\n\n    function createNewCar(string memory _niv, string memory _infos) public isNotBlank(_niv)/*isManufacturer(msg.sender, Role.Manufacturer)*/{\n        require(keccak256(bytes(_infos)) != keccak256(bytes(\"\")), \"The infos section cannot be blank\");\n        carFactory.createCar(_niv, _infos);\n    }\n\n    function getCar(string memory _niv) private view isNotBlank(_niv) returns(Car){\n        Car car = carFactory.carListMapping(_niv);\n        return car;\n    }\n\n    function setCarOwner(string memory _niv, address _owner, string memory _transactionInfo, string memory _matriculation) public isNotBlank(_niv) doesExist(_niv)/*isSate(msg.sender, Role.Manufacturer)*/{\n        require(_owner != address(0), \"The infos section cannot be blank\");\n        require(keccak256(bytes(_transactionInfo)) != keccak256(bytes(\"\")), \"Please fill the transaction infos section\");\n        require(keccak256(bytes(_matriculation)) != keccak256(bytes(\"\")), \"The matriculation section cannot be blank\");\n\n        Car car = getCar(_niv);\n        car.setOwner(_owner);\n        car.setTransaction(_transactionInfo);\n        car.setMatriculation(_matriculation);\n    }\n\n    function getCarOwner(string memory _niv) public view isNotBlank(_niv) returns(address[] memory){\n        return getCar(_niv).getOwnerList();\n    }\n\n    function getCarPreviousTransactions(string memory _niv) public view isNotBlank(_niv) returns(string[] memory){\n        return getCar(_niv).getPreviousTransactions();\n    }\n\n    function setCarSignalisation(string memory _niv, string memory _signalisation) public isNotBlank(_niv) doesExist(_niv) /*isDeployer()*/{\n        getCar(_niv).setSignalisation(_signalisation);\n    }\n\n    function getCarSignalisation(string memory _niv) public view isNotBlank(_niv) returns(string[] memory){\n        return getCar(_niv).getSignalisation();\n    }\n\n    function addAccident(string memory _niv, string memory _accident) public isNotBlank(_niv) doesExist(_niv) /*isInsurance(msg.sender, Role.Manufacturer)*/{\n        require(keccak256(bytes(_accident)) != keccak256(bytes(\"\")), \"Please provide more infos\");\n        Car car = getCar(_niv);\n        car.addAccident(_accident);\n    }\n\n    function getAccidentsList(string memory _niv) public view isNotBlank(_niv) returns (string[] memory){\n        Car car = getCar(_niv);        \n        return car.accidentsList();\n    }\n\n    function addCarReport(string memory _niv, string memory _report) public isNotBlank(_niv) doesExist(_niv) /*isCenter(msg.sender, Role.Manufacturer)*/{\n        require(keccak256(bytes(_report)) != keccak256(bytes(\"\")), \"Please provide a correct report\");\n        Car car = getCar(_niv);\n        car.addReport(_report);\n    }\n\n    function getCarReport(string memory _niv) public view isNotBlank(_niv) returns(string[] memory){\n        Car car = getCar(_niv);        \n        return car.getReport();\n    }\n\n    function getCarInfos(string memory _niv) public view isNotBlank(_niv) returns(string memory){\n        Car car = getCar(_niv);        \n        return car.getInfos();        \n    }\n\n    // function getCarAllInfos(string memory _niv) public view isNotBlank(_niv) returns(bool, string memory, string[] memory, address[] memory, string[] memory, string[] memory, string[] memory, bool){\n    //     return getCar(_niv).getAllInfos();\n    // }\n\n    function destroyCar(string memory _niv) public isNotBlank(_niv) doesExist(_niv) /*isManufacturer(msg.sender, Role.Manufacturer)*/{\n        return getCar(_niv).destroyCar();\n    }\n\n}","sourcePath":"contracts/AutomobileRegistrationSystem.sol","type":"contract","deployment":{"address":"0xc541C19F6A00eDAA22e5309E1acE66B49Dbb7837","chainid":"80001","blockHeight":33285197}}