{"bytecode":"608060405234801561001057600080fd5b50600080546001600160a01b0319163317905560405161002f90610071565b604051809103906000f08015801561004b573d6000803e3d6000fd5b50600180546001600160a01b0319166001600160a01b039290921691909117905561007f565b611c29806200219f83390190565b612110806200008f6000396000f3fe608060405234801561001057600080fd5b50600436106101005760003560e01c80637fee984b11610097578063b327c70011610066578063b327c70014610232578063d0f2dd5b14610245578063d6082a8314610265578063f6bb6b371461027857600080fd5b80637fee984b146101e657806390ca8332146101f9578063a2a6d1421461020c578063aad37c991461021f57600080fd5b806358da1e01116100d357806358da1e011461018857806360db168e1461019d5780636f059e73146101c057806375d12105146101d357600080fd5b80630b8cf8d114610105578063398752e01461012e5780634974c6321461014e5780634cca828814610175575b600080fd5b61011861011336600461183b565b61028b565b60405161012591906118b4565b60405180910390f35b61014161013c36600461183b565b610350565b604051610125919061196c565b61016161015c36600461183b565b610412565b60405161012598979695949392919061197f565b61014161018336600461183b565b6104e6565b61019b61019636600461183b565b61059b565b005b6101b06101ab36600461183b565b610769565b6040519015158152602001610125565b61019b6101ce366004611a22565b610823565b61019b6101e1366004611a22565b610ab3565b61019b6101f4366004611a22565b610bbf565b61014161020736600461183b565b610d87565b6101b061021a366004611ab2565b610e19565b61019b61022d366004611a22565b610e9b565b61014161024036600461183b565b6110e5565b61025861025336600461183b565b611172565b6040516101259190611ae7565b61019b610273366004611afa565b61122c565b61019b610286366004611ba5565b61163a565b6040805160208082019092526000905281519082012060609082906000805160206120bb833981519152016102db5760405162461bcd60e51b81526004016102d290611bee565b60405180910390fd5b6102e4836116c5565b6001600160a01b031663581003706040518163ffffffff1660e01b8152600401600060405180830381865afa158015610321573d6000803e3d6000fd5b505050506040513d6000823e601f3d908101601f191682016040526103499190810190611cad565b9392505050565b6040805160208082019092526000905281519082012060609082906000805160206120bb833981519152016103975760405162461bcd60e51b81526004016102d290611bee565b60006103a2846116c5565b9050806001600160a01b031663e4085d676040518163ffffffff1660e01b8152600401600060405180830381865afa1580156103e2573d6000803e3d6000fd5b505050506040513d6000823e601f3d908101601f1916820160405261040a9190810190611da7565b949350505050565b6000606080606080606080606088604051806020016040528060008152508051906020012081805190602001200361045c5760405162461bcd60e51b81526004016102d290611bee565b6104658a6116c5565b6001600160a01b031663d80516a56040518163ffffffff1660e01b8152600401600060405180830381865afa1580156104a2573d6000803e3d6000fd5b505050506040513d6000823e601f3d908101601f191682016040526104ca9190810190611de7565b9850985098509850985098509850985050919395975091939597565b6040805160208082019092526000905281519082012060609082906000805160206120bb8339815191520161052d5760405162461bcd60e51b81526004016102d290611bee565b610536836116c5565b6001600160a01b031663b5cd26f86040518163ffffffff1660e01b8152600401600060405180830381865afa158015610573573d6000803e3d6000fd5b505050506040513d6000823e601f3d908101601f191682016040526103499190810190611da7565b6040805160208082019092526000905281519082012081906000805160206120bb833981519152016105df5760405162461bcd60e51b81526004016102d290611bee565b600154604051634b22dc9160e01b815283916001600160a01b031690634b22dc919061060f908490600401611ae7565b602060405180830381865afa15801561062c573d6000803e3d6000fd5b505050506040513d601f19601f820116820180604052508101906106509190611f13565b6001600160a01b0316635ad70d126040518163ffffffff1660e01b8152600401602060405180830381865afa15801561068d573d6000803e3d6000fd5b505050506040513d601f19601f820116820180604052508101906106b19190611f30565b6106cd5760405162461bcd60e51b81526004016102d290611f4d565b33600081815260026020908152604080832083805290915281205460ff166107075760405162461bcd60e51b81526004016102d290611f9a565b610710856116c5565b6001600160a01b031663b3610f376040518163ffffffff1660e01b8152600401600060405180830381600087803b15801561074a57600080fd5b505af115801561075e573d6000803e3d6000fd5b505050505050505050565b336000818152600260209081526040808320838052909152812054909190829060ff166107a85760405162461bcd60e51b81526004016102d290611f9a565b600154604051637832e6e360e01b81526000916001600160a01b031690637832e6e3906107d9908890600401611ae7565b602060405180830381865afa1580156107f6573d6000803e3d6000fd5b505050506040513d601f19601f8201168201806040525081019061081a9190611f30565b95945050505050565b6040805160208082019092526000905282519083012082906000805160206120bb833981519152016108675760405162461bcd60e51b81526004016102d290611bee565b600154604051634b22dc9160e01b815284916001600160a01b031690634b22dc9190610897908490600401611ae7565b602060405180830381865afa1580156108b4573d6000803e3d6000fd5b505050506040513d601f19601f820116820180604052508101906108d89190611f13565b6001600160a01b0316635ad70d126040518163ffffffff1660e01b8152600401602060405180830381865afa158015610915573d6000803e3d6000fd5b505050506040513d601f19601f820116820180604052508101906109399190611f30565b6109555760405162461bcd60e51b81526004016102d290611f4d565b336000818152600260209081526040808320600380855292529091205460ff166109cc5760405162461bcd60e51b815260206004820152602260248201527f5065726d697373696f6e2064656e6965642c20696e737572616e6365206f6e6c604482015261792160f01b60648201526084016102d2565b604080516020808201909252600090528551908601206000805160206120bb83398151915201610a3e5760405162461bcd60e51b815260206004820152601960248201527f506c656173652070726f76696465206d6f726520696e666f730000000000000060448201526064016102d2565b6000610a49876116c5565b60405163134044a160e01b81529091506001600160a01b0382169063134044a190610a78908990600401611ae7565b600060405180830381600087803b158015610a9257600080fd5b505af1158015610aa6573d6000803e3d6000fd5b5050505050505050505050565b33600081815260026020908152604080832083805290915281205460ff16610aed5760405162461bcd60e51b81526004016102d290611f9a565b6040805160208082019092526000905284519085012084906000805160206120bb83398151915201610b315760405162461bcd60e51b81526004016102d290611bee565b604080516020808201909252600090528451908501206000805160206120bb83398151915201610b735760405162461bcd60e51b81526004016102d290611fe8565b600154604051633de4de8f60e01b81526001600160a01b0390911690633de4de8f90610ba59088908890600401612029565b600060405180830381600087803b15801561074a57600080fd5b6040805160208082019092526000905282519083012082906000805160206120bb83398151915201610c035760405162461bcd60e51b81526004016102d290611bee565b600154604051634b22dc9160e01b815284916001600160a01b031690634b22dc9190610c33908490600401611ae7565b602060405180830381865afa158015610c50573d6000803e3d6000fd5b505050506040513d601f19601f82011682018060405250810190610c749190611f13565b6001600160a01b0316635ad70d126040518163ffffffff1660e01b8152600401602060405180830381865afa158015610cb1573d6000803e3d6000fd5b505050506040513d601f19601f82011682018060405250810190610cd59190611f30565b610cf15760405162461bcd60e51b81526004016102d290611f4d565b6000546001600160a01b03163314610d1b5760405162461bcd60e51b81526004016102d29061204e565b610d24846116c5565b6001600160a01b031663457cf35b846040518263ffffffff1660e01b8152600401610d4f9190611ae7565b600060405180830381600087803b158015610d6957600080fd5b505af1158015610d7d573d6000803e3d6000fd5b5050505050505050565b6040805160208082019092526000905281519082012060609082906000805160206120bb83398151915201610dce5760405162461bcd60e51b81526004016102d290611bee565b6000610dd9846116c5565b9050806001600160a01b031663bd51b8e06040518163ffffffff1660e01b8152600401600060405180830381865afa1580156103e2573d6000803e3d6000fd5b600080546001600160a01b03163314610e445760405162461bcd60e51b81526004016102d29061204e565b6001600160a01b038316600090815260026020526040812090836003811115610e6f57610e6f611f84565b6003811115610e8057610e80611f84565b815260208101919091526040016000205460ff169392505050565b6040805160208082019092526000905282519083012082906000805160206120bb83398151915201610edf5760405162461bcd60e51b81526004016102d290611bee565b600154604051634b22dc9160e01b815284916001600160a01b031690634b22dc9190610f0f908490600401611ae7565b602060405180830381865afa158015610f2c573d6000803e3d6000fd5b505050506040513d601f19601f82011682018060405250810190610f509190611f13565b6001600160a01b0316635ad70d126040518163ffffffff1660e01b8152600401602060405180830381865afa158015610f8d573d6000803e3d6000fd5b505050506040513d601f19601f82011682018060405250810190610fb19190611f30565b610fcd5760405162461bcd60e51b81526004016102d290611f4d565b336000818152600260209081526040808320600380855292529091205460ff166110395760405162461bcd60e51b815260206004820152601f60248201527f5065726d697373696f6e2064656e6965642c2063656e746572206f6e6c79210060448201526064016102d2565b604080516020808201909252600090528551908601206000805160206120bb833981519152016110ab5760405162461bcd60e51b815260206004820152601f60248201527f506c656173652070726f76696465206120636f7272656374207265706f72740060448201526064016102d2565b60006110b6876116c5565b604051632be527f360e11b81529091506001600160a01b038216906357ca4fe690610a78908990600401611ae7565b6040805160208082019092526000905281519082012060609082906000805160206120bb8339815191520161112c5760405162461bcd60e51b81526004016102d290611bee565b611135836116c5565b6001600160a01b031663888dbbc16040518163ffffffff1660e01b8152600401600060405180830381865afa158015610573573d6000803e3d6000fd5b6040805160208082019092526000905281519082012060609082906000805160206120bb833981519152016111b95760405162461bcd60e51b81526004016102d290611bee565b60006111c4846116c5565b9050806001600160a01b031663643d6dc06040518163ffffffff1660e01b8152600401600060405180830381865afa158015611204573d6000803e3d6000fd5b505050506040513d6000823e601f3d908101601f1916820160405261040a9190810190612085565b6040805160208082019092526000905284519085012084906000805160206120bb833981519152016112705760405162461bcd60e51b81526004016102d290611bee565b600154604051634b22dc9160e01b815286916001600160a01b031690634b22dc91906112a0908490600401611ae7565b602060405180830381865afa1580156112bd573d6000803e3d6000fd5b505050506040513d601f19601f820116820180604052508101906112e19190611f13565b6001600160a01b0316635ad70d126040518163ffffffff1660e01b8152600401602060405180830381865afa15801561131e573d6000803e3d6000fd5b505050506040513d601f19601f820116820180604052508101906113429190611f30565b61135e5760405162461bcd60e51b81526004016102d290611f4d565b336000818152600260209081526040808320600180855292529091205460ff166113db5760405162461bcd60e51b815260206004820152602860248201527f596f7520646f6e27742068617665207468652070726576696c65646765732c2060448201526761626f7274696e6760c01b60648201526084016102d2565b6001600160a01b0387166114015760405162461bcd60e51b81526004016102d290611fe8565b604080516020808201909252600090528651908701206000805160206120bb833981519152016114855760405162461bcd60e51b815260206004820152602960248201527f506c656173652066696c6c20746865207472616e73616374696f6e20696e666f604482015268399039b2b1ba34b7b760b91b60648201526084016102d2565b604080516020808201909252600090528551908601206000805160206120bb833981519152016115095760405162461bcd60e51b815260206004820152602960248201527f546865206d6174726963756c6174696f6e2073656374696f6e2063616e6e6f7460448201526820626520626c616e6b60b81b60648201526084016102d2565b6000611514896116c5565b6040516313af403560e01b81526001600160a01b038a81166004830152919250908216906313af403590602401600060405180830381600087803b15801561155b57600080fd5b505af115801561156f573d6000803e3d6000fd5b5050604051637a64f11360e01b81526001600160a01b0384169250637a64f113915061159f908a90600401611ae7565b600060405180830381600087803b1580156115b957600080fd5b505af11580156115cd573d6000803e3d6000fd5b5050604051632e8b71d360e01b81526001600160a01b0384169250632e8b71d391506115fd908990600401611ae7565b600060405180830381600087803b15801561161757600080fd5b505af115801561162b573d6000803e3d6000fd5b50505050505050505050505050565b6000546001600160a01b031633146116645760405162461bcd60e51b81526004016102d29061204e565b6001600160a01b0383166000908152600260205260408120829184600381111561169057611690611f84565b60038111156116a1576116a1611f84565b81526020810191909152604001600020805460ff1916911515919091179055505050565b60008160405180602001604052806000815250805190602001208180519060200120036117045760405162461bcd60e51b81526004016102d290611bee565b600154604051634b22dc9160e01b81526000916001600160a01b031690634b22dc9190611735908790600401611ae7565b602060405180830381865afa158015611752573d6000803e3d6000fd5b505050506040513d601f19601f8201168201806040525081019061040a9190611f13565b634e487b7160e01b600052604160045260246000fd5b604051601f8201601f1916810167ffffffffffffffff811182821017156117b5576117b5611776565b604052919050565b600067ffffffffffffffff8211156117d7576117d7611776565b50601f01601f191660200190565b600082601f8301126117f657600080fd5b8135611809611804826117bd565b61178c565b81815284602083860101111561181e57600080fd5b816020850160208301376000918101602001919091529392505050565b60006020828403121561184d57600080fd5b813567ffffffffffffffff81111561186457600080fd5b61040a848285016117e5565b600081518084526020808501945080840160005b838110156118a95781516001600160a01b031687529582019590820190600101611884565b509495945050505050565b6020815260006103496020830184611870565b60005b838110156118e25781810151838201526020016118ca565b50506000910152565b600081518084526119038160208601602086016118c7565b601f01601f19169290920160200192915050565b600081518084526020808501808196508360051b8101915082860160005b8581101561195f57828403895261194d8483516118eb565b98850198935090840190600101611935565b5091979650505050505050565b6020815260006103496020830184611917565b60006101008a1515835280602084015261199b8184018b6118eb565b905082810360408401526119af818a611917565b905082810360608401526119c38189611870565b905082810360808401526119d78188611917565b905082810360a08401526119eb8187611917565b905082810360c08401526119ff8186611917565b905082810360e0840152611a138185611917565b9b9a5050505050505050505050565b60008060408385031215611a3557600080fd5b823567ffffffffffffffff80821115611a4d57600080fd5b611a59868387016117e5565b93506020850135915080821115611a6f57600080fd5b50611a7c858286016117e5565b9150509250929050565b6001600160a01b0381168114611a9b57600080fd5b50565b803560048110611aad57600080fd5b919050565b60008060408385031215611ac557600080fd5b8235611ad081611a86565b9150611ade60208401611a9e565b90509250929050565b60208152600061034960208301846118eb565b60008060008060808587031215611b1057600080fd5b843567ffffffffffffffff80821115611b2857600080fd5b611b34888389016117e5565b955060208701359150611b4682611a86565b90935060408601359080821115611b5c57600080fd5b611b68888389016117e5565b93506060870135915080821115611b7e57600080fd5b50611b8b878288016117e5565b91505092959194509250565b8015158114611a9b57600080fd5b600080600060608486031215611bba57600080fd5b8335611bc581611a86565b9250611bd360208501611a9e565b91506040840135611be381611b97565b809150509250925092565b602080825260129082015271283632b0b9b29032b73a32b91030902724ab60711b604082015260600190565b600067ffffffffffffffff821115611c3457611c34611776565b5060051b60200190565b600082601f830112611c4f57600080fd5b81516020611c5f61180483611c1a565b82815260059290921b84018101918181019086841115611c7e57600080fd5b8286015b84811015611ca2578051611c9581611a86565b8352918301918301611c82565b509695505050505050565b600060208284031215611cbf57600080fd5b815167ffffffffffffffff811115611cd657600080fd5b61040a84828501611c3e565b600082601f830112611cf357600080fd5b8151611d01611804826117bd565b818152846020838601011115611d1657600080fd5b61040a8260208301602087016118c7565b600082601f830112611d3857600080fd5b81516020611d4861180483611c1a565b82815260059290921b84018101918181019086841115611d6757600080fd5b8286015b84811015611ca257805167ffffffffffffffff811115611d8b5760008081fd5b611d998986838b0101611ce2565b845250918301918301611d6b565b600060208284031215611db957600080fd5b815167ffffffffffffffff811115611dd057600080fd5b61040a84828501611d27565b8051611aad81611b97565b600080600080600080600080610100898b031215611e0457600080fd5b611e0d89611ddc565b9750602089015167ffffffffffffffff80821115611e2a57600080fd5b611e368c838d01611ce2565b985060408b0151915080821115611e4c57600080fd5b611e588c838d01611d27565b975060608b0151915080821115611e6e57600080fd5b611e7a8c838d01611c3e565b965060808b0151915080821115611e9057600080fd5b611e9c8c838d01611d27565b955060a08b0151915080821115611eb257600080fd5b611ebe8c838d01611d27565b945060c08b0151915080821115611ed457600080fd5b611ee08c838d01611d27565b935060e08b0151915080821115611ef657600080fd5b50611f038b828c01611d27565b9150509295985092959890939650565b600060208284031215611f2557600080fd5b815161034981611a86565b600060208284031215611f4257600080fd5b815161034981611b97565b6020808252601e908201527f546869732063617220646f65736e277420657869737420616e796d6f72650000604082015260600190565b634e487b7160e01b600052602160045260246000fd5b6020808252602e908201527f5065726d697373696f6e2064656e6965642c20796f75206d757374206265206160408201526d206d616e7566616374757265722160901b606082015260800190565b60208082526021908201527f54686520696e666f732073656374696f6e2063616e6e6f7420626520626c616e6040820152606b60f81b606082015260800190565b60408152600061203c60408301856118eb565b828103602084015261081a81856118eb565b6020808252601e908201527f596f75277265206e6f7420746865206f776e65722c2061626f7274696e670000604082015260600190565b60006020828403121561209757600080fd5b815167ffffffffffffffff8111156120ae57600080fd5b61040a84828501611ce256fe3a2db9fe7908dcc36d81824d2338fc3f1aff49ac357dd8c4840527fba27a5b90a26469706673582212202cc67526f5afb589a234af8a6ee8a27099c9496d8ea46a26cfd2512eb8b7079464736f6c63430008130033608060405234801561001057600080fd5b50611c09806100206000396000f3fe608060405234801561001057600080fd5b506004361061004c5760003560e01c80633de4de8f146100515780634b22dc911461006657806358da1e01146100965780637832e6e3146100a9575b600080fd5b61006461005f3660046103c7565b6100cc565b005b61007961007436600461042b565b610244565b6040516001600160a01b0390911681526020015b60405180910390f35b6100646100a436600461042b565b610275565b6100bc6100b736600461042b565b6102ec565b604051901515815260200161008d565b6002826040516100dc919061048c565b9081526040519081900360200190205460ff1615610168576040805162461bcd60e51b81526020600482015260248101919091527f506c656173652074727920616e6f74686572204e49562061732074686520707260448201527f6f7669646564206f6e652068617320616c7265616479206265656e2075736564606482015260840160405180910390fd5b818160405161017690610317565b6101819291906104d4565b604051809103906000f08015801561019d573d6000803e3d6000fd5b506000806101000a8154816001600160a01b0302191690836001600160a01b0316021790555060016002836040516101d5919061048c565b908152604051908190036020018120805492151560ff19909316929092179091556000546001600160a01b03169060019061021190859061048c565b90815260405190819003602001902080546001600160a01b03929092166001600160a01b03199092169190911790555050565b6000600182604051610256919061048c565b908152604051908190036020019020546001600160a01b031692915050565b61027e81610244565b600080546001600160a01b0319166001600160a01b039290921691821781556040805163b3610f3760e01b8152905163b3610f379260048084019391929182900301818387803b1580156102d157600080fd5b505af11580156102e5573d6000803e3d6000fd5b5050505050565b60006002826040516102fe919061048c565b9081526040519081900360200190205460ff1692915050565b6116d18061050383390190565b634e487b7160e01b600052604160045260246000fd5b600082601f83011261034b57600080fd5b813567ffffffffffffffff8082111561036657610366610324565b604051601f8301601f19908116603f0116810190828211818310171561038e5761038e610324565b816040528381528660208588010111156103a757600080fd5b836020870160208301376000602085830101528094505050505092915050565b600080604083850312156103da57600080fd5b823567ffffffffffffffff808211156103f257600080fd5b6103fe8683870161033a565b9350602085013591508082111561041457600080fd5b506104218582860161033a565b9150509250929050565b60006020828403121561043d57600080fd5b813567ffffffffffffffff81111561045457600080fd5b6104608482850161033a565b949350505050565b60005b8381101561048357818101518382015260200161046b565b50506000910152565b6000825161049e818460208701610468565b9190910192915050565b600081518084526104c0816020860160208601610468565b601f01601f19169290920160200192915050565b6040815260006104e760408301856104a8565b82810360208401526104f981856104a8565b9594505050505056fe60806040523480156200001157600080fd5b50604051620016d1380380620016d183398101604081905262000034916200012d565b600062000042838262000226565b50600c805460ff191660019081179091556200005f828262000226565b505050620002f2565b634e487b7160e01b600052604160045260246000fd5b600082601f8301126200009057600080fd5b81516001600160401b0380821115620000ad57620000ad62000068565b604051601f8301601f19908116603f01168101908282118183101715620000d857620000d862000068565b81604052838152602092508683858801011115620000f557600080fd5b600091505b83821015620001195785820183015181830184015290820190620000fa565b600093810190920192909252949350505050565b600080604083850312156200014157600080fd5b82516001600160401b03808211156200015957600080fd5b62000167868387016200007e565b935060208501519150808211156200017e57600080fd5b506200018d858286016200007e565b9150509250929050565b600181811c90821680620001ac57607f821691505b602082108103620001cd57634e487b7160e01b600052602260045260246000fd5b50919050565b601f8211156200022157600081815260208120601f850160051c81016020861015620001fc5750805b601f850160051c820191505b818110156200021d5782815560010162000208565b5050505b505050565b81516001600160401b0381111562000242576200024262000068565b6200025a8162000253845462000197565b84620001d3565b602080601f831160018114620002925760008415620002795750858301515b600019600386901b1c1916600185901b1785556200021d565b600085815260208120601f198616915b82811015620002c357888601518255948401946001909101908401620002a2565b5085821015620002e25787850151600019600388901b60f8161c191681555b5050505050600190811b01905550565b6113cf80620003026000396000f3fe608060405234801561001057600080fd5b50600436106100f55760003560e01c8063643d6dc011610097578063b5cd26f811610066578063b5cd26f8146101db578063bd51b8e0146101e3578063d80516a5146101eb578063e4085d671461020757600080fd5b8063643d6dc01461018f5780637a64f113146101a4578063888dbbc1146101b7578063b3610f37146101cc57600080fd5b8063457cf35b116100d3578063457cf35b1461013557806357ca4fe614610148578063581003701461015b5780635ad70d121461017957600080fd5b8063134044a1146100fa57806313af40351461010f5780632e8b71d314610122575b600080fd5b61010d610108366004610e63565b61020f565b005b61010d61011d366004610f14565b61024f565b61010d610130366004610e63565b610321565b61010d610143366004610e63565b6103fd565b61010d610156366004610e63565b610447565b610163610483565b6040516101709190610f88565b60405180910390f35b600c5460ff166040519015158152602001610170565b6101976104e5565b6040516101709190610fe1565b61010d6101b2366004610e63565b61056e565b6101bf6105b8565b6040516101709190611049565b61010d600c805460ff19169055565b6101bf610691565b6101bf610761565b6101f3610831565b60405161017098979695949392919061105c565b6101bf610d7d565b600780546001810182556000919091527fa66cc928b5edb82af9bd49922954155ab7b0942694bea4ce44661d9a8736c6880161024b8282611188565b5050565b600a546001600160a01b038083169116036102c55760405162461bcd60e51b815260206004820152602b60248201527f546865206f6c64206f776e657220616e64206e6577206f6e652063616e27742060448201526a6265207468652073616d6560a81b60648201526084015b60405180910390fd5b600a80546001600160a01b039092166001600160a01b03199283168117909155600b80546001810182556000919091527f0175b7a638427703f0dbe7bb9bbf987a2551717b34e79f33b5b1008d1fa01db9018054909216179055565b60036040516103309190611248565b60405180910390208180519060200120036103b35760405162461bcd60e51b815260206004820152603d60248201527f546865206f6c64206d6174726963756c6174696f6e20616e64206e6577206d6160448201527f74726963756c6174696f6e2063616e2774206265207468652073616d6500000060648201526084016102bc565b60036103bf8282611188565b50600580546001810182556000919091527f036b6384b5eca791c62761152d0c79bb0604c104a5fb6f4eb0703f3154bb3db00161024b6003826112be565b60046104098282611188565b50600880546001810182556000919091527ff3f7a9fe364faab93b216da50a3214154f22a0a2b415b23a84c8169e8b636ee30161024b6004826112be565b600680546001810182556000919091527ff652222313e28459528d920b65115c16c04f3efc82aaedc97be59f3f377c0d3f0161024b8282611188565b6060600b8054806020026020016040519081016040528092919081815260200182805480156104db57602002820191906000526020600020905b81546001600160a01b031681526001909101906020018083116104bd575b5050505050905090565b6060600180546104f4906110ff565b80601f0160208091040260200160405190810160405280929190818152602001828054610520906110ff565b80156104db5780601f10610542576101008083540402835291602001916104db565b820191906000526020600020905b81548152906001019060200180831161055057509395945050505050565b600261057a8282611188565b50600980546001810182556000919091527f6e1540171b6c0c960b71a7020d9f60077f6af931a8bbf590da0223dacf75c7af0161024b6002826112be565b60606008805480602002602001604051908101604052809291908181526020016000905b828210156106885783829060005260206000200180546105fb906110ff565b80601f0160208091040260200160405190810160405280929190818152602001828054610627906110ff565b80156106745780601f1061064957610100808354040283529160200191610674565b820191906000526020600020905b81548152906001019060200180831161065757829003601f168201915b5050505050815260200190600101906105dc565b50505050905090565b60606009805480602002602001604051908101604052809291908181526020016000905b828210156106885783829060005260206000200180546106d4906110ff565b80601f0160208091040260200160405190810160405280929190818152602001828054610700906110ff565b801561074d5780601f106107225761010080835404028352916020019161074d565b820191906000526020600020905b81548152906001019060200180831161073057829003601f168201915b5050505050815260200190600101906106b5565b60606007805480602002602001604051908101604052809291908181526020016000905b828210156106885783829060005260206000200180546107a4906110ff565b80601f01602080910402602001604051908101604052809291908181526020018280546107d0906110ff565b801561081d5780601f106107f25761010080835404028352916020019161081d565b820191906000526020600020905b81548152906001019060200180831161080057829003601f168201915b505050505081526020019060010190610785565b60006060806060806060806060600c60009054906101000a900460ff1660016007600b6005600660096008868054610868906110ff565b80601f0160208091040260200160405190810160405280929190818152602001828054610894906110ff565b80156108e15780601f106108b6576101008083540402835291602001916108e1565b820191906000526020600020905b8154815290600101906020018083116108c457829003601f168201915b5050505050965085805480602002602001604051908101604052809291908181526020016000905b828210156109b5578382906000526020600020018054610928906110ff565b80601f0160208091040260200160405190810160405280929190818152602001828054610954906110ff565b80156109a15780601f10610976576101008083540402835291602001916109a1565b820191906000526020600020905b81548152906001019060200180831161098457829003601f168201915b505050505081526020019060010190610909565b50505050955084805480602002602001604051908101604052809291908181526020018280548015610a1057602002820191906000526020600020905b81546001600160a01b031681526001909101906020018083116109f2575b5050505050945083805480602002602001604051908101604052809291908181526020016000905b82821015610ae4578382906000526020600020018054610a57906110ff565b80601f0160208091040260200160405190810160405280929190818152602001828054610a83906110ff565b8015610ad05780601f10610aa557610100808354040283529160200191610ad0565b820191906000526020600020905b815481529060010190602001808311610ab357829003601f168201915b505050505081526020019060010190610a38565b50505050935082805480602002602001604051908101604052809291908181526020016000905b82821015610bb7578382906000526020600020018054610b2a906110ff565b80601f0160208091040260200160405190810160405280929190818152602001828054610b56906110ff565b8015610ba35780601f10610b7857610100808354040283529160200191610ba3565b820191906000526020600020905b815481529060010190602001808311610b8657829003601f168201915b505050505081526020019060010190610b0b565b50505050925081805480602002602001604051908101604052809291908181526020016000905b82821015610c8a578382906000526020600020018054610bfd906110ff565b80601f0160208091040260200160405190810160405280929190818152602001828054610c29906110ff565b8015610c765780601f10610c4b57610100808354040283529160200191610c76565b820191906000526020600020905b815481529060010190602001808311610c5957829003601f168201915b505050505081526020019060010190610bde565b50505050915080805480602002602001604051908101604052809291908181526020016000905b82821015610d5d578382906000526020600020018054610cd0906110ff565b80601f0160208091040260200160405190810160405280929190818152602001828054610cfc906110ff565b8015610d495780601f10610d1e57610100808354040283529160200191610d49565b820191906000526020600020905b815481529060010190602001808311610d2c57829003601f168201915b505050505081526020019060010190610cb1565b505050509050975097509750975097509750975097509091929394959697565b60606006805480602002602001604051908101604052809291908181526020016000905b82821015610688578382906000526020600020018054610dc0906110ff565b80601f0160208091040260200160405190810160405280929190818152602001828054610dec906110ff565b8015610e395780601f10610e0e57610100808354040283529160200191610e39565b820191906000526020600020905b815481529060010190602001808311610e1c57829003601f168201915b505050505081526020019060010190610da1565b634e487b7160e01b600052604160045260246000fd5b600060208284031215610e7557600080fd5b813567ffffffffffffffff80821115610e8d57600080fd5b818401915084601f830112610ea157600080fd5b813581811115610eb357610eb3610e4d565b604051601f8201601f19908116603f01168101908382118183101715610edb57610edb610e4d565b81604052828152876020848701011115610ef457600080fd5b826020860160208301376000928101602001929092525095945050505050565b600060208284031215610f2657600080fd5b81356001600160a01b0381168114610f3d57600080fd5b9392505050565b600081518084526020808501945080840160005b83811015610f7d5781516001600160a01b031687529582019590820190600101610f58565b509495945050505050565b602081526000610f3d6020830184610f44565b6000815180845260005b81811015610fc157602081850181015186830182015201610fa5565b506000602082860101526020601f19601f83011685010191505092915050565b602081526000610f3d6020830184610f9b565b600081518084526020808501808196508360051b8101915082860160005b8581101561103c57828403895261102a848351610f9b565b98850198935090840190600101611012565b5091979650505050505050565b602081526000610f3d6020830184610ff4565b60006101008a151583528060208401526110788184018b610f9b565b9050828103604084015261108c818a610ff4565b905082810360608401526110a08189610f44565b905082810360808401526110b48188610ff4565b905082810360a08401526110c88187610ff4565b905082810360c08401526110dc8186610ff4565b905082810360e08401526110f08185610ff4565b9b9a5050505050505050505050565b600181811c9082168061111357607f821691505b60208210810361113357634e487b7160e01b600052602260045260246000fd5b50919050565b601f82111561118357600081815260208120601f850160051c810160208610156111605750805b601f850160051c820191505b8181101561117f5782815560010161116c565b5050505b505050565b815167ffffffffffffffff8111156111a2576111a2610e4d565b6111b6816111b084546110ff565b84611139565b602080601f8311600181146111eb57600084156111d35750858301515b600019600386901b1c1916600185901b17855561117f565b600085815260208120601f198616915b8281101561121a578886015182559484019460019091019084016111fb565b50858210156112385787850151600019600388901b60f8161c191681555b5050505050600190811b01905550565b6000808354611256816110ff565b6001828116801561126e5760018114611283576112b2565b60ff19841687528215158302870194506112b2565b8760005260208060002060005b858110156112a95781548a820152908401908201611290565b50505082870194505b50929695505050505050565b8181036112c9575050565b6112d382546110ff565b67ffffffffffffffff8111156112eb576112eb610e4d565b6112f9816111b084546110ff565b6000601f82116001811461132d57600083156113155750848201545b600019600385901b1c1916600184901b178455611392565b600085815260209020601f19841690600086815260209020845b838110156113675782860154825560019586019590910190602001611347565b50858310156113855781850154600019600388901b60f8161c191681555b50505060018360011b0184555b505050505056fea2646970667358221220e1befc03c6370f595356b1a23e6227e20e33450cbc2b8b10276abc1903f388fb64736f6c63430008130033a2646970667358221220e5ef72b586f28890a45d160e92cb6f35c4cafba569cd2344f030446127f4892864736f6c63430008130033","bytecodeSha1":"7e30007036956ab3b776e758cffafcdd4022c136","type":"contract","abi":[{"inputs":[],"stateMutability":"nonpayable","type":"constructor","name":"constructor"},{"inputs":[{"internalType":"string","name":"_niv","type":"string"},{"internalType":"string","name":"_accident","type":"string"}],"name":"addAccident","outputs":[],"stateMutability":"nonpayable","type":"function"},{"inputs":[{"internalType":"string","name":"_niv","type":"string"},{"internalType":"string","name":"_report","type":"string"}],"name":"addCarReport","outputs":[],"stateMutability":"nonpayable","type":"function"},{"inputs":[{"internalType":"string","name":"_niv","type":"string"},{"internalType":"string","name":"_infos","type":"string"}],"name":"createNewCar","outputs":[],"stateMutability":"nonpayable","type":"function"},{"inputs":[{"internalType":"string","name":"_niv","type":"string"}],"name":"destroyCar","outputs":[],"stateMutability":"nonpayable","type":"function"},{"inputs":[{"internalType":"string","name":"_niv","type":"string"}],"name":"getAccidentsList","outputs":[{"internalType":"string[]","name":"","type":"string[]"}],"stateMutability":"view","type":"function"},{"inputs":[{"internalType":"address","name":"_of","type":"address"},{"internalType":"enum AutomobileRegistrationSystem.Role","name":"_role","type":"uint8"}],"name":"getAccountRole","outputs":[{"internalType":"bool","name":"","type":"bool"}],"stateMutability":"view","type":"function"},{"inputs":[{"internalType":"string","name":"_niv","type":"string"}],"name":"getCarAllInfos","outputs":[{"internalType":"bool","name":"","type":"bool"},{"internalType":"string","name":"","type":"string"},{"internalType":"string[]","name":"","type":"string[]"},{"internalType":"address[]","name":"","type":"address[]"},{"internalType":"string[]","name":"","type":"string[]"},{"internalType":"string[]","name":"","type":"string[]"},{"internalType":"string[]","name":"","type":"string[]"},{"internalType":"string[]","name":"","type":"string[]"}],"stateMutability":"view","type":"function"},{"inputs":[{"internalType":"string","name":"_niv","type":"string"}],"name":"getCarInfos","outputs":[{"internalType":"string","name":"","type":"string"}],"stateMutability":"view","type":"function"},{"inputs":[{"internalType":"string","name":"_niv","type":"string"}],"name":"getCarOwner","outputs":[{"internalType":"address[]","name":"","type":"address[]"}],"stateMutability":"view","type":"function"},{"inputs":[{"internalType":"string","name":"_niv","type":"string"}],"name":"getCarPreviousTransactions","outputs":[{"internalType":"string[]","name":"","type":"string[]"}],"stateMutability":"view","type":"function"},{"inputs":[{"internalType":"string","name":"_niv","type":"string"}],"name":"getCarReport","outputs":[{"internalType":"string[]","name":"","type":"string[]"}],"stateMutability":"view","type":"function"},{"inputs":[{"internalType":"string","name":"_niv","type":"string"}],"name":"getCarSignalisation","outputs":[{"internalType":"string[]","name":"","type":"string[]"}],"stateMutability":"view","type":"function"},{"inputs":[{"internalType":"string","name":"_niv","type":"string"}],"name":"isNivUsed","outputs":[{"internalType":"bool","name":"","type":"bool"}],"stateMutability":"view","type":"function"},{"inputs":[{"internalType":"string","name":"_niv","type":"string"},{"internalType":"address","name":"_owner","type":"address"},{"internalType":"string","name":"_transactionInfo","type":"string"},{"internalType":"string","name":"_matriculation","type":"string"}],"name":"setCarOwner","outputs":[],"stateMutability":"nonpayable","type":"function"},{"inputs":[{"internalType":"string","name":"_niv","type":"string"},{"internalType":"string","name":"_signalisation","type":"string"}],"name":"setCarSignalisation","outputs":[],"stateMutability":"nonpayable","type":"function"},{"inputs":[{"internalType":"address","name":"_for","type":"address"},{"internalType":"enum AutomobileRegistrationSystem.Role","name":"_role","type":"uint8"},{"internalType":"bool","name":"_roleStatus","type":"bool"}],"name":"setRole","outputs":[],"stateMutability":"nonpayable","type":"function"}],"compiler":{"version":"0.8.19+commit.7dd6d404","evm_version":"istanbul","optimizer":{"enabled":true,"runs":200}},"contractName":"AutomobileRegistrationSystem","language":"Solidity","natspec":{"methods":{},"kind":"dev","version":1},"opcodes":"PUSH1 0x80 PUSH1 0x40 MSTORE CALLVALUE DUP1 ISZERO PUSH2 0x10 JUMPI PUSH1 0x0 DUP1 REVERT JUMPDEST POP PUSH1 0x4 CALLDATASIZE LT PUSH2 0x100 JUMPI PUSH1 0x0 CALLDATALOAD PUSH1 0xE0 SHR DUP1 PUSH4 0x7FEE984B GT PUSH2 0x97 JUMPI DUP1 PUSH4 0xB327C700 GT PUSH2 0x66 JUMPI DUP1 PUSH4 0xB327C700 EQ PUSH2 0x232 JUMPI DUP1 PUSH4 0xD0F2DD5B EQ PUSH2 0x245 JUMPI DUP1 PUSH4 0xD6082A83 EQ PUSH2 0x265 JUMPI DUP1 PUSH4 0xF6BB6B37 EQ PUSH2 0x278 JUMPI PUSH1 0x0 DUP1 REVERT JUMPDEST DUP1 PUSH4 0x7FEE984B EQ PUSH2 0x1E6 JUMPI DUP1 PUSH4 0x90CA8332 EQ PUSH2 0x1F9 JUMPI DUP1 PUSH4 0xA2A6D142 EQ PUSH2 0x20C JUMPI DUP1 PUSH4 0xAAD37C99 EQ PUSH2 0x21F JUMPI PUSH1 0x0 DUP1 REVERT JUMPDEST DUP1 PUSH4 0x58DA1E01 GT PUSH2 0xD3 JUMPI DUP1 PUSH4 0x58DA1E01 EQ PUSH2 0x188 JUMPI DUP1 PUSH4 0x60DB168E EQ PUSH2 0x19D JUMPI DUP1 PUSH4 0x6F059E73 EQ PUSH2 0x1C0 JUMPI DUP1 PUSH4 0x75D12105 EQ PUSH2 0x1D3 JUMPI PUSH1 0x0 DUP1 REVERT JUMPDEST DUP1 PUSH4 0xB8CF8D1 EQ PUSH2 0x105 JUMPI DUP1 PUSH4 0x398752E0 EQ PUSH2 0x12E JUMPI DUP1 PUSH4 0x4974C632 EQ PUSH2 0x14E JUMPI DUP1 PUSH4 0x4CCA8288 EQ PUSH2 0x175 JUMPI JUMPDEST PUSH1 0x0 DUP1 REVERT JUMPDEST PUSH2 0x118 PUSH2 0x113 CALLDATASIZE PUSH1 0x4 PUSH2 0x183B JUMP JUMPDEST PUSH2 0x28B JUMP JUMPDEST PUSH1 0x40 MLOAD PUSH2 0x125 SWAP2 SWAP1 PUSH2 0x18B4 JUMP JUMPDEST PUSH1 0x40 MLOAD DUP1 SWAP2 SUB SWAP1 RETURN JUMPDEST PUSH2 0x141 PUSH2 0x13C CALLDATASIZE PUSH1 0x4 PUSH2 0x183B JUMP JUMPDEST PUSH2 0x350 JUMP JUMPDEST PUSH1 0x40 MLOAD PUSH2 0x125 SWAP2 SWAP1 PUSH2 0x196C JUMP JUMPDEST PUSH2 0x161 PUSH2 0x15C CALLDATASIZE PUSH1 0x4 PUSH2 0x183B JUMP JUMPDEST PUSH2 0x412 JUMP JUMPDEST PUSH1 0x40 MLOAD PUSH2 0x125 SWAP9 SWAP8 SWAP7 SWAP6 SWAP5 SWAP4 SWAP3 SWAP2 SWAP1 PUSH2 0x197F JUMP JUMPDEST PUSH2 0x141 PUSH2 0x183 CALLDATASIZE PUSH1 0x4 PUSH2 0x183B JUMP JUMPDEST PUSH2 0x4E6 JUMP JUMPDEST PUSH2 0x19B PUSH2 0x196 CALLDATASIZE PUSH1 0x4 PUSH2 0x183B JUMP JUMPDEST PUSH2 0x59B JUMP JUMPDEST STOP JUMPDEST PUSH2 0x1B0 PUSH2 0x1AB CALLDATASIZE PUSH1 0x4 PUSH2 0x183B JUMP JUMPDEST PUSH2 0x769 JUMP JUMPDEST PUSH1 0x40 MLOAD SWAP1 ISZERO ISZERO DUP2 MSTORE PUSH1 0x20 ADD PUSH2 0x125 JUMP JUMPDEST PUSH2 0x19B PUSH2 0x1CE CALLDATASIZE PUSH1 0x4 PUSH2 0x1A22 JUMP JUMPDEST PUSH2 0x823 JUMP JUMPDEST PUSH2 0x19B PUSH2 0x1E1 CALLDATASIZE PUSH1 0x4 PUSH2 0x1A22 JUMP JUMPDEST PUSH2 0xAB3 JUMP JUMPDEST PUSH2 0x19B PUSH2 0x1F4 CALLDATASIZE PUSH1 0x4 PUSH2 0x1A22 JUMP JUMPDEST PUSH2 0xBBF JUMP JUMPDEST PUSH2 0x141 PUSH2 0x207 CALLDATASIZE PUSH1 0x4 PUSH2 0x183B JUMP JUMPDEST PUSH2 0xD87 JUMP JUMPDEST PUSH2 0x1B0 PUSH2 0x21A CALLDATASIZE PUSH1 0x4 PUSH2 0x1AB2 JUMP JUMPDEST PUSH2 0xE19 JUMP JUMPDEST PUSH2 0x19B PUSH2 0x22D CALLDATASIZE PUSH1 0x4 PUSH2 0x1A22 JUMP JUMPDEST PUSH2 0xE9B JUMP JUMPDEST PUSH2 0x141 PUSH2 0x240 CALLDATASIZE PUSH1 0x4 PUSH2 0x183B JUMP JUMPDEST PUSH2 0x10E5 JUMP JUMPDEST PUSH2 0x258 PUSH2 0x253 CALLDATASIZE PUSH1 0x4 PUSH2 0x183B JUMP JUMPDEST PUSH2 0x1172 JUMP JUMPDEST PUSH1 0x40 MLOAD PUSH2 0x125 SWAP2 SWAP1 PUSH2 0x1AE7 JUMP JUMPDEST PUSH2 0x19B PUSH2 0x273 CALLDATASIZE PUSH1 0x4 PUSH2 0x1AFA JUMP JUMPDEST PUSH2 0x122C JUMP JUMPDEST PUSH2 0x19B PUSH2 0x286 CALLDATASIZE PUSH1 0x4 PUSH2 0x1BA5 JUMP JUMPDEST PUSH2 0x163A JUMP JUMPDEST PUSH1 0x40 DUP1 MLOAD PUSH1 0x20 DUP1 DUP3 ADD SWAP1 SWAP3 MSTORE PUSH1 0x0 SWAP1 MSTORE DUP2 MLOAD SWAP1 DUP3 ADD KECCAK256 PUSH1 0x60 SWAP1 DUP3 SWAP1 PUSH1 0x0 DUP1 MLOAD PUSH1 0x20 PUSH2 0x20BB DUP4 CODECOPY DUP2 MLOAD SWAP2 MSTORE ADD PUSH2 0x2DB JUMPI PUSH1 0x40 MLOAD PUSH3 0x461BCD PUSH1 0xE5 SHL DUP2 MSTORE PUSH1 0x4 ADD PUSH2 0x2D2 SWAP1 PUSH2 0x1BEE JUMP JUMPDEST PUSH1 0x40 MLOAD DUP1 SWAP2 SUB SWAP1 REVERT JUMPDEST PUSH2 0x2E4 DUP4 PUSH2 0x16C5 JUMP JUMPDEST PUSH1 0x1 PUSH1 0x1 PUSH1 0xA0 SHL SUB AND PUSH4 0x58100370 PUSH1 0x40 MLOAD DUP2 PUSH4 0xFFFFFFFF AND PUSH1 0xE0 SHL DUP2 MSTORE PUSH1 0x4 ADD PUSH1 0x0 PUSH1 0x40 MLOAD DUP1 DUP4 SUB DUP2 DUP7 GAS STATICCALL ISZERO DUP1 ISZERO PUSH2 0x321 JUMPI RETURNDATASIZE PUSH1 0x0 DUP1 RETURNDATACOPY RETURNDATASIZE PUSH1 0x0 REVERT JUMPDEST POP POP POP POP PUSH1 0x40 MLOAD RETURNDATASIZE PUSH1 0x0 DUP3 RETURNDATACOPY PUSH1 0x1F RETURNDATASIZE SWAP1 DUP2 ADD PUSH1 0x1F NOT AND DUP3 ADD PUSH1 0x40 MSTORE PUSH2 0x349 SWAP2 SWAP1 DUP2 ADD SWAP1 PUSH2 0x1CAD JUMP JUMPDEST SWAP4 SWAP3 POP POP POP JUMP JUMPDEST PUSH1 0x40 DUP1 MLOAD PUSH1 0x20 DUP1 DUP3 ADD SWAP1 SWAP3 MSTORE PUSH1 0x0 SWAP1 MSTORE DUP2 MLOAD SWAP1 DUP3 ADD KECCAK256 PUSH1 0x60 SWAP1 DUP3 SWAP1 PUSH1 0x0 DUP1 MLOAD PUSH1 0x20 PUSH2 0x20BB DUP4 CODECOPY DUP2 MLOAD SWAP2 MSTORE ADD PUSH2 0x397 JUMPI PUSH1 0x40 MLOAD PUSH3 0x461BCD PUSH1 0xE5 SHL DUP2 MSTORE PUSH1 0x4 ADD PUSH2 0x2D2 SWAP1 PUSH2 0x1BEE JUMP JUMPDEST PUSH1 0x0 PUSH2 0x3A2 DUP5 PUSH2 0x16C5 JUMP JUMPDEST SWAP1 POP DUP1 PUSH1 0x1 PUSH1 0x1 PUSH1 0xA0 SHL SUB AND PUSH4 0xE4085D67 PUSH1 0x40 MLOAD DUP2 PUSH4 0xFFFFFFFF AND PUSH1 0xE0 SHL DUP2 MSTORE PUSH1 0x4 ADD PUSH1 0x0 PUSH1 0x40 MLOAD DUP1 DUP4 SUB DUP2 DUP7 GAS STATICCALL ISZERO DUP1 ISZERO PUSH2 0x3E2 JUMPI RETURNDATASIZE PUSH1 0x0 DUP1 RETURNDATACOPY RETURNDATASIZE PUSH1 0x0 REVERT JUMPDEST POP POP POP POP PUSH1 0x40 MLOAD RETURNDATASIZE PUSH1 0x0 DUP3 RETURNDATACOPY PUSH1 0x1F RETURNDATASIZE SWAP1 DUP2 ADD PUSH1 0x1F NOT AND DUP3 ADD PUSH1 0x40 MSTORE PUSH2 0x40A SWAP2 SWAP1 DUP2 ADD SWAP1 PUSH2 0x1DA7 JUMP JUMPDEST SWAP5 SWAP4 POP POP POP POP JUMP JUMPDEST PUSH1 0x0 PUSH1 0x60 DUP1 PUSH1 0x60 DUP1 PUSH1 0x60 DUP1 PUSH1 0x60 DUP9 PUSH1 0x40 MLOAD DUP1 PUSH1 0x20 ADD PUSH1 0x40 MSTORE DUP1 PUSH1 0x0 DUP2 MSTORE POP DUP1 MLOAD SWAP1 PUSH1 0x20 ADD KECCAK256 DUP2 DUP1 MLOAD SWAP1 PUSH1 0x20 ADD KECCAK256 SUB PUSH2 0x45C JUMPI PUSH1 0x40 MLOAD PUSH3 0x461BCD PUSH1 0xE5 SHL DUP2 MSTORE PUSH1 0x4 ADD PUSH2 0x2D2 SWAP1 PUSH2 0x1BEE JUMP JUMPDEST PUSH2 0x465 DUP11 PUSH2 0x16C5 JUMP JUMPDEST PUSH1 0x1 PUSH1 0x1 PUSH1 0xA0 SHL SUB AND PUSH4 0xD80516A5 PUSH1 0x40 MLOAD DUP2 PUSH4 0xFFFFFFFF AND PUSH1 0xE0 SHL DUP2 MSTORE PUSH1 0x4 ADD PUSH1 0x0 PUSH1 0x40 MLOAD DUP1 DUP4 SUB DUP2 DUP7 GAS STATICCALL ISZERO DUP1 ISZERO PUSH2 0x4A2 JUMPI RETURNDATASIZE PUSH1 0x0 DUP1 RETURNDATACOPY RETURNDATASIZE PUSH1 0x0 REVERT JUMPDEST POP POP POP POP PUSH1 0x40 MLOAD RETURNDATASIZE PUSH1 0x0 DUP3 RETURNDATACOPY PUSH1 0x1F RETURNDATASIZE SWAP1 DUP2 ADD PUSH1 0x1F NOT AND DUP3 ADD PUSH1 0x40 MSTORE PUSH2 0x4CA SWAP2 SWAP1 DUP2 ADD SWAP1 PUSH2 0x1DE7 JUMP JUMPDEST SWAP9 POP SWAP9 POP SWAP9 POP SWAP9 POP SWAP9 POP SWAP9 POP SWAP9 POP SWAP9 POP POP SWAP2 SWAP4 SWAP6 SWAP8 POP SWAP2 SWAP4 SWAP6 SWAP8 JUMP JUMPDEST PUSH1 0x40 DUP1 MLOAD PUSH1 0x20 DUP1 DUP3 ADD SWAP1 SWAP3 MSTORE PUSH1 0x0 SWAP1 MSTORE DUP2 MLOAD SWAP1 DUP3 ADD KECCAK256 PUSH1 0x60 SWAP1 DUP3 SWAP1 PUSH1 0x0 DUP1 MLOAD PUSH1 0x20 PUSH2 0x20BB DUP4 CODECOPY DUP2 MLOAD SWAP2 MSTORE ADD PUSH2 0x52D JUMPI PUSH1 0x40 MLOAD PUSH3 0x461BCD PUSH1 0xE5 SHL DUP2 MSTORE PUSH1 0x4 ADD PUSH2 0x2D2 SWAP1 PUSH2 0x1BEE JUMP JUMPDEST PUSH2 0x536 DUP4 PUSH2 0x16C5 JUMP JUMPDEST PUSH1 0x1 PUSH1 0x1 PUSH1 0xA0 SHL SUB AND PUSH4 0xB5CD26F8 PUSH1 0x40 MLOAD DUP2 PUSH4 0xFFFFFFFF AND PUSH1 0xE0 SHL DUP2 MSTORE PUSH1 0x4 ADD PUSH1 0x0 PUSH1 0x40 MLOAD DUP1 DUP4 SUB DUP2 DUP7 GAS STATICCALL ISZERO DUP1 ISZERO PUSH2 0x573 JUMPI RETURNDATASIZE PUSH1 0x0 DUP1 RETURNDATACOPY RETURNDATASIZE PUSH1 0x0 REVERT JUMPDEST POP POP POP POP PUSH1 0x40 MLOAD RETURNDATASIZE PUSH1 0x0 DUP3 RETURNDATACOPY PUSH1 0x1F RETURNDATASIZE SWAP1 DUP2 ADD PUSH1 0x1F NOT AND DUP3 ADD PUSH1 0x40 MSTORE PUSH2 0x349 SWAP2 SWAP1 DUP2 ADD SWAP1 PUSH2 0x1DA7 JUMP JUMPDEST PUSH1 0x40 DUP1 MLOAD PUSH1 0x20 DUP1 DUP3 ADD SWAP1 SWAP3 MSTORE PUSH1 0x0 SWAP1 MSTORE DUP2 MLOAD SWAP1 DUP3 ADD KECCAK256 DUP2 SWAP1 PUSH1 0x0 DUP1 MLOAD PUSH1 0x20 PUSH2 0x20BB DUP4 CODECOPY DUP2 MLOAD SWAP2 MSTORE ADD PUSH2 0x5DF JUMPI PUSH1 0x40 MLOAD PUSH3 0x461BCD PUSH1 0xE5 SHL DUP2 MSTORE PUSH1 0x4 ADD PUSH2 0x2D2 SWAP1 PUSH2 0x1BEE JUMP JUMPDEST PUSH1 0x1 SLOAD PUSH1 0x40 MLOAD PUSH4 0x4B22DC91 PUSH1 0xE0 SHL DUP2 MSTORE DUP4 SWAP2 PUSH1 0x1 PUSH1 0x1 PUSH1 0xA0 SHL SUB AND SWAP1 PUSH4 0x4B22DC91 SWAP1 PUSH2 0x60F SWAP1 DUP5 SWAP1 PUSH1 0x4 ADD PUSH2 0x1AE7 JUMP JUMPDEST PUSH1 0x20 PUSH1 0x40 MLOAD DUP1 DUP4 SUB DUP2 DUP7 GAS STATICCALL ISZERO DUP1 ISZERO PUSH2 0x62C JUMPI RETURNDATASIZE PUSH1 0x0 DUP1 RETURNDATACOPY RETURNDATASIZE PUSH1 0x0 REVERT JUMPDEST POP POP POP POP PUSH1 0x40 MLOAD RETURNDATASIZE PUSH1 0x1F NOT PUSH1 0x1F DUP3 ADD AND DUP3 ADD DUP1 PUSH1 0x40 MSTORE POP DUP2 ADD SWAP1 PUSH2 0x650 SWAP2 SWAP1 PUSH2 0x1F13 JUMP JUMPDEST PUSH1 0x1 PUSH1 0x1 PUSH1 0xA0 SHL SUB AND PUSH4 0x5AD70D12 PUSH1 0x40 MLOAD DUP2 PUSH4 0xFFFFFFFF AND PUSH1 0xE0 SHL DUP2 MSTORE PUSH1 0x4 ADD PUSH1 0x20 PUSH1 0x40 MLOAD DUP1 DUP4 SUB DUP2 DUP7 GAS STATICCALL ISZERO DUP1 ISZERO PUSH2 0x68D JUMPI RETURNDATASIZE PUSH1 0x0 DUP1 RETURNDATACOPY RETURNDATASIZE PUSH1 0x0 REVERT JUMPDEST POP POP POP POP PUSH1 0x40 MLOAD RETURNDATASIZE PUSH1 0x1F NOT PUSH1 0x1F DUP3 ADD AND DUP3 ADD DUP1 PUSH1 0x40 MSTORE POP DUP2 ADD SWAP1 PUSH2 0x6B1 SWAP2 SWAP1 PUSH2 0x1F30 JUMP JUMPDEST PUSH2 0x6CD JUMPI PUSH1 0x40 MLOAD PUSH3 0x461BCD PUSH1 0xE5 SHL DUP2 MSTORE PUSH1 0x4 ADD PUSH2 0x2D2 SWAP1 PUSH2 0x1F4D JUMP JUMPDEST CALLER PUSH1 0x0 DUP2 DUP2 MSTORE PUSH1 0x2 PUSH1 0x20 SWAP1 DUP2 MSTORE PUSH1 0x40 DUP1 DUP4 KECCAK256 DUP4 DUP1 MSTORE SWAP1 SWAP2 MSTORE DUP2 KECCAK256 SLOAD PUSH1 0xFF AND PUSH2 0x707 JUMPI PUSH1 0x40 MLOAD PUSH3 0x461BCD PUSH1 0xE5 SHL DUP2 MSTORE PUSH1 0x4 ADD PUSH2 0x2D2 SWAP1 PUSH2 0x1F9A JUMP JUMPDEST PUSH2 0x710 DUP6 PUSH2 0x16C5 JUMP JUMPDEST PUSH1 0x1 PUSH1 0x1 PUSH1 0xA0 SHL SUB AND PUSH4 0xB3610F37 PUSH1 0x40 MLOAD DUP2 PUSH4 0xFFFFFFFF AND PUSH1 0xE0 SHL DUP2 MSTORE PUSH1 0x4 ADD PUSH1 0x0 PUSH1 0x40 MLOAD DUP1 DUP4 SUB DUP2 PUSH1 0x0 DUP8 DUP1 EXTCODESIZE ISZERO DUP1 ISZERO PUSH2 0x74A JUMPI PUSH1 0x0 DUP1 REVERT JUMPDEST POP GAS CALL ISZERO DUP1 ISZERO PUSH2 0x75E JUMPI RETURNDATASIZE PUSH1 0x0 DUP1 RETURNDATACOPY RETURNDATASIZE PUSH1 0x0 REVERT JUMPDEST POP POP POP POP POP POP POP POP POP JUMP JUMPDEST CALLER PUSH1 0x0 DUP2 DUP2 MSTORE PUSH1 0x2 PUSH1 0x20 SWAP1 DUP2 MSTORE PUSH1 0x40 DUP1 DUP4 KECCAK256 DUP4 DUP1 MSTORE SWAP1 SWAP2 MSTORE DUP2 KECCAK256 SLOAD SWAP1 SWAP2 SWAP1 DUP3 SWAP1 PUSH1 0xFF AND PUSH2 0x7A8 JUMPI PUSH1 0x40 MLOAD PUSH3 0x461BCD PUSH1 0xE5 SHL DUP2 MSTORE PUSH1 0x4 ADD PUSH2 0x2D2 SWAP1 PUSH2 0x1F9A JUMP JUMPDEST PUSH1 0x1 SLOAD PUSH1 0x40 MLOAD PUSH4 0x7832E6E3 PUSH1 0xE0 SHL DUP2 MSTORE PUSH1 0x0 SWAP2 PUSH1 0x1 PUSH1 0x1 PUSH1 0xA0 SHL SUB AND SWAP1 PUSH4 0x7832E6E3 SWAP1 PUSH2 0x7D9 SWAP1 DUP9 SWAP1 PUSH1 0x4 ADD PUSH2 0x1AE7 JUMP JUMPDEST PUSH1 0x20 PUSH1 0x40 MLOAD DUP1 DUP4 SUB DUP2 DUP7 GAS STATICCALL ISZERO DUP1 ISZERO PUSH2 0x7F6 JUMPI RETURNDATASIZE PUSH1 0x0 DUP1 RETURNDATACOPY RETURNDATASIZE PUSH1 0x0 REVERT JUMPDEST POP POP POP POP PUSH1 0x40 MLOAD RETURNDATASIZE PUSH1 0x1F NOT PUSH1 0x1F DUP3 ADD AND DUP3 ADD DUP1 PUSH1 0x40 MSTORE POP DUP2 ADD SWAP1 PUSH2 0x81A SWAP2 SWAP1 PUSH2 0x1F30 JUMP JUMPDEST SWAP6 SWAP5 POP POP POP POP POP JUMP JUMPDEST PUSH1 0x40 DUP1 MLOAD PUSH1 0x20 DUP1 DUP3 ADD SWAP1 SWAP3 MSTORE PUSH1 0x0 SWAP1 MSTORE DUP3 MLOAD SWAP1 DUP4 ADD KECCAK256 DUP3 SWAP1 PUSH1 0x0 DUP1 MLOAD PUSH1 0x20 PUSH2 0x20BB DUP4 CODECOPY DUP2 MLOAD SWAP2 MSTORE ADD PUSH2 0x867 JUMPI PUSH1 0x40 MLOAD PUSH3 0x461BCD PUSH1 0xE5 SHL DUP2 MSTORE PUSH1 0x4 ADD PUSH2 0x2D2 SWAP1 PUSH2 0x1BEE JUMP JUMPDEST PUSH1 0x1 SLOAD PUSH1 0x40 MLOAD PUSH4 0x4B22DC91 PUSH1 0xE0 SHL DUP2 MSTORE DUP5 SWAP2 PUSH1 0x1 PUSH1 0x1 PUSH1 0xA0 SHL SUB AND SWAP1 PUSH4 0x4B22DC91 SWAP1 PUSH2 0x897 SWAP1 DUP5 SWAP1 PUSH1 0x4 ADD PUSH2 0x1AE7 JUMP JUMPDEST PUSH1 0x20 PUSH1 0x40 MLOAD DUP1 DUP4 SUB DUP2 DUP7 GAS STATICCALL ISZERO DUP1 ISZERO PUSH2 0x8B4 JUMPI RETURNDATASIZE PUSH1 0x0 DUP1 RETURNDATACOPY RETURNDATASIZE PUSH1 0x0 REVERT JUMPDEST POP POP POP POP PUSH1 0x40 MLOAD RETURNDATASIZE PUSH1 0x1F NOT PUSH1 0x1F DUP3 ADD AND DUP3 ADD DUP1 PUSH1 0x40 MSTORE POP DUP2 ADD SWAP1 PUSH2 0x8D8 SWAP2 SWAP1 PUSH2 0x1F13 JUMP JUMPDEST PUSH1 0x1 PUSH1 0x1 PUSH1 0xA0 SHL SUB AND PUSH4 0x5AD70D12 PUSH1 0x40 MLOAD DUP2 PUSH4 0xFFFFFFFF AND PUSH1 0xE0 SHL DUP2 MSTORE PUSH1 0x4 ADD PUSH1 0x20 PUSH1 0x40 MLOAD DUP1 DUP4 SUB DUP2 DUP7 GAS STATICCALL ISZERO DUP1 ISZERO PUSH2 0x915 JUMPI RETURNDATASIZE PUSH1 0x0 DUP1 RETURNDATACOPY RETURNDATASIZE PUSH1 0x0 REVERT JUMPDEST POP POP POP POP PUSH1 0x40 MLOAD RETURNDATASIZE PUSH1 0x1F NOT PUSH1 0x1F DUP3 ADD AND DUP3 ADD DUP1 PUSH1 0x40 MSTORE POP DUP2 ADD SWAP1 PUSH2 0x939 SWAP2 SWAP1 PUSH2 0x1F30 JUMP JUMPDEST PUSH2 0x955 JUMPI PUSH1 0x40 MLOAD PUSH3 0x461BCD PUSH1 0xE5 SHL DUP2 MSTORE PUSH1 0x4 ADD PUSH2 0x2D2 SWAP1 PUSH2 0x1F4D JUMP JUMPDEST CALLER PUSH1 0x0 DUP2 DUP2 MSTORE PUSH1 0x2 PUSH1 0x20 SWAP1 DUP2 MSTORE PUSH1 0x40 DUP1 DUP4 KECCAK256 PUSH1 0x3 DUP1 DUP6 MSTORE SWAP3 MSTORE SWAP1 SWAP2 KECCAK256 SLOAD PUSH1 0xFF AND PUSH2 0x9CC JUMPI PUSH1 0x40 MLOAD PUSH3 0x461BCD PUSH1 0xE5 SHL DUP2 MSTORE PUSH1 0x20 PUSH1 0x4 DUP3 ADD MSTORE PUSH1 0x22 PUSH1 0x24 DUP3 ADD MSTORE PUSH32 0x5065726D697373696F6E2064656E6965642C20696E737572616E6365206F6E6C PUSH1 0x44 DUP3 ADD MSTORE PUSH2 0x7921 PUSH1 0xF0 SHL PUSH1 0x64 DUP3 ADD MSTORE PUSH1 0x84 ADD PUSH2 0x2D2 JUMP JUMPDEST PUSH1 0x40 DUP1 MLOAD PUSH1 0x20 DUP1 DUP3 ADD SWAP1 SWAP3 MSTORE PUSH1 0x0 SWAP1 MSTORE DUP6 MLOAD SWAP1 DUP7 ADD KECCAK256 PUSH1 0x0 DUP1 MLOAD PUSH1 0x20 PUSH2 0x20BB DUP4 CODECOPY DUP2 MLOAD SWAP2 MSTORE ADD PUSH2 0xA3E JUMPI PUSH1 0x40 MLOAD PUSH3 0x461BCD PUSH1 0xE5 SHL DUP2 MSTORE PUSH1 0x20 PUSH1 0x4 DUP3 ADD MSTORE PUSH1 0x19 PUSH1 0x24 DUP3 ADD MSTORE PUSH32 0x506C656173652070726F76696465206D6F726520696E666F7300000000000000 PUSH1 0x44 DUP3 ADD MSTORE PUSH1 0x64 ADD PUSH2 0x2D2 JUMP JUMPDEST PUSH1 0x0 PUSH2 0xA49 DUP8 PUSH2 0x16C5 JUMP JUMPDEST PUSH1 0x40 MLOAD PUSH4 0x134044A1 PUSH1 0xE0 SHL DUP2 MSTORE SWAP1 SWAP2 POP PUSH1 0x1 PUSH1 0x1 PUSH1 0xA0 SHL SUB DUP3 AND SWAP1 PUSH4 0x134044A1 SWAP1 PUSH2 0xA78 SWAP1 DUP10 SWAP1 PUSH1 0x4 ADD PUSH2 0x1AE7 JUMP JUMPDEST PUSH1 0x0 PUSH1 0x40 MLOAD DUP1 DUP4 SUB DUP2 PUSH1 0x0 DUP8 DUP1 EXTCODESIZE ISZERO DUP1 ISZERO PUSH2 0xA92 JUMPI PUSH1 0x0 DUP1 REVERT JUMPDEST POP GAS CALL ISZERO DUP1 ISZERO PUSH2 0xAA6 JUMPI RETURNDATASIZE PUSH1 0x0 DUP1 RETURNDATACOPY RETURNDATASIZE PUSH1 0x0 REVERT JUMPDEST POP POP POP POP POP POP POP POP POP POP POP JUMP JUMPDEST CALLER PUSH1 0x0 DUP2 DUP2 MSTORE PUSH1 0x2 PUSH1 0x20 SWAP1 DUP2 MSTORE PUSH1 0x40 DUP1 DUP4 KECCAK256 DUP4 DUP1 MSTORE SWAP1 SWAP2 MSTORE DUP2 KECCAK256 SLOAD PUSH1 0xFF AND PUSH2 0xAED JUMPI PUSH1 0x40 MLOAD PUSH3 0x461BCD PUSH1 0xE5 SHL DUP2 MSTORE PUSH1 0x4 ADD PUSH2 0x2D2 SWAP1 PUSH2 0x1F9A JUMP JUMPDEST PUSH1 0x40 DUP1 MLOAD PUSH1 0x20 DUP1 DUP3 ADD SWAP1 SWAP3 MSTORE PUSH1 0x0 SWAP1 MSTORE DUP5 MLOAD SWAP1 DUP6 ADD KECCAK256 DUP5 SWAP1 PUSH1 0x0 DUP1 MLOAD PUSH1 0x20 PUSH2 0x20BB DUP4 CODECOPY DUP2 MLOAD SWAP2 MSTORE ADD PUSH2 0xB31 JUMPI PUSH1 0x40 MLOAD PUSH3 0x461BCD PUSH1 0xE5 SHL DUP2 MSTORE PUSH1 0x4 ADD PUSH2 0x2D2 SWAP1 PUSH2 0x1BEE JUMP JUMPDEST PUSH1 0x40 DUP1 MLOAD PUSH1 0x20 DUP1 DUP3 ADD SWAP1 SWAP3 MSTORE PUSH1 0x0 SWAP1 MSTORE DUP5 MLOAD SWAP1 DUP6 ADD KECCAK256 PUSH1 0x0 DUP1 MLOAD PUSH1 0x20 PUSH2 0x20BB DUP4 CODECOPY DUP2 MLOAD SWAP2 MSTORE ADD PUSH2 0xB73 JUMPI PUSH1 0x40 MLOAD PUSH3 0x461BCD PUSH1 0xE5 SHL DUP2 MSTORE PUSH1 0x4 ADD PUSH2 0x2D2 SWAP1 PUSH2 0x1FE8 JUMP JUMPDEST PUSH1 0x1 SLOAD PUSH1 0x40 MLOAD PUSH4 0x3DE4DE8F PUSH1 0xE0 SHL DUP2 MSTORE PUSH1 0x1 PUSH1 0x1 PUSH1 0xA0 SHL SUB SWAP1 SWAP2 AND SWAP1 PUSH4 0x3DE4DE8F SWAP1 PUSH2 0xBA5 SWAP1 DUP9 SWAP1 DUP9 SWAP1 PUSH1 0x4 ADD PUSH2 0x2029 JUMP JUMPDEST PUSH1 0x0 PUSH1 0x40 MLOAD DUP1 DUP4 SUB DUP2 PUSH1 0x0 DUP8 DUP1 EXTCODESIZE ISZERO DUP1 ISZERO PUSH2 0x74A JUMPI PUSH1 0x0 DUP1 REVERT JUMPDEST PUSH1 0x40 DUP1 MLOAD PUSH1 0x20 DUP1 DUP3 ADD SWAP1 SWAP3 MSTORE PUSH1 0x0 SWAP1 MSTORE DUP3 MLOAD SWAP1 DUP4 ADD KECCAK256 DUP3 SWAP1 PUSH1 0x0 DUP1 MLOAD PUSH1 0x20 PUSH2 0x20BB DUP4 CODECOPY DUP2 MLOAD SWAP2 MSTORE ADD PUSH2 0xC03 JUMPI PUSH1 0x40 MLOAD PUSH3 0x461BCD PUSH1 0xE5 SHL DUP2 MSTORE PUSH1 0x4 ADD PUSH2 0x2D2 SWAP1 PUSH2 0x1BEE JUMP JUMPDEST PUSH1 0x1 SLOAD PUSH1 0x40 MLOAD PUSH4 0x4B22DC91 PUSH1 0xE0 SHL DUP2 MSTORE DUP5 SWAP2 PUSH1 0x1 PUSH1 0x1 PUSH1 0xA0 SHL SUB AND SWAP1 PUSH4 0x4B22DC91 SWAP1 PUSH2 0xC33 SWAP1 DUP5 SWAP1 PUSH1 0x4 ADD PUSH2 0x1AE7 JUMP JUMPDEST PUSH1 0x20 PUSH1 0x40 MLOAD DUP1 DUP4 SUB DUP2 DUP7 GAS STATICCALL ISZERO DUP1 ISZERO PUSH2 0xC50 JUMPI RETURNDATASIZE PUSH1 0x0 DUP1 RETURNDATACOPY RETURNDATASIZE PUSH1 0x0 REVERT JUMPDEST POP POP POP POP PUSH1 0x40 MLOAD RETURNDATASIZE PUSH1 0x1F NOT PUSH1 0x1F DUP3 ADD AND DUP3 ADD DUP1 PUSH1 0x40 MSTORE POP DUP2 ADD SWAP1 PUSH2 0xC74 SWAP2 SWAP1 PUSH2 0x1F13 JUMP JUMPDEST PUSH1 0x1 PUSH1 0x1 PUSH1 0xA0 SHL SUB AND PUSH4 0x5AD70D12 PUSH1 0x40 MLOAD DUP2 PUSH4 0xFFFFFFFF AND PUSH1 0xE0 SHL DUP2 MSTORE PUSH1 0x4 ADD PUSH1 0x20 PUSH1 0x40 MLOAD DUP1 DUP4 SUB DUP2 DUP7 GAS STATICCALL ISZERO DUP1 ISZERO PUSH2 0xCB1 JUMPI RETURNDATASIZE PUSH1 0x0 DUP1 RETURNDATACOPY RETURNDATASIZE PUSH1 0x0 REVERT JUMPDEST POP POP POP POP PUSH1 0x40 MLOAD RETURNDATASIZE PUSH1 0x1F NOT PUSH1 0x1F DUP3 ADD AND DUP3 ADD DUP1 PUSH1 0x40 MSTORE POP DUP2 ADD SWAP1 PUSH2 0xCD5 SWAP2 SWAP1 PUSH2 0x1F30 JUMP JUMPDEST PUSH2 0xCF1 JUMPI PUSH1 0x40 MLOAD PUSH3 0x461BCD PUSH1 0xE5 SHL DUP2 MSTORE PUSH1 0x4 ADD PUSH2 0x2D2 SWAP1 PUSH2 0x1F4D JUMP JUMPDEST PUSH1 0x0 SLOAD PUSH1 0x1 PUSH1 0x1 PUSH1 0xA0 SHL SUB AND CALLER EQ PUSH2 0xD1B JUMPI PUSH1 0x40 MLOAD PUSH3 0x461BCD PUSH1 0xE5 SHL DUP2 MSTORE PUSH1 0x4 ADD PUSH2 0x2D2 SWAP1 PUSH2 0x204E JUMP JUMPDEST PUSH2 0xD24 DUP5 PUSH2 0x16C5 JUMP JUMPDEST PUSH1 0x1 PUSH1 0x1 PUSH1 0xA0 SHL SUB AND PUSH4 0x457CF35B DUP5 PUSH1 0x40 MLOAD DUP3 PUSH4 0xFFFFFFFF AND PUSH1 0xE0 SHL DUP2 MSTORE PUSH1 0x4 ADD PUSH2 0xD4F SWAP2 SWAP1 PUSH2 0x1AE7 JUMP JUMPDEST PUSH1 0x0 PUSH1 0x40 MLOAD DUP1 DUP4 SUB DUP2 PUSH1 0x0 DUP8 DUP1 EXTCODESIZE ISZERO DUP1 ISZERO PUSH2 0xD69 JUMPI PUSH1 0x0 DUP1 REVERT JUMPDEST POP GAS CALL ISZERO DUP1 ISZERO PUSH2 0xD7D JUMPI RETURNDATASIZE PUSH1 0x0 DUP1 RETURNDATACOPY RETURNDATASIZE PUSH1 0x0 REVERT JUMPDEST POP POP POP POP POP POP POP POP JUMP JUMPDEST PUSH1 0x40 DUP1 MLOAD PUSH1 0x20 DUP1 DUP3 ADD SWAP1 SWAP3 MSTORE PUSH1 0x0 SWAP1 MSTORE DUP2 MLOAD SWAP1 DUP3 ADD KECCAK256 PUSH1 0x60 SWAP1 DUP3 SWAP1 PUSH1 0x0 DUP1 MLOAD PUSH1 0x20 PUSH2 0x20BB DUP4 CODECOPY DUP2 MLOAD SWAP2 MSTORE ADD PUSH2 0xDCE JUMPI PUSH1 0x40 MLOAD PUSH3 0x461BCD PUSH1 0xE5 SHL DUP2 MSTORE PUSH1 0x4 ADD PUSH2 0x2D2 SWAP1 PUSH2 0x1BEE JUMP JUMPDEST PUSH1 0x0 PUSH2 0xDD9 DUP5 PUSH2 0x16C5 JUMP JUMPDEST SWAP1 POP DUP1 PUSH1 0x1 PUSH1 0x1 PUSH1 0xA0 SHL SUB AND PUSH4 0xBD51B8E0 PUSH1 0x40 MLOAD DUP2 PUSH4 0xFFFFFFFF AND PUSH1 0xE0 SHL DUP2 MSTORE PUSH1 0x4 ADD PUSH1 0x0 PUSH1 0x40 MLOAD DUP1 DUP4 SUB DUP2 DUP7 GAS STATICCALL ISZERO DUP1 ISZERO PUSH2 0x3E2 JUMPI RETURNDATASIZE PUSH1 0x0 DUP1 RETURNDATACOPY RETURNDATASIZE PUSH1 0x0 REVERT JUMPDEST PUSH1 0x0 DUP1 SLOAD PUSH1 0x1 PUSH1 0x1 PUSH1 0xA0 SHL SUB AND CALLER EQ PUSH2 0xE44 JUMPI PUSH1 0x40 MLOAD PUSH3 0x461BCD PUSH1 0xE5 SHL DUP2 MSTORE PUSH1 0x4 ADD PUSH2 0x2D2 SWAP1 PUSH2 0x204E JUMP JUMPDEST PUSH1 0x1 PUSH1 0x1 PUSH1 0xA0 SHL SUB DUP4 AND PUSH1 0x0 SWAP1 DUP2 MSTORE PUSH1 0x2 PUSH1 0x20 MSTORE PUSH1 0x40 DUP2 KECCAK256 SWAP1 DUP4 PUSH1 0x3 DUP2 GT ISZERO PUSH2 0xE6F JUMPI PUSH2 0xE6F PUSH2 0x1F84 JUMP JUMPDEST PUSH1 0x3 DUP2 GT ISZERO PUSH2 0xE80 JUMPI PUSH2 0xE80 PUSH2 0x1F84 JUMP JUMPDEST DUP2 MSTORE PUSH1 0x20 DUP2 ADD SWAP2 SWAP1 SWAP2 MSTORE PUSH1 0x40 ADD PUSH1 0x0 KECCAK256 SLOAD PUSH1 0xFF AND SWAP4 SWAP3 POP POP POP JUMP JUMPDEST PUSH1 0x40 DUP1 MLOAD PUSH1 0x20 DUP1 DUP3 ADD SWAP1 SWAP3 MSTORE PUSH1 0x0 SWAP1 MSTORE DUP3 MLOAD SWAP1 DUP4 ADD KECCAK256 DUP3 SWAP1 PUSH1 0x0 DUP1 MLOAD PUSH1 0x20 PUSH2 0x20BB DUP4 CODECOPY DUP2 MLOAD SWAP2 MSTORE ADD PUSH2 0xEDF JUMPI PUSH1 0x40 MLOAD PUSH3 0x461BCD PUSH1 0xE5 SHL DUP2 MSTORE PUSH1 0x4 ADD PUSH2 0x2D2 SWAP1 PUSH2 0x1BEE JUMP JUMPDEST PUSH1 0x1 SLOAD PUSH1 0x40 MLOAD PUSH4 0x4B22DC91 PUSH1 0xE0 SHL DUP2 MSTORE DUP5 SWAP2 PUSH1 0x1 PUSH1 0x1 PUSH1 0xA0 SHL SUB AND SWAP1 PUSH4 0x4B22DC91 SWAP1 PUSH2 0xF0F SWAP1 DUP5 SWAP1 PUSH1 0x4 ADD PUSH2 0x1AE7 JUMP JUMPDEST PUSH1 0x20 PUSH1 0x40 MLOAD DUP1 DUP4 SUB DUP2 DUP7 GAS STATICCALL ISZERO DUP1 ISZERO PUSH2 0xF2C JUMPI RETURNDATASIZE PUSH1 0x0 DUP1 RETURNDATACOPY RETURNDATASIZE PUSH1 0x0 REVERT JUMPDEST POP POP POP POP PUSH1 0x40 MLOAD RETURNDATASIZE PUSH1 0x1F NOT PUSH1 0x1F DUP3 ADD AND DUP3 ADD DUP1 PUSH1 0x40 MSTORE POP DUP2 ADD SWAP1 PUSH2 0xF50 SWAP2 SWAP1 PUSH2 0x1F13 JUMP JUMPDEST PUSH1 0x1 PUSH1 0x1 PUSH1 0xA0 SHL SUB AND PUSH4 0x5AD70D12 PUSH1 0x40 MLOAD DUP2 PUSH4 0xFFFFFFFF AND PUSH1 0xE0 SHL DUP2 MSTORE PUSH1 0x4 ADD PUSH1 0x20 PUSH1 0x40 MLOAD DUP1 DUP4 SUB DUP2 DUP7 GAS STATICCALL ISZERO DUP1 ISZERO PUSH2 0xF8D JUMPI RETURNDATASIZE PUSH1 0x0 DUP1 RETURNDATACOPY RETURNDATASIZE PUSH1 0x0 REVERT JUMPDEST POP POP POP POP PUSH1 0x40 MLOAD RETURNDATASIZE PUSH1 0x1F NOT PUSH1 0x1F DUP3 ADD AND DUP3 ADD DUP1 PUSH1 0x40 MSTORE POP DUP2 ADD SWAP1 PUSH2 0xFB1 SWAP2 SWAP1 PUSH2 0x1F30 JUMP JUMPDEST PUSH2 0xFCD JUMPI PUSH1 0x40 MLOAD PUSH3 0x461BCD PUSH1 0xE5 SHL DUP2 MSTORE PUSH1 0x4 ADD PUSH2 0x2D2 SWAP1 PUSH2 0x1F4D JUMP JUMPDEST CALLER PUSH1 0x0 DUP2 DUP2 MSTORE PUSH1 0x2 PUSH1 0x20 SWAP1 DUP2 MSTORE PUSH1 0x40 DUP1 DUP4 KECCAK256 PUSH1 0x3 DUP1 DUP6 MSTORE SWAP3 MSTORE SWAP1 SWAP2 KECCAK256 SLOAD PUSH1 0xFF AND PUSH2 0x1039 JUMPI PUSH1 0x40 MLOAD PUSH3 0x461BCD PUSH1 0xE5 SHL DUP2 MSTORE PUSH1 0x20 PUSH1 0x4 DUP3 ADD MSTORE PUSH1 0x1F PUSH1 0x24 DUP3 ADD MSTORE PUSH32 0x5065726D697373696F6E2064656E6965642C2063656E746572206F6E6C792100 PUSH1 0x44 DUP3 ADD MSTORE PUSH1 0x64 ADD PUSH2 0x2D2 JUMP JUMPDEST PUSH1 0x40 DUP1 MLOAD PUSH1 0x20 DUP1 DUP3 ADD SWAP1 SWAP3 MSTORE PUSH1 0x0 SWAP1 MSTORE DUP6 MLOAD SWAP1 DUP7 ADD KECCAK256 PUSH1 0x0 DUP1 MLOAD PUSH1 0x20 PUSH2 0x20BB DUP4 CODECOPY DUP2 MLOAD SWAP2 MSTORE ADD PUSH2 0x10AB JUMPI PUSH1 0x40 MLOAD PUSH3 0x461BCD PUSH1 0xE5 SHL DUP2 MSTORE PUSH1 0x20 PUSH1 0x4 DUP3 ADD MSTORE PUSH1 0x1F PUSH1 0x24 DUP3 ADD MSTORE PUSH32 0x506C656173652070726F76696465206120636F7272656374207265706F727400 PUSH1 0x44 DUP3 ADD MSTORE PUSH1 0x64 ADD PUSH2 0x2D2 JUMP JUMPDEST PUSH1 0x0 PUSH2 0x10B6 DUP8 PUSH2 0x16C5 JUMP JUMPDEST PUSH1 0x40 MLOAD PUSH4 0x2BE527F3 PUSH1 0xE1 SHL DUP2 MSTORE SWAP1 SWAP2 POP PUSH1 0x1 PUSH1 0x1 PUSH1 0xA0 SHL SUB DUP3 AND SWAP1 PUSH4 0x57CA4FE6 SWAP1 PUSH2 0xA78 SWAP1 DUP10 SWAP1 PUSH1 0x4 ADD PUSH2 0x1AE7 JUMP JUMPDEST PUSH1 0x40 DUP1 MLOAD PUSH1 0x20 DUP1 DUP3 ADD SWAP1 SWAP3 MSTORE PUSH1 0x0 SWAP1 MSTORE DUP2 MLOAD SWAP1 DUP3 ADD KECCAK256 PUSH1 0x60 SWAP1 DUP3 SWAP1 PUSH1 0x0 DUP1 MLOAD PUSH1 0x20 PUSH2 0x20BB DUP4 CODECOPY DUP2 MLOAD SWAP2 MSTORE ADD PUSH2 0x112C JUMPI PUSH1 0x40 MLOAD PUSH3 0x461BCD PUSH1 0xE5 SHL DUP2 MSTORE PUSH1 0x4 ADD PUSH2 0x2D2 SWAP1 PUSH2 0x1BEE JUMP JUMPDEST PUSH2 0x1135 DUP4 PUSH2 0x16C5 JUMP JUMPDEST PUSH1 0x1 PUSH1 0x1 PUSH1 0xA0 SHL SUB AND PUSH4 0x888DBBC1 PUSH1 0x40 MLOAD DUP2 PUSH4 0xFFFFFFFF AND PUSH1 0xE0 SHL DUP2 MSTORE PUSH1 0x4 ADD PUSH1 0x0 PUSH1 0x40 MLOAD DUP1 DUP4 SUB DUP2 DUP7 GAS STATICCALL ISZERO DUP1 ISZERO PUSH2 0x573 JUMPI RETURNDATASIZE PUSH1 0x0 DUP1 RETURNDATACOPY RETURNDATASIZE PUSH1 0x0 REVERT JUMPDEST PUSH1 0x40 DUP1 MLOAD PUSH1 0x20 DUP1 DUP3 ADD SWAP1 SWAP3 MSTORE PUSH1 0x0 SWAP1 MSTORE DUP2 MLOAD SWAP1 DUP3 ADD KECCAK256 PUSH1 0x60 SWAP1 DUP3 SWAP1 PUSH1 0x0 DUP1 MLOAD PUSH1 0x20 PUSH2 0x20BB DUP4 CODECOPY DUP2 MLOAD SWAP2 MSTORE ADD PUSH2 0x11B9 JUMPI PUSH1 0x40 MLOAD PUSH3 0x461BCD PUSH1 0xE5 SHL DUP2 MSTORE PUSH1 0x4 ADD PUSH2 0x2D2 SWAP1 PUSH2 0x1BEE JUMP JUMPDEST PUSH1 0x0 PUSH2 0x11C4 DUP5 PUSH2 0x16C5 JUMP JUMPDEST SWAP1 POP DUP1 PUSH1 0x1 PUSH1 0x1 PUSH1 0xA0 SHL SUB AND PUSH4 0x643D6DC0 PUSH1 0x40 MLOAD DUP2 PUSH4 0xFFFFFFFF AND PUSH1 0xE0 SHL DUP2 MSTORE PUSH1 0x4 ADD PUSH1 0x0 PUSH1 0x40 MLOAD DUP1 DUP4 SUB DUP2 DUP7 GAS STATICCALL ISZERO DUP1 ISZERO PUSH2 0x1204 JUMPI RETURNDATASIZE PUSH1 0x0 DUP1 RETURNDATACOPY RETURNDATASIZE PUSH1 0x0 REVERT JUMPDEST POP POP POP POP PUSH1 0x40 MLOAD RETURNDATASIZE PUSH1 0x0 DUP3 RETURNDATACOPY PUSH1 0x1F RETURNDATASIZE SWAP1 DUP2 ADD PUSH1 0x1F NOT AND DUP3 ADD PUSH1 0x40 MSTORE PUSH2 0x40A SWAP2 SWAP1 DUP2 ADD SWAP1 PUSH2 0x2085 JUMP JUMPDEST PUSH1 0x40 DUP1 MLOAD PUSH1 0x20 DUP1 DUP3 ADD SWAP1 SWAP3 MSTORE PUSH1 0x0 SWAP1 MSTORE DUP5 MLOAD SWAP1 DUP6 ADD KECCAK256 DUP5 SWAP1 PUSH1 0x0 DUP1 MLOAD PUSH1 0x20 PUSH2 0x20BB DUP4 CODECOPY DUP2 MLOAD SWAP2 MSTORE ADD PUSH2 0x1270 JUMPI PUSH1 0x40 MLOAD PUSH3 0x461BCD PUSH1 0xE5 SHL DUP2 MSTORE PUSH1 0x4 ADD PUSH2 0x2D2 SWAP1 PUSH2 0x1BEE JUMP JUMPDEST PUSH1 0x1 SLOAD PUSH1 0x40 MLOAD PUSH4 0x4B22DC91 PUSH1 0xE0 SHL DUP2 MSTORE DUP7 SWAP2 PUSH1 0x1 PUSH1 0x1 PUSH1 0xA0 SHL SUB AND SWAP1 PUSH4 0x4B22DC91 SWAP1 PUSH2 0x12A0 SWAP1 DUP5 SWAP1 PUSH1 0x4 ADD PUSH2 0x1AE7 JUMP JUMPDEST PUSH1 0x20 PUSH1 0x40 MLOAD DUP1 DUP4 SUB DUP2 DUP7 GAS STATICCALL ISZERO DUP1 ISZERO PUSH2 0x12BD JUMPI RETURNDATASIZE PUSH1 0x0 DUP1 RETURNDATACOPY RETURNDATASIZE PUSH1 0x0 REVERT JUMPDEST POP POP POP POP PUSH1 0x40 MLOAD RETURNDATASIZE PUSH1 0x1F NOT PUSH1 0x1F DUP3 ADD AND DUP3 ADD DUP1 PUSH1 0x40 MSTORE POP DUP2 ADD SWAP1 PUSH2 0x12E1 SWAP2 SWAP1 PUSH2 0x1F13 JUMP JUMPDEST PUSH1 0x1 PUSH1 0x1 PUSH1 0xA0 SHL SUB AND PUSH4 0x5AD70D12 PUSH1 0x40 MLOAD DUP2 PUSH4 0xFFFFFFFF AND PUSH1 0xE0 SHL DUP2 MSTORE PUSH1 0x4 ADD PUSH1 0x20 PUSH1 0x40 MLOAD DUP1 DUP4 SUB DUP2 DUP7 GAS STATICCALL ISZERO DUP1 ISZERO PUSH2 0x131E JUMPI RETURNDATASIZE PUSH1 0x0 DUP1 RETURNDATACOPY RETURNDATASIZE PUSH1 0x0 REVERT JUMPDEST POP POP POP POP PUSH1 0x40 MLOAD RETURNDATASIZE PUSH1 0x1F NOT PUSH1 0x1F DUP3 ADD AND DUP3 ADD DUP1 PUSH1 0x40 MSTORE POP DUP2 ADD SWAP1 PUSH2 0x1342 SWAP2 SWAP1 PUSH2 0x1F30 JUMP JUMPDEST PUSH2 0x135E JUMPI PUSH1 0x40 MLOAD PUSH3 0x461BCD PUSH1 0xE5 SHL DUP2 MSTORE PUSH1 0x4 ADD PUSH2 0x2D2 SWAP1 PUSH2 0x1F4D JUMP JUMPDEST CALLER PUSH1 0x0 DUP2 DUP2 MSTORE PUSH1 0x2 PUSH1 0x20 SWAP1 DUP2 MSTORE PUSH1 0x40 DUP1 DUP4 KECCAK256 PUSH1 0x1 DUP1 DUP6 MSTORE SWAP3 MSTORE SWAP1 SWAP2 KECCAK256 SLOAD PUSH1 0xFF AND PUSH2 0x13DB JUMPI PUSH1 0x40 MLOAD PUSH3 0x461BCD PUSH1 0xE5 SHL DUP2 MSTORE PUSH1 0x20 PUSH1 0x4 DUP3 ADD MSTORE PUSH1 0x28 PUSH1 0x24 DUP3 ADD MSTORE PUSH32 0x596F7520646F6E27742068617665207468652070726576696C65646765732C20 PUSH1 0x44 DUP3 ADD MSTORE PUSH8 0x61626F7274696E67 PUSH1 0xC0 SHL PUSH1 0x64 DUP3 ADD MSTORE PUSH1 0x84 ADD PUSH2 0x2D2 JUMP JUMPDEST PUSH1 0x1 PUSH1 0x1 PUSH1 0xA0 SHL SUB DUP8 AND PUSH2 0x1401 JUMPI PUSH1 0x40 MLOAD PUSH3 0x461BCD PUSH1 0xE5 SHL DUP2 MSTORE PUSH1 0x4 ADD PUSH2 0x2D2 SWAP1 PUSH2 0x1FE8 JUMP JUMPDEST PUSH1 0x40 DUP1 MLOAD PUSH1 0x20 DUP1 DUP3 ADD SWAP1 SWAP3 MSTORE PUSH1 0x0 SWAP1 MSTORE DUP7 MLOAD SWAP1 DUP8 ADD KECCAK256 PUSH1 0x0 DUP1 MLOAD PUSH1 0x20 PUSH2 0x20BB DUP4 CODECOPY DUP2 MLOAD SWAP2 MSTORE ADD PUSH2 0x1485 JUMPI PUSH1 0x40 MLOAD PUSH3 0x461BCD PUSH1 0xE5 SHL DUP2 MSTORE PUSH1 0x20 PUSH1 0x4 DUP3 ADD MSTORE PUSH1 0x29 PUSH1 0x24 DUP3 ADD MSTORE PUSH32 0x506C656173652066696C6C20746865207472616E73616374696F6E20696E666F PUSH1 0x44 DUP3 ADD MSTORE PUSH9 0x399039B2B1BA34B7B7 PUSH1 0xB9 SHL PUSH1 0x64 DUP3 ADD MSTORE PUSH1 0x84 ADD PUSH2 0x2D2 JUMP JUMPDEST PUSH1 0x40 DUP1 MLOAD PUSH1 0x20 DUP1 DUP3 ADD SWAP1 SWAP3 MSTORE PUSH1 0x0 SWAP1 MSTORE DUP6 MLOAD SWAP1 DUP7 ADD KECCAK256 PUSH1 0x0 DUP1 MLOAD PUSH1 0x20 PUSH2 0x20BB DUP4 CODECOPY DUP2 MLOAD SWAP2 MSTORE ADD PUSH2 0x1509 JUMPI PUSH1 0x40 MLOAD PUSH3 0x461BCD PUSH1 0xE5 SHL DUP2 MSTORE PUSH1 0x20 PUSH1 0x4 DUP3 ADD MSTORE PUSH1 0x29 PUSH1 0x24 DUP3 ADD MSTORE PUSH32 0x546865206D6174726963756C6174696F6E2073656374696F6E2063616E6E6F74 PUSH1 0x44 DUP3 ADD MSTORE PUSH9 0x20626520626C616E6B PUSH1 0xB8 SHL PUSH1 0x64 DUP3 ADD MSTORE PUSH1 0x84 ADD PUSH2 0x2D2 JUMP JUMPDEST PUSH1 0x0 PUSH2 0x1514 DUP10 PUSH2 0x16C5 JUMP JUMPDEST PUSH1 0x40 MLOAD PUSH4 0x13AF4035 PUSH1 0xE0 SHL DUP2 MSTORE PUSH1 0x1 PUSH1 0x1 PUSH1 0xA0 SHL SUB DUP11 DUP2 AND PUSH1 0x4 DUP4 ADD MSTORE SWAP2 SWAP3 POP SWAP1 DUP3 AND SWAP1 PUSH4 0x13AF4035 SWAP1 PUSH1 0x24 ADD PUSH1 0x0 PUSH1 0x40 MLOAD DUP1 DUP4 SUB DUP2 PUSH1 0x0 DUP8 DUP1 EXTCODESIZE ISZERO DUP1 ISZERO PUSH2 0x155B JUMPI PUSH1 0x0 DUP1 REVERT JUMPDEST POP GAS CALL ISZERO DUP1 ISZERO PUSH2 0x156F JUMPI RETURNDATASIZE PUSH1 0x0 DUP1 RETURNDATACOPY RETURNDATASIZE PUSH1 0x0 REVERT JUMPDEST POP POP PUSH1 0x40 MLOAD PUSH4 0x7A64F113 PUSH1 0xE0 SHL DUP2 MSTORE PUSH1 0x1 PUSH1 0x1 PUSH1 0xA0 SHL SUB DUP5 AND SWAP3 POP PUSH4 0x7A64F113 SWAP2 POP PUSH2 0x159F SWAP1 DUP11 SWAP1 PUSH1 0x4 ADD PUSH2 0x1AE7 JUMP JUMPDEST PUSH1 0x0 PUSH1 0x40 MLOAD DUP1 DUP4 SUB DUP2 PUSH1 0x0 DUP8 DUP1 EXTCODESIZE ISZERO DUP1 ISZERO PUSH2 0x15B9 JUMPI PUSH1 0x0 DUP1 REVERT JUMPDEST POP GAS CALL ISZERO DUP1 ISZERO PUSH2 0x15CD JUMPI RETURNDATASIZE PUSH1 0x0 DUP1 RETURNDATACOPY RETURNDATASIZE PUSH1 0x0 REVERT JUMPDEST POP POP PUSH1 0x40 MLOAD PUSH4 0x2E8B71D3 PUSH1 0xE0 SHL DUP2 MSTORE PUSH1 0x1 PUSH1 0x1 PUSH1 0xA0 SHL SUB DUP5 AND SWAP3 POP PUSH4 0x2E8B71D3 SWAP2 POP PUSH2 0x15FD SWAP1 DUP10 SWAP1 PUSH1 0x4 ADD PUSH2 0x1AE7 JUMP JUMPDEST PUSH1 0x0 PUSH1 0x40 MLOAD DUP1 DUP4 SUB DUP2 PUSH1 0x0 DUP8 DUP1 EXTCODESIZE ISZERO DUP1 ISZERO PUSH2 0x1617 JUMPI PUSH1 0x0 DUP1 REVERT JUMPDEST POP GAS CALL ISZERO DUP1 ISZERO PUSH2 0x162B JUMPI RETURNDATASIZE PUSH1 0x0 DUP1 RETURNDATACOPY RETURNDATASIZE PUSH1 0x0 REVERT JUMPDEST POP POP POP POP POP POP POP POP POP POP POP POP POP JUMP JUMPDEST PUSH1 0x0 SLOAD PUSH1 0x1 PUSH1 0x1 PUSH1 0xA0 SHL SUB AND CALLER EQ PUSH2 0x1664 JUMPI PUSH1 0x40 MLOAD PUSH3 0x461BCD PUSH1 0xE5 SHL DUP2 MSTORE PUSH1 0x4 ADD PUSH2 0x2D2 SWAP1 PUSH2 0x204E JUMP JUMPDEST PUSH1 0x1 PUSH1 0x1 PUSH1 0xA0 SHL SUB DUP4 AND PUSH1 0x0 SWAP1 DUP2 MSTORE PUSH1 0x2 PUSH1 0x20 MSTORE PUSH1 0x40 DUP2 KECCAK256 DUP3 SWAP2 DUP5 PUSH1 0x3 DUP2 GT ISZERO PUSH2 0x1690 JUMPI PUSH2 0x1690 PUSH2 0x1F84 JUMP JUMPDEST PUSH1 0x3 DUP2 GT ISZERO PUSH2 0x16A1 JUMPI PUSH2 0x16A1 PUSH2 0x1F84 JUMP JUMPDEST DUP2 MSTORE PUSH1 0x20 DUP2 ADD SWAP2 SWAP1 SWAP2 MSTORE PUSH1 0x40 ADD PUSH1 0x0 KECCAK256 DUP1 SLOAD PUSH1 0xFF NOT AND SWAP2 ISZERO ISZERO SWAP2 SWAP1 SWAP2 OR SWAP1 SSTORE POP POP POP JUMP JUMPDEST PUSH1 0x0 DUP2 PUSH1 0x40 MLOAD DUP1 PUSH1 0x20 ADD PUSH1 0x40 MSTORE DUP1 PUSH1 0x0 DUP2 MSTORE POP DUP1 MLOAD SWAP1 PUSH1 0x20 ADD KECCAK256 DUP2 DUP1 MLOAD SWAP1 PUSH1 0x20 ADD KECCAK256 SUB PUSH2 0x1704 JUMPI PUSH1 0x40 MLOAD PUSH3 0x461BCD PUSH1 0xE5 SHL DUP2 MSTORE PUSH1 0x4 ADD PUSH2 0x2D2 SWAP1 PUSH2 0x1BEE JUMP JUMPDEST PUSH1 0x1 SLOAD PUSH1 0x40 MLOAD PUSH4 0x4B22DC91 PUSH1 0xE0 SHL DUP2 MSTORE PUSH1 0x0 SWAP2 PUSH1 0x1 PUSH1 0x1 PUSH1 0xA0 SHL SUB AND SWAP1 PUSH4 0x4B22DC91 SWAP1 PUSH2 0x1735 SWAP1 DUP8 SWAP1 PUSH1 0x4 ADD PUSH2 0x1AE7 JUMP JUMPDEST PUSH1 0x20 PUSH1 0x40 MLOAD DUP1 DUP4 SUB DUP2 DUP7 GAS STATICCALL ISZERO DUP1 ISZERO PUSH2 0x1752 JUMPI RETURNDATASIZE PUSH1 0x0 DUP1 RETURNDATACOPY RETURNDATASIZE PUSH1 0x0 REVERT JUMPDEST POP POP POP POP PUSH1 0x40 MLOAD RETURNDATASIZE PUSH1 0x1F NOT PUSH1 0x1F DUP3 ADD AND DUP3 ADD DUP1 PUSH1 0x40 MSTORE POP DUP2 ADD SWAP1 PUSH2 0x40A SWAP2 SWAP1 PUSH2 0x1F13 JUMP JUMPDEST PUSH4 0x4E487B71 PUSH1 0xE0 SHL PUSH1 0x0 MSTORE PUSH1 0x41 PUSH1 0x4 MSTORE PUSH1 0x24 PUSH1 0x0 REVERT JUMPDEST PUSH1 0x40 MLOAD PUSH1 0x1F DUP3 ADD PUSH1 0x1F NOT AND DUP2 ADD PUSH8 0xFFFFFFFFFFFFFFFF DUP2 GT DUP3 DUP3 LT OR ISZERO PUSH2 0x17B5 JUMPI PUSH2 0x17B5 PUSH2 0x1776 JUMP JUMPDEST PUSH1 0x40 MSTORE SWAP2 SWAP1 POP JUMP JUMPDEST PUSH1 0x0 PUSH8 0xFFFFFFFFFFFFFFFF DUP3 GT ISZERO PUSH2 0x17D7 JUMPI PUSH2 0x17D7 PUSH2 0x1776 JUMP JUMPDEST POP PUSH1 0x1F ADD PUSH1 0x1F NOT AND PUSH1 0x20 ADD SWAP1 JUMP JUMPDEST PUSH1 0x0 DUP3 PUSH1 0x1F DUP4 ADD SLT PUSH2 0x17F6 JUMPI PUSH1 0x0 DUP1 REVERT JUMPDEST DUP2 CALLDATALOAD PUSH2 0x1809 PUSH2 0x1804 DUP3 PUSH2 0x17BD JUMP JUMPDEST PUSH2 0x178C JUMP JUMPDEST DUP2 DUP2 MSTORE DUP5 PUSH1 0x20 DUP4 DUP7 ADD ADD GT ISZERO PUSH2 0x181E JUMPI PUSH1 0x0 DUP1 REVERT JUMPDEST DUP2 PUSH1 0x20 DUP6 ADD PUSH1 0x20 DUP4 ADD CALLDATACOPY PUSH1 0x0 SWAP2 DUP2 ADD PUSH1 0x20 ADD SWAP2 SWAP1 SWAP2 MSTORE SWAP4 SWAP3 POP POP POP JUMP JUMPDEST PUSH1 0x0 PUSH1 0x20 DUP3 DUP5 SUB SLT ISZERO PUSH2 0x184D JUMPI PUSH1 0x0 DUP1 REVERT JUMPDEST DUP2 CALLDATALOAD PUSH8 0xFFFFFFFFFFFFFFFF DUP2 GT ISZERO PUSH2 0x1864 JUMPI PUSH1 0x0 DUP1 REVERT JUMPDEST PUSH2 0x40A DUP5 DUP3 DUP6 ADD PUSH2 0x17E5 JUMP JUMPDEST PUSH1 0x0 DUP2 MLOAD DUP1 DUP5 MSTORE PUSH1 0x20 DUP1 DUP6 ADD SWAP5 POP DUP1 DUP5 ADD PUSH1 0x0 JUMPDEST DUP4 DUP2 LT ISZERO PUSH2 0x18A9 JUMPI DUP2 MLOAD PUSH1 0x1 PUSH1 0x1 PUSH1 0xA0 SHL SUB AND DUP8 MSTORE SWAP6 DUP3 ADD SWAP6 SWAP1 DUP3 ADD SWAP1 PUSH1 0x1 ADD PUSH2 0x1884 JUMP JUMPDEST POP SWAP5 SWAP6 SWAP5 POP POP POP POP POP JUMP JUMPDEST PUSH1 0x20 DUP2 MSTORE PUSH1 0x0 PUSH2 0x349 PUSH1 0x20 DUP4 ADD DUP5 PUSH2 0x1870 JUMP JUMPDEST PUSH1 0x0 JUMPDEST DUP4 DUP2 LT ISZERO PUSH2 0x18E2 JUMPI DUP2 DUP2 ADD MLOAD DUP4 DUP3 ADD MSTORE PUSH1 0x20 ADD PUSH2 0x18CA JUMP JUMPDEST POP POP PUSH1 0x0 SWAP2 ADD MSTORE JUMP JUMPDEST PUSH1 0x0 DUP2 MLOAD DUP1 DUP5 MSTORE PUSH2 0x1903 DUP2 PUSH1 0x20 DUP7 ADD PUSH1 0x20 DUP7 ADD PUSH2 0x18C7 JUMP JUMPDEST PUSH1 0x1F ADD PUSH1 0x1F NOT AND SWAP3 SWAP1 SWAP3 ADD PUSH1 0x20 ADD SWAP3 SWAP2 POP POP JUMP JUMPDEST PUSH1 0x0 DUP2 MLOAD DUP1 DUP5 MSTORE PUSH1 0x20 DUP1 DUP6 ADD DUP1 DUP2 SWAP7 POP DUP4 PUSH1 0x5 SHL DUP2 ADD SWAP2 POP DUP3 DUP7 ADD PUSH1 0x0 JUMPDEST DUP6 DUP2 LT ISZERO PUSH2 0x195F JUMPI DUP3 DUP5 SUB DUP10 MSTORE PUSH2 0x194D DUP5 DUP4 MLOAD PUSH2 0x18EB JUMP JUMPDEST SWAP9 DUP6 ADD SWAP9 SWAP4 POP SWAP1 DUP5 ADD SWAP1 PUSH1 0x1 ADD PUSH2 0x1935 JUMP JUMPDEST POP SWAP2 SWAP8 SWAP7 POP POP POP POP POP POP POP JUMP JUMPDEST PUSH1 0x20 DUP2 MSTORE PUSH1 0x0 PUSH2 0x349 PUSH1 0x20 DUP4 ADD DUP5 PUSH2 0x1917 JUMP JUMPDEST PUSH1 0x0 PUSH2 0x100 DUP11 ISZERO ISZERO DUP4 MSTORE DUP1 PUSH1 0x20 DUP5 ADD MSTORE PUSH2 0x199B DUP2 DUP5 ADD DUP12 PUSH2 0x18EB JUMP JUMPDEST SWAP1 POP DUP3 DUP2 SUB PUSH1 0x40 DUP5 ADD MSTORE PUSH2 0x19AF DUP2 DUP11 PUSH2 0x1917 JUMP JUMPDEST SWAP1 POP DUP3 DUP2 SUB PUSH1 0x60 DUP5 ADD MSTORE PUSH2 0x19C3 DUP2 DUP10 PUSH2 0x1870 JUMP JUMPDEST SWAP1 POP DUP3 DUP2 SUB PUSH1 0x80 DUP5 ADD MSTORE PUSH2 0x19D7 DUP2 DUP9 PUSH2 0x1917 JUMP JUMPDEST SWAP1 POP DUP3 DUP2 SUB PUSH1 0xA0 DUP5 ADD MSTORE PUSH2 0x19EB DUP2 DUP8 PUSH2 0x1917 JUMP JUMPDEST SWAP1 POP DUP3 DUP2 SUB PUSH1 0xC0 DUP5 ADD MSTORE PUSH2 0x19FF DUP2 DUP7 PUSH2 0x1917 JUMP JUMPDEST SWAP1 POP DUP3 DUP2 SUB PUSH1 0xE0 DUP5 ADD MSTORE PUSH2 0x1A13 DUP2 DUP6 PUSH2 0x1917 JUMP JUMPDEST SWAP12 SWAP11 POP POP POP POP POP POP POP POP POP POP POP JUMP JUMPDEST PUSH1 0x0 DUP1 PUSH1 0x40 DUP4 DUP6 SUB SLT ISZERO PUSH2 0x1A35 JUMPI PUSH1 0x0 DUP1 REVERT JUMPDEST DUP3 CALLDATALOAD PUSH8 0xFFFFFFFFFFFFFFFF DUP1 DUP3 GT ISZERO PUSH2 0x1A4D JUMPI PUSH1 0x0 DUP1 REVERT JUMPDEST PUSH2 0x1A59 DUP7 DUP4 DUP8 ADD PUSH2 0x17E5 JUMP JUMPDEST SWAP4 POP PUSH1 0x20 DUP6 ADD CALLDATALOAD SWAP2 POP DUP1 DUP3 GT ISZERO PUSH2 0x1A6F JUMPI PUSH1 0x0 DUP1 REVERT JUMPDEST POP PUSH2 0x1A7C DUP6 DUP3 DUP7 ADD PUSH2 0x17E5 JUMP JUMPDEST SWAP2 POP POP SWAP3 POP SWAP3 SWAP1 POP JUMP JUMPDEST PUSH1 0x1 PUSH1 0x1 PUSH1 0xA0 SHL SUB DUP2 AND DUP2 EQ PUSH2 0x1A9B JUMPI PUSH1 0x0 DUP1 REVERT JUMPDEST POP JUMP JUMPDEST DUP1 CALLDATALOAD PUSH1 0x4 DUP2 LT PUSH2 0x1AAD JUMPI PUSH1 0x0 DUP1 REVERT JUMPDEST SWAP2 SWAP1 POP JUMP JUMPDEST PUSH1 0x0 DUP1 PUSH1 0x40 DUP4 DUP6 SUB SLT ISZERO PUSH2 0x1AC5 JUMPI PUSH1 0x0 DUP1 REVERT JUMPDEST DUP3 CALLDATALOAD PUSH2 0x1AD0 DUP2 PUSH2 0x1A86 JUMP JUMPDEST SWAP2 POP PUSH2 0x1ADE PUSH1 0x20 DUP5 ADD PUSH2 0x1A9E JUMP JUMPDEST SWAP1 POP SWAP3 POP SWAP3 SWAP1 POP JUMP JUMPDEST PUSH1 0x20 DUP2 MSTORE PUSH1 0x0 PUSH2 0x349 PUSH1 0x20 DUP4 ADD DUP5 PUSH2 0x18EB JUMP JUMPDEST PUSH1 0x0 DUP1 PUSH1 0x0 DUP1 PUSH1 0x80 DUP6 DUP8 SUB SLT ISZERO PUSH2 0x1B10 JUMPI PUSH1 0x0 DUP1 REVERT JUMPDEST DUP5 CALLDATALOAD PUSH8 0xFFFFFFFFFFFFFFFF DUP1 DUP3 GT ISZERO PUSH2 0x1B28 JUMPI PUSH1 0x0 DUP1 REVERT JUMPDEST PUSH2 0x1B34 DUP9 DUP4 DUP10 ADD PUSH2 0x17E5 JUMP JUMPDEST SWAP6 POP PUSH1 0x20 DUP8 ADD CALLDATALOAD SWAP2 POP PUSH2 0x1B46 DUP3 PUSH2 0x1A86 JUMP JUMPDEST SWAP1 SWAP4 POP PUSH1 0x40 DUP7 ADD CALLDATALOAD SWAP1 DUP1 DUP3 GT ISZERO PUSH2 0x1B5C JUMPI PUSH1 0x0 DUP1 REVERT JUMPDEST PUSH2 0x1B68 DUP9 DUP4 DUP10 ADD PUSH2 0x17E5 JUMP JUMPDEST SWAP4 POP PUSH1 0x60 DUP8 ADD CALLDATALOAD SWAP2 POP DUP1 DUP3 GT ISZERO PUSH2 0x1B7E JUMPI PUSH1 0x0 DUP1 REVERT JUMPDEST POP PUSH2 0x1B8B DUP8 DUP3 DUP9 ADD PUSH2 0x17E5 JUMP JUMPDEST SWAP2 POP POP SWAP3 SWAP6 SWAP2 SWAP5 POP SWAP3 POP JUMP JUMPDEST DUP1 ISZERO ISZERO DUP2 EQ PUSH2 0x1A9B JUMPI PUSH1 0x0 DUP1 REVERT JUMPDEST PUSH1 0x0 DUP1 PUSH1 0x0 PUSH1 0x60 DUP5 DUP7 SUB SLT ISZERO PUSH2 0x1BBA JUMPI PUSH1 0x0 DUP1 REVERT JUMPDEST DUP4 CALLDATALOAD PUSH2 0x1BC5 DUP2 PUSH2 0x1A86 JUMP JUMPDEST SWAP3 POP PUSH2 0x1BD3 PUSH1 0x20 DUP6 ADD PUSH2 0x1A9E JUMP JUMPDEST SWAP2 POP PUSH1 0x40 DUP5 ADD CALLDATALOAD PUSH2 0x1BE3 DUP2 PUSH2 0x1B97 JUMP JUMPDEST DUP1 SWAP2 POP POP SWAP3 POP SWAP3 POP SWAP3 JUMP JUMPDEST PUSH1 0x20 DUP1 DUP3 MSTORE PUSH1 0x12 SWAP1 DUP3 ADD MSTORE PUSH18 0x283632B0B9B29032B73A32B91030902724AB PUSH1 0x71 SHL PUSH1 0x40 DUP3 ADD MSTORE PUSH1 0x60 ADD SWAP1 JUMP JUMPDEST PUSH1 0x0 PUSH8 0xFFFFFFFFFFFFFFFF DUP3 GT ISZERO PUSH2 0x1C34 JUMPI PUSH2 0x1C34 PUSH2 0x1776 JUMP JUMPDEST POP PUSH1 0x5 SHL PUSH1 0x20 ADD SWAP1 JUMP JUMPDEST PUSH1 0x0 DUP3 PUSH1 0x1F DUP4 ADD SLT PUSH2 0x1C4F JUMPI PUSH1 0x0 DUP1 REVERT JUMPDEST DUP2 MLOAD PUSH1 0x20 PUSH2 0x1C5F PUSH2 0x1804 DUP4 PUSH2 0x1C1A JUMP JUMPDEST DUP3 DUP2 MSTORE PUSH1 0x5 SWAP3 SWAP1 SWAP3 SHL DUP5 ADD DUP2 ADD SWAP2 DUP2 DUP2 ADD SWAP1 DUP7 DUP5 GT ISZERO PUSH2 0x1C7E JUMPI PUSH1 0x0 DUP1 REVERT JUMPDEST DUP3 DUP7 ADD JUMPDEST DUP5 DUP2 LT ISZERO PUSH2 0x1CA2 JUMPI DUP1 MLOAD PUSH2 0x1C95 DUP2 PUSH2 0x1A86 JUMP JUMPDEST DUP4 MSTORE SWAP2 DUP4 ADD SWAP2 DUP4 ADD PUSH2 0x1C82 JUMP JUMPDEST POP SWAP7 SWAP6 POP POP POP POP POP POP JUMP JUMPDEST PUSH1 0x0 PUSH1 0x20 DUP3 DUP5 SUB SLT ISZERO PUSH2 0x1CBF JUMPI PUSH1 0x0 DUP1 REVERT JUMPDEST DUP2 MLOAD PUSH8 0xFFFFFFFFFFFFFFFF DUP2 GT ISZERO PUSH2 0x1CD6 JUMPI PUSH1 0x0 DUP1 REVERT JUMPDEST PUSH2 0x40A DUP5 DUP3 DUP6 ADD PUSH2 0x1C3E JUMP JUMPDEST PUSH1 0x0 DUP3 PUSH1 0x1F DUP4 ADD SLT PUSH2 0x1CF3 JUMPI PUSH1 0x0 DUP1 REVERT JUMPDEST DUP2 MLOAD PUSH2 0x1D01 PUSH2 0x1804 DUP3 PUSH2 0x17BD JUMP JUMPDEST DUP2 DUP2 MSTORE DUP5 PUSH1 0x20 DUP4 DUP7 ADD ADD GT ISZERO PUSH2 0x1D16 JUMPI PUSH1 0x0 DUP1 REVERT JUMPDEST PUSH2 0x40A DUP3 PUSH1 0x20 DUP4 ADD PUSH1 0x20 DUP8 ADD PUSH2 0x18C7 JUMP JUMPDEST PUSH1 0x0 DUP3 PUSH1 0x1F DUP4 ADD SLT PUSH2 0x1D38 JUMPI PUSH1 0x0 DUP1 REVERT JUMPDEST DUP2 MLOAD PUSH1 0x20 PUSH2 0x1D48 PUSH2 0x1804 DUP4 PUSH2 0x1C1A JUMP JUMPDEST DUP3 DUP2 MSTORE PUSH1 0x5 SWAP3 SWAP1 SWAP3 SHL DUP5 ADD DUP2 ADD SWAP2 DUP2 DUP2 ADD SWAP1 DUP7 DUP5 GT ISZERO PUSH2 0x1D67 JUMPI PUSH1 0x0 DUP1 REVERT JUMPDEST DUP3 DUP7 ADD JUMPDEST DUP5 DUP2 LT ISZERO PUSH2 0x1CA2 JUMPI DUP1 MLOAD PUSH8 0xFFFFFFFFFFFFFFFF DUP2 GT ISZERO PUSH2 0x1D8B JUMPI PUSH1 0x0 DUP1 DUP2 REVERT JUMPDEST PUSH2 0x1D99 DUP10 DUP7 DUP4 DUP12 ADD ADD PUSH2 0x1CE2 JUMP JUMPDEST DUP5 MSTORE POP SWAP2 DUP4 ADD SWAP2 DUP4 ADD PUSH2 0x1D6B JUMP JUMPDEST PUSH1 0x0 PUSH1 0x20 DUP3 DUP5 SUB SLT ISZERO PUSH2 0x1DB9 JUMPI PUSH1 0x0 DUP1 REVERT JUMPDEST DUP2 MLOAD PUSH8 0xFFFFFFFFFFFFFFFF DUP2 GT ISZERO PUSH2 0x1DD0 JUMPI PUSH1 0x0 DUP1 REVERT JUMPDEST PUSH2 0x40A DUP5 DUP3 DUP6 ADD PUSH2 0x1D27 JUMP JUMPDEST DUP1 MLOAD PUSH2 0x1AAD DUP2 PUSH2 0x1B97 JUMP JUMPDEST PUSH1 0x0 DUP1 PUSH1 0x0 DUP1 PUSH1 0x0 DUP1 PUSH1 0x0 DUP1 PUSH2 0x100 DUP10 DUP12 SUB SLT ISZERO PUSH2 0x1E04 JUMPI PUSH1 0x0 DUP1 REVERT JUMPDEST PUSH2 0x1E0D DUP10 PUSH2 0x1DDC JUMP JUMPDEST SWAP8 POP PUSH1 0x20 DUP10 ADD MLOAD PUSH8 0xFFFFFFFFFFFFFFFF DUP1 DUP3 GT ISZERO PUSH2 0x1E2A JUMPI PUSH1 0x0 DUP1 REVERT JUMPDEST PUSH2 0x1E36 DUP13 DUP4 DUP14 ADD PUSH2 0x1CE2 JUMP JUMPDEST SWAP9 POP PUSH1 0x40 DUP12 ADD MLOAD SWAP2 POP DUP1 DUP3 GT ISZERO PUSH2 0x1E4C JUMPI PUSH1 0x0 DUP1 REVERT JUMPDEST PUSH2 0x1E58 DUP13 DUP4 DUP14 ADD PUSH2 0x1D27 JUMP JUMPDEST SWAP8 POP PUSH1 0x60 DUP12 ADD MLOAD SWAP2 POP DUP1 DUP3 GT ISZERO PUSH2 0x1E6E JUMPI PUSH1 0x0 DUP1 REVERT JUMPDEST PUSH2 0x1E7A DUP13 DUP4 DUP14 ADD PUSH2 0x1C3E JUMP JUMPDEST SWAP7 POP PUSH1 0x80 DUP12 ADD MLOAD SWAP2 POP DUP1 DUP3 GT ISZERO PUSH2 0x1E90 JUMPI PUSH1 0x0 DUP1 REVERT JUMPDEST PUSH2 0x1E9C DUP13 DUP4 DUP14 ADD PUSH2 0x1D27 JUMP JUMPDEST SWAP6 POP PUSH1 0xA0 DUP12 ADD MLOAD SWAP2 POP DUP1 DUP3 GT ISZERO PUSH2 0x1EB2 JUMPI PUSH1 0x0 DUP1 REVERT JUMPDEST PUSH2 0x1EBE DUP13 DUP4 DUP14 ADD PUSH2 0x1D27 JUMP JUMPDEST SWAP5 POP PUSH1 0xC0 DUP12 ADD MLOAD SWAP2 POP DUP1 DUP3 GT ISZERO PUSH2 0x1ED4 JUMPI PUSH1 0x0 DUP1 REVERT JUMPDEST PUSH2 0x1EE0 DUP13 DUP4 DUP14 ADD PUSH2 0x1D27 JUMP JUMPDEST SWAP4 POP PUSH1 0xE0 DUP12 ADD MLOAD SWAP2 POP DUP1 DUP3 GT ISZERO PUSH2 0x1EF6 JUMPI PUSH1 0x0 DUP1 REVERT JUMPDEST POP PUSH2 0x1F03 DUP12 DUP3 DUP13 ADD PUSH2 0x1D27 JUMP JUMPDEST SWAP2 POP POP SWAP3 SWAP6 SWAP9 POP SWAP3 SWAP6 SWAP9 SWAP1 SWAP4 SWAP7 POP JUMP JUMPDEST PUSH1 0x0 PUSH1 0x20 DUP3 DUP5 SUB SLT ISZERO PUSH2 0x1F25 JUMPI PUSH1 0x0 DUP1 REVERT JUMPDEST DUP2 MLOAD PUSH2 0x349 DUP2 PUSH2 0x1A86 JUMP JUMPDEST PUSH1 0x0 PUSH1 0x20 DUP3 DUP5 SUB SLT ISZERO PUSH2 0x1F42 JUMPI PUSH1 0x0 DUP1 REVERT JUMPDEST DUP2 MLOAD PUSH2 0x349 DUP2 PUSH2 0x1B97 JUMP JUMPDEST PUSH1 0x20 DUP1 DUP3 MSTORE PUSH1 0x1E SWAP1 DUP3 ADD MSTORE PUSH32 0x546869732063617220646F65736E277420657869737420616E796D6F72650000 PUSH1 0x40 DUP3 ADD MSTORE PUSH1 0x60 ADD SWAP1 JUMP JUMPDEST PUSH4 0x4E487B71 PUSH1 0xE0 SHL PUSH1 0x0 MSTORE PUSH1 0x21 PUSH1 0x4 MSTORE PUSH1 0x24 PUSH1 0x0 REVERT JUMPDEST PUSH1 0x20 DUP1 DUP3 MSTORE PUSH1 0x2E SWAP1 DUP3 ADD MSTORE PUSH32 0x5065726D697373696F6E2064656E6965642C20796F75206D7573742062652061 PUSH1 0x40 DUP3 ADD MSTORE PUSH14 0x206D616E75666163747572657221 PUSH1 0x90 SHL PUSH1 0x60 DUP3 ADD MSTORE PUSH1 0x80 ADD SWAP1 JUMP JUMPDEST PUSH1 0x20 DUP1 DUP3 MSTORE PUSH1 0x21 SWAP1 DUP3 ADD MSTORE PUSH32 0x54686520696E666F732073656374696F6E2063616E6E6F7420626520626C616E PUSH1 0x40 DUP3 ADD MSTORE PUSH1 0x6B PUSH1 0xF8 SHL PUSH1 0x60 DUP3 ADD MSTORE PUSH1 0x80 ADD SWAP1 JUMP JUMPDEST PUSH1 0x40 DUP2 MSTORE PUSH1 0x0 PUSH2 0x203C PUSH1 0x40 DUP4 ADD DUP6 PUSH2 0x18EB JUMP JUMPDEST DUP3 DUP2 SUB PUSH1 0x20 DUP5 ADD MSTORE PUSH2 0x81A DUP2 DUP6 PUSH2 0x18EB JUMP JUMPDEST PUSH1 0x20 DUP1 DUP3 MSTORE PUSH1 0x1E SWAP1 DUP3 ADD MSTORE PUSH32 0x596F75277265206E6F7420746865206F776E65722C2061626F7274696E670000 PUSH1 0x40 DUP3 ADD MSTORE PUSH1 0x60 ADD SWAP1 JUMP JUMPDEST PUSH1 0x0 PUSH1 0x20 DUP3 DUP5 SUB SLT ISZERO PUSH2 0x2097 JUMPI PUSH1 0x0 DUP1 REVERT JUMPDEST DUP2 MLOAD PUSH8 0xFFFFFFFFFFFFFFFF DUP2 GT ISZERO PUSH2 0x20AE JUMPI PUSH1 0x0 DUP1 REVERT JUMPDEST PUSH2 0x40A DUP5 DUP3 DUP6 ADD PUSH2 0x1CE2 JUMP INVALID GASPRICE 0x2D 0xB9 INVALID PUSH26 0x8DCC36D81824D2338FC3F1AFF49AC357DD8C4840527FBA27A5B SWAP1 LOG2 PUSH5 0x6970667358 0x22 SLT KECCAK256 0x2C 0xC6 PUSH22 0x26F5AFB589A234AF8A6EE8A27099C9496D8EA46A26CF 0xD2 MLOAD 0x2E 0xB8 0xB7 SMOD SWAP5 PUSH5 0x736F6C6343 STOP ADDMOD SGT STOP CALLER ","sha1":"11324b5cb8b5949c95d1e7b39914b1a6200d5ed6","source":"//SPDX-License-Identifier: MIT\n\npragma solidity >=0.6.0 <=0.9.0;\n\nimport \"./CarFactory.sol\";\n\ncontract AutomobileRegistrationSystem{\n\n    //List of roles\n    enum Role{\n        Manufacturer, //0\n        State, //1\n        Center, //2\n        Insurance //3\n    }\n\n    modifier isDeployer(){\n        require(msg.sender == systemDeployer, \"You're not the owner, aborting\");\n        _;\n    }\n\n    modifier isManufacturer(address _of, Role _role){ //Create or delete the car\n        require(canAccess[_of][_role], \"Permission denied, you must be a manufacturer!\");\n        _;\n    }\n\n    modifier isState(address _of, Role _role){ //Set owner (old and new) + Transaction infos\n        require(canAccess[_of][_role], \"You don't have the previledges, aborting\");\n        _;\n    }\n\n    modifier isCenter(address _of, Role _role){ //Create reports\n        require(canAccess[_of][_role], \"Permission denied, center only!\"); \n        _;\n    }\n\n    modifier isInsurance(address _of, Role _role){ //Save accidents\n        require(canAccess[_of][_role], \"Permission denied, insurance only!\"); \n        _;\n    }\n\n    modifier doesExist(string memory _niv){\n        require(carFactory.carListMapping(_niv).doesExist(), \"This car doesn't exist anymore\");\n        _;\n    }\n\n    modifier isNotBlank(string memory _niv){\n        require(keccak256(bytes(_niv)) != keccak256(bytes(\"\")), \"Please enter a NIV\");\n        _;\n    }\n\n\n    address systemDeployer;\n\n    CarFactory carFactory;\n\n    mapping(address => mapping(Role => bool)) canAccess; //Instead of creating a mapping for each role, I thought it could be a great idea to create only one mapping of a mapping that sets the role of every address given\n\n    \n    constructor(){\n        systemDeployer = msg.sender;    \n        carFactory = new CarFactory();\n    }\n\n\n    function setRole(address _for, Role _role, bool _roleStatus) public isDeployer{\n        canAccess[_for][_role] = _roleStatus;\n    }\n\n    //Getting the roles of the accounts\n    function getAccountRole(address _of, Role _role) public view isDeployer returns(bool){\n        return canAccess[_of][_role];\n    }\n\n    function isNivUsed(string memory _niv) public view isManufacturer(msg.sender, Role.Manufacturer) returns(bool){\n        bool avaibility = carFactory.getNivAvaibility(_niv);\n        return avaibility;\n    }\n\n    function createNewCar(string memory _niv, string memory _infos) public isManufacturer(msg.sender, Role.Manufacturer) isNotBlank(_niv){\n        require(keccak256(bytes(_infos)) != keccak256(bytes(\"\")), \"The infos section cannot be blank\");\n        carFactory.createCar(_niv, _infos);\n    }\n\n    function getCar(string memory _niv) private view isNotBlank(_niv) returns(Car){\n        Car car = carFactory.carListMapping(_niv);\n        return car;\n    }\n\n    function setCarOwner(string memory _niv, address _owner, string memory _transactionInfo, string memory _matriculation) public isNotBlank(_niv) doesExist(_niv) isState(msg.sender, Role.State){\n        require(_owner != address(0), \"The infos section cannot be blank\");\n        require(keccak256(bytes(_transactionInfo)) != keccak256(bytes(\"\")), \"Please fill the transaction infos section\");\n        require(keccak256(bytes(_matriculation)) != keccak256(bytes(\"\")), \"The matriculation section cannot be blank\");\n\n        Car car = getCar(_niv);\n        car.setOwner(_owner);\n        car.setTransaction(_transactionInfo);\n        car.setMatriculation(_matriculation);\n    }\n\n    function getCarOwner(string memory _niv) public view isNotBlank(_niv) returns(address[] memory){\n        return getCar(_niv).getOwnerList();\n    }\n\n    function getCarPreviousTransactions(string memory _niv) public view isNotBlank(_niv) returns(string[] memory){\n        return getCar(_niv).getPreviousTransactions();\n    }\n\n    function setCarSignalisation(string memory _niv, string memory _signalisation) public isNotBlank(_niv) doesExist(_niv) isDeployer{\n        getCar(_niv).setSignalisation(_signalisation);\n    }\n\n    function getCarSignalisation(string memory _niv) public view isNotBlank(_niv) returns(string[] memory){\n        return getCar(_niv).getSignalisation();\n    }\n\n    function addAccident(string memory _niv, string memory _accident) public isNotBlank(_niv) doesExist(_niv) isInsurance(msg.sender, Role.Insurance){\n        require(keccak256(bytes(_accident)) != keccak256(bytes(\"\")), \"Please provide more infos\");\n        Car car = getCar(_niv);\n        car.addAccident(_accident);\n    }\n\n    function getAccidentsList(string memory _niv) public view isNotBlank(_niv) returns (string[] memory){\n        Car car = getCar(_niv);        \n        return car.accidentsList();\n    }\n\n    function addCarReport(string memory _niv, string memory _report) public isNotBlank(_niv) doesExist(_niv) isCenter(msg.sender, Role.Insurance){\n        require(keccak256(bytes(_report)) != keccak256(bytes(\"\")), \"Please provide a correct report\");\n        Car car = getCar(_niv);\n        car.addReport(_report);\n    }\n\n    function getCarReport(string memory _niv) public view isNotBlank(_niv) returns(string[] memory){\n        Car car = getCar(_niv);        \n        return car.getReport();\n    }\n\n    function getCarInfos(string memory _niv) public view isNotBlank(_niv) returns(string memory){\n        Car car = getCar(_niv);        \n        return car.getInfos();        \n    }\n\n    function getCarAllInfos(string memory _niv) public view isNotBlank(_niv) returns(bool, string memory, string[] memory, address[] memory, string[] memory, string[] memory, string[] memory, string[] memory){\n        return getCar(_niv).getAllInfos();\n    }\n\n    function destroyCar(string memory _niv) public isNotBlank(_niv) doesExist(_niv) isManufacturer(msg.sender, Role.Manufacturer){\n        return getCar(_niv).destroyCar();\n    }\n\n}","sourcePath":"contracts/AutomobileRegistrationSystem.sol","deployment":{"address":"0xe62C272D651F79Fa4420479ff17d1A2D807a3Cf3","chainid":"80001","blockHeight":33291578}}