{"abi":[{"inputs":[],"stateMutability":"nonpayable","type":"constructor","name":"constructor"},{"inputs":[{"internalType":"string","name":"_niv","type":"string"},{"internalType":"string","name":"_accident","type":"string"}],"name":"addAccident","outputs":[],"stateMutability":"nonpayable","type":"function"},{"inputs":[{"internalType":"string","name":"_niv","type":"string"},{"internalType":"string","name":"_report","type":"string"}],"name":"addCarReport","outputs":[],"stateMutability":"nonpayable","type":"function"},{"inputs":[{"internalType":"string","name":"_niv","type":"string"},{"internalType":"string","name":"_infos","type":"string"}],"name":"createNewCar","outputs":[],"stateMutability":"nonpayable","type":"function"},{"inputs":[{"internalType":"string","name":"_niv","type":"string"}],"name":"destroyCar","outputs":[],"stateMutability":"nonpayable","type":"function"},{"inputs":[{"internalType":"string","name":"_niv","type":"string"}],"name":"getAccidentsList","outputs":[{"internalType":"string[]","name":"","type":"string[]"}],"stateMutability":"view","type":"function"},{"inputs":[{"internalType":"address","name":"_of","type":"address"},{"internalType":"enum AutomobileRegistrationSystem.Role","name":"_role","type":"uint8"}],"name":"getAccountRole","outputs":[{"internalType":"bool","name":"","type":"bool"}],"stateMutability":"view","type":"function"},{"inputs":[{"internalType":"string","name":"_niv","type":"string"}],"name":"getCarAllInfos","outputs":[{"internalType":"bool","name":"","type":"bool"},{"internalType":"string","name":"","type":"string"},{"internalType":"string[]","name":"","type":"string[]"},{"internalType":"address[]","name":"","type":"address[]"},{"internalType":"string[]","name":"","type":"string[]"},{"internalType":"string[]","name":"","type":"string[]"},{"internalType":"string[]","name":"","type":"string[]"},{"internalType":"bool","name":"","type":"bool"}],"stateMutability":"view","type":"function"},{"inputs":[{"internalType":"string","name":"_niv","type":"string"}],"name":"getCarInfos","outputs":[{"internalType":"string","name":"","type":"string"}],"stateMutability":"view","type":"function"},{"inputs":[{"internalType":"string","name":"_niv","type":"string"}],"name":"getCarOwner","outputs":[{"internalType":"address[]","name":"","type":"address[]"}],"stateMutability":"view","type":"function"},{"inputs":[{"internalType":"string","name":"_niv","type":"string"}],"name":"getCarPreviousTransactions","outputs":[{"internalType":"string[]","name":"","type":"string[]"}],"stateMutability":"view","type":"function"},{"inputs":[{"internalType":"string","name":"_niv","type":"string"}],"name":"getCarReport","outputs":[{"internalType":"string[]","name":"","type":"string[]"}],"stateMutability":"view","type":"function"},{"inputs":[{"internalType":"string","name":"_niv","type":"string"}],"name":"getCarSignalisation","outputs":[{"internalType":"bool","name":"","type":"bool"}],"stateMutability":"view","type":"function"},{"inputs":[{"internalType":"string","name":"_niv","type":"string"}],"name":"isNivUsed","outputs":[{"internalType":"bool","name":"","type":"bool"}],"stateMutability":"view","type":"function"},{"inputs":[{"internalType":"string","name":"_niv","type":"string"},{"internalType":"address","name":"_owner","type":"address"},{"internalType":"string","name":"_transactionInfo","type":"string"},{"internalType":"string","name":"_matriculation","type":"string"}],"name":"setCarOwner","outputs":[],"stateMutability":"nonpayable","type":"function"},{"inputs":[{"internalType":"string","name":"_niv","type":"string"},{"internalType":"bool","name":"_signalisation","type":"bool"}],"name":"setCarSignalisation","outputs":[],"stateMutability":"nonpayable","type":"function"},{"inputs":[{"internalType":"address","name":"_for","type":"address"},{"internalType":"enum AutomobileRegistrationSystem.Role","name":"_role","type":"uint8"},{"internalType":"bool","name":"_roleStatus","type":"bool"}],"name":"setRole","outputs":[],"stateMutability":"nonpayable","type":"function"}],"bytecode":"608060405234801561001057600080fd5b50600080546001600160a01b0319163317905560405161002f90610071565b604051809103906000f08015801561004b573d6000803e3d6000fd5b50600180546001600160a01b0319166001600160a01b039290921691909117905561007f565b611a828062001f6983390190565b611eda806200008f6000396000f3fe608060405234801561001057600080fd5b50600436106101005760003560e01c806390ca833211610097578063d0f2dd5b11610066578063d0f2dd5b14610232578063d6082a8314610252578063f6bb6b3714610265578063f901fbb51461027857600080fd5b806390ca8332146101e6578063a2a6d142146101f9578063aad37c991461020c578063b327c7001461021f57600080fd5b806358da1e01116100d357806358da1e011461018857806360db168e1461019d5780636f059e73146101c057806375d12105146101d357600080fd5b80630b8cf8d114610105578063398752e01461012e5780634974c6321461014e5780634cca828814610175575b600080fd5b61011861011336600461164b565b61028b565b60405161012591906116c4565b60405180910390f35b61014161013c36600461164b565b610350565b604051610125919061177f565b61016161015c36600461164b565b610412565b604051610125989796959493929190611792565b61014161018336600461164b565b6104e6565b61019b61019636600461164b565b61059b565b005b6101b06101ab36600461164b565b61072d565b6040519015158152602001610125565b61019b6101ce36600461182a565b6107a3565b61019b6101e136600461182a565b6109ba565b6101416101f436600461164b565b610a8c565b6101b06102073660046118ba565b610b1e565b61019b61021a36600461182a565b610bd0565b6101b061022d36600461164b565b610dae565b61024561024036600461164b565b610e33565b60405161012591906118ef565b61019b610260366004611902565b610eed565b61019b6102733660046119ad565b61127c565b61019b6102863660046119f6565b611337565b604080516020808201909252600090528151908201206060908290600080516020611e85833981519152016102db5760405162461bcd60e51b81526004016102d290611a48565b60405180910390fd5b6102e4836114d5565b6001600160a01b031663581003706040518163ffffffff1660e01b8152600401600060405180830381865afa158015610321573d6000803e3d6000fd5b505050506040513d6000823e601f3d908101601f191682016040526103499190810190611b07565b9392505050565b604080516020808201909252600090528151908201206060908290600080516020611e85833981519152016103975760405162461bcd60e51b81526004016102d290611a48565b60006103a2846114d5565b9050806001600160a01b031663e4085d676040518163ffffffff1660e01b8152600401600060405180830381865afa1580156103e2573d6000803e3d6000fd5b505050506040513d6000823e601f3d908101601f1916820160405261040a9190810190611c01565b949350505050565b6000606080606080606080600088604051806020016040528060008152508051906020012081805190602001200361045c5760405162461bcd60e51b81526004016102d290611a48565b6104658a6114d5565b6001600160a01b031663d80516a56040518163ffffffff1660e01b8152600401600060405180830381865afa1580156104a2573d6000803e3d6000fd5b505050506040513d6000823e601f3d908101601f191682016040526104ca9190810190611c41565b9850985098509850985098509850985050919395975091939597565b604080516020808201909252600090528151908201206060908290600080516020611e858339815191520161052d5760405162461bcd60e51b81526004016102d290611a48565b610536836114d5565b6001600160a01b031663b5cd26f86040518163ffffffff1660e01b8152600401600060405180830381865afa158015610573573d6000803e3d6000fd5b505050506040513d6000823e601f3d908101601f191682016040526103499190810190611c01565b604080516020808201909252600090528151908201208190600080516020611e85833981519152016105df5760405162461bcd60e51b81526004016102d290611a48565b600154604051634b22dc9160e01b815283916001600160a01b031690634b22dc919061060f9084906004016118ef565b602060405180830381865afa15801561062c573d6000803e3d6000fd5b505050506040513d601f19601f820116820180604052508101906106509190611d59565b6001600160a01b0316635ad70d126040518163ffffffff1660e01b8152600401602060405180830381865afa15801561068d573d6000803e3d6000fd5b505050506040513d601f19601f820116820180604052508101906106b19190611d76565b6106cd5760405162461bcd60e51b81526004016102d290611d93565b6106d6836114d5565b6001600160a01b031663b3610f376040518163ffffffff1660e01b8152600401600060405180830381600087803b15801561071057600080fd5b505af1158015610724573d6000803e3d6000fd5b50505050505050565b600154604051637832e6e360e01b815260009182916001600160a01b0390911690637832e6e3906107629086906004016118ef565b602060405180830381865afa15801561077f573d6000803e3d6000fd5b505050506040513d601f19601f820116820180604052508101906103499190611d76565b604080516020808201909252600090528251908301208290600080516020611e85833981519152016107e75760405162461bcd60e51b81526004016102d290611a48565b600154604051634b22dc9160e01b815284916001600160a01b031690634b22dc91906108179084906004016118ef565b602060405180830381865afa158015610834573d6000803e3d6000fd5b505050506040513d601f19601f820116820180604052508101906108589190611d59565b6001600160a01b0316635ad70d126040518163ffffffff1660e01b8152600401602060405180830381865afa158015610895573d6000803e3d6000fd5b505050506040513d601f19601f820116820180604052508101906108b99190611d76565b6108d55760405162461bcd60e51b81526004016102d290611d93565b60408051602080820190925260009052835190840120600080516020611e85833981519152016109475760405162461bcd60e51b815260206004820152601960248201527f506c656173652070726f76696465206d6f726520696e666f730000000000000060448201526064016102d2565b6000610952856114d5565b60405163134044a160e01b81529091506001600160a01b0382169063134044a1906109819087906004016118ef565b600060405180830381600087803b15801561099b57600080fd5b505af11580156109af573d6000803e3d6000fd5b505050505050505050565b604080516020808201909252600090528251908301208290600080516020611e85833981519152016109fe5760405162461bcd60e51b81526004016102d290611a48565b60408051602080820190925260009052825190830120600080516020611e8583398151915201610a405760405162461bcd60e51b81526004016102d290611dca565b600154604051633de4de8f60e01b81526001600160a01b0390911690633de4de8f90610a729086908690600401611e0b565b600060405180830381600087803b15801561071057600080fd5b604080516020808201909252600090528151908201206060908290600080516020611e8583398151915201610ad35760405162461bcd60e51b81526004016102d290611a48565b6000610ade846114d5565b9050806001600160a01b031663bd51b8e06040518163ffffffff1660e01b8152600401600060405180830381865afa1580156103e2573d6000803e3d6000fd5b600080546001600160a01b03163314610b795760405162461bcd60e51b815260206004820152601e60248201527f596f75277265206e6f7420746865206f776e65722c2061626f7274696e67000060448201526064016102d2565b6001600160a01b038316600090815260026020526040812090836003811115610ba457610ba4611e39565b6003811115610bb557610bb5611e39565b815260208101919091526040016000205460ff169392505050565b604080516020808201909252600090528251908301208290600080516020611e8583398151915201610c145760405162461bcd60e51b81526004016102d290611a48565b600154604051634b22dc9160e01b815284916001600160a01b031690634b22dc9190610c449084906004016118ef565b602060405180830381865afa158015610c61573d6000803e3d6000fd5b505050506040513d601f19601f82011682018060405250810190610c859190611d59565b6001600160a01b0316635ad70d126040518163ffffffff1660e01b8152600401602060405180830381865afa158015610cc2573d6000803e3d6000fd5b505050506040513d601f19601f82011682018060405250810190610ce69190611d76565b610d025760405162461bcd60e51b81526004016102d290611d93565b60408051602080820190925260009052835190840120600080516020611e8583398151915201610d745760405162461bcd60e51b815260206004820152601f60248201527f506c656173652070726f76696465206120636f7272656374207265706f72740060448201526064016102d2565b6000610d7f856114d5565b604051632be527f360e11b81529091506001600160a01b038216906357ca4fe6906109819087906004016118ef565b6000816040518060200160405280600081525080519060200120818051906020012003610ded5760405162461bcd60e51b81526004016102d290611a48565b610df6836114d5565b6001600160a01b031663888dbbc16040518163ffffffff1660e01b8152600401602060405180830381865afa15801561077f573d6000803e3d6000fd5b604080516020808201909252600090528151908201206060908290600080516020611e8583398151915201610e7a5760405162461bcd60e51b81526004016102d290611a48565b6000610e85846114d5565b9050806001600160a01b031663643d6dc06040518163ffffffff1660e01b8152600401600060405180830381865afa158015610ec5573d6000803e3d6000fd5b505050506040513d6000823e601f3d908101601f1916820160405261040a9190810190611e4f565b604080516020808201909252600090528451908501208490600080516020611e8583398151915201610f315760405162461bcd60e51b81526004016102d290611a48565b600154604051634b22dc9160e01b815286916001600160a01b031690634b22dc9190610f619084906004016118ef565b602060405180830381865afa158015610f7e573d6000803e3d6000fd5b505050506040513d601f19601f82011682018060405250810190610fa29190611d59565b6001600160a01b0316635ad70d126040518163ffffffff1660e01b8152600401602060405180830381865afa158015610fdf573d6000803e3d6000fd5b505050506040513d601f19601f820116820180604052508101906110039190611d76565b61101f5760405162461bcd60e51b81526004016102d290611d93565b6001600160a01b0385166110455760405162461bcd60e51b81526004016102d290611dca565b60408051602080820190925260009052845190850120600080516020611e85833981519152016110c95760405162461bcd60e51b815260206004820152602960248201527f506c656173652066696c6c20746865207472616e73616374696f6e20696e666f604482015268399039b2b1ba34b7b760b91b60648201526084016102d2565b60408051602080820190925260009052835190840120600080516020611e858339815191520161114d5760405162461bcd60e51b815260206004820152602960248201527f546865206d6174726963756c6174696f6e2073656374696f6e2063616e6e6f7460448201526820626520626c616e6b60b81b60648201526084016102d2565b6000611158876114d5565b6040516313af403560e01b81526001600160a01b038881166004830152919250908216906313af403590602401600060405180830381600087803b15801561119f57600080fd5b505af11580156111b3573d6000803e3d6000fd5b5050604051637a64f11360e01b81526001600160a01b0384169250637a64f11391506111e39088906004016118ef565b600060405180830381600087803b1580156111fd57600080fd5b505af1158015611211573d6000803e3d6000fd5b5050604051632e8b71d360e01b81526001600160a01b0384169250632e8b71d391506112419087906004016118ef565b600060405180830381600087803b15801561125b57600080fd5b505af115801561126f573d6000803e3d6000fd5b5050505050505050505050565b6000546001600160a01b031633146112d65760405162461bcd60e51b815260206004820152601e60248201527f596f75277265206e6f7420746865206f776e65722c2061626f7274696e67000060448201526064016102d2565b6001600160a01b0383166000908152600260205260408120829184600381111561130257611302611e39565b600381111561131357611313611e39565b81526020810191909152604001600020805460ff1916911515919091179055505050565b604080516020808201909252600090528251908301208290600080516020611e858339815191520161137b5760405162461bcd60e51b81526004016102d290611a48565b600154604051634b22dc9160e01b815284916001600160a01b031690634b22dc91906113ab9084906004016118ef565b602060405180830381865afa1580156113c8573d6000803e3d6000fd5b505050506040513d601f19601f820116820180604052508101906113ec9190611d59565b6001600160a01b0316635ad70d126040518163ffffffff1660e01b8152600401602060405180830381865afa158015611429573d6000803e3d6000fd5b505050506040513d601f19601f8201168201806040525081019061144d9190611d76565b6114695760405162461bcd60e51b81526004016102d290611d93565b611472846114d5565b60405163aba0bc9f60e01b815284151560048201526001600160a01b03919091169063aba0bc9f90602401600060405180830381600087803b1580156114b757600080fd5b505af11580156114cb573d6000803e3d6000fd5b5050505050505050565b60008160405180602001604052806000815250805190602001208180519060200120036115145760405162461bcd60e51b81526004016102d290611a48565b600154604051634b22dc9160e01b81526000916001600160a01b031690634b22dc91906115459087906004016118ef565b602060405180830381865afa158015611562573d6000803e3d6000fd5b505050506040513d601f19601f8201168201806040525081019061040a9190611d59565b634e487b7160e01b600052604160045260246000fd5b604051601f8201601f1916810167ffffffffffffffff811182821017156115c5576115c5611586565b604052919050565b600067ffffffffffffffff8211156115e7576115e7611586565b50601f01601f191660200190565b600082601f83011261160657600080fd5b8135611619611614826115cd565b61159c565b81815284602083860101111561162e57600080fd5b816020850160208301376000918101602001919091529392505050565b60006020828403121561165d57600080fd5b813567ffffffffffffffff81111561167457600080fd5b61040a848285016115f5565b600081518084526020808501945080840160005b838110156116b95781516001600160a01b031687529582019590820190600101611694565b509495945050505050565b6020815260006103496020830184611680565b60005b838110156116f25781810151838201526020016116da565b50506000910152565b600081518084526117138160208601602086016116d7565b601f01601f19169290920160200192915050565b600082825180855260208086019550808260051b84010181860160005b8481101561177257601f198684030189526117608383516116fb565b98840198925090830190600101611744565b5090979650505050505050565b6020815260006103496020830184611727565b60006101008a151583528060208401526117ae8184018b6116fb565b905082810360408401526117c2818a611727565b905082810360608401526117d68189611680565b905082810360808401526117ea8188611727565b905082810360a08401526117fe8187611727565b905082810360c08401526118128186611727565b91505082151560e08301529998505050505050505050565b6000806040838503121561183d57600080fd5b823567ffffffffffffffff8082111561185557600080fd5b611861868387016115f5565b9350602085013591508082111561187757600080fd5b50611884858286016115f5565b9150509250929050565b6001600160a01b03811681146118a357600080fd5b50565b8035600481106118b557600080fd5b919050565b600080604083850312156118cd57600080fd5b82356118d88161188e565b91506118e6602084016118a6565b90509250929050565b60208152600061034960208301846116fb565b6000806000806080858703121561191857600080fd5b843567ffffffffffffffff8082111561193057600080fd5b61193c888389016115f5565b95506020870135915061194e8261188e565b9093506040860135908082111561196457600080fd5b611970888389016115f5565b9350606087013591508082111561198657600080fd5b50611993878288016115f5565b91505092959194509250565b80151581146118a357600080fd5b6000806000606084860312156119c257600080fd5b83356119cd8161188e565b92506119db602085016118a6565b915060408401356119eb8161199f565b809150509250925092565b60008060408385031215611a0957600080fd5b823567ffffffffffffffff811115611a2057600080fd5b611a2c858286016115f5565b9250506020830135611a3d8161199f565b809150509250929050565b602080825260129082015271283632b0b9b29032b73a32b91030902724ab60711b604082015260600190565b600067ffffffffffffffff821115611a8e57611a8e611586565b5060051b60200190565b600082601f830112611aa957600080fd5b81516020611ab961161483611a74565b82815260059290921b84018101918181019086841115611ad857600080fd5b8286015b84811015611afc578051611aef8161188e565b8352918301918301611adc565b509695505050505050565b600060208284031215611b1957600080fd5b815167ffffffffffffffff811115611b3057600080fd5b61040a84828501611a98565b600082601f830112611b4d57600080fd5b8151611b5b611614826115cd565b818152846020838601011115611b7057600080fd5b61040a8260208301602087016116d7565b600082601f830112611b9257600080fd5b81516020611ba261161483611a74565b82815260059290921b84018101918181019086841115611bc157600080fd5b8286015b84811015611afc57805167ffffffffffffffff811115611be55760008081fd5b611bf38986838b0101611b3c565b845250918301918301611bc5565b600060208284031215611c1357600080fd5b815167ffffffffffffffff811115611c2a57600080fd5b61040a84828501611b81565b80516118b58161199f565b600080600080600080600080610100898b031215611c5e57600080fd5b611c6789611c36565b9750602089015167ffffffffffffffff80821115611c8457600080fd5b611c908c838d01611b3c565b985060408b0151915080821115611ca657600080fd5b611cb28c838d01611b81565b975060608b0151915080821115611cc857600080fd5b611cd48c838d01611a98565b965060808b0151915080821115611cea57600080fd5b611cf68c838d01611b81565b955060a08b0151915080821115611d0c57600080fd5b611d188c838d01611b81565b945060c08b0151915080821115611d2e57600080fd5b50611d3b8b828c01611b81565b925050611d4a60e08a01611c36565b90509295985092959890939650565b600060208284031215611d6b57600080fd5b81516103498161188e565b600060208284031215611d8857600080fd5b81516103498161199f565b6020808252601e908201527f546869732063617220646f65736e277420657869737420616e796d6f72650000604082015260600190565b60208082526021908201527f54686520696e666f732073656374696f6e2063616e6e6f7420626520626c616e6040820152606b60f81b606082015260800190565b604081526000611e1e60408301856116fb565b8281036020840152611e3081856116fb565b95945050505050565b634e487b7160e01b600052602160045260246000fd5b600060208284031215611e6157600080fd5b815167ffffffffffffffff811115611e7857600080fd5b61040a84828501611b3c56fe3a2db9fe7908dcc36d81824d2338fc3f1aff49ac357dd8c4840527fba27a5b90a2646970667358221220f2de21906dac2c455cae39adf974da87ea221f328095ed75f32191f466975af464736f6c63430008130033608060405234801561001057600080fd5b50611a62806100206000396000f3fe608060405234801561001057600080fd5b506004361061004c5760003560e01c80633de4de8f146100515780634b22dc911461006657806358da1e01146100965780637832e6e3146100a9575b600080fd5b61006461005f3660046103c7565b6100cc565b005b61007961007436600461042b565b610244565b6040516001600160a01b0390911681526020015b60405180910390f35b6100646100a436600461042b565b610275565b6100bc6100b736600461042b565b6102ec565b604051901515815260200161008d565b6002826040516100dc919061048c565b9081526040519081900360200190205460ff1615610168576040805162461bcd60e51b81526020600482015260248101919091527f506c656173652074727920616e6f74686572204e49562061732074686520707260448201527f6f7669646564206f6e652068617320616c7265616479206265656e2075736564606482015260840160405180910390fd5b818160405161017690610317565b6101819291906104d4565b604051809103906000f08015801561019d573d6000803e3d6000fd5b506000806101000a8154816001600160a01b0302191690836001600160a01b0316021790555060016002836040516101d5919061048c565b908152604051908190036020018120805492151560ff19909316929092179091556000546001600160a01b03169060019061021190859061048c565b90815260405190819003602001902080546001600160a01b03929092166001600160a01b03199092169190911790555050565b6000600182604051610256919061048c565b908152604051908190036020019020546001600160a01b031692915050565b61027e81610244565b600080546001600160a01b0319166001600160a01b039290921691821781556040805163b3610f3760e01b8152905163b3610f379260048084019391929182900301818387803b1580156102d157600080fd5b505af11580156102e5573d6000803e3d6000fd5b5050505050565b60006002826040516102fe919061048c565b9081526040519081900360200190205460ff1692915050565b61152a8061050383390190565b634e487b7160e01b600052604160045260246000fd5b600082601f83011261034b57600080fd5b813567ffffffffffffffff8082111561036657610366610324565b604051601f8301601f19908116603f0116810190828211818310171561038e5761038e610324565b816040528381528660208588010111156103a757600080fd5b836020870160208301376000602085830101528094505050505092915050565b600080604083850312156103da57600080fd5b823567ffffffffffffffff808211156103f257600080fd5b6103fe8683870161033a565b9350602085013591508082111561041457600080fd5b506104218582860161033a565b9150509250929050565b60006020828403121561043d57600080fd5b813567ffffffffffffffff81111561045457600080fd5b6104608482850161033a565b949350505050565b60005b8381101561048357818101518382015260200161046b565b50506000910152565b6000825161049e818460208701610468565b9190910192915050565b600081518084526104c0816020860160208601610468565b601f01601f19169290920160200192915050565b6040815260006104e760408301856104a8565b82810360208401526104f981856104a8565b9594505050505056fe60806040523480156200001157600080fd5b506040516200152a3803806200152a83398101604081905262000034916200012d565b600062000042838262000226565b50600a805460ff191660019081179091556200005f828262000226565b505050620002f2565b634e487b7160e01b600052604160045260246000fd5b600082601f8301126200009057600080fd5b81516001600160401b0380821115620000ad57620000ad62000068565b604051601f8301601f19908116603f01168101908282118183101715620000d857620000d862000068565b81604052838152602092508683858801011115620000f557600080fd5b600091505b83821015620001195785820183015181830184015290820190620000fa565b600093810190920192909252949350505050565b600080604083850312156200014157600080fd5b82516001600160401b03808211156200015957600080fd5b62000167868387016200007e565b935060208501519150808211156200017e57600080fd5b506200018d858286016200007e565b9150509250929050565b600181811c90821680620001ac57607f821691505b602082108103620001cd57634e487b7160e01b600052602260045260246000fd5b50919050565b601f8211156200022157600081815260208120601f850160051c81016020861015620001fc5750805b601f850160051c820191505b818110156200021d5782815560010162000208565b5050505b505050565b81516001600160401b0381111562000242576200024262000068565b6200025a8162000253845462000197565b84620001d3565b602080601f831160018114620002925760008415620002795750858301515b600019600386901b1c1916600185901b1785556200021d565b600085815260208120601f198616915b82811015620002c357888601518255948401946001909101908401620002a2565b5085821015620002e25787850151600019600388901b60f8161c191681555b5050505050600190811b01905550565b61122880620003026000396000f3fe608060405234801561001057600080fd5b50600436106100f55760003560e01c80637a64f11311610097578063b5cd26f811610066578063b5cd26f8146101ec578063bd51b8e014610201578063d80516a514610209578063e4085d671461022557600080fd5b80637a64f11314610192578063888dbbc1146101a5578063aba0bc9f146101b5578063b3610f37146101dd57600080fd5b806357ca4fe6116100d357806357ca4fe61461013557806358100370146101485780635ad70d1214610166578063643d6dc01461017d57600080fd5b8063134044a1146100fa57806313af40351461010f5780632e8b71d314610122575b600080fd5b61010d610108366004610ca2565b61022d565b005b61010d61011d366004610d53565b61026d565b61010d610130366004610ca2565b61033f565b61010d610143366004610ca2565b61041b565b610150610457565b60405161015d9190610dc7565b60405180910390f35b600a5460ff165b604051901515815260200161015d565b6101856104b9565b60405161015d9190610e20565b61010d6101a0366004610ca2565b610542565b600a54610100900460ff1661016d565b61010d6101c3366004610e33565b600a80549115156101000261ff0019909216919091179055565b61010d600a805460ff19169055565b6101f461058c565b60405161015d9190610ead565b6101f4610665565b610211610735565b60405161015d989796959493929190610ec0565b6101f4610bbc565b600680546001810182556000919091527ff652222313e28459528d920b65115c16c04f3efc82aaedc97be59f3f377c0d3f016102698282610fe1565b5050565b6002546001600160a01b038083169116036102e35760405162461bcd60e51b815260206004820152602b60248201527f546865206f6c64206f776e657220616e64206e6577206f6e652063616e27742060448201526a6265207468652073616d6560a81b60648201526084015b60405180910390fd5b600280546001600160a01b039092166001600160a01b03199283168117909155600780546001810182556000919091527fa66cc928b5edb82af9bd49922954155ab7b0942694bea4ce44661d9a8736c688018054909216179055565b600360405161034e91906110a1565b60405180910390208180519060200120036103d15760405162461bcd60e51b815260206004820152603d60248201527f546865206f6c64206d6174726963756c6174696f6e20616e64206e6577206d6160448201527f74726963756c6174696f6e2063616e2774206265207468652073616d6500000060648201526084016102da565b60036103dd8282610fe1565b50600480546001810182556000919091527f8a35acfbc15ff81a39ae7d344fd709f28e8600b4aa8c65c6b64bfe7fe36bd19b01610269600382611117565b600580546001810182556000919091527f036b6384b5eca791c62761152d0c79bb0604c104a5fb6f4eb0703f3154bb3db0016102698282610fe1565b606060078054806020026020016040519081016040528092919081815260200182805480156104af57602002820191906000526020600020905b81546001600160a01b03168152600190910190602001808311610491575b5050505050905090565b6060600180546104c890610f58565b80601f01602080910402602001604051908101604052809291908181526020018280546104f490610f58565b80156104af5780601f10610516576101008083540402835291602001916104af565b820191906000526020600020905b81548152906001019060200180831161052457509395945050505050565b600861054e8282610fe1565b50600980546001810182556000919091527f6e1540171b6c0c960b71a7020d9f60077f6af931a8bbf590da0223dacf75c7af01610269600882611117565b60606009805480602002602001604051908101604052809291908181526020016000905b8282101561065c5783829060005260206000200180546105cf90610f58565b80601f01602080910402602001604051908101604052809291908181526020018280546105fb90610f58565b80156106485780601f1061061d57610100808354040283529160200191610648565b820191906000526020600020905b81548152906001019060200180831161062b57829003601f168201915b5050505050815260200190600101906105b0565b50505050905090565b60606006805480602002602001604051908101604052809291908181526020016000905b8282101561065c5783829060005260206000200180546106a890610f58565b80601f01602080910402602001604051908101604052809291908181526020018280546106d490610f58565b80156107215780601f106106f657610100808354040283529160200191610721565b820191906000526020600020905b81548152906001019060200180831161070457829003601f168201915b505050505081526020019060010190610689565b60006060806060806060806000600a60009054906101000a900460ff16600160066007600460056009600a60019054906101000a900460ff1686805461077a90610f58565b80601f01602080910402602001604051908101604052809291908181526020018280546107a690610f58565b80156107f35780601f106107c8576101008083540402835291602001916107f3565b820191906000526020600020905b8154815290600101906020018083116107d657829003601f168201915b5050505050965085805480602002602001604051908101604052809291908181526020016000905b828210156108c757838290600052602060002001805461083a90610f58565b80601f016020809104026020016040519081016040528092919081815260200182805461086690610f58565b80156108b35780601f10610888576101008083540402835291602001916108b3565b820191906000526020600020905b81548152906001019060200180831161089657829003601f168201915b50505050508152602001906001019061081b565b5050505095508480548060200260200160405190810160405280929190818152602001828054801561092257602002820191906000526020600020905b81546001600160a01b03168152600190910190602001808311610904575b5050505050945083805480602002602001604051908101604052809291908181526020016000905b828210156109f657838290600052602060002001805461096990610f58565b80601f016020809104026020016040519081016040528092919081815260200182805461099590610f58565b80156109e25780601f106109b7576101008083540402835291602001916109e2565b820191906000526020600020905b8154815290600101906020018083116109c557829003601f168201915b50505050508152602001906001019061094a565b50505050935082805480602002602001604051908101604052809291908181526020016000905b82821015610ac9578382906000526020600020018054610a3c90610f58565b80601f0160208091040260200160405190810160405280929190818152602001828054610a6890610f58565b8015610ab55780601f10610a8a57610100808354040283529160200191610ab5565b820191906000526020600020905b815481529060010190602001808311610a9857829003601f168201915b505050505081526020019060010190610a1d565b50505050925081805480602002602001604051908101604052809291908181526020016000905b82821015610b9c578382906000526020600020018054610b0f90610f58565b80601f0160208091040260200160405190810160405280929190818152602001828054610b3b90610f58565b8015610b885780601f10610b5d57610100808354040283529160200191610b88565b820191906000526020600020905b815481529060010190602001808311610b6b57829003601f168201915b505050505081526020019060010190610af0565b505050509150975097509750975097509750975097509091929394959697565b60606005805480602002602001604051908101604052809291908181526020016000905b8282101561065c578382906000526020600020018054610bff90610f58565b80601f0160208091040260200160405190810160405280929190818152602001828054610c2b90610f58565b8015610c785780601f10610c4d57610100808354040283529160200191610c78565b820191906000526020600020905b815481529060010190602001808311610c5b57829003601f168201915b505050505081526020019060010190610be0565b634e487b7160e01b600052604160045260246000fd5b600060208284031215610cb457600080fd5b813567ffffffffffffffff80821115610ccc57600080fd5b818401915084601f830112610ce057600080fd5b813581811115610cf257610cf2610c8c565b604051601f8201601f19908116603f01168101908382118183101715610d1a57610d1a610c8c565b81604052828152876020848701011115610d3357600080fd5b826020860160208301376000928101602001929092525095945050505050565b600060208284031215610d6557600080fd5b81356001600160a01b0381168114610d7c57600080fd5b9392505050565b600081518084526020808501945080840160005b83811015610dbc5781516001600160a01b031687529582019590820190600101610d97565b509495945050505050565b602081526000610d7c6020830184610d83565b6000815180845260005b81811015610e0057602081850181015186830182015201610de4565b506000602082860101526020601f19601f83011685010191505092915050565b602081526000610d7c6020830184610dda565b600060208284031215610e4557600080fd5b81358015158114610d7c57600080fd5b600082825180855260208086019550808260051b84010181860160005b84811015610ea057601f19868403018952610e8e838351610dda565b98840198925090830190600101610e72565b5090979650505050505050565b602081526000610d7c6020830184610e55565b60006101008a15158352806020840152610edc8184018b610dda565b90508281036040840152610ef0818a610e55565b90508281036060840152610f048189610d83565b90508281036080840152610f188188610e55565b905082810360a0840152610f2c8187610e55565b905082810360c0840152610f408186610e55565b91505082151560e08301529998505050505050505050565b600181811c90821680610f6c57607f821691505b602082108103610f8c57634e487b7160e01b600052602260045260246000fd5b50919050565b601f821115610fdc57600081815260208120601f850160051c81016020861015610fb95750805b601f850160051c820191505b81811015610fd857828155600101610fc5565b5050505b505050565b815167ffffffffffffffff811115610ffb57610ffb610c8c565b61100f816110098454610f58565b84610f92565b602080601f831160018114611044576000841561102c5750858301515b600019600386901b1c1916600185901b178555610fd8565b600085815260208120601f198616915b8281101561107357888601518255948401946001909101908401611054565b50858210156110915787850151600019600388901b60f8161c191681555b5050505050600190811b01905550565b60008083546110af81610f58565b600182811680156110c757600181146110dc5761110b565b60ff198416875282151583028701945061110b565b8760005260208060002060005b858110156111025781548a8201529084019082016110e9565b50505082870194505b50929695505050505050565b818103611122575050565b61112c8254610f58565b67ffffffffffffffff81111561114457611144610c8c565b611152816110098454610f58565b6000601f821160018114611186576000831561116e5750848201545b600019600385901b1c1916600184901b1784556111eb565b600085815260209020601f19841690600086815260209020845b838110156111c057828601548255600195860195909101906020016111a0565b50858310156111de5781850154600019600388901b60f8161c191681555b50505060018360011b0184555b505050505056fea26469706673582212208ccdf91ae05c7f1d59a7b976610e4bde4b024af3ad3afe0e136e85bc2bd4e3dc64736f6c63430008130033a2646970667358221220c357aa43e0e29ac6a8d4c6e7adc567e765a11cee9620142f43a5fb953d22444a64736f6c63430008130033","bytecodeSha1":"eb37b50da434249977e0a34bbe6aedb2aacacedf","compiler":{"evm_version":"istanbul","optimizer":{"enabled":true,"runs":200},"version":"0.8.19+commit.7dd6d404"},"contractName":"AutomobileRegistrationSystem","language":"Solidity","natspec":{"kind":"dev","methods":{},"version":1},"opcodes":"PUSH1 0x80 PUSH1 0x40 MSTORE CALLVALUE DUP1 ISZERO PUSH2 0x10 JUMPI PUSH1 0x0 DUP1 REVERT JUMPDEST POP PUSH1 0x4 CALLDATASIZE LT PUSH2 0x100 JUMPI PUSH1 0x0 CALLDATALOAD PUSH1 0xE0 SHR DUP1 PUSH4 0x90CA8332 GT PUSH2 0x97 JUMPI DUP1 PUSH4 0xD0F2DD5B GT PUSH2 0x66 JUMPI DUP1 PUSH4 0xD0F2DD5B EQ PUSH2 0x232 JUMPI DUP1 PUSH4 0xD6082A83 EQ PUSH2 0x252 JUMPI DUP1 PUSH4 0xF6BB6B37 EQ PUSH2 0x265 JUMPI DUP1 PUSH4 0xF901FBB5 EQ PUSH2 0x278 JUMPI PUSH1 0x0 DUP1 REVERT JUMPDEST DUP1 PUSH4 0x90CA8332 EQ PUSH2 0x1E6 JUMPI DUP1 PUSH4 0xA2A6D142 EQ PUSH2 0x1F9 JUMPI DUP1 PUSH4 0xAAD37C99 EQ PUSH2 0x20C JUMPI DUP1 PUSH4 0xB327C700 EQ PUSH2 0x21F JUMPI PUSH1 0x0 DUP1 REVERT JUMPDEST DUP1 PUSH4 0x58DA1E01 GT PUSH2 0xD3 JUMPI DUP1 PUSH4 0x58DA1E01 EQ PUSH2 0x188 JUMPI DUP1 PUSH4 0x60DB168E EQ PUSH2 0x19D JUMPI DUP1 PUSH4 0x6F059E73 EQ PUSH2 0x1C0 JUMPI DUP1 PUSH4 0x75D12105 EQ PUSH2 0x1D3 JUMPI PUSH1 0x0 DUP1 REVERT JUMPDEST DUP1 PUSH4 0xB8CF8D1 EQ PUSH2 0x105 JUMPI DUP1 PUSH4 0x398752E0 EQ PUSH2 0x12E JUMPI DUP1 PUSH4 0x4974C632 EQ PUSH2 0x14E JUMPI DUP1 PUSH4 0x4CCA8288 EQ PUSH2 0x175 JUMPI JUMPDEST PUSH1 0x0 DUP1 REVERT JUMPDEST PUSH2 0x118 PUSH2 0x113 CALLDATASIZE PUSH1 0x4 PUSH2 0x164B JUMP JUMPDEST PUSH2 0x28B JUMP JUMPDEST PUSH1 0x40 MLOAD PUSH2 0x125 SWAP2 SWAP1 PUSH2 0x16C4 JUMP JUMPDEST PUSH1 0x40 MLOAD DUP1 SWAP2 SUB SWAP1 RETURN JUMPDEST PUSH2 0x141 PUSH2 0x13C CALLDATASIZE PUSH1 0x4 PUSH2 0x164B JUMP JUMPDEST PUSH2 0x350 JUMP JUMPDEST PUSH1 0x40 MLOAD PUSH2 0x125 SWAP2 SWAP1 PUSH2 0x177F JUMP JUMPDEST PUSH2 0x161 PUSH2 0x15C CALLDATASIZE PUSH1 0x4 PUSH2 0x164B JUMP JUMPDEST PUSH2 0x412 JUMP JUMPDEST PUSH1 0x40 MLOAD PUSH2 0x125 SWAP9 SWAP8 SWAP7 SWAP6 SWAP5 SWAP4 SWAP3 SWAP2 SWAP1 PUSH2 0x1792 JUMP JUMPDEST PUSH2 0x141 PUSH2 0x183 CALLDATASIZE PUSH1 0x4 PUSH2 0x164B JUMP JUMPDEST PUSH2 0x4E6 JUMP JUMPDEST PUSH2 0x19B PUSH2 0x196 CALLDATASIZE PUSH1 0x4 PUSH2 0x164B JUMP JUMPDEST PUSH2 0x59B JUMP JUMPDEST STOP JUMPDEST PUSH2 0x1B0 PUSH2 0x1AB CALLDATASIZE PUSH1 0x4 PUSH2 0x164B JUMP JUMPDEST PUSH2 0x72D JUMP JUMPDEST PUSH1 0x40 MLOAD SWAP1 ISZERO ISZERO DUP2 MSTORE PUSH1 0x20 ADD PUSH2 0x125 JUMP JUMPDEST PUSH2 0x19B PUSH2 0x1CE CALLDATASIZE PUSH1 0x4 PUSH2 0x182A JUMP JUMPDEST PUSH2 0x7A3 JUMP JUMPDEST PUSH2 0x19B PUSH2 0x1E1 CALLDATASIZE PUSH1 0x4 PUSH2 0x182A JUMP JUMPDEST PUSH2 0x9BA JUMP JUMPDEST PUSH2 0x141 PUSH2 0x1F4 CALLDATASIZE PUSH1 0x4 PUSH2 0x164B JUMP JUMPDEST PUSH2 0xA8C JUMP JUMPDEST PUSH2 0x1B0 PUSH2 0x207 CALLDATASIZE PUSH1 0x4 PUSH2 0x18BA JUMP JUMPDEST PUSH2 0xB1E JUMP JUMPDEST PUSH2 0x19B PUSH2 0x21A CALLDATASIZE PUSH1 0x4 PUSH2 0x182A JUMP JUMPDEST PUSH2 0xBD0 JUMP JUMPDEST PUSH2 0x1B0 PUSH2 0x22D CALLDATASIZE PUSH1 0x4 PUSH2 0x164B JUMP JUMPDEST PUSH2 0xDAE JUMP JUMPDEST PUSH2 0x245 PUSH2 0x240 CALLDATASIZE PUSH1 0x4 PUSH2 0x164B JUMP JUMPDEST PUSH2 0xE33 JUMP JUMPDEST PUSH1 0x40 MLOAD PUSH2 0x125 SWAP2 SWAP1 PUSH2 0x18EF JUMP JUMPDEST PUSH2 0x19B PUSH2 0x260 CALLDATASIZE PUSH1 0x4 PUSH2 0x1902 JUMP JUMPDEST PUSH2 0xEED JUMP JUMPDEST PUSH2 0x19B PUSH2 0x273 CALLDATASIZE PUSH1 0x4 PUSH2 0x19AD JUMP JUMPDEST PUSH2 0x127C JUMP JUMPDEST PUSH2 0x19B PUSH2 0x286 CALLDATASIZE PUSH1 0x4 PUSH2 0x19F6 JUMP JUMPDEST PUSH2 0x1337 JUMP JUMPDEST PUSH1 0x40 DUP1 MLOAD PUSH1 0x20 DUP1 DUP3 ADD SWAP1 SWAP3 MSTORE PUSH1 0x0 SWAP1 MSTORE DUP2 MLOAD SWAP1 DUP3 ADD KECCAK256 PUSH1 0x60 SWAP1 DUP3 SWAP1 PUSH1 0x0 DUP1 MLOAD PUSH1 0x20 PUSH2 0x1E85 DUP4 CODECOPY DUP2 MLOAD SWAP2 MSTORE ADD PUSH2 0x2DB JUMPI PUSH1 0x40 MLOAD PUSH3 0x461BCD PUSH1 0xE5 SHL DUP2 MSTORE PUSH1 0x4 ADD PUSH2 0x2D2 SWAP1 PUSH2 0x1A48 JUMP JUMPDEST PUSH1 0x40 MLOAD DUP1 SWAP2 SUB SWAP1 REVERT JUMPDEST PUSH2 0x2E4 DUP4 PUSH2 0x14D5 JUMP JUMPDEST PUSH1 0x1 PUSH1 0x1 PUSH1 0xA0 SHL SUB AND PUSH4 0x58100370 PUSH1 0x40 MLOAD DUP2 PUSH4 0xFFFFFFFF AND PUSH1 0xE0 SHL DUP2 MSTORE PUSH1 0x4 ADD PUSH1 0x0 PUSH1 0x40 MLOAD DUP1 DUP4 SUB DUP2 DUP7 GAS STATICCALL ISZERO DUP1 ISZERO PUSH2 0x321 JUMPI RETURNDATASIZE PUSH1 0x0 DUP1 RETURNDATACOPY RETURNDATASIZE PUSH1 0x0 REVERT JUMPDEST POP POP POP POP PUSH1 0x40 MLOAD RETURNDATASIZE PUSH1 0x0 DUP3 RETURNDATACOPY PUSH1 0x1F RETURNDATASIZE SWAP1 DUP2 ADD PUSH1 0x1F NOT AND DUP3 ADD PUSH1 0x40 MSTORE PUSH2 0x349 SWAP2 SWAP1 DUP2 ADD SWAP1 PUSH2 0x1B07 JUMP JUMPDEST SWAP4 SWAP3 POP POP POP JUMP JUMPDEST PUSH1 0x40 DUP1 MLOAD PUSH1 0x20 DUP1 DUP3 ADD SWAP1 SWAP3 MSTORE PUSH1 0x0 SWAP1 MSTORE DUP2 MLOAD SWAP1 DUP3 ADD KECCAK256 PUSH1 0x60 SWAP1 DUP3 SWAP1 PUSH1 0x0 DUP1 MLOAD PUSH1 0x20 PUSH2 0x1E85 DUP4 CODECOPY DUP2 MLOAD SWAP2 MSTORE ADD PUSH2 0x397 JUMPI PUSH1 0x40 MLOAD PUSH3 0x461BCD PUSH1 0xE5 SHL DUP2 MSTORE PUSH1 0x4 ADD PUSH2 0x2D2 SWAP1 PUSH2 0x1A48 JUMP JUMPDEST PUSH1 0x0 PUSH2 0x3A2 DUP5 PUSH2 0x14D5 JUMP JUMPDEST SWAP1 POP DUP1 PUSH1 0x1 PUSH1 0x1 PUSH1 0xA0 SHL SUB AND PUSH4 0xE4085D67 PUSH1 0x40 MLOAD DUP2 PUSH4 0xFFFFFFFF AND PUSH1 0xE0 SHL DUP2 MSTORE PUSH1 0x4 ADD PUSH1 0x0 PUSH1 0x40 MLOAD DUP1 DUP4 SUB DUP2 DUP7 GAS STATICCALL ISZERO DUP1 ISZERO PUSH2 0x3E2 JUMPI RETURNDATASIZE PUSH1 0x0 DUP1 RETURNDATACOPY RETURNDATASIZE PUSH1 0x0 REVERT JUMPDEST POP POP POP POP PUSH1 0x40 MLOAD RETURNDATASIZE PUSH1 0x0 DUP3 RETURNDATACOPY PUSH1 0x1F RETURNDATASIZE SWAP1 DUP2 ADD PUSH1 0x1F NOT AND DUP3 ADD PUSH1 0x40 MSTORE PUSH2 0x40A SWAP2 SWAP1 DUP2 ADD SWAP1 PUSH2 0x1C01 JUMP JUMPDEST SWAP5 SWAP4 POP POP POP POP JUMP JUMPDEST PUSH1 0x0 PUSH1 0x60 DUP1 PUSH1 0x60 DUP1 PUSH1 0x60 DUP1 PUSH1 0x0 DUP9 PUSH1 0x40 MLOAD DUP1 PUSH1 0x20 ADD PUSH1 0x40 MSTORE DUP1 PUSH1 0x0 DUP2 MSTORE POP DUP1 MLOAD SWAP1 PUSH1 0x20 ADD KECCAK256 DUP2 DUP1 MLOAD SWAP1 PUSH1 0x20 ADD KECCAK256 SUB PUSH2 0x45C JUMPI PUSH1 0x40 MLOAD PUSH3 0x461BCD PUSH1 0xE5 SHL DUP2 MSTORE PUSH1 0x4 ADD PUSH2 0x2D2 SWAP1 PUSH2 0x1A48 JUMP JUMPDEST PUSH2 0x465 DUP11 PUSH2 0x14D5 JUMP JUMPDEST PUSH1 0x1 PUSH1 0x1 PUSH1 0xA0 SHL SUB AND PUSH4 0xD80516A5 PUSH1 0x40 MLOAD DUP2 PUSH4 0xFFFFFFFF AND PUSH1 0xE0 SHL DUP2 MSTORE PUSH1 0x4 ADD PUSH1 0x0 PUSH1 0x40 MLOAD DUP1 DUP4 SUB DUP2 DUP7 GAS STATICCALL ISZERO DUP1 ISZERO PUSH2 0x4A2 JUMPI RETURNDATASIZE PUSH1 0x0 DUP1 RETURNDATACOPY RETURNDATASIZE PUSH1 0x0 REVERT JUMPDEST POP POP POP POP PUSH1 0x40 MLOAD RETURNDATASIZE PUSH1 0x0 DUP3 RETURNDATACOPY PUSH1 0x1F RETURNDATASIZE SWAP1 DUP2 ADD PUSH1 0x1F NOT AND DUP3 ADD PUSH1 0x40 MSTORE PUSH2 0x4CA SWAP2 SWAP1 DUP2 ADD SWAP1 PUSH2 0x1C41 JUMP JUMPDEST SWAP9 POP SWAP9 POP SWAP9 POP SWAP9 POP SWAP9 POP SWAP9 POP SWAP9 POP SWAP9 POP POP SWAP2 SWAP4 SWAP6 SWAP8 POP SWAP2 SWAP4 SWAP6 SWAP8 JUMP JUMPDEST PUSH1 0x40 DUP1 MLOAD PUSH1 0x20 DUP1 DUP3 ADD SWAP1 SWAP3 MSTORE PUSH1 0x0 SWAP1 MSTORE DUP2 MLOAD SWAP1 DUP3 ADD KECCAK256 PUSH1 0x60 SWAP1 DUP3 SWAP1 PUSH1 0x0 DUP1 MLOAD PUSH1 0x20 PUSH2 0x1E85 DUP4 CODECOPY DUP2 MLOAD SWAP2 MSTORE ADD PUSH2 0x52D JUMPI PUSH1 0x40 MLOAD PUSH3 0x461BCD PUSH1 0xE5 SHL DUP2 MSTORE PUSH1 0x4 ADD PUSH2 0x2D2 SWAP1 PUSH2 0x1A48 JUMP JUMPDEST PUSH2 0x536 DUP4 PUSH2 0x14D5 JUMP JUMPDEST PUSH1 0x1 PUSH1 0x1 PUSH1 0xA0 SHL SUB AND PUSH4 0xB5CD26F8 PUSH1 0x40 MLOAD DUP2 PUSH4 0xFFFFFFFF AND PUSH1 0xE0 SHL DUP2 MSTORE PUSH1 0x4 ADD PUSH1 0x0 PUSH1 0x40 MLOAD DUP1 DUP4 SUB DUP2 DUP7 GAS STATICCALL ISZERO DUP1 ISZERO PUSH2 0x573 JUMPI RETURNDATASIZE PUSH1 0x0 DUP1 RETURNDATACOPY RETURNDATASIZE PUSH1 0x0 REVERT JUMPDEST POP POP POP POP PUSH1 0x40 MLOAD RETURNDATASIZE PUSH1 0x0 DUP3 RETURNDATACOPY PUSH1 0x1F RETURNDATASIZE SWAP1 DUP2 ADD PUSH1 0x1F NOT AND DUP3 ADD PUSH1 0x40 MSTORE PUSH2 0x349 SWAP2 SWAP1 DUP2 ADD SWAP1 PUSH2 0x1C01 JUMP JUMPDEST PUSH1 0x40 DUP1 MLOAD PUSH1 0x20 DUP1 DUP3 ADD SWAP1 SWAP3 MSTORE PUSH1 0x0 SWAP1 MSTORE DUP2 MLOAD SWAP1 DUP3 ADD KECCAK256 DUP2 SWAP1 PUSH1 0x0 DUP1 MLOAD PUSH1 0x20 PUSH2 0x1E85 DUP4 CODECOPY DUP2 MLOAD SWAP2 MSTORE ADD PUSH2 0x5DF JUMPI PUSH1 0x40 MLOAD PUSH3 0x461BCD PUSH1 0xE5 SHL DUP2 MSTORE PUSH1 0x4 ADD PUSH2 0x2D2 SWAP1 PUSH2 0x1A48 JUMP JUMPDEST PUSH1 0x1 SLOAD PUSH1 0x40 MLOAD PUSH4 0x4B22DC91 PUSH1 0xE0 SHL DUP2 MSTORE DUP4 SWAP2 PUSH1 0x1 PUSH1 0x1 PUSH1 0xA0 SHL SUB AND SWAP1 PUSH4 0x4B22DC91 SWAP1 PUSH2 0x60F SWAP1 DUP5 SWAP1 PUSH1 0x4 ADD PUSH2 0x18EF JUMP JUMPDEST PUSH1 0x20 PUSH1 0x40 MLOAD DUP1 DUP4 SUB DUP2 DUP7 GAS STATICCALL ISZERO DUP1 ISZERO PUSH2 0x62C JUMPI RETURNDATASIZE PUSH1 0x0 DUP1 RETURNDATACOPY RETURNDATASIZE PUSH1 0x0 REVERT JUMPDEST POP POP POP POP PUSH1 0x40 MLOAD RETURNDATASIZE PUSH1 0x1F NOT PUSH1 0x1F DUP3 ADD AND DUP3 ADD DUP1 PUSH1 0x40 MSTORE POP DUP2 ADD SWAP1 PUSH2 0x650 SWAP2 SWAP1 PUSH2 0x1D59 JUMP JUMPDEST PUSH1 0x1 PUSH1 0x1 PUSH1 0xA0 SHL SUB AND PUSH4 0x5AD70D12 PUSH1 0x40 MLOAD DUP2 PUSH4 0xFFFFFFFF AND PUSH1 0xE0 SHL DUP2 MSTORE PUSH1 0x4 ADD PUSH1 0x20 PUSH1 0x40 MLOAD DUP1 DUP4 SUB DUP2 DUP7 GAS STATICCALL ISZERO DUP1 ISZERO PUSH2 0x68D JUMPI RETURNDATASIZE PUSH1 0x0 DUP1 RETURNDATACOPY RETURNDATASIZE PUSH1 0x0 REVERT JUMPDEST POP POP POP POP PUSH1 0x40 MLOAD RETURNDATASIZE PUSH1 0x1F NOT PUSH1 0x1F DUP3 ADD AND DUP3 ADD DUP1 PUSH1 0x40 MSTORE POP DUP2 ADD SWAP1 PUSH2 0x6B1 SWAP2 SWAP1 PUSH2 0x1D76 JUMP JUMPDEST PUSH2 0x6CD JUMPI PUSH1 0x40 MLOAD PUSH3 0x461BCD PUSH1 0xE5 SHL DUP2 MSTORE PUSH1 0x4 ADD PUSH2 0x2D2 SWAP1 PUSH2 0x1D93 JUMP JUMPDEST PUSH2 0x6D6 DUP4 PUSH2 0x14D5 JUMP JUMPDEST PUSH1 0x1 PUSH1 0x1 PUSH1 0xA0 SHL SUB AND PUSH4 0xB3610F37 PUSH1 0x40 MLOAD DUP2 PUSH4 0xFFFFFFFF AND PUSH1 0xE0 SHL DUP2 MSTORE PUSH1 0x4 ADD PUSH1 0x0 PUSH1 0x40 MLOAD DUP1 DUP4 SUB DUP2 PUSH1 0x0 DUP8 DUP1 EXTCODESIZE ISZERO DUP1 ISZERO PUSH2 0x710 JUMPI PUSH1 0x0 DUP1 REVERT JUMPDEST POP GAS CALL ISZERO DUP1 ISZERO PUSH2 0x724 JUMPI RETURNDATASIZE PUSH1 0x0 DUP1 RETURNDATACOPY RETURNDATASIZE PUSH1 0x0 REVERT JUMPDEST POP POP POP POP POP POP POP JUMP JUMPDEST PUSH1 0x1 SLOAD PUSH1 0x40 MLOAD PUSH4 0x7832E6E3 PUSH1 0xE0 SHL DUP2 MSTORE PUSH1 0x0 SWAP2 DUP3 SWAP2 PUSH1 0x1 PUSH1 0x1 PUSH1 0xA0 SHL SUB SWAP1 SWAP2 AND SWAP1 PUSH4 0x7832E6E3 SWAP1 PUSH2 0x762 SWAP1 DUP7 SWAP1 PUSH1 0x4 ADD PUSH2 0x18EF JUMP JUMPDEST PUSH1 0x20 PUSH1 0x40 MLOAD DUP1 DUP4 SUB DUP2 DUP7 GAS STATICCALL ISZERO DUP1 ISZERO PUSH2 0x77F JUMPI RETURNDATASIZE PUSH1 0x0 DUP1 RETURNDATACOPY RETURNDATASIZE PUSH1 0x0 REVERT JUMPDEST POP POP POP POP PUSH1 0x40 MLOAD RETURNDATASIZE PUSH1 0x1F NOT PUSH1 0x1F DUP3 ADD AND DUP3 ADD DUP1 PUSH1 0x40 MSTORE POP DUP2 ADD SWAP1 PUSH2 0x349 SWAP2 SWAP1 PUSH2 0x1D76 JUMP JUMPDEST PUSH1 0x40 DUP1 MLOAD PUSH1 0x20 DUP1 DUP3 ADD SWAP1 SWAP3 MSTORE PUSH1 0x0 SWAP1 MSTORE DUP3 MLOAD SWAP1 DUP4 ADD KECCAK256 DUP3 SWAP1 PUSH1 0x0 DUP1 MLOAD PUSH1 0x20 PUSH2 0x1E85 DUP4 CODECOPY DUP2 MLOAD SWAP2 MSTORE ADD PUSH2 0x7E7 JUMPI PUSH1 0x40 MLOAD PUSH3 0x461BCD PUSH1 0xE5 SHL DUP2 MSTORE PUSH1 0x4 ADD PUSH2 0x2D2 SWAP1 PUSH2 0x1A48 JUMP JUMPDEST PUSH1 0x1 SLOAD PUSH1 0x40 MLOAD PUSH4 0x4B22DC91 PUSH1 0xE0 SHL DUP2 MSTORE DUP5 SWAP2 PUSH1 0x1 PUSH1 0x1 PUSH1 0xA0 SHL SUB AND SWAP1 PUSH4 0x4B22DC91 SWAP1 PUSH2 0x817 SWAP1 DUP5 SWAP1 PUSH1 0x4 ADD PUSH2 0x18EF JUMP JUMPDEST PUSH1 0x20 PUSH1 0x40 MLOAD DUP1 DUP4 SUB DUP2 DUP7 GAS STATICCALL ISZERO DUP1 ISZERO PUSH2 0x834 JUMPI RETURNDATASIZE PUSH1 0x0 DUP1 RETURNDATACOPY RETURNDATASIZE PUSH1 0x0 REVERT JUMPDEST POP POP POP POP PUSH1 0x40 MLOAD RETURNDATASIZE PUSH1 0x1F NOT PUSH1 0x1F DUP3 ADD AND DUP3 ADD DUP1 PUSH1 0x40 MSTORE POP DUP2 ADD SWAP1 PUSH2 0x858 SWAP2 SWAP1 PUSH2 0x1D59 JUMP JUMPDEST PUSH1 0x1 PUSH1 0x1 PUSH1 0xA0 SHL SUB AND PUSH4 0x5AD70D12 PUSH1 0x40 MLOAD DUP2 PUSH4 0xFFFFFFFF AND PUSH1 0xE0 SHL DUP2 MSTORE PUSH1 0x4 ADD PUSH1 0x20 PUSH1 0x40 MLOAD DUP1 DUP4 SUB DUP2 DUP7 GAS STATICCALL ISZERO DUP1 ISZERO PUSH2 0x895 JUMPI RETURNDATASIZE PUSH1 0x0 DUP1 RETURNDATACOPY RETURNDATASIZE PUSH1 0x0 REVERT JUMPDEST POP POP POP POP PUSH1 0x40 MLOAD RETURNDATASIZE PUSH1 0x1F NOT PUSH1 0x1F DUP3 ADD AND DUP3 ADD DUP1 PUSH1 0x40 MSTORE POP DUP2 ADD SWAP1 PUSH2 0x8B9 SWAP2 SWAP1 PUSH2 0x1D76 JUMP JUMPDEST PUSH2 0x8D5 JUMPI PUSH1 0x40 MLOAD PUSH3 0x461BCD PUSH1 0xE5 SHL DUP2 MSTORE PUSH1 0x4 ADD PUSH2 0x2D2 SWAP1 PUSH2 0x1D93 JUMP JUMPDEST PUSH1 0x40 DUP1 MLOAD PUSH1 0x20 DUP1 DUP3 ADD SWAP1 SWAP3 MSTORE PUSH1 0x0 SWAP1 MSTORE DUP4 MLOAD SWAP1 DUP5 ADD KECCAK256 PUSH1 0x0 DUP1 MLOAD PUSH1 0x20 PUSH2 0x1E85 DUP4 CODECOPY DUP2 MLOAD SWAP2 MSTORE ADD PUSH2 0x947 JUMPI PUSH1 0x40 MLOAD PUSH3 0x461BCD PUSH1 0xE5 SHL DUP2 MSTORE PUSH1 0x20 PUSH1 0x4 DUP3 ADD MSTORE PUSH1 0x19 PUSH1 0x24 DUP3 ADD MSTORE PUSH32 0x506C656173652070726F76696465206D6F726520696E666F7300000000000000 PUSH1 0x44 DUP3 ADD MSTORE PUSH1 0x64 ADD PUSH2 0x2D2 JUMP JUMPDEST PUSH1 0x0 PUSH2 0x952 DUP6 PUSH2 0x14D5 JUMP JUMPDEST PUSH1 0x40 MLOAD PUSH4 0x134044A1 PUSH1 0xE0 SHL DUP2 MSTORE SWAP1 SWAP2 POP PUSH1 0x1 PUSH1 0x1 PUSH1 0xA0 SHL SUB DUP3 AND SWAP1 PUSH4 0x134044A1 SWAP1 PUSH2 0x981 SWAP1 DUP8 SWAP1 PUSH1 0x4 ADD PUSH2 0x18EF JUMP JUMPDEST PUSH1 0x0 PUSH1 0x40 MLOAD DUP1 DUP4 SUB DUP2 PUSH1 0x0 DUP8 DUP1 EXTCODESIZE ISZERO DUP1 ISZERO PUSH2 0x99B JUMPI PUSH1 0x0 DUP1 REVERT JUMPDEST POP GAS CALL ISZERO DUP1 ISZERO PUSH2 0x9AF JUMPI RETURNDATASIZE PUSH1 0x0 DUP1 RETURNDATACOPY RETURNDATASIZE PUSH1 0x0 REVERT JUMPDEST POP POP POP POP POP POP POP POP POP JUMP JUMPDEST PUSH1 0x40 DUP1 MLOAD PUSH1 0x20 DUP1 DUP3 ADD SWAP1 SWAP3 MSTORE PUSH1 0x0 SWAP1 MSTORE DUP3 MLOAD SWAP1 DUP4 ADD KECCAK256 DUP3 SWAP1 PUSH1 0x0 DUP1 MLOAD PUSH1 0x20 PUSH2 0x1E85 DUP4 CODECOPY DUP2 MLOAD SWAP2 MSTORE ADD PUSH2 0x9FE JUMPI PUSH1 0x40 MLOAD PUSH3 0x461BCD PUSH1 0xE5 SHL DUP2 MSTORE PUSH1 0x4 ADD PUSH2 0x2D2 SWAP1 PUSH2 0x1A48 JUMP JUMPDEST PUSH1 0x40 DUP1 MLOAD PUSH1 0x20 DUP1 DUP3 ADD SWAP1 SWAP3 MSTORE PUSH1 0x0 SWAP1 MSTORE DUP3 MLOAD SWAP1 DUP4 ADD KECCAK256 PUSH1 0x0 DUP1 MLOAD PUSH1 0x20 PUSH2 0x1E85 DUP4 CODECOPY DUP2 MLOAD SWAP2 MSTORE ADD PUSH2 0xA40 JUMPI PUSH1 0x40 MLOAD PUSH3 0x461BCD PUSH1 0xE5 SHL DUP2 MSTORE PUSH1 0x4 ADD PUSH2 0x2D2 SWAP1 PUSH2 0x1DCA JUMP JUMPDEST PUSH1 0x1 SLOAD PUSH1 0x40 MLOAD PUSH4 0x3DE4DE8F PUSH1 0xE0 SHL DUP2 MSTORE PUSH1 0x1 PUSH1 0x1 PUSH1 0xA0 SHL SUB SWAP1 SWAP2 AND SWAP1 PUSH4 0x3DE4DE8F SWAP1 PUSH2 0xA72 SWAP1 DUP7 SWAP1 DUP7 SWAP1 PUSH1 0x4 ADD PUSH2 0x1E0B JUMP JUMPDEST PUSH1 0x0 PUSH1 0x40 MLOAD DUP1 DUP4 SUB DUP2 PUSH1 0x0 DUP8 DUP1 EXTCODESIZE ISZERO DUP1 ISZERO PUSH2 0x710 JUMPI PUSH1 0x0 DUP1 REVERT JUMPDEST PUSH1 0x40 DUP1 MLOAD PUSH1 0x20 DUP1 DUP3 ADD SWAP1 SWAP3 MSTORE PUSH1 0x0 SWAP1 MSTORE DUP2 MLOAD SWAP1 DUP3 ADD KECCAK256 PUSH1 0x60 SWAP1 DUP3 SWAP1 PUSH1 0x0 DUP1 MLOAD PUSH1 0x20 PUSH2 0x1E85 DUP4 CODECOPY DUP2 MLOAD SWAP2 MSTORE ADD PUSH2 0xAD3 JUMPI PUSH1 0x40 MLOAD PUSH3 0x461BCD PUSH1 0xE5 SHL DUP2 MSTORE PUSH1 0x4 ADD PUSH2 0x2D2 SWAP1 PUSH2 0x1A48 JUMP JUMPDEST PUSH1 0x0 PUSH2 0xADE DUP5 PUSH2 0x14D5 JUMP JUMPDEST SWAP1 POP DUP1 PUSH1 0x1 PUSH1 0x1 PUSH1 0xA0 SHL SUB AND PUSH4 0xBD51B8E0 PUSH1 0x40 MLOAD DUP2 PUSH4 0xFFFFFFFF AND PUSH1 0xE0 SHL DUP2 MSTORE PUSH1 0x4 ADD PUSH1 0x0 PUSH1 0x40 MLOAD DUP1 DUP4 SUB DUP2 DUP7 GAS STATICCALL ISZERO DUP1 ISZERO PUSH2 0x3E2 JUMPI RETURNDATASIZE PUSH1 0x0 DUP1 RETURNDATACOPY RETURNDATASIZE PUSH1 0x0 REVERT JUMPDEST PUSH1 0x0 DUP1 SLOAD PUSH1 0x1 PUSH1 0x1 PUSH1 0xA0 SHL SUB AND CALLER EQ PUSH2 0xB79 JUMPI PUSH1 0x40 MLOAD PUSH3 0x461BCD PUSH1 0xE5 SHL DUP2 MSTORE PUSH1 0x20 PUSH1 0x4 DUP3 ADD MSTORE PUSH1 0x1E PUSH1 0x24 DUP3 ADD MSTORE PUSH32 0x596F75277265206E6F7420746865206F776E65722C2061626F7274696E670000 PUSH1 0x44 DUP3 ADD MSTORE PUSH1 0x64 ADD PUSH2 0x2D2 JUMP JUMPDEST PUSH1 0x1 PUSH1 0x1 PUSH1 0xA0 SHL SUB DUP4 AND PUSH1 0x0 SWAP1 DUP2 MSTORE PUSH1 0x2 PUSH1 0x20 MSTORE PUSH1 0x40 DUP2 KECCAK256 SWAP1 DUP4 PUSH1 0x3 DUP2 GT ISZERO PUSH2 0xBA4 JUMPI PUSH2 0xBA4 PUSH2 0x1E39 JUMP JUMPDEST PUSH1 0x3 DUP2 GT ISZERO PUSH2 0xBB5 JUMPI PUSH2 0xBB5 PUSH2 0x1E39 JUMP JUMPDEST DUP2 MSTORE PUSH1 0x20 DUP2 ADD SWAP2 SWAP1 SWAP2 MSTORE PUSH1 0x40 ADD PUSH1 0x0 KECCAK256 SLOAD PUSH1 0xFF AND SWAP4 SWAP3 POP POP POP JUMP JUMPDEST PUSH1 0x40 DUP1 MLOAD PUSH1 0x20 DUP1 DUP3 ADD SWAP1 SWAP3 MSTORE PUSH1 0x0 SWAP1 MSTORE DUP3 MLOAD SWAP1 DUP4 ADD KECCAK256 DUP3 SWAP1 PUSH1 0x0 DUP1 MLOAD PUSH1 0x20 PUSH2 0x1E85 DUP4 CODECOPY DUP2 MLOAD SWAP2 MSTORE ADD PUSH2 0xC14 JUMPI PUSH1 0x40 MLOAD PUSH3 0x461BCD PUSH1 0xE5 SHL DUP2 MSTORE PUSH1 0x4 ADD PUSH2 0x2D2 SWAP1 PUSH2 0x1A48 JUMP JUMPDEST PUSH1 0x1 SLOAD PUSH1 0x40 MLOAD PUSH4 0x4B22DC91 PUSH1 0xE0 SHL DUP2 MSTORE DUP5 SWAP2 PUSH1 0x1 PUSH1 0x1 PUSH1 0xA0 SHL SUB AND SWAP1 PUSH4 0x4B22DC91 SWAP1 PUSH2 0xC44 SWAP1 DUP5 SWAP1 PUSH1 0x4 ADD PUSH2 0x18EF JUMP JUMPDEST PUSH1 0x20 PUSH1 0x40 MLOAD DUP1 DUP4 SUB DUP2 DUP7 GAS STATICCALL ISZERO DUP1 ISZERO PUSH2 0xC61 JUMPI RETURNDATASIZE PUSH1 0x0 DUP1 RETURNDATACOPY RETURNDATASIZE PUSH1 0x0 REVERT JUMPDEST POP POP POP POP PUSH1 0x40 MLOAD RETURNDATASIZE PUSH1 0x1F NOT PUSH1 0x1F DUP3 ADD AND DUP3 ADD DUP1 PUSH1 0x40 MSTORE POP DUP2 ADD SWAP1 PUSH2 0xC85 SWAP2 SWAP1 PUSH2 0x1D59 JUMP JUMPDEST PUSH1 0x1 PUSH1 0x1 PUSH1 0xA0 SHL SUB AND PUSH4 0x5AD70D12 PUSH1 0x40 MLOAD DUP2 PUSH4 0xFFFFFFFF AND PUSH1 0xE0 SHL DUP2 MSTORE PUSH1 0x4 ADD PUSH1 0x20 PUSH1 0x40 MLOAD DUP1 DUP4 SUB DUP2 DUP7 GAS STATICCALL ISZERO DUP1 ISZERO PUSH2 0xCC2 JUMPI RETURNDATASIZE PUSH1 0x0 DUP1 RETURNDATACOPY RETURNDATASIZE PUSH1 0x0 REVERT JUMPDEST POP POP POP POP PUSH1 0x40 MLOAD RETURNDATASIZE PUSH1 0x1F NOT PUSH1 0x1F DUP3 ADD AND DUP3 ADD DUP1 PUSH1 0x40 MSTORE POP DUP2 ADD SWAP1 PUSH2 0xCE6 SWAP2 SWAP1 PUSH2 0x1D76 JUMP JUMPDEST PUSH2 0xD02 JUMPI PUSH1 0x40 MLOAD PUSH3 0x461BCD PUSH1 0xE5 SHL DUP2 MSTORE PUSH1 0x4 ADD PUSH2 0x2D2 SWAP1 PUSH2 0x1D93 JUMP JUMPDEST PUSH1 0x40 DUP1 MLOAD PUSH1 0x20 DUP1 DUP3 ADD SWAP1 SWAP3 MSTORE PUSH1 0x0 SWAP1 MSTORE DUP4 MLOAD SWAP1 DUP5 ADD KECCAK256 PUSH1 0x0 DUP1 MLOAD PUSH1 0x20 PUSH2 0x1E85 DUP4 CODECOPY DUP2 MLOAD SWAP2 MSTORE ADD PUSH2 0xD74 JUMPI PUSH1 0x40 MLOAD PUSH3 0x461BCD PUSH1 0xE5 SHL DUP2 MSTORE PUSH1 0x20 PUSH1 0x4 DUP3 ADD MSTORE PUSH1 0x1F PUSH1 0x24 DUP3 ADD MSTORE PUSH32 0x506C656173652070726F76696465206120636F7272656374207265706F727400 PUSH1 0x44 DUP3 ADD MSTORE PUSH1 0x64 ADD PUSH2 0x2D2 JUMP JUMPDEST PUSH1 0x0 PUSH2 0xD7F DUP6 PUSH2 0x14D5 JUMP JUMPDEST PUSH1 0x40 MLOAD PUSH4 0x2BE527F3 PUSH1 0xE1 SHL DUP2 MSTORE SWAP1 SWAP2 POP PUSH1 0x1 PUSH1 0x1 PUSH1 0xA0 SHL SUB DUP3 AND SWAP1 PUSH4 0x57CA4FE6 SWAP1 PUSH2 0x981 SWAP1 DUP8 SWAP1 PUSH1 0x4 ADD PUSH2 0x18EF JUMP JUMPDEST PUSH1 0x0 DUP2 PUSH1 0x40 MLOAD DUP1 PUSH1 0x20 ADD PUSH1 0x40 MSTORE DUP1 PUSH1 0x0 DUP2 MSTORE POP DUP1 MLOAD SWAP1 PUSH1 0x20 ADD KECCAK256 DUP2 DUP1 MLOAD SWAP1 PUSH1 0x20 ADD KECCAK256 SUB PUSH2 0xDED JUMPI PUSH1 0x40 MLOAD PUSH3 0x461BCD PUSH1 0xE5 SHL DUP2 MSTORE PUSH1 0x4 ADD PUSH2 0x2D2 SWAP1 PUSH2 0x1A48 JUMP JUMPDEST PUSH2 0xDF6 DUP4 PUSH2 0x14D5 JUMP JUMPDEST PUSH1 0x1 PUSH1 0x1 PUSH1 0xA0 SHL SUB AND PUSH4 0x888DBBC1 PUSH1 0x40 MLOAD DUP2 PUSH4 0xFFFFFFFF AND PUSH1 0xE0 SHL DUP2 MSTORE PUSH1 0x4 ADD PUSH1 0x20 PUSH1 0x40 MLOAD DUP1 DUP4 SUB DUP2 DUP7 GAS STATICCALL ISZERO DUP1 ISZERO PUSH2 0x77F JUMPI RETURNDATASIZE PUSH1 0x0 DUP1 RETURNDATACOPY RETURNDATASIZE PUSH1 0x0 REVERT JUMPDEST PUSH1 0x40 DUP1 MLOAD PUSH1 0x20 DUP1 DUP3 ADD SWAP1 SWAP3 MSTORE PUSH1 0x0 SWAP1 MSTORE DUP2 MLOAD SWAP1 DUP3 ADD KECCAK256 PUSH1 0x60 SWAP1 DUP3 SWAP1 PUSH1 0x0 DUP1 MLOAD PUSH1 0x20 PUSH2 0x1E85 DUP4 CODECOPY DUP2 MLOAD SWAP2 MSTORE ADD PUSH2 0xE7A JUMPI PUSH1 0x40 MLOAD PUSH3 0x461BCD PUSH1 0xE5 SHL DUP2 MSTORE PUSH1 0x4 ADD PUSH2 0x2D2 SWAP1 PUSH2 0x1A48 JUMP JUMPDEST PUSH1 0x0 PUSH2 0xE85 DUP5 PUSH2 0x14D5 JUMP JUMPDEST SWAP1 POP DUP1 PUSH1 0x1 PUSH1 0x1 PUSH1 0xA0 SHL SUB AND PUSH4 0x643D6DC0 PUSH1 0x40 MLOAD DUP2 PUSH4 0xFFFFFFFF AND PUSH1 0xE0 SHL DUP2 MSTORE PUSH1 0x4 ADD PUSH1 0x0 PUSH1 0x40 MLOAD DUP1 DUP4 SUB DUP2 DUP7 GAS STATICCALL ISZERO DUP1 ISZERO PUSH2 0xEC5 JUMPI RETURNDATASIZE PUSH1 0x0 DUP1 RETURNDATACOPY RETURNDATASIZE PUSH1 0x0 REVERT JUMPDEST POP POP POP POP PUSH1 0x40 MLOAD RETURNDATASIZE PUSH1 0x0 DUP3 RETURNDATACOPY PUSH1 0x1F RETURNDATASIZE SWAP1 DUP2 ADD PUSH1 0x1F NOT AND DUP3 ADD PUSH1 0x40 MSTORE PUSH2 0x40A SWAP2 SWAP1 DUP2 ADD SWAP1 PUSH2 0x1E4F JUMP JUMPDEST PUSH1 0x40 DUP1 MLOAD PUSH1 0x20 DUP1 DUP3 ADD SWAP1 SWAP3 MSTORE PUSH1 0x0 SWAP1 MSTORE DUP5 MLOAD SWAP1 DUP6 ADD KECCAK256 DUP5 SWAP1 PUSH1 0x0 DUP1 MLOAD PUSH1 0x20 PUSH2 0x1E85 DUP4 CODECOPY DUP2 MLOAD SWAP2 MSTORE ADD PUSH2 0xF31 JUMPI PUSH1 0x40 MLOAD PUSH3 0x461BCD PUSH1 0xE5 SHL DUP2 MSTORE PUSH1 0x4 ADD PUSH2 0x2D2 SWAP1 PUSH2 0x1A48 JUMP JUMPDEST PUSH1 0x1 SLOAD PUSH1 0x40 MLOAD PUSH4 0x4B22DC91 PUSH1 0xE0 SHL DUP2 MSTORE DUP7 SWAP2 PUSH1 0x1 PUSH1 0x1 PUSH1 0xA0 SHL SUB AND SWAP1 PUSH4 0x4B22DC91 SWAP1 PUSH2 0xF61 SWAP1 DUP5 SWAP1 PUSH1 0x4 ADD PUSH2 0x18EF JUMP JUMPDEST PUSH1 0x20 PUSH1 0x40 MLOAD DUP1 DUP4 SUB DUP2 DUP7 GAS STATICCALL ISZERO DUP1 ISZERO PUSH2 0xF7E JUMPI RETURNDATASIZE PUSH1 0x0 DUP1 RETURNDATACOPY RETURNDATASIZE PUSH1 0x0 REVERT JUMPDEST POP POP POP POP PUSH1 0x40 MLOAD RETURNDATASIZE PUSH1 0x1F NOT PUSH1 0x1F DUP3 ADD AND DUP3 ADD DUP1 PUSH1 0x40 MSTORE POP DUP2 ADD SWAP1 PUSH2 0xFA2 SWAP2 SWAP1 PUSH2 0x1D59 JUMP JUMPDEST PUSH1 0x1 PUSH1 0x1 PUSH1 0xA0 SHL SUB AND PUSH4 0x5AD70D12 PUSH1 0x40 MLOAD DUP2 PUSH4 0xFFFFFFFF AND PUSH1 0xE0 SHL DUP2 MSTORE PUSH1 0x4 ADD PUSH1 0x20 PUSH1 0x40 MLOAD DUP1 DUP4 SUB DUP2 DUP7 GAS STATICCALL ISZERO DUP1 ISZERO PUSH2 0xFDF JUMPI RETURNDATASIZE PUSH1 0x0 DUP1 RETURNDATACOPY RETURNDATASIZE PUSH1 0x0 REVERT JUMPDEST POP POP POP POP PUSH1 0x40 MLOAD RETURNDATASIZE PUSH1 0x1F NOT PUSH1 0x1F DUP3 ADD AND DUP3 ADD DUP1 PUSH1 0x40 MSTORE POP DUP2 ADD SWAP1 PUSH2 0x1003 SWAP2 SWAP1 PUSH2 0x1D76 JUMP JUMPDEST PUSH2 0x101F JUMPI PUSH1 0x40 MLOAD PUSH3 0x461BCD PUSH1 0xE5 SHL DUP2 MSTORE PUSH1 0x4 ADD PUSH2 0x2D2 SWAP1 PUSH2 0x1D93 JUMP JUMPDEST PUSH1 0x1 PUSH1 0x1 PUSH1 0xA0 SHL SUB DUP6 AND PUSH2 0x1045 JUMPI PUSH1 0x40 MLOAD PUSH3 0x461BCD PUSH1 0xE5 SHL DUP2 MSTORE PUSH1 0x4 ADD PUSH2 0x2D2 SWAP1 PUSH2 0x1DCA JUMP JUMPDEST PUSH1 0x40 DUP1 MLOAD PUSH1 0x20 DUP1 DUP3 ADD SWAP1 SWAP3 MSTORE PUSH1 0x0 SWAP1 MSTORE DUP5 MLOAD SWAP1 DUP6 ADD KECCAK256 PUSH1 0x0 DUP1 MLOAD PUSH1 0x20 PUSH2 0x1E85 DUP4 CODECOPY DUP2 MLOAD SWAP2 MSTORE ADD PUSH2 0x10C9 JUMPI PUSH1 0x40 MLOAD PUSH3 0x461BCD PUSH1 0xE5 SHL DUP2 MSTORE PUSH1 0x20 PUSH1 0x4 DUP3 ADD MSTORE PUSH1 0x29 PUSH1 0x24 DUP3 ADD MSTORE PUSH32 0x506C656173652066696C6C20746865207472616E73616374696F6E20696E666F PUSH1 0x44 DUP3 ADD MSTORE PUSH9 0x399039B2B1BA34B7B7 PUSH1 0xB9 SHL PUSH1 0x64 DUP3 ADD MSTORE PUSH1 0x84 ADD PUSH2 0x2D2 JUMP JUMPDEST PUSH1 0x40 DUP1 MLOAD PUSH1 0x20 DUP1 DUP3 ADD SWAP1 SWAP3 MSTORE PUSH1 0x0 SWAP1 MSTORE DUP4 MLOAD SWAP1 DUP5 ADD KECCAK256 PUSH1 0x0 DUP1 MLOAD PUSH1 0x20 PUSH2 0x1E85 DUP4 CODECOPY DUP2 MLOAD SWAP2 MSTORE ADD PUSH2 0x114D JUMPI PUSH1 0x40 MLOAD PUSH3 0x461BCD PUSH1 0xE5 SHL DUP2 MSTORE PUSH1 0x20 PUSH1 0x4 DUP3 ADD MSTORE PUSH1 0x29 PUSH1 0x24 DUP3 ADD MSTORE PUSH32 0x546865206D6174726963756C6174696F6E2073656374696F6E2063616E6E6F74 PUSH1 0x44 DUP3 ADD MSTORE PUSH9 0x20626520626C616E6B PUSH1 0xB8 SHL PUSH1 0x64 DUP3 ADD MSTORE PUSH1 0x84 ADD PUSH2 0x2D2 JUMP JUMPDEST PUSH1 0x0 PUSH2 0x1158 DUP8 PUSH2 0x14D5 JUMP JUMPDEST PUSH1 0x40 MLOAD PUSH4 0x13AF4035 PUSH1 0xE0 SHL DUP2 MSTORE PUSH1 0x1 PUSH1 0x1 PUSH1 0xA0 SHL SUB DUP9 DUP2 AND PUSH1 0x4 DUP4 ADD MSTORE SWAP2 SWAP3 POP SWAP1 DUP3 AND SWAP1 PUSH4 0x13AF4035 SWAP1 PUSH1 0x24 ADD PUSH1 0x0 PUSH1 0x40 MLOAD DUP1 DUP4 SUB DUP2 PUSH1 0x0 DUP8 DUP1 EXTCODESIZE ISZERO DUP1 ISZERO PUSH2 0x119F JUMPI PUSH1 0x0 DUP1 REVERT JUMPDEST POP GAS CALL ISZERO DUP1 ISZERO PUSH2 0x11B3 JUMPI RETURNDATASIZE PUSH1 0x0 DUP1 RETURNDATACOPY RETURNDATASIZE PUSH1 0x0 REVERT JUMPDEST POP POP PUSH1 0x40 MLOAD PUSH4 0x7A64F113 PUSH1 0xE0 SHL DUP2 MSTORE PUSH1 0x1 PUSH1 0x1 PUSH1 0xA0 SHL SUB DUP5 AND SWAP3 POP PUSH4 0x7A64F113 SWAP2 POP PUSH2 0x11E3 SWAP1 DUP9 SWAP1 PUSH1 0x4 ADD PUSH2 0x18EF JUMP JUMPDEST PUSH1 0x0 PUSH1 0x40 MLOAD DUP1 DUP4 SUB DUP2 PUSH1 0x0 DUP8 DUP1 EXTCODESIZE ISZERO DUP1 ISZERO PUSH2 0x11FD JUMPI PUSH1 0x0 DUP1 REVERT JUMPDEST POP GAS CALL ISZERO DUP1 ISZERO PUSH2 0x1211 JUMPI RETURNDATASIZE PUSH1 0x0 DUP1 RETURNDATACOPY RETURNDATASIZE PUSH1 0x0 REVERT JUMPDEST POP POP PUSH1 0x40 MLOAD PUSH4 0x2E8B71D3 PUSH1 0xE0 SHL DUP2 MSTORE PUSH1 0x1 PUSH1 0x1 PUSH1 0xA0 SHL SUB DUP5 AND SWAP3 POP PUSH4 0x2E8B71D3 SWAP2 POP PUSH2 0x1241 SWAP1 DUP8 SWAP1 PUSH1 0x4 ADD PUSH2 0x18EF JUMP JUMPDEST PUSH1 0x0 PUSH1 0x40 MLOAD DUP1 DUP4 SUB DUP2 PUSH1 0x0 DUP8 DUP1 EXTCODESIZE ISZERO DUP1 ISZERO PUSH2 0x125B JUMPI PUSH1 0x0 DUP1 REVERT JUMPDEST POP GAS CALL ISZERO DUP1 ISZERO PUSH2 0x126F JUMPI RETURNDATASIZE PUSH1 0x0 DUP1 RETURNDATACOPY RETURNDATASIZE PUSH1 0x0 REVERT JUMPDEST POP POP POP POP POP POP POP POP POP POP POP JUMP JUMPDEST PUSH1 0x0 SLOAD PUSH1 0x1 PUSH1 0x1 PUSH1 0xA0 SHL SUB AND CALLER EQ PUSH2 0x12D6 JUMPI PUSH1 0x40 MLOAD PUSH3 0x461BCD PUSH1 0xE5 SHL DUP2 MSTORE PUSH1 0x20 PUSH1 0x4 DUP3 ADD MSTORE PUSH1 0x1E PUSH1 0x24 DUP3 ADD MSTORE PUSH32 0x596F75277265206E6F7420746865206F776E65722C2061626F7274696E670000 PUSH1 0x44 DUP3 ADD MSTORE PUSH1 0x64 ADD PUSH2 0x2D2 JUMP JUMPDEST PUSH1 0x1 PUSH1 0x1 PUSH1 0xA0 SHL SUB DUP4 AND PUSH1 0x0 SWAP1 DUP2 MSTORE PUSH1 0x2 PUSH1 0x20 MSTORE PUSH1 0x40 DUP2 KECCAK256 DUP3 SWAP2 DUP5 PUSH1 0x3 DUP2 GT ISZERO PUSH2 0x1302 JUMPI PUSH2 0x1302 PUSH2 0x1E39 JUMP JUMPDEST PUSH1 0x3 DUP2 GT ISZERO PUSH2 0x1313 JUMPI PUSH2 0x1313 PUSH2 0x1E39 JUMP JUMPDEST DUP2 MSTORE PUSH1 0x20 DUP2 ADD SWAP2 SWAP1 SWAP2 MSTORE PUSH1 0x40 ADD PUSH1 0x0 KECCAK256 DUP1 SLOAD PUSH1 0xFF NOT AND SWAP2 ISZERO ISZERO SWAP2 SWAP1 SWAP2 OR SWAP1 SSTORE POP POP POP JUMP JUMPDEST PUSH1 0x40 DUP1 MLOAD PUSH1 0x20 DUP1 DUP3 ADD SWAP1 SWAP3 MSTORE PUSH1 0x0 SWAP1 MSTORE DUP3 MLOAD SWAP1 DUP4 ADD KECCAK256 DUP3 SWAP1 PUSH1 0x0 DUP1 MLOAD PUSH1 0x20 PUSH2 0x1E85 DUP4 CODECOPY DUP2 MLOAD SWAP2 MSTORE ADD PUSH2 0x137B JUMPI PUSH1 0x40 MLOAD PUSH3 0x461BCD PUSH1 0xE5 SHL DUP2 MSTORE PUSH1 0x4 ADD PUSH2 0x2D2 SWAP1 PUSH2 0x1A48 JUMP JUMPDEST PUSH1 0x1 SLOAD PUSH1 0x40 MLOAD PUSH4 0x4B22DC91 PUSH1 0xE0 SHL DUP2 MSTORE DUP5 SWAP2 PUSH1 0x1 PUSH1 0x1 PUSH1 0xA0 SHL SUB AND SWAP1 PUSH4 0x4B22DC91 SWAP1 PUSH2 0x13AB SWAP1 DUP5 SWAP1 PUSH1 0x4 ADD PUSH2 0x18EF JUMP JUMPDEST PUSH1 0x20 PUSH1 0x40 MLOAD DUP1 DUP4 SUB DUP2 DUP7 GAS STATICCALL ISZERO DUP1 ISZERO PUSH2 0x13C8 JUMPI RETURNDATASIZE PUSH1 0x0 DUP1 RETURNDATACOPY RETURNDATASIZE PUSH1 0x0 REVERT JUMPDEST POP POP POP POP PUSH1 0x40 MLOAD RETURNDATASIZE PUSH1 0x1F NOT PUSH1 0x1F DUP3 ADD AND DUP3 ADD DUP1 PUSH1 0x40 MSTORE POP DUP2 ADD SWAP1 PUSH2 0x13EC SWAP2 SWAP1 PUSH2 0x1D59 JUMP JUMPDEST PUSH1 0x1 PUSH1 0x1 PUSH1 0xA0 SHL SUB AND PUSH4 0x5AD70D12 PUSH1 0x40 MLOAD DUP2 PUSH4 0xFFFFFFFF AND PUSH1 0xE0 SHL DUP2 MSTORE PUSH1 0x4 ADD PUSH1 0x20 PUSH1 0x40 MLOAD DUP1 DUP4 SUB DUP2 DUP7 GAS STATICCALL ISZERO DUP1 ISZERO PUSH2 0x1429 JUMPI RETURNDATASIZE PUSH1 0x0 DUP1 RETURNDATACOPY RETURNDATASIZE PUSH1 0x0 REVERT JUMPDEST POP POP POP POP PUSH1 0x40 MLOAD RETURNDATASIZE PUSH1 0x1F NOT PUSH1 0x1F DUP3 ADD AND DUP3 ADD DUP1 PUSH1 0x40 MSTORE POP DUP2 ADD SWAP1 PUSH2 0x144D SWAP2 SWAP1 PUSH2 0x1D76 JUMP JUMPDEST PUSH2 0x1469 JUMPI PUSH1 0x40 MLOAD PUSH3 0x461BCD PUSH1 0xE5 SHL DUP2 MSTORE PUSH1 0x4 ADD PUSH2 0x2D2 SWAP1 PUSH2 0x1D93 JUMP JUMPDEST PUSH2 0x1472 DUP5 PUSH2 0x14D5 JUMP JUMPDEST PUSH1 0x40 MLOAD PUSH4 0xABA0BC9F PUSH1 0xE0 SHL DUP2 MSTORE DUP5 ISZERO ISZERO PUSH1 0x4 DUP3 ADD MSTORE PUSH1 0x1 PUSH1 0x1 PUSH1 0xA0 SHL SUB SWAP2 SWAP1 SWAP2 AND SWAP1 PUSH4 0xABA0BC9F SWAP1 PUSH1 0x24 ADD PUSH1 0x0 PUSH1 0x40 MLOAD DUP1 DUP4 SUB DUP2 PUSH1 0x0 DUP8 DUP1 EXTCODESIZE ISZERO DUP1 ISZERO PUSH2 0x14B7 JUMPI PUSH1 0x0 DUP1 REVERT JUMPDEST POP GAS CALL ISZERO DUP1 ISZERO PUSH2 0x14CB JUMPI RETURNDATASIZE PUSH1 0x0 DUP1 RETURNDATACOPY RETURNDATASIZE PUSH1 0x0 REVERT JUMPDEST POP POP POP POP POP POP POP POP JUMP JUMPDEST PUSH1 0x0 DUP2 PUSH1 0x40 MLOAD DUP1 PUSH1 0x20 ADD PUSH1 0x40 MSTORE DUP1 PUSH1 0x0 DUP2 MSTORE POP DUP1 MLOAD SWAP1 PUSH1 0x20 ADD KECCAK256 DUP2 DUP1 MLOAD SWAP1 PUSH1 0x20 ADD KECCAK256 SUB PUSH2 0x1514 JUMPI PUSH1 0x40 MLOAD PUSH3 0x461BCD PUSH1 0xE5 SHL DUP2 MSTORE PUSH1 0x4 ADD PUSH2 0x2D2 SWAP1 PUSH2 0x1A48 JUMP JUMPDEST PUSH1 0x1 SLOAD PUSH1 0x40 MLOAD PUSH4 0x4B22DC91 PUSH1 0xE0 SHL DUP2 MSTORE PUSH1 0x0 SWAP2 PUSH1 0x1 PUSH1 0x1 PUSH1 0xA0 SHL SUB AND SWAP1 PUSH4 0x4B22DC91 SWAP1 PUSH2 0x1545 SWAP1 DUP8 SWAP1 PUSH1 0x4 ADD PUSH2 0x18EF JUMP JUMPDEST PUSH1 0x20 PUSH1 0x40 MLOAD DUP1 DUP4 SUB DUP2 DUP7 GAS STATICCALL ISZERO DUP1 ISZERO PUSH2 0x1562 JUMPI RETURNDATASIZE PUSH1 0x0 DUP1 RETURNDATACOPY RETURNDATASIZE PUSH1 0x0 REVERT JUMPDEST POP POP POP POP PUSH1 0x40 MLOAD RETURNDATASIZE PUSH1 0x1F NOT PUSH1 0x1F DUP3 ADD AND DUP3 ADD DUP1 PUSH1 0x40 MSTORE POP DUP2 ADD SWAP1 PUSH2 0x40A SWAP2 SWAP1 PUSH2 0x1D59 JUMP JUMPDEST PUSH4 0x4E487B71 PUSH1 0xE0 SHL PUSH1 0x0 MSTORE PUSH1 0x41 PUSH1 0x4 MSTORE PUSH1 0x24 PUSH1 0x0 REVERT JUMPDEST PUSH1 0x40 MLOAD PUSH1 0x1F DUP3 ADD PUSH1 0x1F NOT AND DUP2 ADD PUSH8 0xFFFFFFFFFFFFFFFF DUP2 GT DUP3 DUP3 LT OR ISZERO PUSH2 0x15C5 JUMPI PUSH2 0x15C5 PUSH2 0x1586 JUMP JUMPDEST PUSH1 0x40 MSTORE SWAP2 SWAP1 POP JUMP JUMPDEST PUSH1 0x0 PUSH8 0xFFFFFFFFFFFFFFFF DUP3 GT ISZERO PUSH2 0x15E7 JUMPI PUSH2 0x15E7 PUSH2 0x1586 JUMP JUMPDEST POP PUSH1 0x1F ADD PUSH1 0x1F NOT AND PUSH1 0x20 ADD SWAP1 JUMP JUMPDEST PUSH1 0x0 DUP3 PUSH1 0x1F DUP4 ADD SLT PUSH2 0x1606 JUMPI PUSH1 0x0 DUP1 REVERT JUMPDEST DUP2 CALLDATALOAD PUSH2 0x1619 PUSH2 0x1614 DUP3 PUSH2 0x15CD JUMP JUMPDEST PUSH2 0x159C JUMP JUMPDEST DUP2 DUP2 MSTORE DUP5 PUSH1 0x20 DUP4 DUP7 ADD ADD GT ISZERO PUSH2 0x162E JUMPI PUSH1 0x0 DUP1 REVERT JUMPDEST DUP2 PUSH1 0x20 DUP6 ADD PUSH1 0x20 DUP4 ADD CALLDATACOPY PUSH1 0x0 SWAP2 DUP2 ADD PUSH1 0x20 ADD SWAP2 SWAP1 SWAP2 MSTORE SWAP4 SWAP3 POP POP POP JUMP JUMPDEST PUSH1 0x0 PUSH1 0x20 DUP3 DUP5 SUB SLT ISZERO PUSH2 0x165D JUMPI PUSH1 0x0 DUP1 REVERT JUMPDEST DUP2 CALLDATALOAD PUSH8 0xFFFFFFFFFFFFFFFF DUP2 GT ISZERO PUSH2 0x1674 JUMPI PUSH1 0x0 DUP1 REVERT JUMPDEST PUSH2 0x40A DUP5 DUP3 DUP6 ADD PUSH2 0x15F5 JUMP JUMPDEST PUSH1 0x0 DUP2 MLOAD DUP1 DUP5 MSTORE PUSH1 0x20 DUP1 DUP6 ADD SWAP5 POP DUP1 DUP5 ADD PUSH1 0x0 JUMPDEST DUP4 DUP2 LT ISZERO PUSH2 0x16B9 JUMPI DUP2 MLOAD PUSH1 0x1 PUSH1 0x1 PUSH1 0xA0 SHL SUB AND DUP8 MSTORE SWAP6 DUP3 ADD SWAP6 SWAP1 DUP3 ADD SWAP1 PUSH1 0x1 ADD PUSH2 0x1694 JUMP JUMPDEST POP SWAP5 SWAP6 SWAP5 POP POP POP POP POP JUMP JUMPDEST PUSH1 0x20 DUP2 MSTORE PUSH1 0x0 PUSH2 0x349 PUSH1 0x20 DUP4 ADD DUP5 PUSH2 0x1680 JUMP JUMPDEST PUSH1 0x0 JUMPDEST DUP4 DUP2 LT ISZERO PUSH2 0x16F2 JUMPI DUP2 DUP2 ADD MLOAD DUP4 DUP3 ADD MSTORE PUSH1 0x20 ADD PUSH2 0x16DA JUMP JUMPDEST POP POP PUSH1 0x0 SWAP2 ADD MSTORE JUMP JUMPDEST PUSH1 0x0 DUP2 MLOAD DUP1 DUP5 MSTORE PUSH2 0x1713 DUP2 PUSH1 0x20 DUP7 ADD PUSH1 0x20 DUP7 ADD PUSH2 0x16D7 JUMP JUMPDEST PUSH1 0x1F ADD PUSH1 0x1F NOT AND SWAP3 SWAP1 SWAP3 ADD PUSH1 0x20 ADD SWAP3 SWAP2 POP POP JUMP JUMPDEST PUSH1 0x0 DUP3 DUP3 MLOAD DUP1 DUP6 MSTORE PUSH1 0x20 DUP1 DUP7 ADD SWAP6 POP DUP1 DUP3 PUSH1 0x5 SHL DUP5 ADD ADD DUP2 DUP7 ADD PUSH1 0x0 JUMPDEST DUP5 DUP2 LT ISZERO PUSH2 0x1772 JUMPI PUSH1 0x1F NOT DUP7 DUP5 SUB ADD DUP10 MSTORE PUSH2 0x1760 DUP4 DUP4 MLOAD PUSH2 0x16FB JUMP JUMPDEST SWAP9 DUP5 ADD SWAP9 SWAP3 POP SWAP1 DUP4 ADD SWAP1 PUSH1 0x1 ADD PUSH2 0x1744 JUMP JUMPDEST POP SWAP1 SWAP8 SWAP7 POP POP POP POP POP POP POP JUMP JUMPDEST PUSH1 0x20 DUP2 MSTORE PUSH1 0x0 PUSH2 0x349 PUSH1 0x20 DUP4 ADD DUP5 PUSH2 0x1727 JUMP JUMPDEST PUSH1 0x0 PUSH2 0x100 DUP11 ISZERO ISZERO DUP4 MSTORE DUP1 PUSH1 0x20 DUP5 ADD MSTORE PUSH2 0x17AE DUP2 DUP5 ADD DUP12 PUSH2 0x16FB JUMP JUMPDEST SWAP1 POP DUP3 DUP2 SUB PUSH1 0x40 DUP5 ADD MSTORE PUSH2 0x17C2 DUP2 DUP11 PUSH2 0x1727 JUMP JUMPDEST SWAP1 POP DUP3 DUP2 SUB PUSH1 0x60 DUP5 ADD MSTORE PUSH2 0x17D6 DUP2 DUP10 PUSH2 0x1680 JUMP JUMPDEST SWAP1 POP DUP3 DUP2 SUB PUSH1 0x80 DUP5 ADD MSTORE PUSH2 0x17EA DUP2 DUP9 PUSH2 0x1727 JUMP JUMPDEST SWAP1 POP DUP3 DUP2 SUB PUSH1 0xA0 DUP5 ADD MSTORE PUSH2 0x17FE DUP2 DUP8 PUSH2 0x1727 JUMP JUMPDEST SWAP1 POP DUP3 DUP2 SUB PUSH1 0xC0 DUP5 ADD MSTORE PUSH2 0x1812 DUP2 DUP7 PUSH2 0x1727 JUMP JUMPDEST SWAP2 POP POP DUP3 ISZERO ISZERO PUSH1 0xE0 DUP4 ADD MSTORE SWAP10 SWAP9 POP POP POP POP POP POP POP POP POP JUMP JUMPDEST PUSH1 0x0 DUP1 PUSH1 0x40 DUP4 DUP6 SUB SLT ISZERO PUSH2 0x183D JUMPI PUSH1 0x0 DUP1 REVERT JUMPDEST DUP3 CALLDATALOAD PUSH8 0xFFFFFFFFFFFFFFFF DUP1 DUP3 GT ISZERO PUSH2 0x1855 JUMPI PUSH1 0x0 DUP1 REVERT JUMPDEST PUSH2 0x1861 DUP7 DUP4 DUP8 ADD PUSH2 0x15F5 JUMP JUMPDEST SWAP4 POP PUSH1 0x20 DUP6 ADD CALLDATALOAD SWAP2 POP DUP1 DUP3 GT ISZERO PUSH2 0x1877 JUMPI PUSH1 0x0 DUP1 REVERT JUMPDEST POP PUSH2 0x1884 DUP6 DUP3 DUP7 ADD PUSH2 0x15F5 JUMP JUMPDEST SWAP2 POP POP SWAP3 POP SWAP3 SWAP1 POP JUMP JUMPDEST PUSH1 0x1 PUSH1 0x1 PUSH1 0xA0 SHL SUB DUP2 AND DUP2 EQ PUSH2 0x18A3 JUMPI PUSH1 0x0 DUP1 REVERT JUMPDEST POP JUMP JUMPDEST DUP1 CALLDATALOAD PUSH1 0x4 DUP2 LT PUSH2 0x18B5 JUMPI PUSH1 0x0 DUP1 REVERT JUMPDEST SWAP2 SWAP1 POP JUMP JUMPDEST PUSH1 0x0 DUP1 PUSH1 0x40 DUP4 DUP6 SUB SLT ISZERO PUSH2 0x18CD JUMPI PUSH1 0x0 DUP1 REVERT JUMPDEST DUP3 CALLDATALOAD PUSH2 0x18D8 DUP2 PUSH2 0x188E JUMP JUMPDEST SWAP2 POP PUSH2 0x18E6 PUSH1 0x20 DUP5 ADD PUSH2 0x18A6 JUMP JUMPDEST SWAP1 POP SWAP3 POP SWAP3 SWAP1 POP JUMP JUMPDEST PUSH1 0x20 DUP2 MSTORE PUSH1 0x0 PUSH2 0x349 PUSH1 0x20 DUP4 ADD DUP5 PUSH2 0x16FB JUMP JUMPDEST PUSH1 0x0 DUP1 PUSH1 0x0 DUP1 PUSH1 0x80 DUP6 DUP8 SUB SLT ISZERO PUSH2 0x1918 JUMPI PUSH1 0x0 DUP1 REVERT JUMPDEST DUP5 CALLDATALOAD PUSH8 0xFFFFFFFFFFFFFFFF DUP1 DUP3 GT ISZERO PUSH2 0x1930 JUMPI PUSH1 0x0 DUP1 REVERT JUMPDEST PUSH2 0x193C DUP9 DUP4 DUP10 ADD PUSH2 0x15F5 JUMP JUMPDEST SWAP6 POP PUSH1 0x20 DUP8 ADD CALLDATALOAD SWAP2 POP PUSH2 0x194E DUP3 PUSH2 0x188E JUMP JUMPDEST SWAP1 SWAP4 POP PUSH1 0x40 DUP7 ADD CALLDATALOAD SWAP1 DUP1 DUP3 GT ISZERO PUSH2 0x1964 JUMPI PUSH1 0x0 DUP1 REVERT JUMPDEST PUSH2 0x1970 DUP9 DUP4 DUP10 ADD PUSH2 0x15F5 JUMP JUMPDEST SWAP4 POP PUSH1 0x60 DUP8 ADD CALLDATALOAD SWAP2 POP DUP1 DUP3 GT ISZERO PUSH2 0x1986 JUMPI PUSH1 0x0 DUP1 REVERT JUMPDEST POP PUSH2 0x1993 DUP8 DUP3 DUP9 ADD PUSH2 0x15F5 JUMP JUMPDEST SWAP2 POP POP SWAP3 SWAP6 SWAP2 SWAP5 POP SWAP3 POP JUMP JUMPDEST DUP1 ISZERO ISZERO DUP2 EQ PUSH2 0x18A3 JUMPI PUSH1 0x0 DUP1 REVERT JUMPDEST PUSH1 0x0 DUP1 PUSH1 0x0 PUSH1 0x60 DUP5 DUP7 SUB SLT ISZERO PUSH2 0x19C2 JUMPI PUSH1 0x0 DUP1 REVERT JUMPDEST DUP4 CALLDATALOAD PUSH2 0x19CD DUP2 PUSH2 0x188E JUMP JUMPDEST SWAP3 POP PUSH2 0x19DB PUSH1 0x20 DUP6 ADD PUSH2 0x18A6 JUMP JUMPDEST SWAP2 POP PUSH1 0x40 DUP5 ADD CALLDATALOAD PUSH2 0x19EB DUP2 PUSH2 0x199F JUMP JUMPDEST DUP1 SWAP2 POP POP SWAP3 POP SWAP3 POP SWAP3 JUMP JUMPDEST PUSH1 0x0 DUP1 PUSH1 0x40 DUP4 DUP6 SUB SLT ISZERO PUSH2 0x1A09 JUMPI PUSH1 0x0 DUP1 REVERT JUMPDEST DUP3 CALLDATALOAD PUSH8 0xFFFFFFFFFFFFFFFF DUP2 GT ISZERO PUSH2 0x1A20 JUMPI PUSH1 0x0 DUP1 REVERT JUMPDEST PUSH2 0x1A2C DUP6 DUP3 DUP7 ADD PUSH2 0x15F5 JUMP JUMPDEST SWAP3 POP POP PUSH1 0x20 DUP4 ADD CALLDATALOAD PUSH2 0x1A3D DUP2 PUSH2 0x199F JUMP JUMPDEST DUP1 SWAP2 POP POP SWAP3 POP SWAP3 SWAP1 POP JUMP JUMPDEST PUSH1 0x20 DUP1 DUP3 MSTORE PUSH1 0x12 SWAP1 DUP3 ADD MSTORE PUSH18 0x283632B0B9B29032B73A32B91030902724AB PUSH1 0x71 SHL PUSH1 0x40 DUP3 ADD MSTORE PUSH1 0x60 ADD SWAP1 JUMP JUMPDEST PUSH1 0x0 PUSH8 0xFFFFFFFFFFFFFFFF DUP3 GT ISZERO PUSH2 0x1A8E JUMPI PUSH2 0x1A8E PUSH2 0x1586 JUMP JUMPDEST POP PUSH1 0x5 SHL PUSH1 0x20 ADD SWAP1 JUMP JUMPDEST PUSH1 0x0 DUP3 PUSH1 0x1F DUP4 ADD SLT PUSH2 0x1AA9 JUMPI PUSH1 0x0 DUP1 REVERT JUMPDEST DUP2 MLOAD PUSH1 0x20 PUSH2 0x1AB9 PUSH2 0x1614 DUP4 PUSH2 0x1A74 JUMP JUMPDEST DUP3 DUP2 MSTORE PUSH1 0x5 SWAP3 SWAP1 SWAP3 SHL DUP5 ADD DUP2 ADD SWAP2 DUP2 DUP2 ADD SWAP1 DUP7 DUP5 GT ISZERO PUSH2 0x1AD8 JUMPI PUSH1 0x0 DUP1 REVERT JUMPDEST DUP3 DUP7 ADD JUMPDEST DUP5 DUP2 LT ISZERO PUSH2 0x1AFC JUMPI DUP1 MLOAD PUSH2 0x1AEF DUP2 PUSH2 0x188E JUMP JUMPDEST DUP4 MSTORE SWAP2 DUP4 ADD SWAP2 DUP4 ADD PUSH2 0x1ADC JUMP JUMPDEST POP SWAP7 SWAP6 POP POP POP POP POP POP JUMP JUMPDEST PUSH1 0x0 PUSH1 0x20 DUP3 DUP5 SUB SLT ISZERO PUSH2 0x1B19 JUMPI PUSH1 0x0 DUP1 REVERT JUMPDEST DUP2 MLOAD PUSH8 0xFFFFFFFFFFFFFFFF DUP2 GT ISZERO PUSH2 0x1B30 JUMPI PUSH1 0x0 DUP1 REVERT JUMPDEST PUSH2 0x40A DUP5 DUP3 DUP6 ADD PUSH2 0x1A98 JUMP JUMPDEST PUSH1 0x0 DUP3 PUSH1 0x1F DUP4 ADD SLT PUSH2 0x1B4D JUMPI PUSH1 0x0 DUP1 REVERT JUMPDEST DUP2 MLOAD PUSH2 0x1B5B PUSH2 0x1614 DUP3 PUSH2 0x15CD JUMP JUMPDEST DUP2 DUP2 MSTORE DUP5 PUSH1 0x20 DUP4 DUP7 ADD ADD GT ISZERO PUSH2 0x1B70 JUMPI PUSH1 0x0 DUP1 REVERT JUMPDEST PUSH2 0x40A DUP3 PUSH1 0x20 DUP4 ADD PUSH1 0x20 DUP8 ADD PUSH2 0x16D7 JUMP JUMPDEST PUSH1 0x0 DUP3 PUSH1 0x1F DUP4 ADD SLT PUSH2 0x1B92 JUMPI PUSH1 0x0 DUP1 REVERT JUMPDEST DUP2 MLOAD PUSH1 0x20 PUSH2 0x1BA2 PUSH2 0x1614 DUP4 PUSH2 0x1A74 JUMP JUMPDEST DUP3 DUP2 MSTORE PUSH1 0x5 SWAP3 SWAP1 SWAP3 SHL DUP5 ADD DUP2 ADD SWAP2 DUP2 DUP2 ADD SWAP1 DUP7 DUP5 GT ISZERO PUSH2 0x1BC1 JUMPI PUSH1 0x0 DUP1 REVERT JUMPDEST DUP3 DUP7 ADD JUMPDEST DUP5 DUP2 LT ISZERO PUSH2 0x1AFC JUMPI DUP1 MLOAD PUSH8 0xFFFFFFFFFFFFFFFF DUP2 GT ISZERO PUSH2 0x1BE5 JUMPI PUSH1 0x0 DUP1 DUP2 REVERT JUMPDEST PUSH2 0x1BF3 DUP10 DUP7 DUP4 DUP12 ADD ADD PUSH2 0x1B3C JUMP JUMPDEST DUP5 MSTORE POP SWAP2 DUP4 ADD SWAP2 DUP4 ADD PUSH2 0x1BC5 JUMP JUMPDEST PUSH1 0x0 PUSH1 0x20 DUP3 DUP5 SUB SLT ISZERO PUSH2 0x1C13 JUMPI PUSH1 0x0 DUP1 REVERT JUMPDEST DUP2 MLOAD PUSH8 0xFFFFFFFFFFFFFFFF DUP2 GT ISZERO PUSH2 0x1C2A JUMPI PUSH1 0x0 DUP1 REVERT JUMPDEST PUSH2 0x40A DUP5 DUP3 DUP6 ADD PUSH2 0x1B81 JUMP JUMPDEST DUP1 MLOAD PUSH2 0x18B5 DUP2 PUSH2 0x199F JUMP JUMPDEST PUSH1 0x0 DUP1 PUSH1 0x0 DUP1 PUSH1 0x0 DUP1 PUSH1 0x0 DUP1 PUSH2 0x100 DUP10 DUP12 SUB SLT ISZERO PUSH2 0x1C5E JUMPI PUSH1 0x0 DUP1 REVERT JUMPDEST PUSH2 0x1C67 DUP10 PUSH2 0x1C36 JUMP JUMPDEST SWAP8 POP PUSH1 0x20 DUP10 ADD MLOAD PUSH8 0xFFFFFFFFFFFFFFFF DUP1 DUP3 GT ISZERO PUSH2 0x1C84 JUMPI PUSH1 0x0 DUP1 REVERT JUMPDEST PUSH2 0x1C90 DUP13 DUP4 DUP14 ADD PUSH2 0x1B3C JUMP JUMPDEST SWAP9 POP PUSH1 0x40 DUP12 ADD MLOAD SWAP2 POP DUP1 DUP3 GT ISZERO PUSH2 0x1CA6 JUMPI PUSH1 0x0 DUP1 REVERT JUMPDEST PUSH2 0x1CB2 DUP13 DUP4 DUP14 ADD PUSH2 0x1B81 JUMP JUMPDEST SWAP8 POP PUSH1 0x60 DUP12 ADD MLOAD SWAP2 POP DUP1 DUP3 GT ISZERO PUSH2 0x1CC8 JUMPI PUSH1 0x0 DUP1 REVERT JUMPDEST PUSH2 0x1CD4 DUP13 DUP4 DUP14 ADD PUSH2 0x1A98 JUMP JUMPDEST SWAP7 POP PUSH1 0x80 DUP12 ADD MLOAD SWAP2 POP DUP1 DUP3 GT ISZERO PUSH2 0x1CEA JUMPI PUSH1 0x0 DUP1 REVERT JUMPDEST PUSH2 0x1CF6 DUP13 DUP4 DUP14 ADD PUSH2 0x1B81 JUMP JUMPDEST SWAP6 POP PUSH1 0xA0 DUP12 ADD MLOAD SWAP2 POP DUP1 DUP3 GT ISZERO PUSH2 0x1D0C JUMPI PUSH1 0x0 DUP1 REVERT JUMPDEST PUSH2 0x1D18 DUP13 DUP4 DUP14 ADD PUSH2 0x1B81 JUMP JUMPDEST SWAP5 POP PUSH1 0xC0 DUP12 ADD MLOAD SWAP2 POP DUP1 DUP3 GT ISZERO PUSH2 0x1D2E JUMPI PUSH1 0x0 DUP1 REVERT JUMPDEST POP PUSH2 0x1D3B DUP12 DUP3 DUP13 ADD PUSH2 0x1B81 JUMP JUMPDEST SWAP3 POP POP PUSH2 0x1D4A PUSH1 0xE0 DUP11 ADD PUSH2 0x1C36 JUMP JUMPDEST SWAP1 POP SWAP3 SWAP6 SWAP9 POP SWAP3 SWAP6 SWAP9 SWAP1 SWAP4 SWAP7 POP JUMP JUMPDEST PUSH1 0x0 PUSH1 0x20 DUP3 DUP5 SUB SLT ISZERO PUSH2 0x1D6B JUMPI PUSH1 0x0 DUP1 REVERT JUMPDEST DUP2 MLOAD PUSH2 0x349 DUP2 PUSH2 0x188E JUMP JUMPDEST PUSH1 0x0 PUSH1 0x20 DUP3 DUP5 SUB SLT ISZERO PUSH2 0x1D88 JUMPI PUSH1 0x0 DUP1 REVERT JUMPDEST DUP2 MLOAD PUSH2 0x349 DUP2 PUSH2 0x199F JUMP JUMPDEST PUSH1 0x20 DUP1 DUP3 MSTORE PUSH1 0x1E SWAP1 DUP3 ADD MSTORE PUSH32 0x546869732063617220646F65736E277420657869737420616E796D6F72650000 PUSH1 0x40 DUP3 ADD MSTORE PUSH1 0x60 ADD SWAP1 JUMP JUMPDEST PUSH1 0x20 DUP1 DUP3 MSTORE PUSH1 0x21 SWAP1 DUP3 ADD MSTORE PUSH32 0x54686520696E666F732073656374696F6E2063616E6E6F7420626520626C616E PUSH1 0x40 DUP3 ADD MSTORE PUSH1 0x6B PUSH1 0xF8 SHL PUSH1 0x60 DUP3 ADD MSTORE PUSH1 0x80 ADD SWAP1 JUMP JUMPDEST PUSH1 0x40 DUP2 MSTORE PUSH1 0x0 PUSH2 0x1E1E PUSH1 0x40 DUP4 ADD DUP6 PUSH2 0x16FB JUMP JUMPDEST DUP3 DUP2 SUB PUSH1 0x20 DUP5 ADD MSTORE PUSH2 0x1E30 DUP2 DUP6 PUSH2 0x16FB JUMP JUMPDEST SWAP6 SWAP5 POP POP POP POP POP JUMP JUMPDEST PUSH4 0x4E487B71 PUSH1 0xE0 SHL PUSH1 0x0 MSTORE PUSH1 0x21 PUSH1 0x4 MSTORE PUSH1 0x24 PUSH1 0x0 REVERT JUMPDEST PUSH1 0x0 PUSH1 0x20 DUP3 DUP5 SUB SLT ISZERO PUSH2 0x1E61 JUMPI PUSH1 0x0 DUP1 REVERT JUMPDEST DUP2 MLOAD PUSH8 0xFFFFFFFFFFFFFFFF DUP2 GT ISZERO PUSH2 0x1E78 JUMPI PUSH1 0x0 DUP1 REVERT JUMPDEST PUSH2 0x40A DUP5 DUP3 DUP6 ADD PUSH2 0x1B3C JUMP INVALID GASPRICE 0x2D 0xB9 INVALID PUSH26 0x8DCC36D81824D2338FC3F1AFF49AC357DD8C4840527FBA27A5B SWAP1 LOG2 PUSH5 0x6970667358 0x22 SLT KECCAK256 CALLCODE 0xDE 0x21 SWAP1 PUSH14 0xAC2C455CAE39ADF974DA87EA221F ORIGIN DUP1 SWAP6 0xED PUSH22 0xF32191F466975AF464736F6C63430008130033000000 ","sha1":"4296e761e11afc0d1643e68d1b1ea098dc582bc2","source":"//SPDX-License-Identifier: MIT\n\npragma solidity >=0.6.0 <=0.9.0;\n\nimport \"./CarFactory.sol\";\n\ncontract AutomobileRegistrationSystem{\n\n    //List of roles\n    enum Role{\n        Manufacturer, //0\n        State, //1\n        Center, //2\n        Insurance //3\n    }\n\n    modifier isDeployer(){\n        require(msg.sender == systemDeployer, \"You're not the owner, aborting\");\n        _;\n    }\n\n    modifier isManufacturer(address _of, Role _role){ //Create or delete the car\n        require(canAccess[_of][_role], \"Permission denied, you must be a manufacturer!\");\n        _;\n    }\n\n    modifier isState(address _of, Role _role){ //Set owner (old and new) + Transaction infos\n        require(canAccess[_of][_role], \"You don't have the previledges, aborting\");\n        _;\n    }\n\n    modifier isCenter(address _of, Role _role){ //Create reports\n        require(canAccess[_of][_role], \"Permission denied, center only!\"); \n        _;\n    }\n\n    modifier isInsurance(address _of, Role _role){ //Save accidents\n        require(canAccess[_of][_role], \"Permission denied, insurance only!\"); \n        _;\n    }\n\n    modifier doesExist(string memory _niv){\n        require(carFactory.carListMapping(_niv).doesExist(), \"This car doesn't exist anymore\");\n        _;\n    }\n\n    modifier isNotBlank(string memory _niv){\n        require(keccak256(bytes(_niv)) != keccak256(bytes(\"\")), \"Please enter a NIV\");\n        _;\n    }\n\n\n    address systemDeployer;\n\n    CarFactory carFactory;\n\n    mapping(address => mapping(Role => bool)) canAccess; //Instead of creating a mapping for each role, I thought it could be a great idea to create only one mapping of a mapping that sets the role of every address given\n\n    \n    constructor(){\n        systemDeployer = msg.sender;    \n        carFactory = new CarFactory();\n    }\n\n\n    function setRole(address _for, Role _role, bool _roleStatus) public isDeployer{\n        canAccess[_for][_role] = _roleStatus;\n    }\n\n    //Getting the roles of the accounts\n    function getAccountRole(address _of, Role _role) public view isDeployer returns(bool){\n        return canAccess[_of][_role];\n    }\n\n    function isNivUsed(string memory _niv) public view returns(bool) /*isManufacturer(msg.sender, Role.Manufacturer)*/{\n        bool avaibility = carFactory.getNivAvaibility(_niv);\n        return avaibility;\n    }\n\n    function createNewCar(string memory _niv, string memory _infos) public isNotBlank(_niv)/*isManufacturer(msg.sender, Role.Manufacturer)*/{\n        require(keccak256(bytes(_infos)) != keccak256(bytes(\"\")), \"The infos section cannot be blank\");\n        carFactory.createCar(_niv, _infos);\n    }\n\n    function getCar(string memory _niv) private view isNotBlank(_niv) returns(Car){\n        Car car = carFactory.carListMapping(_niv);\n        return car;\n    }\n\n    function setCarOwner(string memory _niv, address _owner, string memory _transactionInfo, string memory _matriculation) public isNotBlank(_niv) doesExist(_niv)/*isSate(msg.sender, Role.Manufacturer)*/{\n        require(_owner != address(0), \"The infos section cannot be blank\");\n        require(keccak256(bytes(_transactionInfo)) != keccak256(bytes(\"\")), \"Please fill the transaction infos section\");\n        require(keccak256(bytes(_matriculation)) != keccak256(bytes(\"\")), \"The matriculation section cannot be blank\");\n\n        Car car = getCar(_niv);\n        car.setOwner(_owner);\n        car.setTransaction(_transactionInfo);\n        car.setMatriculation(_matriculation);\n    }\n\n    function getCarOwner(string memory _niv) public view isNotBlank(_niv) returns(address[] memory){\n        return getCar(_niv).getOwnerList();\n    }\n\n    function getCarPreviousTransactions(string memory _niv) public view isNotBlank(_niv) returns(string[] memory){\n        return getCar(_niv).getPreviousTransactions();\n    }\n\n    function setCarSignalisation(string memory _niv, bool _signalisation) public isNotBlank(_niv) doesExist(_niv) /*isDeployer()*/{\n        getCar(_niv).setSignalisation(_signalisation);\n    }\n\n    function getCarSignalisation(string memory _niv) public view isNotBlank(_niv) returns(bool){\n        return getCar(_niv).getSignalisation();\n    }\n\n    function addAccident(string memory _niv, string memory _accident) public isNotBlank(_niv) doesExist(_niv) /*isInsurance(msg.sender, Role.Manufacturer)*/{\n        require(keccak256(bytes(_accident)) != keccak256(bytes(\"\")), \"Please provide more infos\");\n        Car car = getCar(_niv);\n        car.addAccident(_accident);\n    }\n\n    function getAccidentsList(string memory _niv) public view isNotBlank(_niv) returns (string[] memory){\n        Car car = getCar(_niv);        \n        return car.accidentsList();\n    }\n\n    function addCarReport(string memory _niv, string memory _report) public isNotBlank(_niv) doesExist(_niv) /*isCenter(msg.sender, Role.Manufacturer)*/{\n        require(keccak256(bytes(_report)) != keccak256(bytes(\"\")), \"Please provide a correct report\");\n        Car car = getCar(_niv);\n        car.addReport(_report);\n    }\n\n    function getCarReport(string memory _niv) public view isNotBlank(_niv) returns(string[] memory){\n        Car car = getCar(_niv);        \n        return car.getReport();\n    }\n\n    function getCarInfos(string memory _niv) public view isNotBlank(_niv) returns(string memory){\n        Car car = getCar(_niv);        \n        return car.getInfos();        \n    }\n\n    function getCarAllInfos(string memory _niv) public view isNotBlank(_niv) returns(bool, string memory, string[] memory, address[] memory, string[] memory, string[] memory, string[] memory, bool){\n        return getCar(_niv).getAllInfos();\n    }\n\n    function destroyCar(string memory _niv) public isNotBlank(_niv) doesExist(_niv) /*isManufacturer(msg.sender, Role.Manufacturer)*/{\n        return getCar(_niv).destroyCar();\n    }\n\n}","sourcePath":"contracts/AutomobileRegistrationSystem.sol","type":"contract","deployment":{"address":"0xfa0911963c0F281374d6dA8C1499e59630eCE7D5","chainid":"80001","blockHeight":33281742}}