{
  "abi": [
    {
      "inputs": [],
      "stateMutability": "nonpayable",
      "type": "constructor"
    },
    {
      "inputs": [
        {
          "internalType": "string",
          "name": "_niv",
          "type": "string"
        },
        {
          "internalType": "string",
          "name": "_accident",
          "type": "string"
        }
      ],
      "name": "addAccident",
      "outputs": [],
      "stateMutability": "nonpayable",
      "type": "function"
    },
    {
      "inputs": [
        {
          "internalType": "string",
          "name": "_niv",
          "type": "string"
        }
      ],
      "name": "createCar",
      "outputs": [],
      "stateMutability": "nonpayable",
      "type": "function"
    },
    {
      "inputs": [
        {
          "internalType": "string",
          "name": "_niv",
          "type": "string"
        }
      ],
      "name": "getAccidentsList",
      "outputs": [
        {
          "internalType": "string[]",
          "name": "",
          "type": "string[]"
        }
      ],
      "stateMutability": "view",
      "type": "function"
    },
    {
      "inputs": [
        {
          "internalType": "address",
          "name": "_of",
          "type": "address"
        },
        {
          "internalType": "enum AutomobileRegistrationSystem.Role",
          "name": "_role",
          "type": "uint8"
        }
      ],
      "name": "getAccountRole",
      "outputs": [
        {
          "internalType": "bool",
          "name": "",
          "type": "bool"
        }
      ],
      "stateMutability": "view",
      "type": "function"
    },
    {
      "inputs": [
        {
          "internalType": "string",
          "name": "_niv",
          "type": "string"
        }
      ],
      "name": "getCar",
      "outputs": [
        {
          "internalType": "contract Car",
          "name": "",
          "type": "address"
        }
      ],
      "stateMutability": "view",
      "type": "function"
    },
    {
      "inputs": [
        {
          "internalType": "address",
          "name": "_for",
          "type": "address"
        },
        {
          "internalType": "enum AutomobileRegistrationSystem.Role",
          "name": "_role",
          "type": "uint8"
        },
        {
          "internalType": "bool",
          "name": "_roleStatus",
          "type": "bool"
        }
      ],
      "name": "setRole",
      "outputs": [],
      "stateMutability": "nonpayable",
      "type": "function"
    }
  ],
  "bytecode": "608060405234801561001057600080fd5b50600080546001600160a01b0319163317905560405161002f90610071565b604051809103906000f08015801561004b573d6000803e3d6000fd5b50600180546001600160a01b0319166001600160a01b039290921691909117905561007e565b6109c68061091e83390190565b6108918061008d6000396000f3fe608060405234801561001057600080fd5b50600436106100625760003560e01c8063479487e3146100675780636f059e731461009757806390ca8332146100ac578063a2a6d142146100cc578063ede6fbf5146100ef578063f6bb6b3714610102575b600080fd5b61007a610075366004610514565b610115565b6040516001600160a01b0390911681526020015b60405180910390f35b6100aa6100a5366004610551565b610192565b005b6100bf6100ba366004610514565b610203565b60405161008e9190610605565b6100df6100da366004610693565b610278565b604051901515815260200161008e565b6100aa6100fd366004610514565b61032f565b6100aa6101103660046106c8565b610394565b600154604051634b22dc9160e01b815260009182916001600160a01b0390911690634b22dc919061014a908690600401610716565b602060405180830381865afa158015610167573d6000803e3d6000fd5b505050506040513d601f19601f8201168201806040525081019061018b9190610729565b9392505050565b600061019d83610115565b60405163134044a160e01b81529091506001600160a01b0382169063134044a1906101cc908590600401610716565b600060405180830381600087803b1580156101e657600080fd5b505af11580156101fa573d6000803e3d6000fd5b50505050505050565b6060600061021083610115565b9050806001600160a01b031663bd51b8e06040518163ffffffff1660e01b8152600401600060405180830381865afa158015610250573d6000803e3d6000fd5b505050506040513d6000823e601f3d908101601f1916820160405261018b9190810190610746565b600080546001600160a01b031633146102d85760405162461bcd60e51b815260206004820152601e60248201527f596f75277265206e6f7420746865206f776e65722c2061626f7274696e67000060448201526064015b60405180910390fd5b6001600160a01b03831660009081526002602052604081209083600381111561030357610303610845565b600381111561031457610314610845565b815260208101919091526040016000205460ff169392505050565b600154604051633af33fab60e01b81526001600160a01b0390911690633af33fab9061035f908490600401610716565b600060405180830381600087803b15801561037957600080fd5b505af115801561038d573d6000803e3d6000fd5b5050505050565b6000546001600160a01b031633146103ee5760405162461bcd60e51b815260206004820152601e60248201527f596f75277265206e6f7420746865206f776e65722c2061626f7274696e67000060448201526064016102cf565b6001600160a01b0383166000908152600260205260408120829184600381111561041a5761041a610845565b600381111561042b5761042b610845565b81526020810191909152604001600020805460ff1916911515919091179055505050565b634e487b7160e01b600052604160045260246000fd5b604051601f8201601f1916810167ffffffffffffffff8111828210171561048e5761048e61044f565b604052919050565b600067ffffffffffffffff8211156104b0576104b061044f565b50601f01601f191660200190565b600082601f8301126104cf57600080fd5b81356104e26104dd82610496565b610465565b8181528460208386010111156104f757600080fd5b816020850160208301376000918101602001919091529392505050565b60006020828403121561052657600080fd5b813567ffffffffffffffff81111561053d57600080fd5b610549848285016104be565b949350505050565b6000806040838503121561056457600080fd5b823567ffffffffffffffff8082111561057c57600080fd5b610588868387016104be565b9350602085013591508082111561059e57600080fd5b506105ab858286016104be565b9150509250929050565b60005b838110156105d05781810151838201526020016105b8565b50506000910152565b600081518084526105f18160208601602086016105b5565b601f01601f19169290920160200192915050565b6000602080830181845280855180835260408601915060408160051b870101925083870160005b8281101561065a57603f198886030184526106488583516105d9565b9450928501929085019060010161062c565b5092979650505050505050565b6001600160a01b038116811461067c57600080fd5b50565b80356004811061068e57600080fd5b919050565b600080604083850312156106a657600080fd5b82356106b181610667565b91506106bf6020840161067f565b90509250929050565b6000806000606084860312156106dd57600080fd5b83356106e881610667565b92506106f66020850161067f565b91506040840135801515811461070b57600080fd5b809150509250925092565b60208152600061018b60208301846105d9565b60006020828403121561073b57600080fd5b815161018b81610667565b6000602080838503121561075957600080fd5b825167ffffffffffffffff8082111561077157600080fd5b818501915085601f83011261078557600080fd5b8151818111156107975761079761044f565b8060051b6107a6858201610465565b91825283810185019185810190898411156107c057600080fd5b86860192505b83831015610838578251858111156107de5760008081fd5b8601603f81018b136107f05760008081fd5b8781015160406108026104dd83610496565b8281528d828486010111156108175760008081fd5b610826838c83018487016105b5565b855250505091860191908601906107c6565b9998505050505050505050565b634e487b7160e01b600052602160045260246000fdfea2646970667358221220a0afe5c1ce38e1dafb62efe220f4e931ca9ceec6eb581d5fc4d52673651cc43764736f6c63430008130033608060405234801561001057600080fd5b506109a6806100206000396000f3fe608060405234801561001057600080fd5b50600436106100365760003560e01c80633af33fab1461003b5780634b22dc9114610050575b600080fd5b61004e610049366004610169565b61007f565b005b61006361005e366004610169565b610115565b6040516001600160a01b03909116815260200160405180910390f35b8060405161008c90610146565b610096919061023e565b604051809103906000f0801580156100b2573d6000803e3d6000fd5b50600080546001600160a01b0319166001600160a01b039290921691821790556040516002906100e3908490610271565b90815260405190819003602001902080546001600160a01b03929092166001600160a01b031990921691909117905550565b60006002826040516101279190610271565b908152604051908190036020019020546001600160a01b031692915050565b6106e38061028e83390190565b634e487b7160e01b600052604160045260246000fd5b60006020828403121561017b57600080fd5b813567ffffffffffffffff8082111561019357600080fd5b818401915084601f8301126101a757600080fd5b8135818111156101b9576101b9610153565b604051601f8201601f19908116603f011681019083821181831017156101e1576101e1610153565b816040528281528760208487010111156101fa57600080fd5b826020860160208301376000928101602001929092525095945050505050565b60005b8381101561023557818101518382015260200161021d565b50506000910152565b602081526000825180602084015261025d81604085016020870161021a565b601f01601f19169190910160400192915050565b6000825161028381846020870161021a565b919091019291505056fe608060405234801561001057600080fd5b506040516106e33803806106e383398101604081905261002f91610064565b600061003b82826101b6565b50506001805460ff191681179055610275565b634e487b7160e01b600052604160045260246000fd5b6000602080838503121561007757600080fd5b82516001600160401b038082111561008e57600080fd5b818501915085601f8301126100a257600080fd5b8151818111156100b4576100b461004e565b604051601f8201601f19908116603f011681019083821181831017156100dc576100dc61004e565b8160405282815288868487010111156100f457600080fd5b600093505b8284101561011657848401860151818501870152928501926100f9565b600086848301015280965050505050505092915050565b600181811c9082168061014157607f821691505b60208210810361016157634e487b7160e01b600052602260045260246000fd5b50919050565b601f8211156101b157600081815260208120601f850160051c8101602086101561018e5750805b601f850160051c820191505b818110156101ad5782815560010161019a565b5050505b505050565b81516001600160401b038111156101cf576101cf61004e565b6101e3816101dd845461012d565b84610167565b602080601f83116001811461021857600084156102005750858301515b600019600386901b1c1916600185901b1785556101ad565b600085815260208120601f198616915b8281101561024757888601518255948401946001909101908401610228565b50858210156102655787850151600019600388901b60f8161c191681555b5050505050600190811b01905550565b61045f806102846000396000f3fe608060405234801561001057600080fd5b50600436106100365760003560e01c8063134044a11461003b578063bd51b8e014610050575b600080fd5b61004e61004936600461019d565b61006e565b005b6100586100ae565b604051610065919061024e565b60405180910390f35b600280546001810182556000919091527f405787fa12a823e0f2b7631cc41b3ba8828b3321ca811111fa75cd3aa3bb5ace016100aa8282610369565b5050565b60606002805480602002602001604051908101604052809291908181526020016000905b8282101561017e5783829060005260206000200180546100f1906102e0565b80601f016020809104026020016040519081016040528092919081815260200182805461011d906102e0565b801561016a5780601f1061013f5761010080835404028352916020019161016a565b820191906000526020600020905b81548152906001019060200180831161014d57829003601f168201915b5050505050815260200190600101906100d2565b50505050905090565b634e487b7160e01b600052604160045260246000fd5b6000602082840312156101af57600080fd5b813567ffffffffffffffff808211156101c757600080fd5b818401915084601f8301126101db57600080fd5b8135818111156101ed576101ed610187565b604051601f8201601f19908116603f0116810190838211818310171561021557610215610187565b8160405282815287602084870101111561022e57600080fd5b826020860160208301376000928101602001929092525095945050505050565b6000602080830181845280855180835260408601915060408160051b87010192508387016000805b838110156102d257888603603f1901855282518051808852835b818110156102ab578281018a01518982018b01528901610290565b508781018901849052601f01601f1916909601870195509386019391860191600101610276565b509398975050505050505050565b600181811c908216806102f457607f821691505b60208210810361031457634e487b7160e01b600052602260045260246000fd5b50919050565b601f82111561036457600081815260208120601f850160051c810160208610156103415750805b601f850160051c820191505b818110156103605782815560010161034d565b5050505b505050565b815167ffffffffffffffff81111561038357610383610187565b6103978161039184546102e0565b8461031a565b602080601f8311600181146103cc57600084156103b45750858301515b600019600386901b1c1916600185901b178555610360565b600085815260208120601f198616915b828110156103fb578886015182559484019460019091019084016103dc565b50858210156104195787850151600019600388901b60f8161c191681555b5050505050600190811b0190555056fea264697066735822122035af960d15afef54d4f43bb12df0046a1b08c2b8c93c3f623cf54afe95ad27a464736f6c63430008130033a264697066735822122049487af48499b3eb4c78e485e6c3c1f0eb219bc846307165f83abfa0009e951c64736f6c63430008130033",
  "bytecodeSha1": "8d0d6eaab798cf9374d9bbc29867a053e1c3f090",
  "compiler": {
    "evm_version": "istanbul",
    "optimizer": {
      "enabled": true,
      "runs": 200
    },
    "version": "0.8.19+commit.7dd6d404"
  },
  "contractName": "AutomobileRegistrationSystem",
  "language": "Solidity",
  "natspec": {
    "kind": "dev",
    "methods": {},
    "version": 1
  },
  "opcodes": "PUSH1 0x80 PUSH1 0x40 MSTORE CALLVALUE DUP1 ISZERO PUSH2 0x10 JUMPI PUSH1 0x0 DUP1 REVERT JUMPDEST POP PUSH1 0x4 CALLDATASIZE LT PUSH2 0x62 JUMPI PUSH1 0x0 CALLDATALOAD PUSH1 0xE0 SHR DUP1 PUSH4 0x479487E3 EQ PUSH2 0x67 JUMPI DUP1 PUSH4 0x6F059E73 EQ PUSH2 0x97 JUMPI DUP1 PUSH4 0x90CA8332 EQ PUSH2 0xAC JUMPI DUP1 PUSH4 0xA2A6D142 EQ PUSH2 0xCC JUMPI DUP1 PUSH4 0xEDE6FBF5 EQ PUSH2 0xEF JUMPI DUP1 PUSH4 0xF6BB6B37 EQ PUSH2 0x102 JUMPI JUMPDEST PUSH1 0x0 DUP1 REVERT JUMPDEST PUSH2 0x7A PUSH2 0x75 CALLDATASIZE PUSH1 0x4 PUSH2 0x514 JUMP JUMPDEST PUSH2 0x115 JUMP JUMPDEST PUSH1 0x40 MLOAD PUSH1 0x1 PUSH1 0x1 PUSH1 0xA0 SHL SUB SWAP1 SWAP2 AND DUP2 MSTORE PUSH1 0x20 ADD JUMPDEST PUSH1 0x40 MLOAD DUP1 SWAP2 SUB SWAP1 RETURN JUMPDEST PUSH2 0xAA PUSH2 0xA5 CALLDATASIZE PUSH1 0x4 PUSH2 0x551 JUMP JUMPDEST PUSH2 0x192 JUMP JUMPDEST STOP JUMPDEST PUSH2 0xBF PUSH2 0xBA CALLDATASIZE PUSH1 0x4 PUSH2 0x514 JUMP JUMPDEST PUSH2 0x203 JUMP JUMPDEST PUSH1 0x40 MLOAD PUSH2 0x8E SWAP2 SWAP1 PUSH2 0x605 JUMP JUMPDEST PUSH2 0xDF PUSH2 0xDA CALLDATASIZE PUSH1 0x4 PUSH2 0x693 JUMP JUMPDEST PUSH2 0x278 JUMP JUMPDEST PUSH1 0x40 MLOAD SWAP1 ISZERO ISZERO DUP2 MSTORE PUSH1 0x20 ADD PUSH2 0x8E JUMP JUMPDEST PUSH2 0xAA PUSH2 0xFD CALLDATASIZE PUSH1 0x4 PUSH2 0x514 JUMP JUMPDEST PUSH2 0x32F JUMP JUMPDEST PUSH2 0xAA PUSH2 0x110 CALLDATASIZE PUSH1 0x4 PUSH2 0x6C8 JUMP JUMPDEST PUSH2 0x394 JUMP JUMPDEST PUSH1 0x1 SLOAD PUSH1 0x40 MLOAD PUSH4 0x4B22DC91 PUSH1 0xE0 SHL DUP2 MSTORE PUSH1 0x0 SWAP2 DUP3 SWAP2 PUSH1 0x1 PUSH1 0x1 PUSH1 0xA0 SHL SUB SWAP1 SWAP2 AND SWAP1 PUSH4 0x4B22DC91 SWAP1 PUSH2 0x14A SWAP1 DUP7 SWAP1 PUSH1 0x4 ADD PUSH2 0x716 JUMP JUMPDEST PUSH1 0x20 PUSH1 0x40 MLOAD DUP1 DUP4 SUB DUP2 DUP7 GAS STATICCALL ISZERO DUP1 ISZERO PUSH2 0x167 JUMPI RETURNDATASIZE PUSH1 0x0 DUP1 RETURNDATACOPY RETURNDATASIZE PUSH1 0x0 REVERT JUMPDEST POP POP POP POP PUSH1 0x40 MLOAD RETURNDATASIZE PUSH1 0x1F NOT PUSH1 0x1F DUP3 ADD AND DUP3 ADD DUP1 PUSH1 0x40 MSTORE POP DUP2 ADD SWAP1 PUSH2 0x18B SWAP2 SWAP1 PUSH2 0x729 JUMP JUMPDEST SWAP4 SWAP3 POP POP POP JUMP JUMPDEST PUSH1 0x0 PUSH2 0x19D DUP4 PUSH2 0x115 JUMP JUMPDEST PUSH1 0x40 MLOAD PUSH4 0x134044A1 PUSH1 0xE0 SHL DUP2 MSTORE SWAP1 SWAP2 POP PUSH1 0x1 PUSH1 0x1 PUSH1 0xA0 SHL SUB DUP3 AND SWAP1 PUSH4 0x134044A1 SWAP1 PUSH2 0x1CC SWAP1 DUP6 SWAP1 PUSH1 0x4 ADD PUSH2 0x716 JUMP JUMPDEST PUSH1 0x0 PUSH1 0x40 MLOAD DUP1 DUP4 SUB DUP2 PUSH1 0x0 DUP8 DUP1 EXTCODESIZE ISZERO DUP1 ISZERO PUSH2 0x1E6 JUMPI PUSH1 0x0 DUP1 REVERT JUMPDEST POP GAS CALL ISZERO DUP1 ISZERO PUSH2 0x1FA JUMPI RETURNDATASIZE PUSH1 0x0 DUP1 RETURNDATACOPY RETURNDATASIZE PUSH1 0x0 REVERT JUMPDEST POP POP POP POP POP POP POP JUMP JUMPDEST PUSH1 0x60 PUSH1 0x0 PUSH2 0x210 DUP4 PUSH2 0x115 JUMP JUMPDEST SWAP1 POP DUP1 PUSH1 0x1 PUSH1 0x1 PUSH1 0xA0 SHL SUB AND PUSH4 0xBD51B8E0 PUSH1 0x40 MLOAD DUP2 PUSH4 0xFFFFFFFF AND PUSH1 0xE0 SHL DUP2 MSTORE PUSH1 0x4 ADD PUSH1 0x0 PUSH1 0x40 MLOAD DUP1 DUP4 SUB DUP2 DUP7 GAS STATICCALL ISZERO DUP1 ISZERO PUSH2 0x250 JUMPI RETURNDATASIZE PUSH1 0x0 DUP1 RETURNDATACOPY RETURNDATASIZE PUSH1 0x0 REVERT JUMPDEST POP POP POP POP PUSH1 0x40 MLOAD RETURNDATASIZE PUSH1 0x0 DUP3 RETURNDATACOPY PUSH1 0x1F RETURNDATASIZE SWAP1 DUP2 ADD PUSH1 0x1F NOT AND DUP3 ADD PUSH1 0x40 MSTORE PUSH2 0x18B SWAP2 SWAP1 DUP2 ADD SWAP1 PUSH2 0x746 JUMP JUMPDEST PUSH1 0x0 DUP1 SLOAD PUSH1 0x1 PUSH1 0x1 PUSH1 0xA0 SHL SUB AND CALLER EQ PUSH2 0x2D8 JUMPI PUSH1 0x40 MLOAD PUSH3 0x461BCD PUSH1 0xE5 SHL DUP2 MSTORE PUSH1 0x20 PUSH1 0x4 DUP3 ADD MSTORE PUSH1 0x1E PUSH1 0x24 DUP3 ADD MSTORE PUSH32 0x596F75277265206E6F7420746865206F776E65722C2061626F7274696E670000 PUSH1 0x44 DUP3 ADD MSTORE PUSH1 0x64 ADD JUMPDEST PUSH1 0x40 MLOAD DUP1 SWAP2 SUB SWAP1 REVERT JUMPDEST PUSH1 0x1 PUSH1 0x1 PUSH1 0xA0 SHL SUB DUP4 AND PUSH1 0x0 SWAP1 DUP2 MSTORE PUSH1 0x2 PUSH1 0x20 MSTORE PUSH1 0x40 DUP2 KECCAK256 SWAP1 DUP4 PUSH1 0x3 DUP2 GT ISZERO PUSH2 0x303 JUMPI PUSH2 0x303 PUSH2 0x845 JUMP JUMPDEST PUSH1 0x3 DUP2 GT ISZERO PUSH2 0x314 JUMPI PUSH2 0x314 PUSH2 0x845 JUMP JUMPDEST DUP2 MSTORE PUSH1 0x20 DUP2 ADD SWAP2 SWAP1 SWAP2 MSTORE PUSH1 0x40 ADD PUSH1 0x0 KECCAK256 SLOAD PUSH1 0xFF AND SWAP4 SWAP3 POP POP POP JUMP JUMPDEST PUSH1 0x1 SLOAD PUSH1 0x40 MLOAD PUSH4 0x3AF33FAB PUSH1 0xE0 SHL DUP2 MSTORE PUSH1 0x1 PUSH1 0x1 PUSH1 0xA0 SHL SUB SWAP1 SWAP2 AND SWAP1 PUSH4 0x3AF33FAB SWAP1 PUSH2 0x35F SWAP1 DUP5 SWAP1 PUSH1 0x4 ADD PUSH2 0x716 JUMP JUMPDEST PUSH1 0x0 PUSH1 0x40 MLOAD DUP1 DUP4 SUB DUP2 PUSH1 0x0 DUP8 DUP1 EXTCODESIZE ISZERO DUP1 ISZERO PUSH2 0x379 JUMPI PUSH1 0x0 DUP1 REVERT JUMPDEST POP GAS CALL ISZERO DUP1 ISZERO PUSH2 0x38D JUMPI RETURNDATASIZE PUSH1 0x0 DUP1 RETURNDATACOPY RETURNDATASIZE PUSH1 0x0 REVERT JUMPDEST POP POP POP POP POP JUMP JUMPDEST PUSH1 0x0 SLOAD PUSH1 0x1 PUSH1 0x1 PUSH1 0xA0 SHL SUB AND CALLER EQ PUSH2 0x3EE JUMPI PUSH1 0x40 MLOAD PUSH3 0x461BCD PUSH1 0xE5 SHL DUP2 MSTORE PUSH1 0x20 PUSH1 0x4 DUP3 ADD MSTORE PUSH1 0x1E PUSH1 0x24 DUP3 ADD MSTORE PUSH32 0x596F75277265206E6F7420746865206F776E65722C2061626F7274696E670000 PUSH1 0x44 DUP3 ADD MSTORE PUSH1 0x64 ADD PUSH2 0x2CF JUMP JUMPDEST PUSH1 0x1 PUSH1 0x1 PUSH1 0xA0 SHL SUB DUP4 AND PUSH1 0x0 SWAP1 DUP2 MSTORE PUSH1 0x2 PUSH1 0x20 MSTORE PUSH1 0x40 DUP2 KECCAK256 DUP3 SWAP2 DUP5 PUSH1 0x3 DUP2 GT ISZERO PUSH2 0x41A JUMPI PUSH2 0x41A PUSH2 0x845 JUMP JUMPDEST PUSH1 0x3 DUP2 GT ISZERO PUSH2 0x42B JUMPI PUSH2 0x42B PUSH2 0x845 JUMP JUMPDEST DUP2 MSTORE PUSH1 0x20 DUP2 ADD SWAP2 SWAP1 SWAP2 MSTORE PUSH1 0x40 ADD PUSH1 0x0 KECCAK256 DUP1 SLOAD PUSH1 0xFF NOT AND SWAP2 ISZERO ISZERO SWAP2 SWAP1 SWAP2 OR SWAP1 SSTORE POP POP POP JUMP JUMPDEST PUSH4 0x4E487B71 PUSH1 0xE0 SHL PUSH1 0x0 MSTORE PUSH1 0x41 PUSH1 0x4 MSTORE PUSH1 0x24 PUSH1 0x0 REVERT JUMPDEST PUSH1 0x40 MLOAD PUSH1 0x1F DUP3 ADD PUSH1 0x1F NOT AND DUP2 ADD PUSH8 0xFFFFFFFFFFFFFFFF DUP2 GT DUP3 DUP3 LT OR ISZERO PUSH2 0x48E JUMPI PUSH2 0x48E PUSH2 0x44F JUMP JUMPDEST PUSH1 0x40 MSTORE SWAP2 SWAP1 POP JUMP JUMPDEST PUSH1 0x0 PUSH8 0xFFFFFFFFFFFFFFFF DUP3 GT ISZERO PUSH2 0x4B0 JUMPI PUSH2 0x4B0 PUSH2 0x44F JUMP JUMPDEST POP PUSH1 0x1F ADD PUSH1 0x1F NOT AND PUSH1 0x20 ADD SWAP1 JUMP JUMPDEST PUSH1 0x0 DUP3 PUSH1 0x1F DUP4 ADD SLT PUSH2 0x4CF JUMPI PUSH1 0x0 DUP1 REVERT JUMPDEST DUP2 CALLDATALOAD PUSH2 0x4E2 PUSH2 0x4DD DUP3 PUSH2 0x496 JUMP JUMPDEST PUSH2 0x465 JUMP JUMPDEST DUP2 DUP2 MSTORE DUP5 PUSH1 0x20 DUP4 DUP7 ADD ADD GT ISZERO PUSH2 0x4F7 JUMPI PUSH1 0x0 DUP1 REVERT JUMPDEST DUP2 PUSH1 0x20 DUP6 ADD PUSH1 0x20 DUP4 ADD CALLDATACOPY PUSH1 0x0 SWAP2 DUP2 ADD PUSH1 0x20 ADD SWAP2 SWAP1 SWAP2 MSTORE SWAP4 SWAP3 POP POP POP JUMP JUMPDEST PUSH1 0x0 PUSH1 0x20 DUP3 DUP5 SUB SLT ISZERO PUSH2 0x526 JUMPI PUSH1 0x0 DUP1 REVERT JUMPDEST DUP2 CALLDATALOAD PUSH8 0xFFFFFFFFFFFFFFFF DUP2 GT ISZERO PUSH2 0x53D JUMPI PUSH1 0x0 DUP1 REVERT JUMPDEST PUSH2 0x549 DUP5 DUP3 DUP6 ADD PUSH2 0x4BE JUMP JUMPDEST SWAP5 SWAP4 POP POP POP POP JUMP JUMPDEST PUSH1 0x0 DUP1 PUSH1 0x40 DUP4 DUP6 SUB SLT ISZERO PUSH2 0x564 JUMPI PUSH1 0x0 DUP1 REVERT JUMPDEST DUP3 CALLDATALOAD PUSH8 0xFFFFFFFFFFFFFFFF DUP1 DUP3 GT ISZERO PUSH2 0x57C JUMPI PUSH1 0x0 DUP1 REVERT JUMPDEST PUSH2 0x588 DUP7 DUP4 DUP8 ADD PUSH2 0x4BE JUMP JUMPDEST SWAP4 POP PUSH1 0x20 DUP6 ADD CALLDATALOAD SWAP2 POP DUP1 DUP3 GT ISZERO PUSH2 0x59E JUMPI PUSH1 0x0 DUP1 REVERT JUMPDEST POP PUSH2 0x5AB DUP6 DUP3 DUP7 ADD PUSH2 0x4BE JUMP JUMPDEST SWAP2 POP POP SWAP3 POP SWAP3 SWAP1 POP JUMP JUMPDEST PUSH1 0x0 JUMPDEST DUP4 DUP2 LT ISZERO PUSH2 0x5D0 JUMPI DUP2 DUP2 ADD MLOAD DUP4 DUP3 ADD MSTORE PUSH1 0x20 ADD PUSH2 0x5B8 JUMP JUMPDEST POP POP PUSH1 0x0 SWAP2 ADD MSTORE JUMP JUMPDEST PUSH1 0x0 DUP2 MLOAD DUP1 DUP5 MSTORE PUSH2 0x5F1 DUP2 PUSH1 0x20 DUP7 ADD PUSH1 0x20 DUP7 ADD PUSH2 0x5B5 JUMP JUMPDEST PUSH1 0x1F ADD PUSH1 0x1F NOT AND SWAP3 SWAP1 SWAP3 ADD PUSH1 0x20 ADD SWAP3 SWAP2 POP POP JUMP JUMPDEST PUSH1 0x0 PUSH1 0x20 DUP1 DUP4 ADD DUP2 DUP5 MSTORE DUP1 DUP6 MLOAD DUP1 DUP4 MSTORE PUSH1 0x40 DUP7 ADD SWAP2 POP PUSH1 0x40 DUP2 PUSH1 0x5 SHL DUP8 ADD ADD SWAP3 POP DUP4 DUP8 ADD PUSH1 0x0 JUMPDEST DUP3 DUP2 LT ISZERO PUSH2 0x65A JUMPI PUSH1 0x3F NOT DUP9 DUP7 SUB ADD DUP5 MSTORE PUSH2 0x648 DUP6 DUP4 MLOAD PUSH2 0x5D9 JUMP JUMPDEST SWAP5 POP SWAP3 DUP6 ADD SWAP3 SWAP1 DUP6 ADD SWAP1 PUSH1 0x1 ADD PUSH2 0x62C JUMP JUMPDEST POP SWAP3 SWAP8 SWAP7 POP POP POP POP POP POP POP JUMP JUMPDEST PUSH1 0x1 PUSH1 0x1 PUSH1 0xA0 SHL SUB DUP2 AND DUP2 EQ PUSH2 0x67C JUMPI PUSH1 0x0 DUP1 REVERT JUMPDEST POP JUMP JUMPDEST DUP1 CALLDATALOAD PUSH1 0x4 DUP2 LT PUSH2 0x68E JUMPI PUSH1 0x0 DUP1 REVERT JUMPDEST SWAP2 SWAP1 POP JUMP JUMPDEST PUSH1 0x0 DUP1 PUSH1 0x40 DUP4 DUP6 SUB SLT ISZERO PUSH2 0x6A6 JUMPI PUSH1 0x0 DUP1 REVERT JUMPDEST DUP3 CALLDATALOAD PUSH2 0x6B1 DUP2 PUSH2 0x667 JUMP JUMPDEST SWAP2 POP PUSH2 0x6BF PUSH1 0x20 DUP5 ADD PUSH2 0x67F JUMP JUMPDEST SWAP1 POP SWAP3 POP SWAP3 SWAP1 POP JUMP JUMPDEST PUSH1 0x0 DUP1 PUSH1 0x0 PUSH1 0x60 DUP5 DUP7 SUB SLT ISZERO PUSH2 0x6DD JUMPI PUSH1 0x0 DUP1 REVERT JUMPDEST DUP4 CALLDATALOAD PUSH2 0x6E8 DUP2 PUSH2 0x667 JUMP JUMPDEST SWAP3 POP PUSH2 0x6F6 PUSH1 0x20 DUP6 ADD PUSH2 0x67F JUMP JUMPDEST SWAP2 POP PUSH1 0x40 DUP5 ADD CALLDATALOAD DUP1 ISZERO ISZERO DUP2 EQ PUSH2 0x70B JUMPI PUSH1 0x0 DUP1 REVERT JUMPDEST DUP1 SWAP2 POP POP SWAP3 POP SWAP3 POP SWAP3 JUMP JUMPDEST PUSH1 0x20 DUP2 MSTORE PUSH1 0x0 PUSH2 0x18B PUSH1 0x20 DUP4 ADD DUP5 PUSH2 0x5D9 JUMP JUMPDEST PUSH1 0x0 PUSH1 0x20 DUP3 DUP5 SUB SLT ISZERO PUSH2 0x73B JUMPI PUSH1 0x0 DUP1 REVERT JUMPDEST DUP2 MLOAD PUSH2 0x18B DUP2 PUSH2 0x667 JUMP JUMPDEST PUSH1 0x0 PUSH1 0x20 DUP1 DUP4 DUP6 SUB SLT ISZERO PUSH2 0x759 JUMPI PUSH1 0x0 DUP1 REVERT JUMPDEST DUP3 MLOAD PUSH8 0xFFFFFFFFFFFFFFFF DUP1 DUP3 GT ISZERO PUSH2 0x771 JUMPI PUSH1 0x0 DUP1 REVERT JUMPDEST DUP2 DUP6 ADD SWAP2 POP DUP6 PUSH1 0x1F DUP4 ADD SLT PUSH2 0x785 JUMPI PUSH1 0x0 DUP1 REVERT JUMPDEST DUP2 MLOAD DUP2 DUP2 GT ISZERO PUSH2 0x797 JUMPI PUSH2 0x797 PUSH2 0x44F JUMP JUMPDEST DUP1 PUSH1 0x5 SHL PUSH2 0x7A6 DUP6 DUP3 ADD PUSH2 0x465 JUMP JUMPDEST SWAP2 DUP3 MSTORE DUP4 DUP2 ADD DUP6 ADD SWAP2 DUP6 DUP2 ADD SWAP1 DUP10 DUP5 GT ISZERO PUSH2 0x7C0 JUMPI PUSH1 0x0 DUP1 REVERT JUMPDEST DUP7 DUP7 ADD SWAP3 POP JUMPDEST DUP4 DUP4 LT ISZERO PUSH2 0x838 JUMPI DUP3 MLOAD DUP6 DUP2 GT ISZERO PUSH2 0x7DE JUMPI PUSH1 0x0 DUP1 DUP2 REVERT JUMPDEST DUP7 ADD PUSH1 0x3F DUP2 ADD DUP12 SGT PUSH2 0x7F0 JUMPI PUSH1 0x0 DUP1 DUP2 REVERT JUMPDEST DUP8 DUP2 ADD MLOAD PUSH1 0x40 PUSH2 0x802 PUSH2 0x4DD DUP4 PUSH2 0x496 JUMP JUMPDEST DUP3 DUP2 MSTORE DUP14 DUP3 DUP5 DUP7 ADD ADD GT ISZERO PUSH2 0x817 JUMPI PUSH1 0x0 DUP1 DUP2 REVERT JUMPDEST PUSH2 0x826 DUP4 DUP13 DUP4 ADD DUP5 DUP8 ADD PUSH2 0x5B5 JUMP JUMPDEST DUP6 MSTORE POP POP POP SWAP2 DUP7 ADD SWAP2 SWAP1 DUP7 ADD SWAP1 PUSH2 0x7C6 JUMP JUMPDEST SWAP10 SWAP9 POP POP POP POP POP POP POP POP POP JUMP JUMPDEST PUSH4 0x4E487B71 PUSH1 0xE0 SHL PUSH1 0x0 MSTORE PUSH1 0x21 PUSH1 0x4 MSTORE PUSH1 0x24 PUSH1 0x0 REVERT INVALID LOG2 PUSH5 0x6970667358 0x22 SLT KECCAK256 LOG0 0xAF 0xE5 0xC1 0xCE CODESIZE 0xE1 0xDA 0xFB PUSH3 0xEFE220 DELEGATECALL 0xE9 BALANCE 0xCA SWAP13 0xEE 0xC6 0xEB PC SAR 0x5F 0xC4 0xD5 0x26 PUSH20 0x651CC43764736F6C634300081300330000000000 ",
  "sha1": "3cd5fa47d77272c89a27ac1bbd182be288abe4ba",
  "source": "//SPDX-License-Identifier: MIT\n\npragma solidity >=0.6.0 <=0.9.0;\n\nimport \"./CarFactory.sol\";\n\ncontract AutomobileRegistrationSystem{\n\n    //List of roles\n    enum Role{\n        Manufacturer, //0\n        State, //1\n        Center, //2\n        Insurance //3\n    }\n\n    modifier isDeployer(){\n        require(systemDeployer == msg.sender, \"You're not the owner, aborting\");\n        _;\n    }\n\n    modifier isManufacturer(bool hasAccess){\n        require(hasAccess, \"Permission denied, you must be a manifactor!\");\n        _;\n    }\n\n    address systemDeployer;\n\n    CarFactory carFactory;\n    //Accounts account;\n\n    mapping(address => mapping(Role => bool)) canAccess; //Instead of creating a mapping for each role, I thought it could be a great idea to create only one mapping of a mapping that sets the role of every address given\n\n    \n    constructor(){\n        systemDeployer = msg.sender;    \n        carFactory = new CarFactory();\n        //account = new Accounts();\n    }\n\n\n    function setRole(address _for, Role _role, bool _roleStatus) public isDeployer{\n        canAccess[_for][_role] = _roleStatus;\n    }\n\n    //Getting the roles of the accounts\n    function getAccountRole(address _of, Role _role) public view isDeployer returns(bool){\n        return canAccess[_of][_role];\n    }\n\n    function createCar(string memory _niv) public /*isManufacturer(canAccess[msg.sender][Role.Manufacturer])*/{\n        carFactory.createCarMapping(_niv); \n    }\n\n    function addAccident(string memory _niv, string memory _accident) public {\n        Car car = getCar(_niv);\n        car.addAccident(_accident);\n    }\n\n    function getAccidentsList(string memory _niv) public view returns (string[] memory){\n        Car car = getCar(_niv);        \n        return car.accidentsList();\n    }\n\n    function getCar(string memory _niv) public view returns(Car){\n        Car car = carFactory.carListMapping(_niv);\n        return car;\n    }\n}",
  "sourcePath": "contracts/AutomobileRegistrationSystem.sol",
  "type": "contract"
}