{
  "abi": [
    {
      "inputs": [
        {
          "internalType": "string",
          "name": "_niv",
          "type": "string"
        }
      ],
      "stateMutability": "nonpayable",
      "type": "constructor"
    },
    {
      "inputs": [],
      "name": "accidentsList",
      "outputs": [
        {
          "internalType": "string[]",
          "name": "",
          "type": "string[]"
        }
      ],
      "stateMutability": "view",
      "type": "function"
    },
    {
      "inputs": [
        {
          "internalType": "string",
          "name": "_accident",
          "type": "string"
        }
      ],
      "name": "addAccident",
      "outputs": [],
      "stateMutability": "nonpayable",
      "type": "function"
    }
  ],
  "bytecode": "608060405234801561001057600080fd5b506040516106e33803806106e383398101604081905261002f91610064565b600061003b82826101b6565b50506001805460ff191681179055610275565b634e487b7160e01b600052604160045260246000fd5b6000602080838503121561007757600080fd5b82516001600160401b038082111561008e57600080fd5b818501915085601f8301126100a257600080fd5b8151818111156100b4576100b461004e565b604051601f8201601f19908116603f011681019083821181831017156100dc576100dc61004e565b8160405282815288868487010111156100f457600080fd5b600093505b8284101561011657848401860151818501870152928501926100f9565b600086848301015280965050505050505092915050565b600181811c9082168061014157607f821691505b60208210810361016157634e487b7160e01b600052602260045260246000fd5b50919050565b601f8211156101b157600081815260208120601f850160051c8101602086101561018e5750805b601f850160051c820191505b818110156101ad5782815560010161019a565b5050505b505050565b81516001600160401b038111156101cf576101cf61004e565b6101e3816101dd845461012d565b84610167565b602080601f83116001811461021857600084156102005750858301515b600019600386901b1c1916600185901b1785556101ad565b600085815260208120601f198616915b8281101561024757888601518255948401946001909101908401610228565b50858210156102655787850151600019600388901b60f8161c191681555b5050505050600190811b01905550565b61045f806102846000396000f3fe608060405234801561001057600080fd5b50600436106100365760003560e01c8063134044a11461003b578063bd51b8e014610050575b600080fd5b61004e61004936600461019d565b61006e565b005b6100586100ae565b604051610065919061024e565b60405180910390f35b600280546001810182556000919091527f405787fa12a823e0f2b7631cc41b3ba8828b3321ca811111fa75cd3aa3bb5ace016100aa8282610369565b5050565b60606002805480602002602001604051908101604052809291908181526020016000905b8282101561017e5783829060005260206000200180546100f1906102e0565b80601f016020809104026020016040519081016040528092919081815260200182805461011d906102e0565b801561016a5780601f1061013f5761010080835404028352916020019161016a565b820191906000526020600020905b81548152906001019060200180831161014d57829003601f168201915b5050505050815260200190600101906100d2565b50505050905090565b634e487b7160e01b600052604160045260246000fd5b6000602082840312156101af57600080fd5b813567ffffffffffffffff808211156101c757600080fd5b818401915084601f8301126101db57600080fd5b8135818111156101ed576101ed610187565b604051601f8201601f19908116603f0116810190838211818310171561021557610215610187565b8160405282815287602084870101111561022e57600080fd5b826020860160208301376000928101602001929092525095945050505050565b6000602080830181845280855180835260408601915060408160051b87010192508387016000805b838110156102d257888603603f1901855282518051808852835b818110156102ab578281018a01518982018b01528901610290565b508781018901849052601f01601f1916909601870195509386019391860191600101610276565b509398975050505050505050565b600181811c908216806102f457607f821691505b60208210810361031457634e487b7160e01b600052602260045260246000fd5b50919050565b601f82111561036457600081815260208120601f850160051c810160208610156103415750805b601f850160051c820191505b818110156103605782815560010161034d565b5050505b505050565b815167ffffffffffffffff81111561038357610383610187565b6103978161039184546102e0565b8461031a565b602080601f8311600181146103cc57600084156103b45750858301515b600019600386901b1c1916600185901b178555610360565b600085815260208120601f198616915b828110156103fb578886015182559484019460019091019084016103dc565b50858210156104195787850151600019600388901b60f8161c191681555b5050505050600190811b0190555056fea264697066735822122035af960d15afef54d4f43bb12df0046a1b08c2b8c93c3f623cf54afe95ad27a464736f6c63430008130033",
  "bytecodeSha1": "d3f484f239d3c59986a5fe8cff6da961ab7e6e29",
  "compiler": {
    "evm_version": "istanbul",
    "optimizer": {
      "enabled": true,
      "runs": 200
    },
    "version": "0.8.19+commit.7dd6d404"
  },
  "contractName": "Car",
  "language": "Solidity",
  "natspec": {
    "kind": "dev",
    "methods": {},
    "version": 1
  },
  "opcodes": "PUSH1 0x80 PUSH1 0x40 MSTORE CALLVALUE DUP1 ISZERO PUSH2 0x10 JUMPI PUSH1 0x0 DUP1 REVERT JUMPDEST POP PUSH1 0x4 CALLDATASIZE LT PUSH2 0x36 JUMPI PUSH1 0x0 CALLDATALOAD PUSH1 0xE0 SHR DUP1 PUSH4 0x134044A1 EQ PUSH2 0x3B JUMPI DUP1 PUSH4 0xBD51B8E0 EQ PUSH2 0x50 JUMPI JUMPDEST PUSH1 0x0 DUP1 REVERT JUMPDEST PUSH2 0x4E PUSH2 0x49 CALLDATASIZE PUSH1 0x4 PUSH2 0x19D JUMP JUMPDEST PUSH2 0x6E JUMP JUMPDEST STOP JUMPDEST PUSH2 0x58 PUSH2 0xAE JUMP JUMPDEST PUSH1 0x40 MLOAD PUSH2 0x65 SWAP2 SWAP1 PUSH2 0x24E JUMP JUMPDEST PUSH1 0x40 MLOAD DUP1 SWAP2 SUB SWAP1 RETURN JUMPDEST PUSH1 0x2 DUP1 SLOAD PUSH1 0x1 DUP2 ADD DUP3 SSTORE PUSH1 0x0 SWAP2 SWAP1 SWAP2 MSTORE PUSH32 0x405787FA12A823E0F2B7631CC41B3BA8828B3321CA811111FA75CD3AA3BB5ACE ADD PUSH2 0xAA DUP3 DUP3 PUSH2 0x369 JUMP JUMPDEST POP POP JUMP JUMPDEST PUSH1 0x60 PUSH1 0x2 DUP1 SLOAD DUP1 PUSH1 0x20 MUL PUSH1 0x20 ADD PUSH1 0x40 MLOAD SWAP1 DUP2 ADD PUSH1 0x40 MSTORE DUP1 SWAP3 SWAP2 SWAP1 DUP2 DUP2 MSTORE PUSH1 0x20 ADD PUSH1 0x0 SWAP1 JUMPDEST DUP3 DUP3 LT ISZERO PUSH2 0x17E JUMPI DUP4 DUP3 SWAP1 PUSH1 0x0 MSTORE PUSH1 0x20 PUSH1 0x0 KECCAK256 ADD DUP1 SLOAD PUSH2 0xF1 SWAP1 PUSH2 0x2E0 JUMP JUMPDEST DUP1 PUSH1 0x1F ADD PUSH1 0x20 DUP1 SWAP2 DIV MUL PUSH1 0x20 ADD PUSH1 0x40 MLOAD SWAP1 DUP2 ADD PUSH1 0x40 MSTORE DUP1 SWAP3 SWAP2 SWAP1 DUP2 DUP2 MSTORE PUSH1 0x20 ADD DUP3 DUP1 SLOAD PUSH2 0x11D SWAP1 PUSH2 0x2E0 JUMP JUMPDEST DUP1 ISZERO PUSH2 0x16A JUMPI DUP1 PUSH1 0x1F LT PUSH2 0x13F JUMPI PUSH2 0x100 DUP1 DUP4 SLOAD DIV MUL DUP4 MSTORE SWAP2 PUSH1 0x20 ADD SWAP2 PUSH2 0x16A JUMP JUMPDEST DUP3 ADD SWAP2 SWAP1 PUSH1 0x0 MSTORE PUSH1 0x20 PUSH1 0x0 KECCAK256 SWAP1 JUMPDEST DUP2 SLOAD DUP2 MSTORE SWAP1 PUSH1 0x1 ADD SWAP1 PUSH1 0x20 ADD DUP1 DUP4 GT PUSH2 0x14D JUMPI DUP3 SWAP1 SUB PUSH1 0x1F AND DUP3 ADD SWAP2 JUMPDEST POP POP POP POP POP DUP2 MSTORE PUSH1 0x20 ADD SWAP1 PUSH1 0x1 ADD SWAP1 PUSH2 0xD2 JUMP JUMPDEST POP POP POP POP SWAP1 POP SWAP1 JUMP JUMPDEST PUSH4 0x4E487B71 PUSH1 0xE0 SHL PUSH1 0x0 MSTORE PUSH1 0x41 PUSH1 0x4 MSTORE PUSH1 0x24 PUSH1 0x0 REVERT JUMPDEST PUSH1 0x0 PUSH1 0x20 DUP3 DUP5 SUB SLT ISZERO PUSH2 0x1AF JUMPI PUSH1 0x0 DUP1 REVERT JUMPDEST DUP2 CALLDATALOAD PUSH8 0xFFFFFFFFFFFFFFFF DUP1 DUP3 GT ISZERO PUSH2 0x1C7 JUMPI PUSH1 0x0 DUP1 REVERT JUMPDEST DUP2 DUP5 ADD SWAP2 POP DUP5 PUSH1 0x1F DUP4 ADD SLT PUSH2 0x1DB JUMPI PUSH1 0x0 DUP1 REVERT JUMPDEST DUP2 CALLDATALOAD DUP2 DUP2 GT ISZERO PUSH2 0x1ED JUMPI PUSH2 0x1ED PUSH2 0x187 JUMP JUMPDEST PUSH1 0x40 MLOAD PUSH1 0x1F DUP3 ADD PUSH1 0x1F NOT SWAP1 DUP2 AND PUSH1 0x3F ADD AND DUP2 ADD SWAP1 DUP4 DUP3 GT DUP2 DUP4 LT OR ISZERO PUSH2 0x215 JUMPI PUSH2 0x215 PUSH2 0x187 JUMP JUMPDEST DUP2 PUSH1 0x40 MSTORE DUP3 DUP2 MSTORE DUP8 PUSH1 0x20 DUP5 DUP8 ADD ADD GT ISZERO PUSH2 0x22E JUMPI PUSH1 0x0 DUP1 REVERT JUMPDEST DUP3 PUSH1 0x20 DUP7 ADD PUSH1 0x20 DUP4 ADD CALLDATACOPY PUSH1 0x0 SWAP3 DUP2 ADD PUSH1 0x20 ADD SWAP3 SWAP1 SWAP3 MSTORE POP SWAP6 SWAP5 POP POP POP POP POP JUMP JUMPDEST PUSH1 0x0 PUSH1 0x20 DUP1 DUP4 ADD DUP2 DUP5 MSTORE DUP1 DUP6 MLOAD DUP1 DUP4 MSTORE PUSH1 0x40 DUP7 ADD SWAP2 POP PUSH1 0x40 DUP2 PUSH1 0x5 SHL DUP8 ADD ADD SWAP3 POP DUP4 DUP8 ADD PUSH1 0x0 DUP1 JUMPDEST DUP4 DUP2 LT ISZERO PUSH2 0x2D2 JUMPI DUP9 DUP7 SUB PUSH1 0x3F NOT ADD DUP6 MSTORE DUP3 MLOAD DUP1 MLOAD DUP1 DUP9 MSTORE DUP4 JUMPDEST DUP2 DUP2 LT ISZERO PUSH2 0x2AB JUMPI DUP3 DUP2 ADD DUP11 ADD MLOAD DUP10 DUP3 ADD DUP12 ADD MSTORE DUP10 ADD PUSH2 0x290 JUMP JUMPDEST POP DUP8 DUP2 ADD DUP10 ADD DUP5 SWAP1 MSTORE PUSH1 0x1F ADD PUSH1 0x1F NOT AND SWAP1 SWAP7 ADD DUP8 ADD SWAP6 POP SWAP4 DUP7 ADD SWAP4 SWAP2 DUP7 ADD SWAP2 PUSH1 0x1 ADD PUSH2 0x276 JUMP JUMPDEST POP SWAP4 SWAP9 SWAP8 POP POP POP POP POP POP POP POP JUMP JUMPDEST PUSH1 0x1 DUP2 DUP2 SHR SWAP1 DUP3 AND DUP1 PUSH2 0x2F4 JUMPI PUSH1 0x7F DUP3 AND SWAP2 POP JUMPDEST PUSH1 0x20 DUP3 LT DUP2 SUB PUSH2 0x314 JUMPI PUSH4 0x4E487B71 PUSH1 0xE0 SHL PUSH1 0x0 MSTORE PUSH1 0x22 PUSH1 0x4 MSTORE PUSH1 0x24 PUSH1 0x0 REVERT JUMPDEST POP SWAP2 SWAP1 POP JUMP JUMPDEST PUSH1 0x1F DUP3 GT ISZERO PUSH2 0x364 JUMPI PUSH1 0x0 DUP2 DUP2 MSTORE PUSH1 0x20 DUP2 KECCAK256 PUSH1 0x1F DUP6 ADD PUSH1 0x5 SHR DUP2 ADD PUSH1 0x20 DUP7 LT ISZERO PUSH2 0x341 JUMPI POP DUP1 JUMPDEST PUSH1 0x1F DUP6 ADD PUSH1 0x5 SHR DUP3 ADD SWAP2 POP JUMPDEST DUP2 DUP2 LT ISZERO PUSH2 0x360 JUMPI DUP3 DUP2 SSTORE PUSH1 0x1 ADD PUSH2 0x34D JUMP JUMPDEST POP POP POP JUMPDEST POP POP POP JUMP JUMPDEST DUP2 MLOAD PUSH8 0xFFFFFFFFFFFFFFFF DUP2 GT ISZERO PUSH2 0x383 JUMPI PUSH2 0x383 PUSH2 0x187 JUMP JUMPDEST PUSH2 0x397 DUP2 PUSH2 0x391 DUP5 SLOAD PUSH2 0x2E0 JUMP JUMPDEST DUP5 PUSH2 0x31A JUMP JUMPDEST PUSH1 0x20 DUP1 PUSH1 0x1F DUP4 GT PUSH1 0x1 DUP2 EQ PUSH2 0x3CC JUMPI PUSH1 0x0 DUP5 ISZERO PUSH2 0x3B4 JUMPI POP DUP6 DUP4 ADD MLOAD JUMPDEST PUSH1 0x0 NOT PUSH1 0x3 DUP7 SWAP1 SHL SHR NOT AND PUSH1 0x1 DUP6 SWAP1 SHL OR DUP6 SSTORE PUSH2 0x360 JUMP JUMPDEST PUSH1 0x0 DUP6 DUP2 MSTORE PUSH1 0x20 DUP2 KECCAK256 PUSH1 0x1F NOT DUP7 AND SWAP2 JUMPDEST DUP3 DUP2 LT ISZERO PUSH2 0x3FB JUMPI DUP9 DUP7 ADD MLOAD DUP3 SSTORE SWAP5 DUP5 ADD SWAP5 PUSH1 0x1 SWAP1 SWAP2 ADD SWAP1 DUP5 ADD PUSH2 0x3DC JUMP JUMPDEST POP DUP6 DUP3 LT ISZERO PUSH2 0x419 JUMPI DUP8 DUP6 ADD MLOAD PUSH1 0x0 NOT PUSH1 0x3 DUP9 SWAP1 SHL PUSH1 0xF8 AND SHR NOT AND DUP2 SSTORE JUMPDEST POP POP POP POP POP PUSH1 0x1 SWAP1 DUP2 SHL ADD SWAP1 SSTORE POP JUMP INVALID LOG2 PUSH5 0x6970667358 0x22 SLT KECCAK256 CALLDATALOAD 0xAF SWAP7 0xD ISZERO 0xAF 0xEF SLOAD 0xD4 DELEGATECALL EXTCODESIZE 0xB1 0x2D CREATE DIV PUSH11 0x1B08C2B8C93C3F623CF54A INVALID SWAP6 0xAD 0x27 LOG4 PUSH5 0x736F6C6343 STOP ADDMOD SGT STOP CALLER ",
  "sha1": "3e0f68eadd808edc2da6a257ab0b73b64490378e",
  "source": "//SPDX-License-Identifier: MIT\n\npragma solidity >=0.6.0 <=0.9.0;\n\ncontract Car{\n\n    string niv;\n    bool exists;\n    string[] accidents;\n\n    constructor(string memory _niv){\n        niv = _niv;\n        exists = true;\n    }\n\n    function addAccident(string memory _accident) public {\n        accidents.push(_accident);\n    }\n\n    function accidentsList() public view returns (string[] memory) {\n        return accidents;\n    }\n}",
  "sourcePath": "contracts/Car.sol",
  "type": "contract"
}